{"contracts/Bridge.sol":{"Bridge":{"abi":[{"inputs":[],"stateMutability":"nonpayable","type":"constructor"},{"inputs":[],"name":"Bridge__FundsCannotBeZero","type":"error"},{"inputs":[],"name":"Bridge__InsufficientBalance","type":"error"},{"inputs":[],"name":"Bridge__NotAllowedToDoThisAction","type":"error"},{"inputs":[],"name":"Bridge__TokenNameEmpty","type":"error"},{"inputs":[],"name":"Bridge__TokenSymbolEmpty","type":"error"},{"inputs":[],"name":"Bridge__WrapTokenDoesNotExist","type":"error"},{"inputs":[],"name":"Bridge__ZeroAddressProvided","type":"error"},{"anonymous":false,"inputs":[{"indexed":true,"internalType":"address","name":"user","type":"address"},{"indexed":false,"internalType":"address","name":"tokenAddress","type":"address"},{"indexed":false,"internalType":"uint256","name":"amount","type":"uint256"},{"indexed":true,"internalType":"uint256","name":"chainId","type":"uint256"},{"indexed":false,"internalType":"uint256","name":"timestamp","type":"uint256"}],"name":"BurnedToken","type":"event"},{"anonymous":false,"inputs":[{"indexed":false,"internalType":"uint256","name":"fee","type":"uint256"}],"name":"FeeUpdated","type":"event"},{"anonymous":false,"inputs":[{"indexed":true,"internalType":"bytes32","name":"role","type":"bytes32"},{"indexed":true,"internalType":"bytes32","name":"previousAdminRole","type":"bytes32"},{"indexed":true,"internalType":"bytes32","name":"newAdminRole","type":"bytes32"}],"name":"RoleAdminChanged","type":"event"},{"anonymous":false,"inputs":[{"indexed":true,"internalType":"bytes32","name":"role","type":"bytes32"},{"indexed":true,"internalType":"address","name":"account","type":"address"},{"indexed":true,"internalType":"address","name":"sender","type":"address"}],"name":"RoleGranted","type":"event"},{"anonymous":false,"inputs":[{"indexed":true,"internalType":"bytes32","name":"role","type":"bytes32"},{"indexed":true,"internalType":"address","name":"account","type":"address"},{"indexed":true,"internalType":"address","name":"sender","type":"address"}],"name":"RoleRevoked","type":"event"},{"anonymous":false,"inputs":[{"indexed":true,"internalType":"address","name":"user","type":"address"},{"indexed":false,"internalType":"address","name":"tokenAddress","type":"address"},{"indexed":false,"internalType":"uint256","name":"amount","type":"uint256"},{"indexed":true,"internalType":"uint256","name":"chainId","type":"uint256"},{"indexed":false,"internalType":"uint256","name":"timestamp","type":"uint256"},{"indexed":true,"internalType":"string","name":"tokenSymbol","type":"string"},{"indexed":false,"internalType":"string","name":"tokenName","type":"string"}],"name":"TokenMinted","type":"event"},{"anonymous":false,"inputs":[{"indexed":true,"internalType":"address","name":"user","type":"address"},{"indexed":true,"internalType":"address","name":"tokenAddress","type":"address"},{"indexed":false,"internalType":"uint256","name":"sourceChainId","type":"uint256"},{"indexed":false,"internalType":"uint256","name":"amount","type":"uint256"},{"indexed":false,"internalType":"uint256","name":"fee","type":"uint256"},{"indexed":false,"internalType":"uint256","name":"timestamp","type":"uint256"},{"indexed":true,"internalType":"uint256","name":"targetChainId","type":"uint256"}],"name":"TransferInitiated","type":"event"},{"anonymous":false,"inputs":[{"indexed":true,"internalType":"address","name":"user","type":"address"},{"indexed":false,"internalType":"address","name":"nativeTokenAddress","type":"address"},{"indexed":false,"internalType":"uint256","name":"amount","type":"uint256"},{"indexed":true,"internalType":"uint256","name":"chainId","type":"uint256"},{"indexed":false,"internalType":"uint256","name":"timestamp","type":"uint256"}],"name":"UnWrappedToken","type":"event"},{"inputs":[],"name":"DEFAULT_ADMIN_ROLE","outputs":[{"internalType":"bytes32","name":"","type":"bytes32"}],"stateMutability":"view","type":"function"},{"inputs":[],"name":"RELAYER","outputs":[{"internalType":"bytes32","name":"","type":"bytes32"}],"stateMutability":"view","type":"function"},{"inputs":[{"internalType":"string","name":"_symbol","type":"string"},{"internalType":"uint256","name":"_amount","type":"uint256"},{"internalType":"address","name":"_user","type":"address"}],"name":"burnWrappedToken","outputs":[],"stateMutability":"nonpayable","type":"function"},{"inputs":[{"internalType":"string","name":"_symbol","type":"string"},{"internalType":"uint256","name":"_amount","type":"uint256"},{"internalType":"address","name":"_user","type":"address"},{"internalType":"uint256","name":"_deadline","type":"uint256"},{"internalType":"uint8","name":"_v","type":"uint8"},{"internalType":"bytes32","name":"_r","type":"bytes32"},{"internalType":"bytes32","name":"_s","type":"bytes32"}],"name":"burnWrappedTokenWithPermit","outputs":[],"stateMutability":"nonpayable","type":"function"},{"inputs":[],"name":"factory","outputs":[{"internalType":"contract WERC20Factory","name":"","type":"address"}],"stateMutability":"view","type":"function"},{"inputs":[],"name":"fee","outputs":[{"internalType":"uint256","name":"","type":"uint256"}],"stateMutability":"view","type":"function"},{"inputs":[{"internalType":"bytes32","name":"role","type":"bytes32"}],"name":"getRoleAdmin","outputs":[{"internalType":"bytes32","name":"","type":"bytes32"}],"stateMutability":"view","type":"function"},{"inputs":[{"internalType":"bytes32","name":"role","type":"bytes32"},{"internalType":"address","name":"account","type":"address"}],"name":"grantRole","outputs":[],"stateMutability":"nonpayable","type":"function"},{"inputs":[{"internalType":"bytes32","name":"role","type":"bytes32"},{"internalType":"address","name":"account","type":"address"}],"name":"hasRole","outputs":[{"internalType":"bool","name":"","type":"bool"}],"stateMutability":"view","type":"function"},{"inputs":[{"internalType":"address","name":"_user","type":"address"},{"internalType":"address","name":"_tokenAddress","type":"address"},{"internalType":"uint256","name":"_targetChainId","type":"uint256"},{"internalType":"uint256","name":"_amount","type":"uint256"}],"name":"initiateTransfer","outputs":[],"stateMutability":"nonpayable","type":"function"},{"inputs":[{"internalType":"address","name":"_user","type":"address"},{"internalType":"address","name":"_tokenAddress","type":"address"},{"internalType":"uint256","name":"_targetChainId","type":"uint256"},{"internalType":"uint256","name":"_amount","type":"uint256"},{"internalType":"uint256","name":"_deadline","type":"uint256"},{"internalType":"uint8","name":"_v","type":"uint8"},{"internalType":"bytes32","name":"_r","type":"bytes32"},{"internalType":"bytes32","name":"_s","type":"bytes32"}],"name":"initiateTransferWithPermit","outputs":[],"stateMutability":"nonpayable","type":"function"},{"inputs":[{"internalType":"string","name":"_symbol","type":"string"},{"internalType":"string","name":"_tokenName","type":"string"},{"internalType":"address","name":"_to","type":"address"},{"internalType":"address","name":"_tokenAddress","type":"address"},{"internalType":"uint256","name":"_amount","type":"uint256"}],"name":"mintToken","outputs":[],"stateMutability":"nonpayable","type":"function"},{"inputs":[{"internalType":"bytes32","name":"role","type":"bytes32"},{"internalType":"address","name":"account","type":"address"}],"name":"renounceRole","outputs":[],"stateMutability":"nonpayable","type":"function"},{"inputs":[{"internalType":"bytes32","name":"role","type":"bytes32"},{"internalType":"address","name":"account","type":"address"}],"name":"revokeRole","outputs":[],"stateMutability":"nonpayable","type":"function"},{"inputs":[{"internalType":"uint256","name":"_fee","type":"uint256"}],"name":"setFee","outputs":[],"stateMutability":"nonpayable","type":"function"},{"inputs":[{"internalType":"bytes4","name":"interfaceId","type":"bytes4"}],"name":"supportsInterface","outputs":[{"internalType":"bool","name":"","type":"bool"}],"stateMutability":"view","type":"function"},{"inputs":[{"internalType":"address","name":"_to","type":"address"},{"internalType":"address","name":"_nativeTokenAddress","type":"address"},{"internalType":"uint256","name":"_amount","type":"uint256"}],"name":"unWrapToken","outputs":[],"stateMutability":"nonpayable","type":"function"},{"inputs":[{"internalType":"address","name":"","type":"address"}],"name":"wrappedToNative","outputs":[{"internalType":"address","name":"","type":"address"}],"stateMutability":"view","type":"function"}],"evm":{"bytecode":{"linkReferences":{},"object":"608060405266038d7ea4c680006002553480156200001c57600080fd5b506200002a6000336200007c565b60405162000038906200011d565b604051809103906000f08015801562000055573d6000803e3d6000fd5b50600180546001600160a01b0319166001600160a01b03929092169190911790556200012b565b6000828152602081815260408083206001600160a01b038516845290915290205460ff1662000119576000828152602081815260408083206001600160a01b03851684529091529020805460ff19166001179055620000d83390565b6001600160a01b0316816001600160a01b0316837f2f8788117e7eff1d82e926ec794901d17c78024a50270940304540a733656f0d60405160405180910390a45b5050565b6134ec806200205283390190565b611f17806200013b6000396000f3fe608060405234801561001057600080fd5b50600436106101165760003560e01c8063a217fddf116100a2578063c45a015511610071578063c45a015514610297578063d547741f146102b7578063d5afd6f6146102ca578063ddca3f43146102dd578063e4f7e720146102e657600080fd5b8063a217fddf14610233578063a5e83bcb1461023b578063b853999614610271578063c0499d9a1461028457600080fd5b806336568abe116100e957806336568abe146101b057806369fe0e2d146101c357806391d14854146101d657806399472c331461020d5780639d5777f91461022057600080fd5b806301ffc9a71461011b5780632483e71514610144578063248a9ca3146101785780632f2ff15d1461019b575b600080fd5b61012e6101293660046114f6565b6102f9565b60405161013b9190611529565b60405180910390f35b61016b7fab4f864e5201b0fde9b5ee3e4cf96384802b0ffdfcf7f9de4699ce21a30afc4f81565b60405161013b919061153d565b61016b61018636600461155c565b60009081526020819052604090206001015490565b6101ae6101a93660046115a2565b610330565b005b6101ae6101be3660046115a2565b61035a565b6101ae6101d136600461155c565b610399565b61012e6101e43660046115a2565b6000918252602082815260408084206001600160a01b0393909316845291905290205460ff1690565b6101ae61021b3660046115df565b610428565b6101ae61022e36600461173e565b61056b565b61016b600081565b6102646102493660046117a8565b6003602052600090815260409020546001600160a01b031681565b60405161013b91906117d2565b6101ae61027f3660046117f4565b610803565b6101ae6102923660046118a7565b6109b4565b6001546102aa906001600160a01b031681565b60405161013b919061190c565b6101ae6102c53660046115a2565b610b35565b6101ae6102d836600461191a565b610b5a565b61016b60025481565b6101ae6102f43660046119d3565b610dfe565b60006001600160e01b03198216637965db0b60e01b148061032a57506301ffc9a760e01b6001600160e01b03198316145b92915050565b60008281526020819052604090206001015461034b816111a5565b61035583836111b2565b505050565b6001600160a01b038116331461038b5760405162461bcd60e51b815260040161038290611a80565b60405180910390fd5b6103958282611250565b5050565b3360009081527fad3228b676f7d3cd4284a5443f17f1962b36e491b30a40b2405849e597ba5fb5602052604090205460ff166103e857604051633e78b92160e01b815260040160405180910390fd5b60028190556040517f8c4d35e54a3f2ef1134138fd8ea3daee6a3c89e10d2665996babdf70261e2c769061041d90839061153d565b60405180910390a150565b836001600160a01b03811661045057604051634f0ff8a560e11b815260040160405180910390fd5b836001600160a01b03811661047857604051634f0ff8a560e11b815260040160405180910390fd5b828060000361049a5760405163eb9365e760e01b815260040160405180910390fd5b6040516323b872dd60e01b81526001600160a01b038716906323b872dd906104ca908a9030908990600401611ae1565b6020604051808303816000875af11580156104e9573d6000803e3d6000fd5b505050506040513d601f19601f8201168201806040525081019061050d9190611b1c565b5084866001600160a01b0316886001600160a01b03167f7c640dc4b99abc9030f33ecd8184a0d9422bd4919dc19090f82cae7ab4bb90bb46886002544260405161055a9493929190611b3d565b60405180910390a450505050505050565b818060000361058d5760405163eb9365e760e01b815260040160405180910390fd5b816001600160a01b0381166105b557604051634f0ff8a560e11b815260040160405180910390fd5b604080516020808201909252600090528551908601207f3a2db9fe7908dcc36d81824d2338fc3f1aff49ac357dd8c4840527fba27a5b900161060a576040516329ed017b60e11b815260040160405180910390fd5b6001546040516318c04bbb60e01b81526000916001600160a01b0316906318c04bbb9061063b908990600401611bd1565b602060405180830381865afa158015610658573d6000803e3d6000fd5b505050506040513d601f19601f8201168201806040525081019061067c9190611bed565b90506001600160a01b0381166106a5576040516366b2cecf60e11b815260040160405180910390fd5b6001546040516302018c2960e11b81526000916001600160a01b0316906304031852906106d8908a903390600401611c0e565b602060405180830381865afa1580156106f5573d6000803e3d6000fd5b505050506040513d601f19601f820116820180604052508101906107199190611c39565b90508581101561073c576040516316a1a6ab60e11b815260040160405180910390fd5b600154604051633dae446f60e21b81526001600160a01b039091169063f6b911bc9061077090859089908b90600401611ae1565b6020604051808303816000875af115801561078f573d6000803e3d6000fd5b505050506040513d601f19601f820116820180604052508101906107b39190611b1c565b5046856001600160a01b03167f822728b2e9b3325a8f48b7e695afc68b81e15a152aaa52500402d8af303f64788489426040516107f293929190611c5a565b60405180910390a350505050505050565b876001600160a01b03811661082b57604051634f0ff8a560e11b815260040160405180910390fd5b876001600160a01b03811661085357604051634f0ff8a560e11b815260040160405180910390fd5b86806000036108755760405163eb9365e760e01b815260040160405180910390fd5b60405163d505accf60e01b81526001600160a01b038b169063d505accf906108ad908e9030908d908d908d908d908d90600401611c7e565b600060405180830381600087803b1580156108c757600080fd5b505af11580156108db573d6000803e3d6000fd5b50506040516323b872dd60e01b81526001600160a01b038d1692506323b872dd915061090f908e9030908d90600401611ae1565b6020604051808303816000875af115801561092e573d6000803e3d6000fd5b505050506040513d601f19601f820116820180604052508101906109529190611b1c565b50888a6001600160a01b03168c6001600160a01b03167f7c640dc4b99abc9030f33ecd8184a0d9422bd4919dc19090f82cae7ab4bb90bb468c6002544260405161099f9493929190611b3d565b60405180910390a45050505050505050505050565b826001600160a01b0381166109dc57604051634f0ff8a560e11b815260040160405180910390fd5b826001600160a01b038116610a0457604051634f0ff8a560e11b815260040160405180910390fd5b8280600003610a265760405163eb9365e760e01b815260040160405180910390fd5b3360009081527f4ddfba09fd552dffa20d1bcdfba7591474bea12d8293370c1f8e96088236ff9f602052604090205460ff16610a7557604051633e78b92160e01b815260040160405180910390fd5b60405163a9059cbb60e01b81526001600160a01b0386169063a9059cbb90610aa39089908890600401611ce6565b6020604051808303816000875af1158015610ac2573d6000803e3d6000fd5b505050506040513d601f19601f82011682018060405250810190610ae69190611b1c565b5046866001600160a01b03167f65cd6a06ca30d1a4e804e78cf9b5610e805bf360dacebe97903b74aaf903886f878742604051610b2593929190611c5a565b60405180910390a3505050505050565b600082815260208190526040902060010154610b50816111a5565b6103558383611250565b8580600003610b7c5760405163eb9365e760e01b815260040160405180910390fd5b856001600160a01b038116610ba457604051634f0ff8a560e11b815260040160405180910390fd5b604080516020808201909252600090528951908a01207f3a2db9fe7908dcc36d81824d2338fc3f1aff49ac357dd8c4840527fba27a5b9001610bf9576040516329ed017b60e11b815260040160405180910390fd5b6001546040516318c04bbb60e01b81526000916001600160a01b0316906318c04bbb90610c2a908d90600401611bd1565b602060405180830381865afa158015610c47573d6000803e3d6000fd5b505050506040513d601f19601f82011682018060405250810190610c6b9190611bed565b90506001600160a01b038116610c94576040516366b2cecf60e11b815260040160405180910390fd5b6001546040516302018c2960e11b81526000916001600160a01b031690630403185290610cc7908e903390600401611c0e565b602060405180830381865afa158015610ce4573d6000803e3d6000fd5b505050506040513d601f19601f82011682018060405250810190610d089190611c39565b905089811015610d2b576040516316a1a6ab60e11b815260040160405180910390fd5b600154604051632dce1f6b60e01b81526001600160a01b0390911690632dce1f6b90610d679085908d908f908e908e908e908e90600401611c7e565b6020604051808303816000875af1158015610d86573d6000803e3d6000fd5b505050506040513d601f19601f82011682018060405250810190610daa9190611b1c565b5046896001600160a01b03167f822728b2e9b3325a8f48b7e695afc68b81e15a152aaa52500402d8af303f6478848d42604051610de993929190611c5a565b60405180910390a35050505050505050505050565b826001600160a01b038116610e2657604051634f0ff8a560e11b815260040160405180910390fd5b826001600160a01b038116610e4e57604051634f0ff8a560e11b815260040160405180910390fd5b8280600003610e705760405163eb9365e760e01b815260040160405180910390fd5b3360009081527f4ddfba09fd552dffa20d1bcdfba7591474bea12d8293370c1f8e96088236ff9f602052604090205460ff16610ebf57604051633e78b92160e01b815260040160405180910390fd5b604080516020808201909252600090528851908901207f3a2db9fe7908dcc36d81824d2338fc3f1aff49ac357dd8c4840527fba27a5b9001610f14576040516329ed017b60e11b815260040160405180910390fd5b604080516020808201909252600090528751908801207f3a2db9fe7908dcc36d81824d2338fc3f1aff49ac357dd8c4840527fba27a5b9001610f69576040516341c14c8b60e01b815260040160405180910390fd5b600088604051602001610f7c9190611d23565b60408051601f19818403018152908290526001546318c04bbb60e01b83529092506000916001600160a01b03909116906318c04bbb90610fc0908590600401611bd1565b602060405180830381865afa158015610fdd573d6000803e3d6000fd5b505050506040513d601f19601f820116820180604052508101906110019190611bed565b90506001600160a01b0381166110c45760015460405163518f58c560e01b81526001600160a01b039091169063518f58c590611043908c908690600401611d39565b6020604051808303816000875af1158015611062573d6000803e3d6000fd5b505050506040513d601f19601f820116820180604052508101906110869190611bed565b6001600160a01b038181166000908152600360205260409020805473ffffffffffffffffffffffffffffffffffffffff1916918a1691909117905590505b600154604051637e8816b960e01b81526001600160a01b0390911690637e8816b9906110f89085908c908b90600401611d5e565b6020604051808303816000875af1158015611117573d6000803e3d6000fd5b505050506040513d601f19601f8201168201806040525081019061113b9190611b1c565b508160405161114a9190611d7e565b604051809103902046896001600160a01b03167e21ea588197ce7e376ec3c4248fbdbcf230305a4f7b8f00874a9f5bdc2995aa848a428f6040516111919493929190611d8a565b60405180910390a450505050505050505050565b6111af81336112cf565b50565b6000828152602081815260408083206001600160a01b038516845290915290205460ff16610395576000828152602081815260408083206001600160a01b03851684529091529020805460ff1916600117905561120c3390565b6001600160a01b0316816001600160a01b0316837f2f8788117e7eff1d82e926ec794901d17c78024a50270940304540a733656f0d60405160405180910390a45050565b6000828152602081815260408083206001600160a01b038516845290915290205460ff1615610395576000828152602081815260408083206001600160a01b0385168085529252808320805460ff1916905551339285917ff6391f5c32d9c69d2a47ea670b442974b53935d1edc7fd64eb21e047a839171b9190a45050565b6000828152602081815260408083206001600160a01b038516845290915290205460ff166103955761130081611342565b61130b836020611354565b60405160200161131c929190611dce565b60408051601f198184030181529082905262461bcd60e51b825261038291600401611bd1565b606061032a6001600160a01b03831660145b60606000611363836002611e48565b61136e906002611e67565b67ffffffffffffffff81111561138657611386611643565b6040519080825280601f01601f1916602001820160405280156113b0576020820181803683370190505b509050600360fc1b816000815181106113cb576113cb611e7a565b60200101906001600160f81b031916908160001a905350600f60fb1b816001815181106113fa576113fa611e7a565b60200101906001600160f81b031916908160001a905350600061141e846002611e48565b611429906001611e67565b90505b60018111156114ae577f303132333435363738396162636465660000000000000000000000000000000085600f166010811061146a5761146a611e7a565b1a60f81b82828151811061148057611480611e7a565b60200101906001600160f81b031916908160001a90535060049490941c936114a781611e90565b905061142c565b5083156114cd5760405162461bcd60e51b815260040161038290611ea7565b9392505050565b6001600160e01b031981165b81146111af57600080fd5b803561032a816114d4565b60006020828403121561150b5761150b600080fd5b600061151784846114eb565b949350505050565b8015155b82525050565b6020810161032a828461151f565b80611523565b6020810161032a8284611537565b806114e0565b803561032a8161154b565b60006020828403121561157157611571600080fd5b60006115178484611551565b60006001600160a01b03821661032a565b6114e08161157d565b803561032a8161158e565b600080604083850312156115b8576115b8600080fd5b60006115c48585611551565b92505060206115d585828601611597565b9150509250929050565b600080600080608085870312156115f8576115f8600080fd5b60006116048787611597565b945050602061161587828801611597565b935050604061162687828801611551565b925050606061163787828801611551565b91505092959194509250565b634e487b7160e01b600052604160045260246000fd5b601f19601f830116810181811067ffffffffffffffff8211171561167f5761167f611643565b6040525050565b600061169160405190565b905061169d8282611659565b919050565b600067ffffffffffffffff8211156116bc576116bc611643565b601f19601f83011660200192915050565b82818337506000910152565b60006116ec6116e7846116a2565b611686565b90508281526020810184848401111561170757611707600080fd5b6117128482856116cd565b509392505050565b600082601f83011261172e5761172e600080fd5b81356115178482602086016116d9565b60008060006060848603121561175657611756600080fd5b833567ffffffffffffffff81111561177057611770600080fd5b61177c8682870161171a565b935050602061178d86828701611551565b925050604061179e86828701611597565b9150509250925092565b6000602082840312156117bd576117bd600080fd5b60006115178484611597565b6115238161157d565b6020810161032a82846117c9565b60ff81166114e0565b803561032a816117e0565b600080600080600080600080610100898b03121561181457611814600080fd5b60006118208b8b611597565b98505060206118318b828c01611597565b97505060406118428b828c01611551565b96505060606118538b828c01611551565b95505060806118648b828c01611551565b94505060a06118758b828c016117e9565b93505060c06118868b828c01611551565b92505060e06118978b828c01611551565b9150509295985092959890939650565b6000806000606084860312156118bf576118bf600080fd5b60006118cb8686611597565b93505060206118dc86828701611597565b925050604061179e86828701611551565b600061032a8261157d565b600061032a826118ed565b611523816118f8565b6020810161032a8284611903565b600080600080600080600060e0888a03121561193857611938600080fd5b873567ffffffffffffffff81111561195257611952600080fd5b61195e8a828b0161171a565b975050602061196f8a828b01611551565b96505060406119808a828b01611597565b95505060606119918a828b01611551565b94505060806119a28a828b016117e9565b93505060a06119b38a828b01611551565b92505060c06119c48a828b01611551565b91505092959891949750929550565b600080600080600060a086880312156119ee576119ee600080fd5b853567ffffffffffffffff811115611a0857611a08600080fd5b611a148882890161171a565b955050602086013567ffffffffffffffff811115611a3457611a34600080fd5b611a408882890161171a565b9450506040611a5188828901611597565b9350506060611a6288828901611597565b9250506080611a7388828901611551565b9150509295509295909350565b6020808252810161032a81602f81527f416363657373436f6e74726f6c3a2063616e206f6e6c792072656e6f756e636560208201527f20726f6c657320666f722073656c660000000000000000000000000000000000604082015260600190565b60608101611aef82866117c9565b611afc60208301856117c9565b6115176040830184611537565b8015156114e0565b805161032a81611b09565b600060208284031215611b3157611b31600080fd5b60006115178484611b11565b60808101611b4b8287611537565b611b586020830186611537565b611b656040830185611537565b611b726060830184611537565b95945050505050565b60005b83811015611b96578181015183820152602001611b7e565b50506000910152565b6000611ba9825190565b808452602084019350611bc0818560208601611b7b565b601f01601f19169290920192915050565b602080825281016114cd8184611b9f565b805161032a8161158e565b600060208284031215611c0257611c02600080fd5b60006115178484611be2565b60408082528101611c1f8185611b9f565b90506114cd60208301846117c9565b805161032a8161154b565b600060208284031215611c4e57611c4e600080fd5b60006115178484611c2e565b60608101611c6882866117c9565b611afc6020830185611537565b60ff8116611523565b60e08101611c8c828a6117c9565b611c9960208301896117c9565b611ca66040830188611537565b611cb36060830187611537565b611cc06080830186611c75565b611ccd60a0830185611537565b611cda60c0830184611537565b98975050505050505050565b60408101611cf482856117c9565b6114cd6020830184611537565b6000611d0b825190565b611d19818560208601611b7b565b9290920192915050565b605760f81b815260010160006114cd8284611d01565b60408082528101611d4a8185611b9f565b905081810360208301526115178184611b9f565b60608082528101611d6f8186611b9f565b9050611afc60208301856117c9565b60006114cd8284611d01565b60808101611d9882876117c9565b611da56020830186611537565b611db26040830185611537565b8181036060830152611dc48184611b9f565b9695505050505050565b7f416363657373436f6e74726f6c3a206163636f756e742000000000000000000081526017016000611e008285611d01565b7f206973206d697373696e6720726f6c6520000000000000000000000000000000815260110191506115178284611d01565b634e487b7160e01b600052601160045260246000fd5b818102808215838204851417611e6057611e60611e32565b5092915050565b8082018082111561032a5761032a611e32565b634e487b7160e01b600052603260045260246000fd5b600081611e9f57611e9f611e32565b506000190190565b60208082528181019081527f537472696e67733a20686578206c656e67746820696e73756666696369656e7460408301526060820161032a56fea2646970667358221220cd656532881747a4fcebfd7bfb246e94c3c7786615b802c97e0fe7e9ad9d629464736f6c63430008110033608060405234801561001057600080fd5b5061001a3361001f565b61006f565b600080546001600160a01b038381166001600160a01b0319831681178455604051919092169283917f8be0079c531659141344cd1fd0a4f28419497f9722a3daafe3b4186f6b6457e09190a35050565b61346e8061007e6000396000f3fe60806040523480156200001157600080fd5b5060043610620000c85760003560e01c8063715018a6116200008b578063d3e2a0ca1162000062578063d3e2a0ca14620001ab578063f2fde38b14620001e2578063f6b911bc14620001f957600080fd5b8063715018a614620001765780637e8816b914620001825780638da5cb5b146200019957600080fd5b80630403185214620000cd57806318c04bbb14620000fc5780632dce1f6b1462000122578063518f58c51462000148578063640df644146200015f575b600080fd5b620000e4620000de36600462000c9c565b62000210565b604051620000f3919062000d03565b60405180910390f35b620001136200010d36600462000d13565b6200033a565b604051620000f3919062000d5f565b620001396200013336600462000d9a565b620003ae565b604051620000f3919062000e52565b620001136200015936600462000e62565b62000512565b620000e46200017036600462000d13565b6200071f565b6200018062000815565b005b620001396200019336600462000ed4565b6200082d565b6000546001600160a01b031662000113565b62000113620001bc36600462000d13565b80516020818301810180516001825292820191909301209152546001600160a01b031681565b62000180620001f336600462000f48565b6200098a565b620001396200020a36600462000f6d565b620009cb565b60008260405180602001604052806000815250805190602001208180519060200120036200025157604051632490c16760e21b815260040160405180910390fd5b826001600160a01b0381166200027a576040516333e7d0b760e11b815260040160405180910390fd5b600062000287866200033a565b90506001600160a01b038116620002be57856040516302853be960e21b8152600401620002b5919062000ff0565b60405180910390fd5b6040516370a0823160e01b81526001600160a01b038216906370a0823190620002ec90889060040162000d5f565b602060405180830381865afa1580156200030a573d6000803e3d6000fd5b505050506040513d601f19601f8201168201806040525081019062000330919062001017565b9695505050505050565b60008160405180602001604052806000815250805190602001208180519060200120036200037b57604051632490c16760e21b815260040160405180910390fd5b6001836040516200038d919062001061565b908152604051908190036020019020546001600160a01b0316915050919050565b6000620003ba62000abd565b876001600160a01b038116620003e3576040516333e7d0b760e11b815260040160405180910390fd5b876001600160a01b0381166200040c576040516333e7d0b760e11b815260040160405180910390fd5b87806000036200042f576040516309a2714360e21b815260040160405180910390fd5b60405163d505accf60e01b81526001600160a01b038c169063d505accf9062000469908d9030908e908e908e908e908e9060040162001079565b600060405180830381600087803b1580156200048457600080fd5b505af115801562000499573d6000803e3d6000fd5b505060405163079cc67960e41b81526001600160a01b038e1692506379cc67909150620004cd908d908d90600401620010ef565b600060405180830381600087803b158015620004e857600080fd5b505af1158015620004fd573d6000803e3d6000fd5b5060019e9d5050505050505050505050505050565b60006200051e62000abd565b6040805160208082019092526000905282519083012082907f3a2db9fe7908dcc36d81824d2338fc3f1aff49ac357dd8c4840527fba27a5b90016200057657604051632490c16760e21b815260040160405180910390fd5b6040805160208082019092526000905284519085012084907f3a2db9fe7908dcc36d81824d2338fc3f1aff49ac357dd8c4840527fba27a5b9001620005ce57604051632f9f8ab360e11b815260040160405180910390fd5b60006001600160a01b0316600185604051620005eb919062001061565b908152604051908190036020019020546001600160a01b03161462000627578360405163085bc08760e41b8152600401620002b5919062000ff0565b60008585604051620006399062000b47565b620006469291906200110e565b604051809103906000f08015801562000663573d6000803e3d6000fd5b5090508060018660405162000679919062001061565b90815260405190819003602001812080546001600160a01b039390931673ffffffffffffffffffffffffffffffffffffffff1990931692909217909155620006c390869062001061565b604051809103902086604051620006db919062001061565b604051908190038120906001600160a01b038416907ffb30167b90e3d8f2deaf0ebbb65d1849868ebf79c6d25c020b39fa156f61a9a990600090a495945050505050565b60008160405180602001604052806000815250805190602001208180519060200120036200076057604051632490c16760e21b815260040160405180910390fd5b60006200076d846200033a565b90506001600160a01b0381166200079b57836040516302853be960e21b8152600401620002b5919062000ff0565b6040516370a0823160e01b81526001600160a01b038216906370a0823190620007c990339060040162000d5f565b602060405180830381865afa158015620007e7573d6000803e3d6000fd5b505050506040513d601f19601f820116820180604052508101906200080d919062001017565b949350505050565b6200081f62000abd565b6200082b600062000aea565b565b60006200083962000abd565b826001600160a01b03811662000862576040516333e7d0b760e11b815260040160405180910390fd5b6040805160208082019092526000905285519086012085907f3a2db9fe7908dcc36d81824d2338fc3f1aff49ac357dd8c4840527fba27a5b9001620008ba57604051632490c16760e21b815260040160405180910390fd5b8380600003620008dd576040516309a2714360e21b815260040160405180910390fd5b6000620008ea886200033a565b90506001600160a01b0381166200091857876040516302853be960e21b8152600401620002b5919062000ff0565b6040516340c10f1960e01b81526001600160a01b038216906340c10f199062000948908a908a90600401620010ef565b600060405180830381600087803b1580156200096357600080fd5b505af115801562000978573d6000803e3d6000fd5b5060019b9a5050505050505050505050565b6200099462000abd565b6001600160a01b038116620009bd5760405162461bcd60e51b8152600401620002b59062001137565b620009c88162000aea565b50565b6000620009d762000abd565b836001600160a01b03811662000a00576040516333e7d0b760e11b815260040160405180910390fd5b836001600160a01b03811662000a29576040516333e7d0b760e11b815260040160405180910390fd5b838060000362000a4c576040516309a2714360e21b815260040160405180910390fd5b60405163079cc67960e41b81526001600160a01b038816906379cc67909062000a7c9089908990600401620010ef565b600060405180830381600087803b15801562000a9757600080fd5b505af115801562000aac573d6000803e3d6000fd5b5060019a9950505050505050505050565b6000546001600160a01b031633146200082b5760405162461bcd60e51b8152600401620002b59062001182565b600080546001600160a01b0383811673ffffffffffffffffffffffffffffffffffffffff19831681178455604051919092169283917f8be0079c531659141344cd1fd0a4f28419497f9722a3daafe3b4186f6b6457e09190a35050565b61227b80620011be83390190565b634e487b7160e01b600052604160045260246000fd5b601f19601f830116810181811067ffffffffffffffff8211171562000b945762000b9462000b55565b6040525050565b600062000ba760405190565b905062000bb5828262000b6b565b919050565b600067ffffffffffffffff82111562000bd75762000bd762000b55565b601f19601f83011660200192915050565b82818337506000910152565b600062000c0b62000c058462000bba565b62000b9b565b90508281526020810184848401111562000c285762000c28600080fd5b62000c3584828562000be8565b509392505050565b600082601f83011262000c535762000c53600080fd5b81356200080d84826020860162000bf4565b60006001600160a01b0382165b92915050565b62000c838162000c65565b8114620009c857600080fd5b803562000c728162000c78565b6000806040838503121562000cb45762000cb4600080fd5b823567ffffffffffffffff81111562000cd05762000cd0600080fd5b62000cde8582860162000c3d565b925050602062000cf18582860162000c8f565b9150509250929050565b805b82525050565b6020810162000c72828462000cfb565b60006020828403121562000d2a5762000d2a600080fd5b813567ffffffffffffffff81111562000d465762000d46600080fd5b6200080d8482850162000c3d565b62000cfd8162000c65565b6020810162000c72828462000d54565b8062000c83565b803562000c728162000d6f565b60ff811662000c83565b803562000c728162000d83565b600080600080600080600060e0888a03121562000dba5762000dba600080fd5b600062000dc88a8a62000c8f565b975050602062000ddb8a828b0162000c8f565b965050604062000dee8a828b0162000d76565b955050606062000e018a828b0162000d76565b945050608062000e148a828b0162000d8d565b93505060a062000e278a828b0162000d76565b92505060c062000e3a8a828b0162000d76565b91505092959891949750929550565b80151562000cfd565b6020810162000c72828462000e49565b6000806040838503121562000e7a5762000e7a600080fd5b823567ffffffffffffffff81111562000e965762000e96600080fd5b62000ea48582860162000c3d565b925050602083013567ffffffffffffffff81111562000ec65762000ec6600080fd5b62000cf18582860162000c3d565b60008060006060848603121562000eee5762000eee600080fd5b833567ffffffffffffffff81111562000f0a5762000f0a600080fd5b62000f188682870162000c3d565b935050602062000f2b8682870162000c8f565b925050604062000f3e8682870162000d76565b9150509250925092565b60006020828403121562000f5f5762000f5f600080fd5b60006200080d848462000c8f565b60008060006060848603121562000f875762000f87600080fd5b600062000f18868662000c8f565b60005b8381101562000fb257818101518382015260200162000f98565b50506000910152565b600062000fc6825190565b80845260208401935062000fdf81856020860162000f95565b601f01601f19169290920192915050565b6020808252810162001003818462000fbb565b9392505050565b805162000c728162000d6f565b6000602082840312156200102e576200102e600080fd5b60006200080d84846200100a565b600062001047825190565b6200105781856020860162000f95565b9290920192915050565b60006200100382846200103c565b60ff811662000cfd565b60e0810162001089828a62000d54565b62001098602083018962000d54565b620010a7604083018862000cfb565b620010b6606083018762000cfb565b620010c560808301866200106f565b620010d460a083018562000cfb565b620010e360c083018462000cfb565b98975050505050505050565b60408101620010ff828562000d54565b62001003602083018462000cfb565b6040808252810162001121818562000fbb565b905081810360208301526200080d818462000fbb565b6020808252810162000c7281602681527f4f776e61626c653a206e6577206f776e657220697320746865207a65726f206160208201526564647265737360d01b604082015260600190565b60208082528181019081527f4f776e61626c653a2063616c6c6572206973206e6f7420746865206f776e657260408301526060820162000c7256fe6101606040523480156200001257600080fd5b506040516200227b3803806200227b833981016040819052620000359162000383565b6040805180820190915260018152603160f81b60208201528290819081846003620000618382620004f7565b506004620000708282620004f7565b5050506200008d620000876200010260201b60201c565b62000106565b620000a86006836200015860201b620006bc1790919060201c565b61012052620000c581600762000158602090811b620006bc17901c565b61014052815160208084019190912060e052815190820120610100524660a052620000ef620001a8565b60805250503060c05250620006e0915050565b3390565b600580546001600160a01b038381166001600160a01b0319831681179093556040519116919082907f8be0079c531659141344cd1fd0a4f28419497f9722a3daafe3b4186f6b6457e090600090a35050565b60006020835110156200017857620001708362000204565b9050620001a2565b826200018f836200025060201b620006ed1760201c565b906200019c9082620004f7565b5060ff90505b92915050565b60e05161010051604051600092620001e9927f8b73c3c69bb8fe3d512ecc4cf759cc79239f7b179b0ffacaa9a75d522b39400f9246903090602001620005ec565b60405160208183030381529060405280519060200120905090565b600080829050601f815111156200023b578260405163305a27a960e01b815260040162000232919062000677565b60405180910390fd5b805162000248826200069c565b179392505050565b90565b634e487b7160e01b600052604160045260246000fd5b601f19601f83011681018181106001600160401b038211171562000291576200029162000253565b6040525050565b6000620002a460405190565b9050620002b2828262000269565b919050565b60006001600160401b03821115620002d357620002d362000253565b601f19601f83011660200192915050565b60005b8381101562000301578181015183820152602001620002e7565b50506000910152565b6000620003216200031b84620002b7565b62000298565b9050828152602081018484840111156200033e576200033e600080fd5b6200034b848285620002e4565b509392505050565b600082601f830112620003695762000369600080fd5b81516200037b8482602086016200030a565b949350505050565b600080604083850312156200039b576200039b600080fd5b82516001600160401b03811115620003b657620003b6600080fd5b620003c48582860162000353565b92505060208301516001600160401b03811115620003e557620003e5600080fd5b620003f38582860162000353565b9150509250929050565b634e487b7160e01b600052602260045260246000fd5b6002810460018216806200042857607f821691505b6020821081036200043d576200043d620003fd565b50919050565b6000620001a2620002508381565b6200045c8362000443565b81546008840282811b60001990911b908116901990911617825550505050565b60006200048b81848462000451565b505050565b81811015620004af57620004a66000826200047c565b60010162000490565b5050565b601f8211156200048b576000818152602090206020601f85010481016020851015620004dc5750805b620004f06020601f86010483018262000490565b5050505050565b81516001600160401b0381111562000513576200051362000253565b6200051f825462000413565b6200052c828285620004b3565b6020601f8311600181146200056357600084156200054a5750858201515b600019600886021c1981166002860217865550620005bf565b600085815260208120601f198616915b8281101562000595578885015182556020948501946001909201910162000573565b86831015620005b25784890151600019601f89166008021c191682555b6001600288020188555050505b505050505050565b805b82525050565b60006001600160a01b038216620001a2565b620005c981620005cf565b60a08101620005fc8288620005c7565b6200060b6020830187620005c7565b6200061a6040830186620005c7565b620006296060830185620005c7565b620006386080830184620005e1565b9695505050505050565b60006200064d825190565b80845260208401935062000666818560208601620002e4565b601f01601f19169290920192915050565b602080825281016200068a818462000642565b9392505050565b6000620001a2825190565b6000620006a7825190565b60208301620006b68162000691565b92506020821015620006d957620006d4600019836020036008021b90565b831692505b5050919050565b60805160a05160c05160e051610100516101205161014051611b406200073b60003960006104d9015260006104ae01526000610d0101526000610ce0015260006109030152600061092d015260006109570152611b406000f3fe608060405234801561001057600080fd5b50600436106101475760003560e01c8063715018a6116100c857806395d89b411161008c578063d505accf11610066578063d505accf146102b9578063dd62ed3e146102cc578063f2fde38b1461030557600080fd5b806395d89b411461028b578063a457c2d714610293578063a9059cbb146102a657600080fd5b8063715018a61461022957806379cc6790146102315780637ecebe001461024457806384b0196e146102575780638da5cb5b1461027257600080fd5b80633644e5151161010f5780633644e515146101bd57806339509351146101c557806340c10f19146101d857806342966c68146101ed57806370a082311461020057600080fd5b806306fdde031461014c578063095ea7b31461016a57806318160ddd1461018a57806323b872dd1461019b578063313ce567146101ae575b600080fd5b610154610318565b6040516101619190610f74565b60405180910390f35b61017d610178366004610fcd565b6103aa565b6040516101619190611014565b6002545b6040516101619190611028565b61017d6101a9366004611036565b6103c4565b6012604051610161919061108f565b61018e6103e8565b61017d6101d3366004610fcd565b6103f7565b6101eb6101e6366004610fcd565b610436565b005b6101eb6101fb36600461109d565b61044c565b61018e61020e3660046110c6565b6001600160a01b031660009081526020819052604090205490565b6101eb610459565b6101eb61023f366004610fcd565b61046d565b61018e6102523660046110c6565b610482565b61025f6104a0565b6040516101619796959493929190611175565b6005546001600160a01b031660405161016191906111f1565b610154610529565b61017d6102a1366004610fcd565b610538565b61017d6102b4366004610fcd565b610595565b6101eb6102c7366004611213565b6105a3565b61018e6102da3660046112b2565b6001600160a01b03918216600090815260016020908152604080832093909416825291909152205490565b6101eb6103133660046110c6565b610685565b606060038054610327906112fb565b80601f0160208091040260200160405190810160405280929190818152602001828054610353906112fb565b80156103a05780601f10610375576101008083540402835291602001916103a0565b820191906000526020600020905b81548152906001019060200180831161038357829003601f168201915b5050505050905090565b6000336103b88185856106f0565b60019150505b92915050565b6000336103d28582856107a4565b6103dd858585610806565b506001949350505050565b60006103f26108f6565b905090565b3360008181526001602090815260408083206001600160a01b03871684529091528120549091906103b89082908690610431908790611337565b6106f0565b61043e610981565b61044882826109ab565b5050565b6104563382610a41565b50565b610461610981565b61046b6000610afd565b565b6104788233836107a4565b6104488282610a41565b6001600160a01b0381166000908152600860205260408120546103be565b6000606080828080836104d47f00000000000000000000000000000000000000000000000000000000000000006006610b5c565b6104ff7f00000000000000000000000000000000000000000000000000000000000000006007610b5c565b60408051600080825260208201909252600f60f81b9b939a50919850469750309650945092509050565b606060048054610327906112fb565b3360008181526001602090815260408083206001600160a01b0387168452909152812054909190838110156105885760405162461bcd60e51b815260040161057f906113a5565b60405180910390fd5b6103dd82868684036106f0565b6000336103b8818585610806565b834211156105c35760405162461bcd60e51b815260040161057f906113ec565b60007f6e71edae12b1b97f4d1f60370fef10105fa2faae0126114a169c64845d6126c98888886105f28c610c00565b89604051602001610608969594939291906113fc565b604051602081830303815290604052805190602001209050600061062b82610c28565b9050600061063b82878787610c55565b9050896001600160a01b0316816001600160a01b03161461066e5760405162461bcd60e51b815260040161057f9061148a565b6106798a8a8a6106f0565b50505050505050505050565b61068d610981565b6001600160a01b0381166106b35760405162461bcd60e51b815260040161057f906114dd565b61045681610afd565b60006020835110156106d8576106d183610c7d565b90506103be565b816106e3848261158a565b5060ff90506103be565b90565b6001600160a01b0383166107165760405162461bcd60e51b815260040161057f9061168f565b6001600160a01b03821661073c5760405162461bcd60e51b815260040161057f906116de565b6001600160a01b0380841660008181526001602090815260408083209487168084529490915290819020849055517f8c5be1e5ebec7d5bd14f71427d1e84f3dd0314c0f7b2291e5b200ac8c7c3b92590610797908590611028565b60405180910390a3505050565b6001600160a01b03838116600090815260016020908152604080832093861683529290522054600019811461080057818110156107f35760405162461bcd60e51b815260040161057f90611722565b61080084848484036106f0565b50505050565b6001600160a01b03831661082c5760405162461bcd60e51b815260040161057f90611774565b6001600160a01b0382166108525760405162461bcd60e51b815260040161057f906117c4565b6001600160a01b0383166000908152602081905260409020548181101561088b5760405162461bcd60e51b815260040161057f90611817565b6001600160a01b0380851660008181526020819052604080822086860390559286168082529083902080548601905591517fddf252ad1be2c89b69c2b068fc378daa952ba7f163c4a11628f55a4df523b3ef906108e9908690611028565b60405180910390a3610800565b6000306001600160a01b037f00000000000000000000000000000000000000000000000000000000000000001614801561094f57507f000000000000000000000000000000000000000000000000000000000000000046145b1561097957507f000000000000000000000000000000000000000000000000000000000000000090565b6103f2610cbb565b6005546001600160a01b0316331461046b5760405162461bcd60e51b815260040161057f90611859565b6001600160a01b0382166109d15760405162461bcd60e51b815260040161057f9061189d565b80600260008282546109e39190611337565b90915550506001600160a01b038216600081815260208190526040808220805485019055517fddf252ad1be2c89b69c2b068fc378daa952ba7f163c4a11628f55a4df523b3ef90610a35908590611028565b60405180910390a35050565b6001600160a01b038216610a675760405162461bcd60e51b815260040161057f906118eb565b6001600160a01b03821660009081526020819052604090205481811015610aa05760405162461bcd60e51b815260040161057f9061193a565b6001600160a01b0383166000818152602081905260408082208585039055600280548690039055519091907fddf252ad1be2c89b69c2b068fc378daa952ba7f163c4a11628f55a4df523b3ef90610797908690611028565b505050565b600580546001600160a01b0383811673ffffffffffffffffffffffffffffffffffffffff19831681179093556040519116919082907f8be0079c531659141344cd1fd0a4f28419497f9722a3daafe3b4186f6b6457e090600090a35050565b606060ff8314610b6f576106d183610d51565b818054610b7b906112fb565b80601f0160208091040260200160405190810160405280929190818152602001828054610ba7906112fb565b8015610bf45780601f10610bc957610100808354040283529160200191610bf4565b820191906000526020600020905b815481529060010190602001808311610bd757829003601f168201915b505050505090506103be565b6001600160a01b03811660009081526008602052604090208054600181018255905b50919050565b60006103be610c356108f6565b8360405161190160f01b8152600281019290925260228201526042902090565b6000806000610c6687878787610d90565b91509150610c7381610e47565b5095945050505050565b600080829050601f81511115610ca8578260405163305a27a960e01b815260040161057f9190610f74565b8051610cb382611954565b179392505050565b60007f8b73c3c69bb8fe3d512ecc4cf759cc79239f7b179b0ffacaa9a75d522b39400f7f00000000000000000000000000000000000000000000000000000000000000007f00000000000000000000000000000000000000000000000000000000000000004630604051602001610d36959493929190611993565b60405160208183030381529060405280519060200120905090565b60606000610d5e83610ef6565b604080516020808252818301909252919250600091906020820181803683375050509182525060208101929092525090565b6000807f7fffffffffffffffffffffffffffffff5d576e7357a4501ddfe92f46681b20a0831115610dc75750600090506003610e3e565b600060018787878760405160008152602001604052604051610dec94939291906119df565b6020604051602081039080840390855afa158015610e0e573d6000803e3d6000fd5b5050604051601f1901519150506001600160a01b038116610e3757600060019250925050610e3e565b9150600090505b94509492505050565b6000816004811115610e5b57610e5b611a1d565b03610e635750565b6001816004811115610e7757610e77611a1d565b03610e945760405162461bcd60e51b815260040161057f90611a67565b6002816004811115610ea857610ea8611a1d565b03610ec55760405162461bcd60e51b815260040161057f90611aab565b6003816004811115610ed957610ed9611a1d565b036104565760405162461bcd60e51b815260040161057f90611afa565b600060ff8216601f8111156103be57604051632cd44ac360e21b815260040160405180910390fd5b60005b83811015610f39578181015183820152602001610f21565b50506000910152565b6000610f4c825190565b808452602084019350610f63818560208601610f1e565b601f01601f19169290920192915050565b60208082528101610f858184610f42565b9392505050565b60006001600160a01b0382166103be565b610fa681610f8c565b811461045657600080fd5b80356103be81610f9d565b80610fa6565b80356103be81610fbc565b60008060408385031215610fe357610fe3600080fd5b6000610fef8585610fb1565b925050602061100085828601610fc2565b9150509250929050565b8015155b82525050565b602081016103be828461100a565b8061100e565b602081016103be8284611022565b60008060006060848603121561104e5761104e600080fd5b600061105a8686610fb1565b935050602061106b86828701610fb1565b925050604061107c86828701610fc2565b9150509250925092565b60ff811661100e565b602081016103be8284611086565b6000602082840312156110b2576110b2600080fd5b60006110be8484610fc2565b949350505050565b6000602082840312156110db576110db600080fd5b60006110be8484610fb1565b7fff00000000000000000000000000000000000000000000000000000000000000811661100e565b61100e81610f8c565b60006111248383611022565b505060200190565b6000611136825190565b80845260209384019383018060005b8381101561116a5781516111598882611118565b975060208301925050600101611145565b509495945050505050565b60e08101611183828a6110e7565b81810360208301526111958189610f42565b905081810360408301526111a98188610f42565b90506111b86060830187611022565b6111c5608083018661110f565b6111d260a0830185611022565b81810360c08301526111e4818461112c565b9998505050505050505050565b602081016103be828461110f565b60ff8116610fa6565b80356103be816111ff565b600080600080600080600060e0888a03121561123157611231600080fd5b600061123d8a8a610fb1565b975050602061124e8a828b01610fb1565b965050604061125f8a828b01610fc2565b95505060606112708a828b01610fc2565b94505060806112818a828b01611208565b93505060a06112928a828b01610fc2565b92505060c06112a38a828b01610fc2565b91505092959891949750929550565b600080604083850312156112c8576112c8600080fd5b60006112d48585610fb1565b925050602061100085828601610fb1565b634e487b7160e01b600052602260045260246000fd5b60028104600182168061130f57607f821691505b602082108103610c2257610c226112e5565b634e487b7160e01b600052601160045260246000fd5b808201808211156103be576103be611321565b634e487b7160e01b600052604160045260246000fd5b602581526000602082017f45524332303a2064656372656173656420616c6c6f77616e63652062656c6f77815264207a65726f60d81b602082015291505b5060400190565b602080825281016103be81611360565b601d81526000602082017f45524332305065726d69743a206578706972656420646561646c696e65000000815291505b5060200190565b602080825281016103be816113b5565b60c0810161140a8289611022565b611417602083018861110f565b611424604083018761110f565b6114316060830186611022565b61143e6080830185611022565b61144b60a0830184611022565b979650505050505050565b601e81526000602082017f45524332305065726d69743a20696e76616c6964207369676e61747572650000815291506113e5565b602080825281016103be81611456565b602681526000602082017f4f776e61626c653a206e6577206f776e657220697320746865207a65726f206181526564647265737360d01b6020820152915061139e565b602080825281016103be8161149a565b60006103be6106ed8381565b611502836114ed565b81546008840282811b60001990911b908116901990911617825550505050565b6000610af88184846114f9565b8181101561044857611542600082611522565b60010161152f565b601f821115610af8576000818152602090206020601f850104810160208510156115715750805b6115836020601f86010483018261152f565b5050505050565b815167ffffffffffffffff8111156115a4576115a461134a565b6115ae82546112fb565b6115b982828561154a565b6020601f8311600181146115ed57600084156115d55750858201515b600019600886021c1981166002860217865550611646565b600085815260208120601f198616915b8281101561161d57888501518255602094850194600190920191016115fd565b868310156116395784890151600019601f89166008021c191682555b6001600288020188555050505b505050505050565b602481526000602082017f45524332303a20617070726f76652066726f6d20746865207a65726f206164648152637265737360e01b6020820152915061139e565b602080825281016103be8161164e565b602281526000602082017f45524332303a20617070726f766520746f20746865207a65726f206164647265815261737360f01b6020820152915061139e565b602080825281016103be8161169f565b601d81526000602082017f45524332303a20696e73756666696369656e7420616c6c6f77616e6365000000815291506113e5565b602080825281016103be816116ee565b602581526000602082017f45524332303a207472616e736665722066726f6d20746865207a65726f206164815264647265737360d81b6020820152915061139e565b602080825281016103be81611732565b602381526000602082017f45524332303a207472616e7366657220746f20746865207a65726f206164647281526265737360e81b6020820152915061139e565b602080825281016103be81611784565b602681526000602082017f45524332303a207472616e7366657220616d6f756e7420657863656564732062815265616c616e636560d01b6020820152915061139e565b602080825281016103be816117d4565b60208082527f4f776e61626c653a2063616c6c6572206973206e6f7420746865206f776e6572910190815260006113e5565b602080825281016103be81611827565b601f81526000602082017f45524332303a206d696e7420746f20746865207a65726f206164647265737300815291506113e5565b602080825281016103be81611869565b602181526000602082017f45524332303a206275726e2066726f6d20746865207a65726f206164647265738152607360f81b6020820152915061139e565b602080825281016103be816118ad565b602281526000602082017f45524332303a206275726e20616d6f756e7420657863656564732062616c616e815261636560f01b6020820152915061139e565b602080825281016103be816118fb565b60006103be825190565b600061195e825190565b6020830161196b8161194a565b9250602082101561198c57611987600019836020036008021b90565b831692505b5050919050565b60a081016119a18288611022565b6119ae6020830187611022565b6119bb6040830186611022565b6119c86060830185611022565b6119d5608083018461110f565b9695505050505050565b608081016119ed8287611022565b6119fa6020830186611086565b611a076040830185611022565b611a146060830184611022565b95945050505050565b634e487b7160e01b600052602160045260246000fd5b601881526000602082017f45434453413a20696e76616c6964207369676e61747572650000000000000000815291506113e5565b602080825281016103be81611a33565b601f81526000602082017f45434453413a20696e76616c6964207369676e6174757265206c656e67746800815291506113e5565b602080825281016103be81611a77565b602281526000602082017f45434453413a20696e76616c6964207369676e6174757265202773272076616c815261756560f01b6020820152915061139e565b602080825281016103be81611abb56fea26469706673582212203dfeb544ae85d4e1102d32a35141b8294e64b4a2f8001b63ed66df09add294d064736f6c63430008110033a2646970667358221220c1287708b46ed9eae0f0e07dc67c3ddf222714ab4fdb0fe0b010e40ebf23147764736f6c63430008110033","opcodes":"PUSH1 0x80 PUSH1 0x40 MSTORE PUSH7 0x38D7EA4C68000 PUSH1 0x2 SSTORE CALLVALUE DUP1 ISZERO PUSH3 0x1C JUMPI PUSH1 0x0 DUP1 REVERT JUMPDEST POP PUSH3 0x2A PUSH1 0x0 CALLER PUSH3 0x7C JUMP JUMPDEST PUSH1 0x40 MLOAD PUSH3 0x38 SWAP1 PUSH3 0x11D JUMP JUMPDEST PUSH1 0x40 MLOAD DUP1 SWAP2 SUB SWAP1 PUSH1 0x0 CREATE DUP1 ISZERO DUP1 ISZERO PUSH3 0x55 JUMPI RETURNDATASIZE PUSH1 0x0 DUP1 RETURNDATACOPY RETURNDATASIZE PUSH1 0x0 REVERT JUMPDEST POP PUSH1 0x1 DUP1 SLOAD PUSH1 0x1 PUSH1 0x1 PUSH1 0xA0 SHL SUB NOT AND PUSH1 0x1 PUSH1 0x1 PUSH1 0xA0 SHL SUB SWAP3 SWAP1 SWAP3 AND SWAP2 SWAP1 SWAP2 OR SWAP1 SSTORE PUSH3 0x12B JUMP JUMPDEST PUSH1 0x0 DUP3 DUP2 MSTORE PUSH1 0x20 DUP2 DUP2 MSTORE PUSH1 0x40 DUP1 DUP4 KECCAK256 PUSH1 0x1 PUSH1 0x1 PUSH1 0xA0 SHL SUB DUP6 AND DUP5 MSTORE SWAP1 SWAP2 MSTORE SWAP1 KECCAK256 SLOAD PUSH1 0xFF AND PUSH3 0x119 JUMPI PUSH1 0x0 DUP3 DUP2 MSTORE PUSH1 0x20 DUP2 DUP2 MSTORE PUSH1 0x40 DUP1 DUP4 KECCAK256 PUSH1 0x1 PUSH1 0x1 PUSH1 0xA0 SHL SUB DUP6 AND DUP5 MSTORE SWAP1 SWAP2 MSTORE SWAP1 KECCAK256 DUP1 SLOAD PUSH1 0xFF NOT AND PUSH1 0x1 OR SWAP1 SSTORE PUSH3 0xD8 CALLER SWAP1 JUMP JUMPDEST PUSH1 0x1 PUSH1 0x1 PUSH1 0xA0 SHL SUB AND DUP2 PUSH1 0x1 PUSH1 0x1 PUSH1 0xA0 SHL SUB AND DUP4 PUSH32 0x2F8788117E7EFF1D82E926EC794901D17C78024A50270940304540A733656F0D PUSH1 0x40 MLOAD PUSH1 0x40 MLOAD DUP1 SWAP2 SUB SWAP1 LOG4 JUMPDEST POP POP JUMP JUMPDEST PUSH2 0x34EC DUP1 PUSH3 0x2052 DUP4 CODECOPY ADD SWAP1 JUMP JUMPDEST PUSH2 0x1F17 DUP1 PUSH3 0x13B PUSH1 0x0 CODECOPY PUSH1 0x0 RETURN INVALID PUSH1 0x80 PUSH1 0x40 MSTORE CALLVALUE DUP1 ISZERO PUSH2 0x10 JUMPI PUSH1 0x0 DUP1 REVERT JUMPDEST POP PUSH1 0x4 CALLDATASIZE LT PUSH2 0x116 JUMPI PUSH1 0x0 CALLDATALOAD PUSH1 0xE0 SHR DUP1 PUSH4 0xA217FDDF GT PUSH2 0xA2 JUMPI DUP1 PUSH4 0xC45A0155 GT PUSH2 0x71 JUMPI DUP1 PUSH4 0xC45A0155 EQ PUSH2 0x297 JUMPI DUP1 PUSH4 0xD547741F EQ PUSH2 0x2B7 JUMPI DUP1 PUSH4 0xD5AFD6F6 EQ PUSH2 0x2CA JUMPI DUP1 PUSH4 0xDDCA3F43 EQ PUSH2 0x2DD JUMPI DUP1 PUSH4 0xE4F7E720 EQ PUSH2 0x2E6 JUMPI PUSH1 0x0 DUP1 REVERT JUMPDEST DUP1 PUSH4 0xA217FDDF EQ PUSH2 0x233 JUMPI DUP1 PUSH4 0xA5E83BCB EQ PUSH2 0x23B JUMPI DUP1 PUSH4 0xB8539996 EQ PUSH2 0x271 JUMPI DUP1 PUSH4 0xC0499D9A EQ PUSH2 0x284 JUMPI PUSH1 0x0 DUP1 REVERT JUMPDEST DUP1 PUSH4 0x36568ABE GT PUSH2 0xE9 JUMPI DUP1 PUSH4 0x36568ABE EQ PUSH2 0x1B0 JUMPI DUP1 PUSH4 0x69FE0E2D EQ PUSH2 0x1C3 JUMPI DUP1 PUSH4 0x91D14854 EQ PUSH2 0x1D6 JUMPI DUP1 PUSH4 0x99472C33 EQ PUSH2 0x20D JUMPI DUP1 PUSH4 0x9D5777F9 EQ PUSH2 0x220 JUMPI PUSH1 0x0 DUP1 REVERT JUMPDEST DUP1 PUSH4 0x1FFC9A7 EQ PUSH2 0x11B JUMPI DUP1 PUSH4 0x2483E715 EQ PUSH2 0x144 JUMPI DUP1 PUSH4 0x248A9CA3 EQ PUSH2 0x178 JUMPI DUP1 PUSH4 0x2F2FF15D EQ PUSH2 0x19B JUMPI JUMPDEST PUSH1 0x0 DUP1 REVERT JUMPDEST PUSH2 0x12E PUSH2 0x129 CALLDATASIZE PUSH1 0x4 PUSH2 0x14F6 JUMP JUMPDEST PUSH2 0x2F9 JUMP JUMPDEST PUSH1 0x40 MLOAD PUSH2 0x13B SWAP2 SWAP1 PUSH2 0x1529 JUMP JUMPDEST PUSH1 0x40 MLOAD DUP1 SWAP2 SUB SWAP1 RETURN JUMPDEST PUSH2 0x16B PUSH32 0xAB4F864E5201B0FDE9B5EE3E4CF96384802B0FFDFCF7F9DE4699CE21A30AFC4F DUP2 JUMP JUMPDEST PUSH1 0x40 MLOAD PUSH2 0x13B SWAP2 SWAP1 PUSH2 0x153D JUMP JUMPDEST PUSH2 0x16B PUSH2 0x186 CALLDATASIZE PUSH1 0x4 PUSH2 0x155C JUMP JUMPDEST PUSH1 0x0 SWAP1 DUP2 MSTORE PUSH1 0x20 DUP2 SWAP1 MSTORE PUSH1 0x40 SWAP1 KECCAK256 PUSH1 0x1 ADD SLOAD SWAP1 JUMP JUMPDEST PUSH2 0x1AE PUSH2 0x1A9 CALLDATASIZE PUSH1 0x4 PUSH2 0x15A2 JUMP JUMPDEST PUSH2 0x330 JUMP JUMPDEST STOP JUMPDEST PUSH2 0x1AE PUSH2 0x1BE CALLDATASIZE PUSH1 0x4 PUSH2 0x15A2 JUMP JUMPDEST PUSH2 0x35A JUMP JUMPDEST PUSH2 0x1AE PUSH2 0x1D1 CALLDATASIZE PUSH1 0x4 PUSH2 0x155C JUMP JUMPDEST PUSH2 0x399 JUMP JUMPDEST PUSH2 0x12E PUSH2 0x1E4 CALLDATASIZE PUSH1 0x4 PUSH2 0x15A2 JUMP JUMPDEST PUSH1 0x0 SWAP2 DUP3 MSTORE PUSH1 0x20 DUP3 DUP2 MSTORE PUSH1 0x40 DUP1 DUP5 KECCAK256 PUSH1 0x1 PUSH1 0x1 PUSH1 0xA0 SHL SUB SWAP4 SWAP1 SWAP4 AND DUP5 MSTORE SWAP2 SWAP1 MSTORE SWAP1 KECCAK256 SLOAD PUSH1 0xFF AND SWAP1 JUMP JUMPDEST PUSH2 0x1AE PUSH2 0x21B CALLDATASIZE PUSH1 0x4 PUSH2 0x15DF JUMP JUMPDEST PUSH2 0x428 JUMP JUMPDEST PUSH2 0x1AE PUSH2 0x22E CALLDATASIZE PUSH1 0x4 PUSH2 0x173E JUMP JUMPDEST PUSH2 0x56B JUMP JUMPDEST PUSH2 0x16B PUSH1 0x0 DUP2 JUMP JUMPDEST PUSH2 0x264 PUSH2 0x249 CALLDATASIZE PUSH1 0x4 PUSH2 0x17A8 JUMP JUMPDEST PUSH1 0x3 PUSH1 0x20 MSTORE PUSH1 0x0 SWAP1 DUP2 MSTORE PUSH1 0x40 SWAP1 KECCAK256 SLOAD PUSH1 0x1 PUSH1 0x1 PUSH1 0xA0 SHL SUB AND DUP2 JUMP JUMPDEST PUSH1 0x40 MLOAD PUSH2 0x13B SWAP2 SWAP1 PUSH2 0x17D2 JUMP JUMPDEST PUSH2 0x1AE PUSH2 0x27F CALLDATASIZE PUSH1 0x4 PUSH2 0x17F4 JUMP JUMPDEST PUSH2 0x803 JUMP JUMPDEST PUSH2 0x1AE PUSH2 0x292 CALLDATASIZE PUSH1 0x4 PUSH2 0x18A7 JUMP JUMPDEST PUSH2 0x9B4 JUMP JUMPDEST PUSH1 0x1 SLOAD PUSH2 0x2AA SWAP1 PUSH1 0x1 PUSH1 0x1 PUSH1 0xA0 SHL SUB AND DUP2 JUMP JUMPDEST PUSH1 0x40 MLOAD PUSH2 0x13B SWAP2 SWAP1 PUSH2 0x190C JUMP JUMPDEST PUSH2 0x1AE PUSH2 0x2C5 CALLDATASIZE PUSH1 0x4 PUSH2 0x15A2 JUMP JUMPDEST PUSH2 0xB35 JUMP JUMPDEST PUSH2 0x1AE PUSH2 0x2D8 CALLDATASIZE PUSH1 0x4 PUSH2 0x191A JUMP JUMPDEST PUSH2 0xB5A JUMP JUMPDEST PUSH2 0x16B PUSH1 0x2 SLOAD DUP2 JUMP JUMPDEST PUSH2 0x1AE PUSH2 0x2F4 CALLDATASIZE PUSH1 0x4 PUSH2 0x19D3 JUMP JUMPDEST PUSH2 0xDFE JUMP JUMPDEST PUSH1 0x0 PUSH1 0x1 PUSH1 0x1 PUSH1 0xE0 SHL SUB NOT DUP3 AND PUSH4 0x7965DB0B PUSH1 0xE0 SHL EQ DUP1 PUSH2 0x32A JUMPI POP PUSH4 0x1FFC9A7 PUSH1 0xE0 SHL PUSH1 0x1 PUSH1 0x1 PUSH1 0xE0 SHL SUB NOT DUP4 AND EQ JUMPDEST SWAP3 SWAP2 POP POP JUMP JUMPDEST PUSH1 0x0 DUP3 DUP2 MSTORE PUSH1 0x20 DUP2 SWAP1 MSTORE PUSH1 0x40 SWAP1 KECCAK256 PUSH1 0x1 ADD SLOAD PUSH2 0x34B DUP2 PUSH2 0x11A5 JUMP JUMPDEST PUSH2 0x355 DUP4 DUP4 PUSH2 0x11B2 JUMP JUMPDEST POP POP POP JUMP JUMPDEST PUSH1 0x1 PUSH1 0x1 PUSH1 0xA0 SHL SUB DUP2 AND CALLER EQ PUSH2 0x38B JUMPI PUSH1 0x40 MLOAD PUSH3 0x461BCD PUSH1 0xE5 SHL DUP2 MSTORE PUSH1 0x4 ADD PUSH2 0x382 SWAP1 PUSH2 0x1A80 JUMP JUMPDEST PUSH1 0x40 MLOAD DUP1 SWAP2 SUB SWAP1 REVERT JUMPDEST PUSH2 0x395 DUP3 DUP3 PUSH2 0x1250 JUMP JUMPDEST POP POP JUMP JUMPDEST CALLER PUSH1 0x0 SWAP1 DUP2 MSTORE PUSH32 0xAD3228B676F7D3CD4284A5443F17F1962B36E491B30A40B2405849E597BA5FB5 PUSH1 0x20 MSTORE PUSH1 0x40 SWAP1 KECCAK256 SLOAD PUSH1 0xFF AND PUSH2 0x3E8 JUMPI PUSH1 0x40 MLOAD PUSH4 0x3E78B921 PUSH1 0xE0 SHL DUP2 MSTORE PUSH1 0x4 ADD PUSH1 0x40 MLOAD DUP1 SWAP2 SUB SWAP1 REVERT JUMPDEST PUSH1 0x2 DUP2 SWAP1 SSTORE PUSH1 0x40 MLOAD PUSH32 0x8C4D35E54A3F2EF1134138FD8EA3DAEE6A3C89E10D2665996BABDF70261E2C76 SWAP1 PUSH2 0x41D SWAP1 DUP4 SWAP1 PUSH2 0x153D JUMP JUMPDEST PUSH1 0x40 MLOAD DUP1 SWAP2 SUB SWAP1 LOG1 POP JUMP JUMPDEST DUP4 PUSH1 0x1 PUSH1 0x1 PUSH1 0xA0 SHL SUB DUP2 AND PUSH2 0x450 JUMPI PUSH1 0x40 MLOAD PUSH4 0x4F0FF8A5 PUSH1 0xE1 SHL DUP2 MSTORE PUSH1 0x4 ADD PUSH1 0x40 MLOAD DUP1 SWAP2 SUB SWAP1 REVERT JUMPDEST DUP4 PUSH1 0x1 PUSH1 0x1 PUSH1 0xA0 SHL SUB DUP2 AND PUSH2 0x478 JUMPI PUSH1 0x40 MLOAD PUSH4 0x4F0FF8A5 PUSH1 0xE1 SHL DUP2 MSTORE PUSH1 0x4 ADD PUSH1 0x40 MLOAD DUP1 SWAP2 SUB SWAP1 REVERT JUMPDEST DUP3 DUP1 PUSH1 0x0 SUB PUSH2 0x49A JUMPI PUSH1 0x40 MLOAD PUSH4 0xEB9365E7 PUSH1 0xE0 SHL DUP2 MSTORE PUSH1 0x4 ADD PUSH1 0x40 MLOAD DUP1 SWAP2 SUB SWAP1 REVERT JUMPDEST PUSH1 0x40 MLOAD PUSH4 0x23B872DD PUSH1 0xE0 SHL DUP2 MSTORE PUSH1 0x1 PUSH1 0x1 PUSH1 0xA0 SHL SUB DUP8 AND SWAP1 PUSH4 0x23B872DD SWAP1 PUSH2 0x4CA SWAP1 DUP11 SWAP1 ADDRESS SWAP1 DUP10 SWAP1 PUSH1 0x4 ADD PUSH2 0x1AE1 JUMP JUMPDEST PUSH1 0x20 PUSH1 0x40 MLOAD DUP1 DUP4 SUB DUP2 PUSH1 0x0 DUP8 GAS CALL ISZERO DUP1 ISZERO PUSH2 0x4E9 JUMPI RETURNDATASIZE PUSH1 0x0 DUP1 RETURNDATACOPY RETURNDATASIZE PUSH1 0x0 REVERT JUMPDEST POP POP POP POP PUSH1 0x40 MLOAD RETURNDATASIZE PUSH1 0x1F NOT PUSH1 0x1F DUP3 ADD AND DUP3 ADD DUP1 PUSH1 0x40 MSTORE POP DUP2 ADD SWAP1 PUSH2 0x50D SWAP2 SWAP1 PUSH2 0x1B1C JUMP JUMPDEST POP DUP5 DUP7 PUSH1 0x1 PUSH1 0x1 PUSH1 0xA0 SHL SUB AND DUP9 PUSH1 0x1 PUSH1 0x1 PUSH1 0xA0 SHL SUB AND PUSH32 0x7C640DC4B99ABC9030F33ECD8184A0D9422BD4919DC19090F82CAE7AB4BB90BB CHAINID DUP9 PUSH1 0x2 SLOAD TIMESTAMP PUSH1 0x40 MLOAD PUSH2 0x55A SWAP5 SWAP4 SWAP3 SWAP2 SWAP1 PUSH2 0x1B3D JUMP JUMPDEST PUSH1 0x40 MLOAD DUP1 SWAP2 SUB SWAP1 LOG4 POP POP POP POP POP POP POP JUMP JUMPDEST DUP2 DUP1 PUSH1 0x0 SUB PUSH2 0x58D JUMPI PUSH1 0x40 MLOAD PUSH4 0xEB9365E7 PUSH1 0xE0 SHL DUP2 MSTORE PUSH1 0x4 ADD PUSH1 0x40 MLOAD DUP1 SWAP2 SUB SWAP1 REVERT JUMPDEST DUP2 PUSH1 0x1 PUSH1 0x1 PUSH1 0xA0 SHL SUB DUP2 AND PUSH2 0x5B5 JUMPI PUSH1 0x40 MLOAD PUSH4 0x4F0FF8A5 PUSH1 0xE1 SHL DUP2 MSTORE PUSH1 0x4 ADD PUSH1 0x40 MLOAD DUP1 SWAP2 SUB SWAP1 REVERT JUMPDEST PUSH1 0x40 DUP1 MLOAD PUSH1 0x20 DUP1 DUP3 ADD SWAP1 SWAP3 MSTORE PUSH1 0x0 SWAP1 MSTORE DUP6 MLOAD SWAP1 DUP7 ADD KECCAK256 PUSH32 0x3A2DB9FE7908DCC36D81824D2338FC3F1AFF49AC357DD8C4840527FBA27A5B90 ADD PUSH2 0x60A JUMPI PUSH1 0x40 MLOAD PUSH4 0x29ED017B PUSH1 0xE1 SHL DUP2 MSTORE PUSH1 0x4 ADD PUSH1 0x40 MLOAD DUP1 SWAP2 SUB SWAP1 REVERT JUMPDEST PUSH1 0x1 SLOAD PUSH1 0x40 MLOAD PUSH4 0x18C04BBB PUSH1 0xE0 SHL DUP2 MSTORE PUSH1 0x0 SWAP2 PUSH1 0x1 PUSH1 0x1 PUSH1 0xA0 SHL SUB AND SWAP1 PUSH4 0x18C04BBB SWAP1 PUSH2 0x63B SWAP1 DUP10 SWAP1 PUSH1 0x4 ADD PUSH2 0x1BD1 JUMP JUMPDEST PUSH1 0x20 PUSH1 0x40 MLOAD DUP1 DUP4 SUB DUP2 DUP7 GAS STATICCALL ISZERO DUP1 ISZERO PUSH2 0x658 JUMPI RETURNDATASIZE PUSH1 0x0 DUP1 RETURNDATACOPY RETURNDATASIZE PUSH1 0x0 REVERT JUMPDEST POP POP POP POP PUSH1 0x40 MLOAD RETURNDATASIZE PUSH1 0x1F NOT PUSH1 0x1F DUP3 ADD AND DUP3 ADD DUP1 PUSH1 0x40 MSTORE POP DUP2 ADD SWAP1 PUSH2 0x67C SWAP2 SWAP1 PUSH2 0x1BED JUMP JUMPDEST SWAP1 POP PUSH1 0x1 PUSH1 0x1 PUSH1 0xA0 SHL SUB DUP2 AND PUSH2 0x6A5 JUMPI PUSH1 0x40 MLOAD PUSH4 0x66B2CECF PUSH1 0xE1 SHL DUP2 MSTORE PUSH1 0x4 ADD PUSH1 0x40 MLOAD DUP1 SWAP2 SUB SWAP1 REVERT JUMPDEST PUSH1 0x1 SLOAD PUSH1 0x40 MLOAD PUSH4 0x2018C29 PUSH1 0xE1 SHL DUP2 MSTORE PUSH1 0x0 SWAP2 PUSH1 0x1 PUSH1 0x1 PUSH1 0xA0 SHL SUB AND SWAP1 PUSH4 0x4031852 SWAP1 PUSH2 0x6D8 SWAP1 DUP11 SWAP1 CALLER SWAP1 PUSH1 0x4 ADD PUSH2 0x1C0E JUMP JUMPDEST PUSH1 0x20 PUSH1 0x40 MLOAD DUP1 DUP4 SUB DUP2 DUP7 GAS STATICCALL ISZERO DUP1 ISZERO PUSH2 0x6F5 JUMPI RETURNDATASIZE PUSH1 0x0 DUP1 RETURNDATACOPY RETURNDATASIZE PUSH1 0x0 REVERT JUMPDEST POP POP POP POP PUSH1 0x40 MLOAD RETURNDATASIZE PUSH1 0x1F NOT PUSH1 0x1F DUP3 ADD AND DUP3 ADD DUP1 PUSH1 0x40 MSTORE POP DUP2 ADD SWAP1 PUSH2 0x719 SWAP2 SWAP1 PUSH2 0x1C39 JUMP JUMPDEST SWAP1 POP DUP6 DUP2 LT ISZERO PUSH2 0x73C JUMPI PUSH1 0x40 MLOAD PUSH4 0x16A1A6AB PUSH1 0xE1 SHL DUP2 MSTORE PUSH1 0x4 ADD PUSH1 0x40 MLOAD DUP1 SWAP2 SUB SWAP1 REVERT JUMPDEST PUSH1 0x1 SLOAD PUSH1 0x40 MLOAD PUSH4 0x3DAE446F PUSH1 0xE2 SHL DUP2 MSTORE PUSH1 0x1 PUSH1 0x1 PUSH1 0xA0 SHL SUB SWAP1 SWAP2 AND SWAP1 PUSH4 0xF6B911BC SWAP1 PUSH2 0x770 SWAP1 DUP6 SWAP1 DUP10 SWAP1 DUP12 SWAP1 PUSH1 0x4 ADD PUSH2 0x1AE1 JUMP JUMPDEST PUSH1 0x20 PUSH1 0x40 MLOAD DUP1 DUP4 SUB DUP2 PUSH1 0x0 DUP8 GAS CALL ISZERO DUP1 ISZERO PUSH2 0x78F JUMPI RETURNDATASIZE PUSH1 0x0 DUP1 RETURNDATACOPY RETURNDATASIZE PUSH1 0x0 REVERT JUMPDEST POP POP POP POP PUSH1 0x40 MLOAD RETURNDATASIZE PUSH1 0x1F NOT PUSH1 0x1F DUP3 ADD AND DUP3 ADD DUP1 PUSH1 0x40 MSTORE POP DUP2 ADD SWAP1 PUSH2 0x7B3 SWAP2 SWAP1 PUSH2 0x1B1C JUMP JUMPDEST POP CHAINID DUP6 PUSH1 0x1 PUSH1 0x1 PUSH1 0xA0 SHL SUB AND PUSH32 0x822728B2E9B3325A8F48B7E695AFC68B81E15A152AAA52500402D8AF303F6478 DUP5 DUP10 TIMESTAMP PUSH1 0x40 MLOAD PUSH2 0x7F2 SWAP4 SWAP3 SWAP2 SWAP1 PUSH2 0x1C5A JUMP JUMPDEST PUSH1 0x40 MLOAD DUP1 SWAP2 SUB SWAP1 LOG3 POP POP POP POP POP POP POP JUMP JUMPDEST DUP8 PUSH1 0x1 PUSH1 0x1 PUSH1 0xA0 SHL SUB DUP2 AND PUSH2 0x82B JUMPI PUSH1 0x40 MLOAD PUSH4 0x4F0FF8A5 PUSH1 0xE1 SHL DUP2 MSTORE PUSH1 0x4 ADD PUSH1 0x40 MLOAD DUP1 SWAP2 SUB SWAP1 REVERT JUMPDEST DUP8 PUSH1 0x1 PUSH1 0x1 PUSH1 0xA0 SHL SUB DUP2 AND PUSH2 0x853 JUMPI PUSH1 0x40 MLOAD PUSH4 0x4F0FF8A5 PUSH1 0xE1 SHL DUP2 MSTORE PUSH1 0x4 ADD PUSH1 0x40 MLOAD DUP1 SWAP2 SUB SWAP1 REVERT JUMPDEST DUP7 DUP1 PUSH1 0x0 SUB PUSH2 0x875 JUMPI PUSH1 0x40 MLOAD PUSH4 0xEB9365E7 PUSH1 0xE0 SHL DUP2 MSTORE PUSH1 0x4 ADD PUSH1 0x40 MLOAD DUP1 SWAP2 SUB SWAP1 REVERT JUMPDEST PUSH1 0x40 MLOAD PUSH4 0xD505ACCF PUSH1 0xE0 SHL DUP2 MSTORE PUSH1 0x1 PUSH1 0x1 PUSH1 0xA0 SHL SUB DUP12 AND SWAP1 PUSH4 0xD505ACCF SWAP1 PUSH2 0x8AD SWAP1 DUP15 SWAP1 ADDRESS SWAP1 DUP14 SWAP1 DUP14 SWAP1 DUP14 SWAP1 DUP14 SWAP1 DUP14 SWAP1 PUSH1 0x4 ADD PUSH2 0x1C7E JUMP JUMPDEST PUSH1 0x0 PUSH1 0x40 MLOAD DUP1 DUP4 SUB DUP2 PUSH1 0x0 DUP8 DUP1 EXTCODESIZE ISZERO DUP1 ISZERO PUSH2 0x8C7 JUMPI PUSH1 0x0 DUP1 REVERT JUMPDEST POP GAS CALL ISZERO DUP1 ISZERO PUSH2 0x8DB JUMPI RETURNDATASIZE PUSH1 0x0 DUP1 RETURNDATACOPY RETURNDATASIZE PUSH1 0x0 REVERT JUMPDEST POP POP PUSH1 0x40 MLOAD PUSH4 0x23B872DD PUSH1 0xE0 SHL DUP2 MSTORE PUSH1 0x1 PUSH1 0x1 PUSH1 0xA0 SHL SUB DUP14 AND SWAP3 POP PUSH4 0x23B872DD SWAP2 POP PUSH2 0x90F SWAP1 DUP15 SWAP1 ADDRESS SWAP1 DUP14 SWAP1 PUSH1 0x4 ADD PUSH2 0x1AE1 JUMP JUMPDEST PUSH1 0x20 PUSH1 0x40 MLOAD DUP1 DUP4 SUB DUP2 PUSH1 0x0 DUP8 GAS CALL ISZERO DUP1 ISZERO PUSH2 0x92E JUMPI RETURNDATASIZE PUSH1 0x0 DUP1 RETURNDATACOPY RETURNDATASIZE PUSH1 0x0 REVERT JUMPDEST POP POP POP POP PUSH1 0x40 MLOAD RETURNDATASIZE PUSH1 0x1F NOT PUSH1 0x1F DUP3 ADD AND DUP3 ADD DUP1 PUSH1 0x40 MSTORE POP DUP2 ADD SWAP1 PUSH2 0x952 SWAP2 SWAP1 PUSH2 0x1B1C JUMP JUMPDEST POP DUP9 DUP11 PUSH1 0x1 PUSH1 0x1 PUSH1 0xA0 SHL SUB AND DUP13 PUSH1 0x1 PUSH1 0x1 PUSH1 0xA0 SHL SUB AND PUSH32 0x7C640DC4B99ABC9030F33ECD8184A0D9422BD4919DC19090F82CAE7AB4BB90BB CHAINID DUP13 PUSH1 0x2 SLOAD TIMESTAMP PUSH1 0x40 MLOAD PUSH2 0x99F SWAP5 SWAP4 SWAP3 SWAP2 SWAP1 PUSH2 0x1B3D JUMP JUMPDEST PUSH1 0x40 MLOAD DUP1 SWAP2 SUB SWAP1 LOG4 POP POP POP POP POP POP POP POP POP POP POP JUMP JUMPDEST DUP3 PUSH1 0x1 PUSH1 0x1 PUSH1 0xA0 SHL SUB DUP2 AND PUSH2 0x9DC JUMPI PUSH1 0x40 MLOAD PUSH4 0x4F0FF8A5 PUSH1 0xE1 SHL DUP2 MSTORE PUSH1 0x4 ADD PUSH1 0x40 MLOAD DUP1 SWAP2 SUB SWAP1 REVERT JUMPDEST DUP3 PUSH1 0x1 PUSH1 0x1 PUSH1 0xA0 SHL SUB DUP2 AND PUSH2 0xA04 JUMPI PUSH1 0x40 MLOAD PUSH4 0x4F0FF8A5 PUSH1 0xE1 SHL DUP2 MSTORE PUSH1 0x4 ADD PUSH1 0x40 MLOAD DUP1 SWAP2 SUB SWAP1 REVERT JUMPDEST DUP3 DUP1 PUSH1 0x0 SUB PUSH2 0xA26 JUMPI PUSH1 0x40 MLOAD PUSH4 0xEB9365E7 PUSH1 0xE0 SHL DUP2 MSTORE PUSH1 0x4 ADD PUSH1 0x40 MLOAD DUP1 SWAP2 SUB SWAP1 REVERT JUMPDEST CALLER PUSH1 0x0 SWAP1 DUP2 MSTORE PUSH32 0x4DDFBA09FD552DFFA20D1BCDFBA7591474BEA12D8293370C1F8E96088236FF9F PUSH1 0x20 MSTORE PUSH1 0x40 SWAP1 KECCAK256 SLOAD PUSH1 0xFF AND PUSH2 0xA75 JUMPI PUSH1 0x40 MLOAD PUSH4 0x3E78B921 PUSH1 0xE0 SHL DUP2 MSTORE PUSH1 0x4 ADD PUSH1 0x40 MLOAD DUP1 SWAP2 SUB SWAP1 REVERT JUMPDEST PUSH1 0x40 MLOAD PUSH4 0xA9059CBB PUSH1 0xE0 SHL DUP2 MSTORE PUSH1 0x1 PUSH1 0x1 PUSH1 0xA0 SHL SUB DUP7 AND SWAP1 PUSH4 0xA9059CBB SWAP1 PUSH2 0xAA3 SWAP1 DUP10 SWAP1 DUP9 SWAP1 PUSH1 0x4 ADD PUSH2 0x1CE6 JUMP JUMPDEST PUSH1 0x20 PUSH1 0x40 MLOAD DUP1 DUP4 SUB DUP2 PUSH1 0x0 DUP8 GAS CALL ISZERO DUP1 ISZERO PUSH2 0xAC2 JUMPI RETURNDATASIZE PUSH1 0x0 DUP1 RETURNDATACOPY RETURNDATASIZE PUSH1 0x0 REVERT JUMPDEST POP POP POP POP PUSH1 0x40 MLOAD RETURNDATASIZE PUSH1 0x1F NOT PUSH1 0x1F DUP3 ADD AND DUP3 ADD DUP1 PUSH1 0x40 MSTORE POP DUP2 ADD SWAP1 PUSH2 0xAE6 SWAP2 SWAP1 PUSH2 0x1B1C JUMP JUMPDEST POP CHAINID DUP7 PUSH1 0x1 PUSH1 0x1 PUSH1 0xA0 SHL SUB AND PUSH32 0x65CD6A06CA30D1A4E804E78CF9B5610E805BF360DACEBE97903B74AAF903886F DUP8 DUP8 TIMESTAMP PUSH1 0x40 MLOAD PUSH2 0xB25 SWAP4 SWAP3 SWAP2 SWAP1 PUSH2 0x1C5A JUMP JUMPDEST PUSH1 0x40 MLOAD DUP1 SWAP2 SUB SWAP1 LOG3 POP POP POP POP POP POP JUMP JUMPDEST PUSH1 0x0 DUP3 DUP2 MSTORE PUSH1 0x20 DUP2 SWAP1 MSTORE PUSH1 0x40 SWAP1 KECCAK256 PUSH1 0x1 ADD SLOAD PUSH2 0xB50 DUP2 PUSH2 0x11A5 JUMP JUMPDEST PUSH2 0x355 DUP4 DUP4 PUSH2 0x1250 JUMP JUMPDEST DUP6 DUP1 PUSH1 0x0 SUB PUSH2 0xB7C JUMPI PUSH1 0x40 MLOAD PUSH4 0xEB9365E7 PUSH1 0xE0 SHL DUP2 MSTORE PUSH1 0x4 ADD PUSH1 0x40 MLOAD DUP1 SWAP2 SUB SWAP1 REVERT JUMPDEST DUP6 PUSH1 0x1 PUSH1 0x1 PUSH1 0xA0 SHL SUB DUP2 AND PUSH2 0xBA4 JUMPI PUSH1 0x40 MLOAD PUSH4 0x4F0FF8A5 PUSH1 0xE1 SHL DUP2 MSTORE PUSH1 0x4 ADD PUSH1 0x40 MLOAD DUP1 SWAP2 SUB SWAP1 REVERT JUMPDEST PUSH1 0x40 DUP1 MLOAD PUSH1 0x20 DUP1 DUP3 ADD SWAP1 SWAP3 MSTORE PUSH1 0x0 SWAP1 MSTORE DUP10 MLOAD SWAP1 DUP11 ADD KECCAK256 PUSH32 0x3A2DB9FE7908DCC36D81824D2338FC3F1AFF49AC357DD8C4840527FBA27A5B90 ADD PUSH2 0xBF9 JUMPI PUSH1 0x40 MLOAD PUSH4 0x29ED017B PUSH1 0xE1 SHL DUP2 MSTORE PUSH1 0x4 ADD PUSH1 0x40 MLOAD DUP1 SWAP2 SUB SWAP1 REVERT JUMPDEST PUSH1 0x1 SLOAD PUSH1 0x40 MLOAD PUSH4 0x18C04BBB PUSH1 0xE0 SHL DUP2 MSTORE PUSH1 0x0 SWAP2 PUSH1 0x1 PUSH1 0x1 PUSH1 0xA0 SHL SUB AND SWAP1 PUSH4 0x18C04BBB SWAP1 PUSH2 0xC2A SWAP1 DUP14 SWAP1 PUSH1 0x4 ADD PUSH2 0x1BD1 JUMP JUMPDEST PUSH1 0x20 PUSH1 0x40 MLOAD DUP1 DUP4 SUB DUP2 DUP7 GAS STATICCALL ISZERO DUP1 ISZERO PUSH2 0xC47 JUMPI RETURNDATASIZE PUSH1 0x0 DUP1 RETURNDATACOPY RETURNDATASIZE PUSH1 0x0 REVERT JUMPDEST POP POP POP POP PUSH1 0x40 MLOAD RETURNDATASIZE PUSH1 0x1F NOT PUSH1 0x1F DUP3 ADD AND DUP3 ADD DUP1 PUSH1 0x40 MSTORE POP DUP2 ADD SWAP1 PUSH2 0xC6B SWAP2 SWAP1 PUSH2 0x1BED JUMP JUMPDEST SWAP1 POP PUSH1 0x1 PUSH1 0x1 PUSH1 0xA0 SHL SUB DUP2 AND PUSH2 0xC94 JUMPI PUSH1 0x40 MLOAD PUSH4 0x66B2CECF PUSH1 0xE1 SHL DUP2 MSTORE PUSH1 0x4 ADD PUSH1 0x40 MLOAD DUP1 SWAP2 SUB SWAP1 REVERT JUMPDEST PUSH1 0x1 SLOAD PUSH1 0x40 MLOAD PUSH4 0x2018C29 PUSH1 0xE1 SHL DUP2 MSTORE PUSH1 0x0 SWAP2 PUSH1 0x1 PUSH1 0x1 PUSH1 0xA0 SHL SUB AND SWAP1 PUSH4 0x4031852 SWAP1 PUSH2 0xCC7 SWAP1 DUP15 SWAP1 CALLER SWAP1 PUSH1 0x4 ADD PUSH2 0x1C0E JUMP JUMPDEST PUSH1 0x20 PUSH1 0x40 MLOAD DUP1 DUP4 SUB DUP2 DUP7 GAS STATICCALL ISZERO DUP1 ISZERO PUSH2 0xCE4 JUMPI RETURNDATASIZE PUSH1 0x0 DUP1 RETURNDATACOPY RETURNDATASIZE PUSH1 0x0 REVERT JUMPDEST POP POP POP POP PUSH1 0x40 MLOAD RETURNDATASIZE PUSH1 0x1F NOT PUSH1 0x1F DUP3 ADD AND DUP3 ADD DUP1 PUSH1 0x40 MSTORE POP DUP2 ADD SWAP1 PUSH2 0xD08 SWAP2 SWAP1 PUSH2 0x1C39 JUMP JUMPDEST SWAP1 POP DUP10 DUP2 LT ISZERO PUSH2 0xD2B JUMPI PUSH1 0x40 MLOAD PUSH4 0x16A1A6AB PUSH1 0xE1 SHL DUP2 MSTORE PUSH1 0x4 ADD PUSH1 0x40 MLOAD DUP1 SWAP2 SUB SWAP1 REVERT JUMPDEST PUSH1 0x1 SLOAD PUSH1 0x40 MLOAD PUSH4 0x2DCE1F6B PUSH1 0xE0 SHL DUP2 MSTORE PUSH1 0x1 PUSH1 0x1 PUSH1 0xA0 SHL SUB SWAP1 SWAP2 AND SWAP1 PUSH4 0x2DCE1F6B SWAP1 PUSH2 0xD67 SWAP1 DUP6 SWAP1 DUP14 SWAP1 DUP16 SWAP1 DUP15 SWAP1 DUP15 SWAP1 DUP15 SWAP1 DUP15 SWAP1 PUSH1 0x4 ADD PUSH2 0x1C7E JUMP JUMPDEST PUSH1 0x20 PUSH1 0x40 MLOAD DUP1 DUP4 SUB DUP2 PUSH1 0x0 DUP8 GAS CALL ISZERO DUP1 ISZERO PUSH2 0xD86 JUMPI RETURNDATASIZE PUSH1 0x0 DUP1 RETURNDATACOPY RETURNDATASIZE PUSH1 0x0 REVERT JUMPDEST POP POP POP POP PUSH1 0x40 MLOAD RETURNDATASIZE PUSH1 0x1F NOT PUSH1 0x1F DUP3 ADD AND DUP3 ADD DUP1 PUSH1 0x40 MSTORE POP DUP2 ADD SWAP1 PUSH2 0xDAA SWAP2 SWAP1 PUSH2 0x1B1C JUMP JUMPDEST POP CHAINID DUP10 PUSH1 0x1 PUSH1 0x1 PUSH1 0xA0 SHL SUB AND PUSH32 0x822728B2E9B3325A8F48B7E695AFC68B81E15A152AAA52500402D8AF303F6478 DUP5 DUP14 TIMESTAMP PUSH1 0x40 MLOAD PUSH2 0xDE9 SWAP4 SWAP3 SWAP2 SWAP1 PUSH2 0x1C5A JUMP JUMPDEST PUSH1 0x40 MLOAD DUP1 SWAP2 SUB SWAP1 LOG3 POP POP POP POP POP POP POP POP POP POP POP JUMP JUMPDEST DUP3 PUSH1 0x1 PUSH1 0x1 PUSH1 0xA0 SHL SUB DUP2 AND PUSH2 0xE26 JUMPI PUSH1 0x40 MLOAD PUSH4 0x4F0FF8A5 PUSH1 0xE1 SHL DUP2 MSTORE PUSH1 0x4 ADD PUSH1 0x40 MLOAD DUP1 SWAP2 SUB SWAP1 REVERT JUMPDEST DUP3 PUSH1 0x1 PUSH1 0x1 PUSH1 0xA0 SHL SUB DUP2 AND PUSH2 0xE4E JUMPI PUSH1 0x40 MLOAD PUSH4 0x4F0FF8A5 PUSH1 0xE1 SHL DUP2 MSTORE PUSH1 0x4 ADD PUSH1 0x40 MLOAD DUP1 SWAP2 SUB SWAP1 REVERT JUMPDEST DUP3 DUP1 PUSH1 0x0 SUB PUSH2 0xE70 JUMPI PUSH1 0x40 MLOAD PUSH4 0xEB9365E7 PUSH1 0xE0 SHL DUP2 MSTORE PUSH1 0x4 ADD PUSH1 0x40 MLOAD DUP1 SWAP2 SUB SWAP1 REVERT JUMPDEST CALLER PUSH1 0x0 SWAP1 DUP2 MSTORE PUSH32 0x4DDFBA09FD552DFFA20D1BCDFBA7591474BEA12D8293370C1F8E96088236FF9F PUSH1 0x20 MSTORE PUSH1 0x40 SWAP1 KECCAK256 SLOAD PUSH1 0xFF AND PUSH2 0xEBF JUMPI PUSH1 0x40 MLOAD PUSH4 0x3E78B921 PUSH1 0xE0 SHL DUP2 MSTORE PUSH1 0x4 ADD PUSH1 0x40 MLOAD DUP1 SWAP2 SUB SWAP1 REVERT JUMPDEST PUSH1 0x40 DUP1 MLOAD PUSH1 0x20 DUP1 DUP3 ADD SWAP1 SWAP3 MSTORE PUSH1 0x0 SWAP1 MSTORE DUP9 MLOAD SWAP1 DUP10 ADD KECCAK256 PUSH32 0x3A2DB9FE7908DCC36D81824D2338FC3F1AFF49AC357DD8C4840527FBA27A5B90 ADD PUSH2 0xF14 JUMPI PUSH1 0x40 MLOAD PUSH4 0x29ED017B PUSH1 0xE1 SHL DUP2 MSTORE PUSH1 0x4 ADD PUSH1 0x40 MLOAD DUP1 SWAP2 SUB SWAP1 REVERT JUMPDEST PUSH1 0x40 DUP1 MLOAD PUSH1 0x20 DUP1 DUP3 ADD SWAP1 SWAP3 MSTORE PUSH1 0x0 SWAP1 MSTORE DUP8 MLOAD SWAP1 DUP9 ADD KECCAK256 PUSH32 0x3A2DB9FE7908DCC36D81824D2338FC3F1AFF49AC357DD8C4840527FBA27A5B90 ADD PUSH2 0xF69 JUMPI PUSH1 0x40 MLOAD PUSH4 0x41C14C8B PUSH1 0xE0 SHL DUP2 MSTORE PUSH1 0x4 ADD PUSH1 0x40 MLOAD DUP1 SWAP2 SUB SWAP1 REVERT JUMPDEST PUSH1 0x0 DUP9 PUSH1 0x40 MLOAD PUSH1 0x20 ADD PUSH2 0xF7C SWAP2 SWAP1 PUSH2 0x1D23 JUMP JUMPDEST PUSH1 0x40 DUP1 MLOAD PUSH1 0x1F NOT DUP2 DUP5 SUB ADD DUP2 MSTORE SWAP1 DUP3 SWAP1 MSTORE PUSH1 0x1 SLOAD PUSH4 0x18C04BBB PUSH1 0xE0 SHL DUP4 MSTORE SWAP1 SWAP3 POP PUSH1 0x0 SWAP2 PUSH1 0x1 PUSH1 0x1 PUSH1 0xA0 SHL SUB SWAP1 SWAP2 AND SWAP1 PUSH4 0x18C04BBB SWAP1 PUSH2 0xFC0 SWAP1 DUP6 SWAP1 PUSH1 0x4 ADD PUSH2 0x1BD1 JUMP JUMPDEST PUSH1 0x20 PUSH1 0x40 MLOAD DUP1 DUP4 SUB DUP2 DUP7 GAS STATICCALL ISZERO DUP1 ISZERO PUSH2 0xFDD JUMPI RETURNDATASIZE PUSH1 0x0 DUP1 RETURNDATACOPY RETURNDATASIZE PUSH1 0x0 REVERT JUMPDEST POP POP POP POP PUSH1 0x40 MLOAD RETURNDATASIZE PUSH1 0x1F NOT PUSH1 0x1F DUP3 ADD AND DUP3 ADD DUP1 PUSH1 0x40 MSTORE POP DUP2 ADD SWAP1 PUSH2 0x1001 SWAP2 SWAP1 PUSH2 0x1BED JUMP JUMPDEST SWAP1 POP PUSH1 0x1 PUSH1 0x1 PUSH1 0xA0 SHL SUB DUP2 AND PUSH2 0x10C4 JUMPI PUSH1 0x1 SLOAD PUSH1 0x40 MLOAD PUSH4 0x518F58C5 PUSH1 0xE0 SHL DUP2 MSTORE PUSH1 0x1 PUSH1 0x1 PUSH1 0xA0 SHL SUB SWAP1 SWAP2 AND SWAP1 PUSH4 0x518F58C5 SWAP1 PUSH2 0x1043 SWAP1 DUP13 SWAP1 DUP7 SWAP1 PUSH1 0x4 ADD PUSH2 0x1D39 JUMP JUMPDEST PUSH1 0x20 PUSH1 0x40 MLOAD DUP1 DUP4 SUB DUP2 PUSH1 0x0 DUP8 GAS CALL ISZERO DUP1 ISZERO PUSH2 0x1062 JUMPI RETURNDATASIZE PUSH1 0x0 DUP1 RETURNDATACOPY RETURNDATASIZE PUSH1 0x0 REVERT JUMPDEST POP POP POP POP PUSH1 0x40 MLOAD RETURNDATASIZE PUSH1 0x1F NOT PUSH1 0x1F DUP3 ADD AND DUP3 ADD DUP1 PUSH1 0x40 MSTORE POP DUP2 ADD SWAP1 PUSH2 0x1086 SWAP2 SWAP1 PUSH2 0x1BED JUMP JUMPDEST PUSH1 0x1 PUSH1 0x1 PUSH1 0xA0 SHL SUB DUP2 DUP2 AND PUSH1 0x0 SWAP1 DUP2 MSTORE PUSH1 0x3 PUSH1 0x20 MSTORE PUSH1 0x40 SWAP1 KECCAK256 DUP1 SLOAD PUSH20 0xFFFFFFFFFFFFFFFFFFFFFFFFFFFFFFFFFFFFFFFF NOT AND SWAP2 DUP11 AND SWAP2 SWAP1 SWAP2 OR SWAP1 SSTORE SWAP1 POP JUMPDEST PUSH1 0x1 SLOAD PUSH1 0x40 MLOAD PUSH4 0x7E8816B9 PUSH1 0xE0 SHL DUP2 MSTORE PUSH1 0x1 PUSH1 0x1 PUSH1 0xA0 SHL SUB SWAP1 SWAP2 AND SWAP1 PUSH4 0x7E8816B9 SWAP1 PUSH2 0x10F8 SWAP1 DUP6 SWAP1 DUP13 SWAP1 DUP12 SWAP1 PUSH1 0x4 ADD PUSH2 0x1D5E JUMP JUMPDEST PUSH1 0x20 PUSH1 0x40 MLOAD DUP1 DUP4 SUB DUP2 PUSH1 0x0 DUP8 GAS CALL ISZERO DUP1 ISZERO PUSH2 0x1117 JUMPI RETURNDATASIZE PUSH1 0x0 DUP1 RETURNDATACOPY RETURNDATASIZE PUSH1 0x0 REVERT JUMPDEST POP POP POP POP PUSH1 0x40 MLOAD RETURNDATASIZE PUSH1 0x1F NOT PUSH1 0x1F DUP3 ADD AND DUP3 ADD DUP1 PUSH1 0x40 MSTORE POP DUP2 ADD SWAP1 PUSH2 0x113B SWAP2 SWAP1 PUSH2 0x1B1C JUMP JUMPDEST POP DUP2 PUSH1 0x40 MLOAD PUSH2 0x114A SWAP2 SWAP1 PUSH2 0x1D7E JUMP JUMPDEST PUSH1 0x40 MLOAD DUP1 SWAP2 SUB SWAP1 KECCAK256 CHAINID DUP10 PUSH1 0x1 PUSH1 0x1 PUSH1 0xA0 SHL SUB AND PUSH31 0x21EA588197CE7E376EC3C4248FBDBCF230305A4F7B8F00874A9F5BDC2995AA DUP5 DUP11 TIMESTAMP DUP16 PUSH1 0x40 MLOAD PUSH2 0x1191 SWAP5 SWAP4 SWAP3 SWAP2 SWAP1 PUSH2 0x1D8A JUMP JUMPDEST PUSH1 0x40 MLOAD DUP1 SWAP2 SUB SWAP1 LOG4 POP POP POP POP POP POP POP POP POP POP JUMP JUMPDEST PUSH2 0x11AF DUP2 CALLER PUSH2 0x12CF JUMP JUMPDEST POP JUMP JUMPDEST PUSH1 0x0 DUP3 DUP2 MSTORE PUSH1 0x20 DUP2 DUP2 MSTORE PUSH1 0x40 DUP1 DUP4 KECCAK256 PUSH1 0x1 PUSH1 0x1 PUSH1 0xA0 SHL SUB DUP6 AND DUP5 MSTORE SWAP1 SWAP2 MSTORE SWAP1 KECCAK256 SLOAD PUSH1 0xFF AND PUSH2 0x395 JUMPI PUSH1 0x0 DUP3 DUP2 MSTORE PUSH1 0x20 DUP2 DUP2 MSTORE PUSH1 0x40 DUP1 DUP4 KECCAK256 PUSH1 0x1 PUSH1 0x1 PUSH1 0xA0 SHL SUB DUP6 AND DUP5 MSTORE SWAP1 SWAP2 MSTORE SWAP1 KECCAK256 DUP1 SLOAD PUSH1 0xFF NOT AND PUSH1 0x1 OR SWAP1 SSTORE PUSH2 0x120C CALLER SWAP1 JUMP JUMPDEST PUSH1 0x1 PUSH1 0x1 PUSH1 0xA0 SHL SUB AND DUP2 PUSH1 0x1 PUSH1 0x1 PUSH1 0xA0 SHL SUB AND DUP4 PUSH32 0x2F8788117E7EFF1D82E926EC794901D17C78024A50270940304540A733656F0D PUSH1 0x40 MLOAD PUSH1 0x40 MLOAD DUP1 SWAP2 SUB SWAP1 LOG4 POP POP JUMP JUMPDEST PUSH1 0x0 DUP3 DUP2 MSTORE PUSH1 0x20 DUP2 DUP2 MSTORE PUSH1 0x40 DUP1 DUP4 KECCAK256 PUSH1 0x1 PUSH1 0x1 PUSH1 0xA0 SHL SUB DUP6 AND DUP5 MSTORE SWAP1 SWAP2 MSTORE SWAP1 KECCAK256 SLOAD PUSH1 0xFF AND ISZERO PUSH2 0x395 JUMPI PUSH1 0x0 DUP3 DUP2 MSTORE PUSH1 0x20 DUP2 DUP2 MSTORE PUSH1 0x40 DUP1 DUP4 KECCAK256 PUSH1 0x1 PUSH1 0x1 PUSH1 0xA0 SHL SUB DUP6 AND DUP1 DUP6 MSTORE SWAP3 MSTORE DUP1 DUP4 KECCAK256 DUP1 SLOAD PUSH1 0xFF NOT AND SWAP1 SSTORE MLOAD CALLER SWAP3 DUP6 SWAP2 PUSH32 0xF6391F5C32D9C69D2A47EA670B442974B53935D1EDC7FD64EB21E047A839171B SWAP2 SWAP1 LOG4 POP POP JUMP JUMPDEST PUSH1 0x0 DUP3 DUP2 MSTORE PUSH1 0x20 DUP2 DUP2 MSTORE PUSH1 0x40 DUP1 DUP4 KECCAK256 PUSH1 0x1 PUSH1 0x1 PUSH1 0xA0 SHL SUB DUP6 AND DUP5 MSTORE SWAP1 SWAP2 MSTORE SWAP1 KECCAK256 SLOAD PUSH1 0xFF AND PUSH2 0x395 JUMPI PUSH2 0x1300 DUP2 PUSH2 0x1342 JUMP JUMPDEST PUSH2 0x130B DUP4 PUSH1 0x20 PUSH2 0x1354 JUMP JUMPDEST PUSH1 0x40 MLOAD PUSH1 0x20 ADD PUSH2 0x131C SWAP3 SWAP2 SWAP1 PUSH2 0x1DCE JUMP JUMPDEST PUSH1 0x40 DUP1 MLOAD PUSH1 0x1F NOT DUP2 DUP5 SUB ADD DUP2 MSTORE SWAP1 DUP3 SWAP1 MSTORE PUSH3 0x461BCD PUSH1 0xE5 SHL DUP3 MSTORE PUSH2 0x382 SWAP2 PUSH1 0x4 ADD PUSH2 0x1BD1 JUMP JUMPDEST PUSH1 0x60 PUSH2 0x32A PUSH1 0x1 PUSH1 0x1 PUSH1 0xA0 SHL SUB DUP4 AND PUSH1 0x14 JUMPDEST PUSH1 0x60 PUSH1 0x0 PUSH2 0x1363 DUP4 PUSH1 0x2 PUSH2 0x1E48 JUMP JUMPDEST PUSH2 0x136E SWAP1 PUSH1 0x2 PUSH2 0x1E67 JUMP JUMPDEST PUSH8 0xFFFFFFFFFFFFFFFF DUP2 GT ISZERO PUSH2 0x1386 JUMPI PUSH2 0x1386 PUSH2 0x1643 JUMP JUMPDEST PUSH1 0x40 MLOAD SWAP1 DUP1 DUP3 MSTORE DUP1 PUSH1 0x1F ADD PUSH1 0x1F NOT AND PUSH1 0x20 ADD DUP3 ADD PUSH1 0x40 MSTORE DUP1 ISZERO PUSH2 0x13B0 JUMPI PUSH1 0x20 DUP3 ADD DUP2 DUP1 CALLDATASIZE DUP4 CALLDATACOPY ADD SWAP1 POP JUMPDEST POP SWAP1 POP PUSH1 0x3 PUSH1 0xFC SHL DUP2 PUSH1 0x0 DUP2 MLOAD DUP2 LT PUSH2 0x13CB JUMPI PUSH2 0x13CB PUSH2 0x1E7A JUMP JUMPDEST PUSH1 0x20 ADD ADD SWAP1 PUSH1 0x1 PUSH1 0x1 PUSH1 0xF8 SHL SUB NOT AND SWAP1 DUP2 PUSH1 0x0 BYTE SWAP1 MSTORE8 POP PUSH1 0xF PUSH1 0xFB SHL DUP2 PUSH1 0x1 DUP2 MLOAD DUP2 LT PUSH2 0x13FA JUMPI PUSH2 0x13FA PUSH2 0x1E7A JUMP JUMPDEST PUSH1 0x20 ADD ADD SWAP1 PUSH1 0x1 PUSH1 0x1 PUSH1 0xF8 SHL SUB NOT AND SWAP1 DUP2 PUSH1 0x0 BYTE SWAP1 MSTORE8 POP PUSH1 0x0 PUSH2 0x141E DUP5 PUSH1 0x2 PUSH2 0x1E48 JUMP JUMPDEST PUSH2 0x1429 SWAP1 PUSH1 0x1 PUSH2 0x1E67 JUMP JUMPDEST SWAP1 POP JUMPDEST PUSH1 0x1 DUP2 GT ISZERO PUSH2 0x14AE JUMPI PUSH32 0x3031323334353637383961626364656600000000000000000000000000000000 DUP6 PUSH1 0xF AND PUSH1 0x10 DUP2 LT PUSH2 0x146A JUMPI PUSH2 0x146A PUSH2 0x1E7A JUMP JUMPDEST BYTE PUSH1 0xF8 SHL DUP3 DUP3 DUP2 MLOAD DUP2 LT PUSH2 0x1480 JUMPI PUSH2 0x1480 PUSH2 0x1E7A JUMP JUMPDEST PUSH1 0x20 ADD ADD SWAP1 PUSH1 0x1 PUSH1 0x1 PUSH1 0xF8 SHL SUB NOT AND SWAP1 DUP2 PUSH1 0x0 BYTE SWAP1 MSTORE8 POP PUSH1 0x4 SWAP5 SWAP1 SWAP5 SHR SWAP4 PUSH2 0x14A7 DUP2 PUSH2 0x1E90 JUMP JUMPDEST SWAP1 POP PUSH2 0x142C JUMP JUMPDEST POP DUP4 ISZERO PUSH2 0x14CD JUMPI PUSH1 0x40 MLOAD PUSH3 0x461BCD PUSH1 0xE5 SHL DUP2 MSTORE PUSH1 0x4 ADD PUSH2 0x382 SWAP1 PUSH2 0x1EA7 JUMP JUMPDEST SWAP4 SWAP3 POP POP POP JUMP JUMPDEST PUSH1 0x1 PUSH1 0x1 PUSH1 0xE0 SHL SUB NOT DUP2 AND JUMPDEST DUP2 EQ PUSH2 0x11AF JUMPI PUSH1 0x0 DUP1 REVERT JUMPDEST DUP1 CALLDATALOAD PUSH2 0x32A DUP2 PUSH2 0x14D4 JUMP JUMPDEST PUSH1 0x0 PUSH1 0x20 DUP3 DUP5 SUB SLT ISZERO PUSH2 0x150B JUMPI PUSH2 0x150B PUSH1 0x0 DUP1 REVERT JUMPDEST PUSH1 0x0 PUSH2 0x1517 DUP5 DUP5 PUSH2 0x14EB JUMP JUMPDEST SWAP5 SWAP4 POP POP POP POP JUMP JUMPDEST DUP1 ISZERO ISZERO JUMPDEST DUP3 MSTORE POP POP JUMP JUMPDEST PUSH1 0x20 DUP2 ADD PUSH2 0x32A DUP3 DUP5 PUSH2 0x151F JUMP JUMPDEST DUP1 PUSH2 0x1523 JUMP JUMPDEST PUSH1 0x20 DUP2 ADD PUSH2 0x32A DUP3 DUP5 PUSH2 0x1537 JUMP JUMPDEST DUP1 PUSH2 0x14E0 JUMP JUMPDEST DUP1 CALLDATALOAD PUSH2 0x32A DUP2 PUSH2 0x154B JUMP JUMPDEST PUSH1 0x0 PUSH1 0x20 DUP3 DUP5 SUB SLT ISZERO PUSH2 0x1571 JUMPI PUSH2 0x1571 PUSH1 0x0 DUP1 REVERT JUMPDEST PUSH1 0x0 PUSH2 0x1517 DUP5 DUP5 PUSH2 0x1551 JUMP JUMPDEST PUSH1 0x0 PUSH1 0x1 PUSH1 0x1 PUSH1 0xA0 SHL SUB DUP3 AND PUSH2 0x32A JUMP JUMPDEST PUSH2 0x14E0 DUP2 PUSH2 0x157D JUMP JUMPDEST DUP1 CALLDATALOAD PUSH2 0x32A DUP2 PUSH2 0x158E JUMP JUMPDEST PUSH1 0x0 DUP1 PUSH1 0x40 DUP4 DUP6 SUB SLT ISZERO PUSH2 0x15B8 JUMPI PUSH2 0x15B8 PUSH1 0x0 DUP1 REVERT JUMPDEST PUSH1 0x0 PUSH2 0x15C4 DUP6 DUP6 PUSH2 0x1551 JUMP JUMPDEST SWAP3 POP POP PUSH1 0x20 PUSH2 0x15D5 DUP6 DUP3 DUP7 ADD PUSH2 0x1597 JUMP JUMPDEST SWAP2 POP POP SWAP3 POP SWAP3 SWAP1 POP JUMP JUMPDEST PUSH1 0x0 DUP1 PUSH1 0x0 DUP1 PUSH1 0x80 DUP6 DUP8 SUB SLT ISZERO PUSH2 0x15F8 JUMPI PUSH2 0x15F8 PUSH1 0x0 DUP1 REVERT JUMPDEST PUSH1 0x0 PUSH2 0x1604 DUP8 DUP8 PUSH2 0x1597 JUMP JUMPDEST SWAP5 POP POP PUSH1 0x20 PUSH2 0x1615 DUP8 DUP3 DUP9 ADD PUSH2 0x1597 JUMP JUMPDEST SWAP4 POP POP PUSH1 0x40 PUSH2 0x1626 DUP8 DUP3 DUP9 ADD PUSH2 0x1551 JUMP JUMPDEST SWAP3 POP POP PUSH1 0x60 PUSH2 0x1637 DUP8 DUP3 DUP9 ADD PUSH2 0x1551 JUMP JUMPDEST SWAP2 POP POP SWAP3 SWAP6 SWAP2 SWAP5 POP SWAP3 POP JUMP JUMPDEST PUSH4 0x4E487B71 PUSH1 0xE0 SHL PUSH1 0x0 MSTORE PUSH1 0x41 PUSH1 0x4 MSTORE PUSH1 0x24 PUSH1 0x0 REVERT JUMPDEST PUSH1 0x1F NOT PUSH1 0x1F DUP4 ADD AND DUP2 ADD DUP2 DUP2 LT PUSH8 0xFFFFFFFFFFFFFFFF DUP3 GT OR ISZERO PUSH2 0x167F JUMPI PUSH2 0x167F PUSH2 0x1643 JUMP JUMPDEST PUSH1 0x40 MSTORE POP POP JUMP JUMPDEST PUSH1 0x0 PUSH2 0x1691 PUSH1 0x40 MLOAD SWAP1 JUMP JUMPDEST SWAP1 POP PUSH2 0x169D DUP3 DUP3 PUSH2 0x1659 JUMP JUMPDEST SWAP2 SWAP1 POP JUMP JUMPDEST PUSH1 0x0 PUSH8 0xFFFFFFFFFFFFFFFF DUP3 GT ISZERO PUSH2 0x16BC JUMPI PUSH2 0x16BC PUSH2 0x1643 JUMP JUMPDEST PUSH1 0x1F NOT PUSH1 0x1F DUP4 ADD AND PUSH1 0x20 ADD SWAP3 SWAP2 POP POP JUMP JUMPDEST DUP3 DUP2 DUP4 CALLDATACOPY POP PUSH1 0x0 SWAP2 ADD MSTORE JUMP JUMPDEST PUSH1 0x0 PUSH2 0x16EC PUSH2 0x16E7 DUP5 PUSH2 0x16A2 JUMP JUMPDEST PUSH2 0x1686 JUMP JUMPDEST SWAP1 POP DUP3 DUP2 MSTORE PUSH1 0x20 DUP2 ADD DUP5 DUP5 DUP5 ADD GT ISZERO PUSH2 0x1707 JUMPI PUSH2 0x1707 PUSH1 0x0 DUP1 REVERT JUMPDEST PUSH2 0x1712 DUP5 DUP3 DUP6 PUSH2 0x16CD JUMP JUMPDEST POP SWAP4 SWAP3 POP POP POP JUMP JUMPDEST PUSH1 0x0 DUP3 PUSH1 0x1F DUP4 ADD SLT PUSH2 0x172E JUMPI PUSH2 0x172E PUSH1 0x0 DUP1 REVERT JUMPDEST DUP2 CALLDATALOAD PUSH2 0x1517 DUP5 DUP3 PUSH1 0x20 DUP7 ADD PUSH2 0x16D9 JUMP JUMPDEST PUSH1 0x0 DUP1 PUSH1 0x0 PUSH1 0x60 DUP5 DUP7 SUB SLT ISZERO PUSH2 0x1756 JUMPI PUSH2 0x1756 PUSH1 0x0 DUP1 REVERT JUMPDEST DUP4 CALLDATALOAD PUSH8 0xFFFFFFFFFFFFFFFF DUP2 GT ISZERO PUSH2 0x1770 JUMPI PUSH2 0x1770 PUSH1 0x0 DUP1 REVERT JUMPDEST PUSH2 0x177C DUP7 DUP3 DUP8 ADD PUSH2 0x171A JUMP JUMPDEST SWAP4 POP POP PUSH1 0x20 PUSH2 0x178D DUP7 DUP3 DUP8 ADD PUSH2 0x1551 JUMP JUMPDEST SWAP3 POP POP PUSH1 0x40 PUSH2 0x179E DUP7 DUP3 DUP8 ADD PUSH2 0x1597 JUMP JUMPDEST SWAP2 POP POP SWAP3 POP SWAP3 POP SWAP3 JUMP JUMPDEST PUSH1 0x0 PUSH1 0x20 DUP3 DUP5 SUB SLT ISZERO PUSH2 0x17BD JUMPI PUSH2 0x17BD PUSH1 0x0 DUP1 REVERT JUMPDEST PUSH1 0x0 PUSH2 0x1517 DUP5 DUP5 PUSH2 0x1597 JUMP JUMPDEST PUSH2 0x1523 DUP2 PUSH2 0x157D JUMP JUMPDEST PUSH1 0x20 DUP2 ADD PUSH2 0x32A DUP3 DUP5 PUSH2 0x17C9 JUMP JUMPDEST PUSH1 0xFF DUP2 AND PUSH2 0x14E0 JUMP JUMPDEST DUP1 CALLDATALOAD PUSH2 0x32A DUP2 PUSH2 0x17E0 JUMP JUMPDEST PUSH1 0x0 DUP1 PUSH1 0x0 DUP1 PUSH1 0x0 DUP1 PUSH1 0x0 DUP1 PUSH2 0x100 DUP10 DUP12 SUB SLT ISZERO PUSH2 0x1814 JUMPI PUSH2 0x1814 PUSH1 0x0 DUP1 REVERT JUMPDEST PUSH1 0x0 PUSH2 0x1820 DUP12 DUP12 PUSH2 0x1597 JUMP JUMPDEST SWAP9 POP POP PUSH1 0x20 PUSH2 0x1831 DUP12 DUP3 DUP13 ADD PUSH2 0x1597 JUMP JUMPDEST SWAP8 POP POP PUSH1 0x40 PUSH2 0x1842 DUP12 DUP3 DUP13 ADD PUSH2 0x1551 JUMP JUMPDEST SWAP7 POP POP PUSH1 0x60 PUSH2 0x1853 DUP12 DUP3 DUP13 ADD PUSH2 0x1551 JUMP JUMPDEST SWAP6 POP POP PUSH1 0x80 PUSH2 0x1864 DUP12 DUP3 DUP13 ADD PUSH2 0x1551 JUMP JUMPDEST SWAP5 POP POP PUSH1 0xA0 PUSH2 0x1875 DUP12 DUP3 DUP13 ADD PUSH2 0x17E9 JUMP JUMPDEST SWAP4 POP POP PUSH1 0xC0 PUSH2 0x1886 DUP12 DUP3 DUP13 ADD PUSH2 0x1551 JUMP JUMPDEST SWAP3 POP POP PUSH1 0xE0 PUSH2 0x1897 DUP12 DUP3 DUP13 ADD PUSH2 0x1551 JUMP JUMPDEST SWAP2 POP POP SWAP3 SWAP6 SWAP9 POP SWAP3 SWAP6 SWAP9 SWAP1 SWAP4 SWAP7 POP JUMP JUMPDEST PUSH1 0x0 DUP1 PUSH1 0x0 PUSH1 0x60 DUP5 DUP7 SUB SLT ISZERO PUSH2 0x18BF JUMPI PUSH2 0x18BF PUSH1 0x0 DUP1 REVERT JUMPDEST PUSH1 0x0 PUSH2 0x18CB DUP7 DUP7 PUSH2 0x1597 JUMP JUMPDEST SWAP4 POP POP PUSH1 0x20 PUSH2 0x18DC DUP7 DUP3 DUP8 ADD PUSH2 0x1597 JUMP JUMPDEST SWAP3 POP POP PUSH1 0x40 PUSH2 0x179E DUP7 DUP3 DUP8 ADD PUSH2 0x1551 JUMP JUMPDEST PUSH1 0x0 PUSH2 0x32A DUP3 PUSH2 0x157D JUMP JUMPDEST PUSH1 0x0 PUSH2 0x32A DUP3 PUSH2 0x18ED JUMP JUMPDEST PUSH2 0x1523 DUP2 PUSH2 0x18F8 JUMP JUMPDEST PUSH1 0x20 DUP2 ADD PUSH2 0x32A DUP3 DUP5 PUSH2 0x1903 JUMP JUMPDEST PUSH1 0x0 DUP1 PUSH1 0x0 DUP1 PUSH1 0x0 DUP1 PUSH1 0x0 PUSH1 0xE0 DUP9 DUP11 SUB SLT ISZERO PUSH2 0x1938 JUMPI PUSH2 0x1938 PUSH1 0x0 DUP1 REVERT JUMPDEST DUP8 CALLDATALOAD PUSH8 0xFFFFFFFFFFFFFFFF DUP2 GT ISZERO PUSH2 0x1952 JUMPI PUSH2 0x1952 PUSH1 0x0 DUP1 REVERT JUMPDEST PUSH2 0x195E DUP11 DUP3 DUP12 ADD PUSH2 0x171A JUMP JUMPDEST SWAP8 POP POP PUSH1 0x20 PUSH2 0x196F DUP11 DUP3 DUP12 ADD PUSH2 0x1551 JUMP JUMPDEST SWAP7 POP POP PUSH1 0x40 PUSH2 0x1980 DUP11 DUP3 DUP12 ADD PUSH2 0x1597 JUMP JUMPDEST SWAP6 POP POP PUSH1 0x60 PUSH2 0x1991 DUP11 DUP3 DUP12 ADD PUSH2 0x1551 JUMP JUMPDEST SWAP5 POP POP PUSH1 0x80 PUSH2 0x19A2 DUP11 DUP3 DUP12 ADD PUSH2 0x17E9 JUMP JUMPDEST SWAP4 POP POP PUSH1 0xA0 PUSH2 0x19B3 DUP11 DUP3 DUP12 ADD PUSH2 0x1551 JUMP JUMPDEST SWAP3 POP POP PUSH1 0xC0 PUSH2 0x19C4 DUP11 DUP3 DUP12 ADD PUSH2 0x1551 JUMP JUMPDEST SWAP2 POP POP SWAP3 SWAP6 SWAP9 SWAP2 SWAP5 SWAP8 POP SWAP3 SWAP6 POP JUMP JUMPDEST PUSH1 0x0 DUP1 PUSH1 0x0 DUP1 PUSH1 0x0 PUSH1 0xA0 DUP7 DUP9 SUB SLT ISZERO PUSH2 0x19EE JUMPI PUSH2 0x19EE PUSH1 0x0 DUP1 REVERT JUMPDEST DUP6 CALLDATALOAD PUSH8 0xFFFFFFFFFFFFFFFF DUP2 GT ISZERO PUSH2 0x1A08 JUMPI PUSH2 0x1A08 PUSH1 0x0 DUP1 REVERT JUMPDEST PUSH2 0x1A14 DUP9 DUP3 DUP10 ADD PUSH2 0x171A JUMP JUMPDEST SWAP6 POP POP PUSH1 0x20 DUP7 ADD CALLDATALOAD PUSH8 0xFFFFFFFFFFFFFFFF DUP2 GT ISZERO PUSH2 0x1A34 JUMPI PUSH2 0x1A34 PUSH1 0x0 DUP1 REVERT JUMPDEST PUSH2 0x1A40 DUP9 DUP3 DUP10 ADD PUSH2 0x171A JUMP JUMPDEST SWAP5 POP POP PUSH1 0x40 PUSH2 0x1A51 DUP9 DUP3 DUP10 ADD PUSH2 0x1597 JUMP JUMPDEST SWAP4 POP POP PUSH1 0x60 PUSH2 0x1A62 DUP9 DUP3 DUP10 ADD PUSH2 0x1597 JUMP JUMPDEST SWAP3 POP POP PUSH1 0x80 PUSH2 0x1A73 DUP9 DUP3 DUP10 ADD PUSH2 0x1551 JUMP JUMPDEST SWAP2 POP POP SWAP3 SWAP6 POP SWAP3 SWAP6 SWAP1 SWAP4 POP JUMP JUMPDEST PUSH1 0x20 DUP1 DUP3 MSTORE DUP2 ADD PUSH2 0x32A DUP2 PUSH1 0x2F DUP2 MSTORE PUSH32 0x416363657373436F6E74726F6C3A2063616E206F6E6C792072656E6F756E6365 PUSH1 0x20 DUP3 ADD MSTORE PUSH32 0x20726F6C657320666F722073656C660000000000000000000000000000000000 PUSH1 0x40 DUP3 ADD MSTORE PUSH1 0x60 ADD SWAP1 JUMP JUMPDEST PUSH1 0x60 DUP2 ADD PUSH2 0x1AEF DUP3 DUP7 PUSH2 0x17C9 JUMP JUMPDEST PUSH2 0x1AFC PUSH1 0x20 DUP4 ADD DUP6 PUSH2 0x17C9 JUMP JUMPDEST PUSH2 0x1517 PUSH1 0x40 DUP4 ADD DUP5 PUSH2 0x1537 JUMP JUMPDEST DUP1 ISZERO ISZERO PUSH2 0x14E0 JUMP JUMPDEST DUP1 MLOAD PUSH2 0x32A DUP2 PUSH2 0x1B09 JUMP JUMPDEST PUSH1 0x0 PUSH1 0x20 DUP3 DUP5 SUB SLT ISZERO PUSH2 0x1B31 JUMPI PUSH2 0x1B31 PUSH1 0x0 DUP1 REVERT JUMPDEST PUSH1 0x0 PUSH2 0x1517 DUP5 DUP5 PUSH2 0x1B11 JUMP JUMPDEST PUSH1 0x80 DUP2 ADD PUSH2 0x1B4B DUP3 DUP8 PUSH2 0x1537 JUMP JUMPDEST PUSH2 0x1B58 PUSH1 0x20 DUP4 ADD DUP7 PUSH2 0x1537 JUMP JUMPDEST PUSH2 0x1B65 PUSH1 0x40 DUP4 ADD DUP6 PUSH2 0x1537 JUMP JUMPDEST PUSH2 0x1B72 PUSH1 0x60 DUP4 ADD DUP5 PUSH2 0x1537 JUMP JUMPDEST SWAP6 SWAP5 POP POP POP POP POP JUMP JUMPDEST PUSH1 0x0 JUMPDEST DUP4 DUP2 LT ISZERO PUSH2 0x1B96 JUMPI DUP2 DUP2 ADD MLOAD DUP4 DUP3 ADD MSTORE PUSH1 0x20 ADD PUSH2 0x1B7E JUMP JUMPDEST POP POP PUSH1 0x0 SWAP2 ADD MSTORE JUMP JUMPDEST PUSH1 0x0 PUSH2 0x1BA9 DUP3 MLOAD SWAP1 JUMP JUMPDEST DUP1 DUP5 MSTORE PUSH1 0x20 DUP5 ADD SWAP4 POP PUSH2 0x1BC0 DUP2 DUP6 PUSH1 0x20 DUP7 ADD PUSH2 0x1B7B JUMP JUMPDEST PUSH1 0x1F ADD PUSH1 0x1F NOT AND SWAP3 SWAP1 SWAP3 ADD SWAP3 SWAP2 POP POP JUMP JUMPDEST PUSH1 0x20 DUP1 DUP3 MSTORE DUP2 ADD PUSH2 0x14CD DUP2 DUP5 PUSH2 0x1B9F JUMP JUMPDEST DUP1 MLOAD PUSH2 0x32A DUP2 PUSH2 0x158E JUMP JUMPDEST PUSH1 0x0 PUSH1 0x20 DUP3 DUP5 SUB SLT ISZERO PUSH2 0x1C02 JUMPI PUSH2 0x1C02 PUSH1 0x0 DUP1 REVERT JUMPDEST PUSH1 0x0 PUSH2 0x1517 DUP5 DUP5 PUSH2 0x1BE2 JUMP JUMPDEST PUSH1 0x40 DUP1 DUP3 MSTORE DUP2 ADD PUSH2 0x1C1F DUP2 DUP6 PUSH2 0x1B9F JUMP JUMPDEST SWAP1 POP PUSH2 0x14CD PUSH1 0x20 DUP4 ADD DUP5 PUSH2 0x17C9 JUMP JUMPDEST DUP1 MLOAD PUSH2 0x32A DUP2 PUSH2 0x154B JUMP JUMPDEST PUSH1 0x0 PUSH1 0x20 DUP3 DUP5 SUB SLT ISZERO PUSH2 0x1C4E JUMPI PUSH2 0x1C4E PUSH1 0x0 DUP1 REVERT JUMPDEST PUSH1 0x0 PUSH2 0x1517 DUP5 DUP5 PUSH2 0x1C2E JUMP JUMPDEST PUSH1 0x60 DUP2 ADD PUSH2 0x1C68 DUP3 DUP7 PUSH2 0x17C9 JUMP JUMPDEST PUSH2 0x1AFC PUSH1 0x20 DUP4 ADD DUP6 PUSH2 0x1537 JUMP JUMPDEST PUSH1 0xFF DUP2 AND PUSH2 0x1523 JUMP JUMPDEST PUSH1 0xE0 DUP2 ADD PUSH2 0x1C8C DUP3 DUP11 PUSH2 0x17C9 JUMP JUMPDEST PUSH2 0x1C99 PUSH1 0x20 DUP4 ADD DUP10 PUSH2 0x17C9 JUMP JUMPDEST PUSH2 0x1CA6 PUSH1 0x40 DUP4 ADD DUP9 PUSH2 0x1537 JUMP JUMPDEST PUSH2 0x1CB3 PUSH1 0x60 DUP4 ADD DUP8 PUSH2 0x1537 JUMP JUMPDEST PUSH2 0x1CC0 PUSH1 0x80 DUP4 ADD DUP7 PUSH2 0x1C75 JUMP JUMPDEST PUSH2 0x1CCD PUSH1 0xA0 DUP4 ADD DUP6 PUSH2 0x1537 JUMP JUMPDEST PUSH2 0x1CDA PUSH1 0xC0 DUP4 ADD DUP5 PUSH2 0x1537 JUMP JUMPDEST SWAP9 SWAP8 POP POP POP POP POP POP POP POP JUMP JUMPDEST PUSH1 0x40 DUP2 ADD PUSH2 0x1CF4 DUP3 DUP6 PUSH2 0x17C9 JUMP JUMPDEST PUSH2 0x14CD PUSH1 0x20 DUP4 ADD DUP5 PUSH2 0x1537 JUMP JUMPDEST PUSH1 0x0 PUSH2 0x1D0B DUP3 MLOAD SWAP1 JUMP JUMPDEST PUSH2 0x1D19 DUP2 DUP6 PUSH1 0x20 DUP7 ADD PUSH2 0x1B7B JUMP JUMPDEST SWAP3 SWAP1 SWAP3 ADD SWAP3 SWAP2 POP POP JUMP JUMPDEST PUSH1 0x57 PUSH1 0xF8 SHL DUP2 MSTORE PUSH1 0x1 ADD PUSH1 0x0 PUSH2 0x14CD DUP3 DUP5 PUSH2 0x1D01 JUMP JUMPDEST PUSH1 0x40 DUP1 DUP3 MSTORE DUP2 ADD PUSH2 0x1D4A DUP2 DUP6 PUSH2 0x1B9F JUMP JUMPDEST SWAP1 POP DUP2 DUP2 SUB PUSH1 0x20 DUP4 ADD MSTORE PUSH2 0x1517 DUP2 DUP5 PUSH2 0x1B9F JUMP JUMPDEST PUSH1 0x60 DUP1 DUP3 MSTORE DUP2 ADD PUSH2 0x1D6F DUP2 DUP7 PUSH2 0x1B9F JUMP JUMPDEST SWAP1 POP PUSH2 0x1AFC PUSH1 0x20 DUP4 ADD DUP6 PUSH2 0x17C9 JUMP JUMPDEST PUSH1 0x0 PUSH2 0x14CD DUP3 DUP5 PUSH2 0x1D01 JUMP JUMPDEST PUSH1 0x80 DUP2 ADD PUSH2 0x1D98 DUP3 DUP8 PUSH2 0x17C9 JUMP JUMPDEST PUSH2 0x1DA5 PUSH1 0x20 DUP4 ADD DUP7 PUSH2 0x1537 JUMP JUMPDEST PUSH2 0x1DB2 PUSH1 0x40 DUP4 ADD DUP6 PUSH2 0x1537 JUMP JUMPDEST DUP2 DUP2 SUB PUSH1 0x60 DUP4 ADD MSTORE PUSH2 0x1DC4 DUP2 DUP5 PUSH2 0x1B9F JUMP JUMPDEST SWAP7 SWAP6 POP POP POP POP POP POP JUMP JUMPDEST PUSH32 0x416363657373436F6E74726F6C3A206163636F756E7420000000000000000000 DUP2 MSTORE PUSH1 0x17 ADD PUSH1 0x0 PUSH2 0x1E00 DUP3 DUP6 PUSH2 0x1D01 JUMP JUMPDEST PUSH32 0x206973206D697373696E6720726F6C6520000000000000000000000000000000 DUP2 MSTORE PUSH1 0x11 ADD SWAP2 POP PUSH2 0x1517 DUP3 DUP5 PUSH2 0x1D01 JUMP JUMPDEST PUSH4 0x4E487B71 PUSH1 0xE0 SHL PUSH1 0x0 MSTORE PUSH1 0x11 PUSH1 0x4 MSTORE PUSH1 0x24 PUSH1 0x0 REVERT JUMPDEST DUP2 DUP2 MUL DUP1 DUP3 ISZERO DUP4 DUP3 DIV DUP6 EQ OR PUSH2 0x1E60 JUMPI PUSH2 0x1E60 PUSH2 0x1E32 JUMP JUMPDEST POP SWAP3 SWAP2 POP POP JUMP JUMPDEST DUP1 DUP3 ADD DUP1 DUP3 GT ISZERO PUSH2 0x32A JUMPI PUSH2 0x32A PUSH2 0x1E32 JUMP JUMPDEST PUSH4 0x4E487B71 PUSH1 0xE0 SHL PUSH1 0x0 MSTORE PUSH1 0x32 PUSH1 0x4 MSTORE PUSH1 0x24 PUSH1 0x0 REVERT JUMPDEST PUSH1 0x0 DUP2 PUSH2 0x1E9F JUMPI PUSH2 0x1E9F PUSH2 0x1E32 JUMP JUMPDEST POP PUSH1 0x0 NOT ADD SWAP1 JUMP JUMPDEST PUSH1 0x20 DUP1 DUP3 MSTORE DUP2 DUP2 ADD SWAP1 DUP2 MSTORE PUSH32 0x537472696E67733A20686578206C656E67746820696E73756666696369656E74 PUSH1 0x40 DUP4 ADD MSTORE PUSH1 0x60 DUP3 ADD PUSH2 0x32A JUMP INVALID LOG2 PUSH5 0x6970667358 0x22 SLT KECCAK256 0xCD PUSH6 0x6532881747A4 0xFC 0xEB REVERT PUSH28 0xFB246E94C3C7786615B802C97E0FE7E9AD9D629464736F6C63430008 GT STOP CALLER PUSH1 0x80 PUSH1 0x40 MSTORE CALLVALUE DUP1 ISZERO PUSH2 0x10 JUMPI PUSH1 0x0 DUP1 REVERT JUMPDEST POP PUSH2 0x1A CALLER PUSH2 0x1F JUMP JUMPDEST PUSH2 0x6F JUMP JUMPDEST PUSH1 0x0 DUP1 SLOAD PUSH1 0x1 PUSH1 0x1 PUSH1 0xA0 SHL SUB DUP4 DUP2 AND PUSH1 0x1 PUSH1 0x1 PUSH1 0xA0 SHL SUB NOT DUP4 AND DUP2 OR DUP5 SSTORE PUSH1 0x40 MLOAD SWAP2 SWAP1 SWAP3 AND SWAP3 DUP4 SWAP2 PUSH32 0x8BE0079C531659141344CD1FD0A4F28419497F9722A3DAAFE3B4186F6B6457E0 SWAP2 SWAP1 LOG3 POP POP JUMP JUMPDEST PUSH2 0x346E DUP1 PUSH2 0x7E PUSH1 0x0 CODECOPY PUSH1 0x0 RETURN INVALID PUSH1 0x80 PUSH1 0x40 MSTORE CALLVALUE DUP1 ISZERO PUSH3 0x11 JUMPI PUSH1 0x0 DUP1 REVERT JUMPDEST POP PUSH1 0x4 CALLDATASIZE LT PUSH3 0xC8 JUMPI PUSH1 0x0 CALLDATALOAD PUSH1 0xE0 SHR DUP1 PUSH4 0x715018A6 GT PUSH3 0x8B JUMPI DUP1 PUSH4 0xD3E2A0CA GT PUSH3 0x62 JUMPI DUP1 PUSH4 0xD3E2A0CA EQ PUSH3 0x1AB JUMPI DUP1 PUSH4 0xF2FDE38B EQ PUSH3 0x1E2 JUMPI DUP1 PUSH4 0xF6B911BC EQ PUSH3 0x1F9 JUMPI PUSH1 0x0 DUP1 REVERT JUMPDEST DUP1 PUSH4 0x715018A6 EQ PUSH3 0x176 JUMPI DUP1 PUSH4 0x7E8816B9 EQ PUSH3 0x182 JUMPI DUP1 PUSH4 0x8DA5CB5B EQ PUSH3 0x199 JUMPI PUSH1 0x0 DUP1 REVERT JUMPDEST DUP1 PUSH4 0x4031852 EQ PUSH3 0xCD JUMPI DUP1 PUSH4 0x18C04BBB EQ PUSH3 0xFC JUMPI DUP1 PUSH4 0x2DCE1F6B EQ PUSH3 0x122 JUMPI DUP1 PUSH4 0x518F58C5 EQ PUSH3 0x148 JUMPI DUP1 PUSH4 0x640DF644 EQ PUSH3 0x15F JUMPI JUMPDEST PUSH1 0x0 DUP1 REVERT JUMPDEST PUSH3 0xE4 PUSH3 0xDE CALLDATASIZE PUSH1 0x4 PUSH3 0xC9C JUMP JUMPDEST PUSH3 0x210 JUMP JUMPDEST PUSH1 0x40 MLOAD PUSH3 0xF3 SWAP2 SWAP1 PUSH3 0xD03 JUMP JUMPDEST PUSH1 0x40 MLOAD DUP1 SWAP2 SUB SWAP1 RETURN JUMPDEST PUSH3 0x113 PUSH3 0x10D CALLDATASIZE PUSH1 0x4 PUSH3 0xD13 JUMP JUMPDEST PUSH3 0x33A JUMP JUMPDEST PUSH1 0x40 MLOAD PUSH3 0xF3 SWAP2 SWAP1 PUSH3 0xD5F JUMP JUMPDEST PUSH3 0x139 PUSH3 0x133 CALLDATASIZE PUSH1 0x4 PUSH3 0xD9A JUMP JUMPDEST PUSH3 0x3AE JUMP JUMPDEST PUSH1 0x40 MLOAD PUSH3 0xF3 SWAP2 SWAP1 PUSH3 0xE52 JUMP JUMPDEST PUSH3 0x113 PUSH3 0x159 CALLDATASIZE PUSH1 0x4 PUSH3 0xE62 JUMP JUMPDEST PUSH3 0x512 JUMP JUMPDEST PUSH3 0xE4 PUSH3 0x170 CALLDATASIZE PUSH1 0x4 PUSH3 0xD13 JUMP JUMPDEST PUSH3 0x71F JUMP JUMPDEST PUSH3 0x180 PUSH3 0x815 JUMP JUMPDEST STOP JUMPDEST PUSH3 0x139 PUSH3 0x193 CALLDATASIZE PUSH1 0x4 PUSH3 0xED4 JUMP JUMPDEST PUSH3 0x82D JUMP JUMPDEST PUSH1 0x0 SLOAD PUSH1 0x1 PUSH1 0x1 PUSH1 0xA0 SHL SUB AND PUSH3 0x113 JUMP JUMPDEST PUSH3 0x113 PUSH3 0x1BC CALLDATASIZE PUSH1 0x4 PUSH3 0xD13 JUMP JUMPDEST DUP1 MLOAD PUSH1 0x20 DUP2 DUP4 ADD DUP2 ADD DUP1 MLOAD PUSH1 0x1 DUP3 MSTORE SWAP3 DUP3 ADD SWAP2 SWAP1 SWAP4 ADD KECCAK256 SWAP2 MSTORE SLOAD PUSH1 0x1 PUSH1 0x1 PUSH1 0xA0 SHL SUB AND DUP2 JUMP JUMPDEST PUSH3 0x180 PUSH3 0x1F3 CALLDATASIZE PUSH1 0x4 PUSH3 0xF48 JUMP JUMPDEST PUSH3 0x98A JUMP JUMPDEST PUSH3 0x139 PUSH3 0x20A CALLDATASIZE PUSH1 0x4 PUSH3 0xF6D JUMP JUMPDEST PUSH3 0x9CB JUMP JUMPDEST PUSH1 0x0 DUP3 PUSH1 0x40 MLOAD DUP1 PUSH1 0x20 ADD PUSH1 0x40 MSTORE DUP1 PUSH1 0x0 DUP2 MSTORE POP DUP1 MLOAD SWAP1 PUSH1 0x20 ADD KECCAK256 DUP2 DUP1 MLOAD SWAP1 PUSH1 0x20 ADD KECCAK256 SUB PUSH3 0x251 JUMPI PUSH1 0x40 MLOAD PUSH4 0x2490C167 PUSH1 0xE2 SHL DUP2 MSTORE PUSH1 0x4 ADD PUSH1 0x40 MLOAD DUP1 SWAP2 SUB SWAP1 REVERT JUMPDEST DUP3 PUSH1 0x1 PUSH1 0x1 PUSH1 0xA0 SHL SUB DUP2 AND PUSH3 0x27A JUMPI PUSH1 0x40 MLOAD PUSH4 0x33E7D0B7 PUSH1 0xE1 SHL DUP2 MSTORE PUSH1 0x4 ADD PUSH1 0x40 MLOAD DUP1 SWAP2 SUB SWAP1 REVERT JUMPDEST PUSH1 0x0 PUSH3 0x287 DUP7 PUSH3 0x33A JUMP JUMPDEST SWAP1 POP PUSH1 0x1 PUSH1 0x1 PUSH1 0xA0 SHL SUB DUP2 AND PUSH3 0x2BE JUMPI DUP6 PUSH1 0x40 MLOAD PUSH4 0x2853BE9 PUSH1 0xE2 SHL DUP2 MSTORE PUSH1 0x4 ADD PUSH3 0x2B5 SWAP2 SWAP1 PUSH3 0xFF0 JUMP JUMPDEST PUSH1 0x40 MLOAD DUP1 SWAP2 SUB SWAP1 REVERT JUMPDEST PUSH1 0x40 MLOAD PUSH4 0x70A08231 PUSH1 0xE0 SHL DUP2 MSTORE PUSH1 0x1 PUSH1 0x1 PUSH1 0xA0 SHL SUB DUP3 AND SWAP1 PUSH4 0x70A08231 SWAP1 PUSH3 0x2EC SWAP1 DUP9 SWAP1 PUSH1 0x4 ADD PUSH3 0xD5F JUMP JUMPDEST PUSH1 0x20 PUSH1 0x40 MLOAD DUP1 DUP4 SUB DUP2 DUP7 GAS STATICCALL ISZERO DUP1 ISZERO PUSH3 0x30A JUMPI RETURNDATASIZE PUSH1 0x0 DUP1 RETURNDATACOPY RETURNDATASIZE PUSH1 0x0 REVERT JUMPDEST POP POP POP POP PUSH1 0x40 MLOAD RETURNDATASIZE PUSH1 0x1F NOT PUSH1 0x1F DUP3 ADD AND DUP3 ADD DUP1 PUSH1 0x40 MSTORE POP DUP2 ADD SWAP1 PUSH3 0x330 SWAP2 SWAP1 PUSH3 0x1017 JUMP JUMPDEST SWAP7 SWAP6 POP POP POP POP POP POP JUMP JUMPDEST PUSH1 0x0 DUP2 PUSH1 0x40 MLOAD DUP1 PUSH1 0x20 ADD PUSH1 0x40 MSTORE DUP1 PUSH1 0x0 DUP2 MSTORE POP DUP1 MLOAD SWAP1 PUSH1 0x20 ADD KECCAK256 DUP2 DUP1 MLOAD SWAP1 PUSH1 0x20 ADD KECCAK256 SUB PUSH3 0x37B JUMPI PUSH1 0x40 MLOAD PUSH4 0x2490C167 PUSH1 0xE2 SHL DUP2 MSTORE PUSH1 0x4 ADD PUSH1 0x40 MLOAD DUP1 SWAP2 SUB SWAP1 REVERT JUMPDEST PUSH1 0x1 DUP4 PUSH1 0x40 MLOAD PUSH3 0x38D SWAP2 SWAP1 PUSH3 0x1061 JUMP JUMPDEST SWAP1 DUP2 MSTORE PUSH1 0x40 MLOAD SWAP1 DUP2 SWAP1 SUB PUSH1 0x20 ADD SWAP1 KECCAK256 SLOAD PUSH1 0x1 PUSH1 0x1 PUSH1 0xA0 SHL SUB AND SWAP2 POP POP SWAP2 SWAP1 POP JUMP JUMPDEST PUSH1 0x0 PUSH3 0x3BA PUSH3 0xABD JUMP JUMPDEST DUP8 PUSH1 0x1 PUSH1 0x1 PUSH1 0xA0 SHL SUB DUP2 AND PUSH3 0x3E3 JUMPI PUSH1 0x40 MLOAD PUSH4 0x33E7D0B7 PUSH1 0xE1 SHL DUP2 MSTORE PUSH1 0x4 ADD PUSH1 0x40 MLOAD DUP1 SWAP2 SUB SWAP1 REVERT JUMPDEST DUP8 PUSH1 0x1 PUSH1 0x1 PUSH1 0xA0 SHL SUB DUP2 AND PUSH3 0x40C JUMPI PUSH1 0x40 MLOAD PUSH4 0x33E7D0B7 PUSH1 0xE1 SHL DUP2 MSTORE PUSH1 0x4 ADD PUSH1 0x40 MLOAD DUP1 SWAP2 SUB SWAP1 REVERT JUMPDEST DUP8 DUP1 PUSH1 0x0 SUB PUSH3 0x42F JUMPI PUSH1 0x40 MLOAD PUSH4 0x9A27143 PUSH1 0xE2 SHL DUP2 MSTORE PUSH1 0x4 ADD PUSH1 0x40 MLOAD DUP1 SWAP2 SUB SWAP1 REVERT JUMPDEST PUSH1 0x40 MLOAD PUSH4 0xD505ACCF PUSH1 0xE0 SHL DUP2 MSTORE PUSH1 0x1 PUSH1 0x1 PUSH1 0xA0 SHL SUB DUP13 AND SWAP1 PUSH4 0xD505ACCF SWAP1 PUSH3 0x469 SWAP1 DUP14 SWAP1 ADDRESS SWAP1 DUP15 SWAP1 DUP15 SWAP1 DUP15 SWAP1 DUP15 SWAP1 DUP15 SWAP1 PUSH1 0x4 ADD PUSH3 0x1079 JUMP JUMPDEST PUSH1 0x0 PUSH1 0x40 MLOAD DUP1 DUP4 SUB DUP2 PUSH1 0x0 DUP8 DUP1 EXTCODESIZE ISZERO DUP1 ISZERO PUSH3 0x484 JUMPI PUSH1 0x0 DUP1 REVERT JUMPDEST POP GAS CALL ISZERO DUP1 ISZERO PUSH3 0x499 JUMPI RETURNDATASIZE PUSH1 0x0 DUP1 RETURNDATACOPY RETURNDATASIZE PUSH1 0x0 REVERT JUMPDEST POP POP PUSH1 0x40 MLOAD PUSH4 0x79CC679 PUSH1 0xE4 SHL DUP2 MSTORE PUSH1 0x1 PUSH1 0x1 PUSH1 0xA0 SHL SUB DUP15 AND SWAP3 POP PUSH4 0x79CC6790 SWAP2 POP PUSH3 0x4CD SWAP1 DUP14 SWAP1 DUP14 SWAP1 PUSH1 0x4 ADD PUSH3 0x10EF JUMP JUMPDEST PUSH1 0x0 PUSH1 0x40 MLOAD DUP1 DUP4 SUB DUP2 PUSH1 0x0 DUP8 DUP1 EXTCODESIZE ISZERO DUP1 ISZERO PUSH3 0x4E8 JUMPI PUSH1 0x0 DUP1 REVERT JUMPDEST POP GAS CALL ISZERO DUP1 ISZERO PUSH3 0x4FD JUMPI RETURNDATASIZE PUSH1 0x0 DUP1 RETURNDATACOPY RETURNDATASIZE PUSH1 0x0 REVERT JUMPDEST POP PUSH1 0x1 SWAP15 SWAP14 POP POP POP POP POP POP POP POP POP POP POP POP POP POP JUMP JUMPDEST PUSH1 0x0 PUSH3 0x51E PUSH3 0xABD JUMP JUMPDEST PUSH1 0x40 DUP1 MLOAD PUSH1 0x20 DUP1 DUP3 ADD SWAP1 SWAP3 MSTORE PUSH1 0x0 SWAP1 MSTORE DUP3 MLOAD SWAP1 DUP4 ADD KECCAK256 DUP3 SWAP1 PUSH32 0x3A2DB9FE7908DCC36D81824D2338FC3F1AFF49AC357DD8C4840527FBA27A5B90 ADD PUSH3 0x576 JUMPI PUSH1 0x40 MLOAD PUSH4 0x2490C167 PUSH1 0xE2 SHL DUP2 MSTORE PUSH1 0x4 ADD PUSH1 0x40 MLOAD DUP1 SWAP2 SUB SWAP1 REVERT JUMPDEST PUSH1 0x40 DUP1 MLOAD PUSH1 0x20 DUP1 DUP3 ADD SWAP1 SWAP3 MSTORE PUSH1 0x0 SWAP1 MSTORE DUP5 MLOAD SWAP1 DUP6 ADD KECCAK256 DUP5 SWAP1 PUSH32 0x3A2DB9FE7908DCC36D81824D2338FC3F1AFF49AC357DD8C4840527FBA27A5B90 ADD PUSH3 0x5CE JUMPI PUSH1 0x40 MLOAD PUSH4 0x2F9F8AB3 PUSH1 0xE1 SHL DUP2 MSTORE PUSH1 0x4 ADD PUSH1 0x40 MLOAD DUP1 SWAP2 SUB SWAP1 REVERT JUMPDEST PUSH1 0x0 PUSH1 0x1 PUSH1 0x1 PUSH1 0xA0 SHL SUB AND PUSH1 0x1 DUP6 PUSH1 0x40 MLOAD PUSH3 0x5EB SWAP2 SWAP1 PUSH3 0x1061 JUMP JUMPDEST SWAP1 DUP2 MSTORE PUSH1 0x40 MLOAD SWAP1 DUP2 SWAP1 SUB PUSH1 0x20 ADD SWAP1 KECCAK256 SLOAD PUSH1 0x1 PUSH1 0x1 PUSH1 0xA0 SHL SUB AND EQ PUSH3 0x627 JUMPI DUP4 PUSH1 0x40 MLOAD PUSH4 0x85BC087 PUSH1 0xE4 SHL DUP2 MSTORE PUSH1 0x4 ADD PUSH3 0x2B5 SWAP2 SWAP1 PUSH3 0xFF0 JUMP JUMPDEST PUSH1 0x0 DUP6 DUP6 PUSH1 0x40 MLOAD PUSH3 0x639 SWAP1 PUSH3 0xB47 JUMP JUMPDEST PUSH3 0x646 SWAP3 SWAP2 SWAP1 PUSH3 0x110E JUMP JUMPDEST PUSH1 0x40 MLOAD DUP1 SWAP2 SUB SWAP1 PUSH1 0x0 CREATE DUP1 ISZERO DUP1 ISZERO PUSH3 0x663 JUMPI RETURNDATASIZE PUSH1 0x0 DUP1 RETURNDATACOPY RETURNDATASIZE PUSH1 0x0 REVERT JUMPDEST POP SWAP1 POP DUP1 PUSH1 0x1 DUP7 PUSH1 0x40 MLOAD PUSH3 0x679 SWAP2 SWAP1 PUSH3 0x1061 JUMP JUMPDEST SWAP1 DUP2 MSTORE PUSH1 0x40 MLOAD SWAP1 DUP2 SWAP1 SUB PUSH1 0x20 ADD DUP2 KECCAK256 DUP1 SLOAD PUSH1 0x1 PUSH1 0x1 PUSH1 0xA0 SHL SUB SWAP4 SWAP1 SWAP4 AND PUSH20 0xFFFFFFFFFFFFFFFFFFFFFFFFFFFFFFFFFFFFFFFF NOT SWAP1 SWAP4 AND SWAP3 SWAP1 SWAP3 OR SWAP1 SWAP2 SSTORE PUSH3 0x6C3 SWAP1 DUP7 SWAP1 PUSH3 0x1061 JUMP JUMPDEST PUSH1 0x40 MLOAD DUP1 SWAP2 SUB SWAP1 KECCAK256 DUP7 PUSH1 0x40 MLOAD PUSH3 0x6DB SWAP2 SWAP1 PUSH3 0x1061 JUMP JUMPDEST PUSH1 0x40 MLOAD SWAP1 DUP2 SWAP1 SUB DUP2 KECCAK256 SWAP1 PUSH1 0x1 PUSH1 0x1 PUSH1 0xA0 SHL SUB DUP5 AND SWAP1 PUSH32 0xFB30167B90E3D8F2DEAF0EBBB65D1849868EBF79C6D25C020B39FA156F61A9A9 SWAP1 PUSH1 0x0 SWAP1 LOG4 SWAP6 SWAP5 POP POP POP POP POP JUMP JUMPDEST PUSH1 0x0 DUP2 PUSH1 0x40 MLOAD DUP1 PUSH1 0x20 ADD PUSH1 0x40 MSTORE DUP1 PUSH1 0x0 DUP2 MSTORE POP DUP1 MLOAD SWAP1 PUSH1 0x20 ADD KECCAK256 DUP2 DUP1 MLOAD SWAP1 PUSH1 0x20 ADD KECCAK256 SUB PUSH3 0x760 JUMPI PUSH1 0x40 MLOAD PUSH4 0x2490C167 PUSH1 0xE2 SHL DUP2 MSTORE PUSH1 0x4 ADD PUSH1 0x40 MLOAD DUP1 SWAP2 SUB SWAP1 REVERT JUMPDEST PUSH1 0x0 PUSH3 0x76D DUP5 PUSH3 0x33A JUMP JUMPDEST SWAP1 POP PUSH1 0x1 PUSH1 0x1 PUSH1 0xA0 SHL SUB DUP2 AND PUSH3 0x79B JUMPI DUP4 PUSH1 0x40 MLOAD PUSH4 0x2853BE9 PUSH1 0xE2 SHL DUP2 MSTORE PUSH1 0x4 ADD PUSH3 0x2B5 SWAP2 SWAP1 PUSH3 0xFF0 JUMP JUMPDEST PUSH1 0x40 MLOAD PUSH4 0x70A08231 PUSH1 0xE0 SHL DUP2 MSTORE PUSH1 0x1 PUSH1 0x1 PUSH1 0xA0 SHL SUB DUP3 AND SWAP1 PUSH4 0x70A08231 SWAP1 PUSH3 0x7C9 SWAP1 CALLER SWAP1 PUSH1 0x4 ADD PUSH3 0xD5F JUMP JUMPDEST PUSH1 0x20 PUSH1 0x40 MLOAD DUP1 DUP4 SUB DUP2 DUP7 GAS STATICCALL ISZERO DUP1 ISZERO PUSH3 0x7E7 JUMPI RETURNDATASIZE PUSH1 0x0 DUP1 RETURNDATACOPY RETURNDATASIZE PUSH1 0x0 REVERT JUMPDEST POP POP POP POP PUSH1 0x40 MLOAD RETURNDATASIZE PUSH1 0x1F NOT PUSH1 0x1F DUP3 ADD AND DUP3 ADD DUP1 PUSH1 0x40 MSTORE POP DUP2 ADD SWAP1 PUSH3 0x80D SWAP2 SWAP1 PUSH3 0x1017 JUMP JUMPDEST SWAP5 SWAP4 POP POP POP POP JUMP JUMPDEST PUSH3 0x81F PUSH3 0xABD JUMP JUMPDEST PUSH3 0x82B PUSH1 0x0 PUSH3 0xAEA JUMP JUMPDEST JUMP JUMPDEST PUSH1 0x0 PUSH3 0x839 PUSH3 0xABD JUMP JUMPDEST DUP3 PUSH1 0x1 PUSH1 0x1 PUSH1 0xA0 SHL SUB DUP2 AND PUSH3 0x862 JUMPI PUSH1 0x40 MLOAD PUSH4 0x33E7D0B7 PUSH1 0xE1 SHL DUP2 MSTORE PUSH1 0x4 ADD PUSH1 0x40 MLOAD DUP1 SWAP2 SUB SWAP1 REVERT JUMPDEST PUSH1 0x40 DUP1 MLOAD PUSH1 0x20 DUP1 DUP3 ADD SWAP1 SWAP3 MSTORE PUSH1 0x0 SWAP1 MSTORE DUP6 MLOAD SWAP1 DUP7 ADD KECCAK256 DUP6 SWAP1 PUSH32 0x3A2DB9FE7908DCC36D81824D2338FC3F1AFF49AC357DD8C4840527FBA27A5B90 ADD PUSH3 0x8BA JUMPI PUSH1 0x40 MLOAD PUSH4 0x2490C167 PUSH1 0xE2 SHL DUP2 MSTORE PUSH1 0x4 ADD PUSH1 0x40 MLOAD DUP1 SWAP2 SUB SWAP1 REVERT JUMPDEST DUP4 DUP1 PUSH1 0x0 SUB PUSH3 0x8DD JUMPI PUSH1 0x40 MLOAD PUSH4 0x9A27143 PUSH1 0xE2 SHL DUP2 MSTORE PUSH1 0x4 ADD PUSH1 0x40 MLOAD DUP1 SWAP2 SUB SWAP1 REVERT JUMPDEST PUSH1 0x0 PUSH3 0x8EA DUP9 PUSH3 0x33A JUMP JUMPDEST SWAP1 POP PUSH1 0x1 PUSH1 0x1 PUSH1 0xA0 SHL SUB DUP2 AND PUSH3 0x918 JUMPI DUP8 PUSH1 0x40 MLOAD PUSH4 0x2853BE9 PUSH1 0xE2 SHL DUP2 MSTORE PUSH1 0x4 ADD PUSH3 0x2B5 SWAP2 SWAP1 PUSH3 0xFF0 JUMP JUMPDEST PUSH1 0x40 MLOAD PUSH4 0x40C10F19 PUSH1 0xE0 SHL DUP2 MSTORE PUSH1 0x1 PUSH1 0x1 PUSH1 0xA0 SHL SUB DUP3 AND SWAP1 PUSH4 0x40C10F19 SWAP1 PUSH3 0x948 SWAP1 DUP11 SWAP1 DUP11 SWAP1 PUSH1 0x4 ADD PUSH3 0x10EF JUMP JUMPDEST PUSH1 0x0 PUSH1 0x40 MLOAD DUP1 DUP4 SUB DUP2 PUSH1 0x0 DUP8 DUP1 EXTCODESIZE ISZERO DUP1 ISZERO PUSH3 0x963 JUMPI PUSH1 0x0 DUP1 REVERT JUMPDEST POP GAS CALL ISZERO DUP1 ISZERO PUSH3 0x978 JUMPI RETURNDATASIZE PUSH1 0x0 DUP1 RETURNDATACOPY RETURNDATASIZE PUSH1 0x0 REVERT JUMPDEST POP PUSH1 0x1 SWAP12 SWAP11 POP POP POP POP POP POP POP POP POP POP POP JUMP JUMPDEST PUSH3 0x994 PUSH3 0xABD JUMP JUMPDEST PUSH1 0x1 PUSH1 0x1 PUSH1 0xA0 SHL SUB DUP2 AND PUSH3 0x9BD JUMPI PUSH1 0x40 MLOAD PUSH3 0x461BCD PUSH1 0xE5 SHL DUP2 MSTORE PUSH1 0x4 ADD PUSH3 0x2B5 SWAP1 PUSH3 0x1137 JUMP JUMPDEST PUSH3 0x9C8 DUP2 PUSH3 0xAEA JUMP JUMPDEST POP JUMP JUMPDEST PUSH1 0x0 PUSH3 0x9D7 PUSH3 0xABD JUMP JUMPDEST DUP4 PUSH1 0x1 PUSH1 0x1 PUSH1 0xA0 SHL SUB DUP2 AND PUSH3 0xA00 JUMPI PUSH1 0x40 MLOAD PUSH4 0x33E7D0B7 PUSH1 0xE1 SHL DUP2 MSTORE PUSH1 0x4 ADD PUSH1 0x40 MLOAD DUP1 SWAP2 SUB SWAP1 REVERT JUMPDEST DUP4 PUSH1 0x1 PUSH1 0x1 PUSH1 0xA0 SHL SUB DUP2 AND PUSH3 0xA29 JUMPI PUSH1 0x40 MLOAD PUSH4 0x33E7D0B7 PUSH1 0xE1 SHL DUP2 MSTORE PUSH1 0x4 ADD PUSH1 0x40 MLOAD DUP1 SWAP2 SUB SWAP1 REVERT JUMPDEST DUP4 DUP1 PUSH1 0x0 SUB PUSH3 0xA4C JUMPI PUSH1 0x40 MLOAD PUSH4 0x9A27143 PUSH1 0xE2 SHL DUP2 MSTORE PUSH1 0x4 ADD PUSH1 0x40 MLOAD DUP1 SWAP2 SUB SWAP1 REVERT JUMPDEST PUSH1 0x40 MLOAD PUSH4 0x79CC679 PUSH1 0xE4 SHL DUP2 MSTORE PUSH1 0x1 PUSH1 0x1 PUSH1 0xA0 SHL SUB DUP9 AND SWAP1 PUSH4 0x79CC6790 SWAP1 PUSH3 0xA7C SWAP1 DUP10 SWAP1 DUP10 SWAP1 PUSH1 0x4 ADD PUSH3 0x10EF JUMP JUMPDEST PUSH1 0x0 PUSH1 0x40 MLOAD DUP1 DUP4 SUB DUP2 PUSH1 0x0 DUP8 DUP1 EXTCODESIZE ISZERO DUP1 ISZERO PUSH3 0xA97 JUMPI PUSH1 0x0 DUP1 REVERT JUMPDEST POP GAS CALL ISZERO DUP1 ISZERO PUSH3 0xAAC JUMPI RETURNDATASIZE PUSH1 0x0 DUP1 RETURNDATACOPY RETURNDATASIZE PUSH1 0x0 REVERT JUMPDEST POP PUSH1 0x1 SWAP11 SWAP10 POP POP POP POP POP POP POP POP POP POP JUMP JUMPDEST PUSH1 0x0 SLOAD PUSH1 0x1 PUSH1 0x1 PUSH1 0xA0 SHL SUB AND CALLER EQ PUSH3 0x82B JUMPI PUSH1 0x40 MLOAD PUSH3 0x461BCD PUSH1 0xE5 SHL DUP2 MSTORE PUSH1 0x4 ADD PUSH3 0x2B5 SWAP1 PUSH3 0x1182 JUMP JUMPDEST PUSH1 0x0 DUP1 SLOAD PUSH1 0x1 PUSH1 0x1 PUSH1 0xA0 SHL SUB DUP4 DUP2 AND PUSH20 0xFFFFFFFFFFFFFFFFFFFFFFFFFFFFFFFFFFFFFFFF NOT DUP4 AND DUP2 OR DUP5 SSTORE PUSH1 0x40 MLOAD SWAP2 SWAP1 SWAP3 AND SWAP3 DUP4 SWAP2 PUSH32 0x8BE0079C531659141344CD1FD0A4F28419497F9722A3DAAFE3B4186F6B6457E0 SWAP2 SWAP1 LOG3 POP POP JUMP JUMPDEST PUSH2 0x227B DUP1 PUSH3 0x11BE DUP4 CODECOPY ADD SWAP1 JUMP JUMPDEST PUSH4 0x4E487B71 PUSH1 0xE0 SHL PUSH1 0x0 MSTORE PUSH1 0x41 PUSH1 0x4 MSTORE PUSH1 0x24 PUSH1 0x0 REVERT JUMPDEST PUSH1 0x1F NOT PUSH1 0x1F DUP4 ADD AND DUP2 ADD DUP2 DUP2 LT PUSH8 0xFFFFFFFFFFFFFFFF DUP3 GT OR ISZERO PUSH3 0xB94 JUMPI PUSH3 0xB94 PUSH3 0xB55 JUMP JUMPDEST PUSH1 0x40 MSTORE POP POP JUMP JUMPDEST PUSH1 0x0 PUSH3 0xBA7 PUSH1 0x40 MLOAD SWAP1 JUMP JUMPDEST SWAP1 POP PUSH3 0xBB5 DUP3 DUP3 PUSH3 0xB6B JUMP JUMPDEST SWAP2 SWAP1 POP JUMP JUMPDEST PUSH1 0x0 PUSH8 0xFFFFFFFFFFFFFFFF DUP3 GT ISZERO PUSH3 0xBD7 JUMPI PUSH3 0xBD7 PUSH3 0xB55 JUMP JUMPDEST PUSH1 0x1F NOT PUSH1 0x1F DUP4 ADD AND PUSH1 0x20 ADD SWAP3 SWAP2 POP POP JUMP JUMPDEST DUP3 DUP2 DUP4 CALLDATACOPY POP PUSH1 0x0 SWAP2 ADD MSTORE JUMP JUMPDEST PUSH1 0x0 PUSH3 0xC0B PUSH3 0xC05 DUP5 PUSH3 0xBBA JUMP JUMPDEST PUSH3 0xB9B JUMP JUMPDEST SWAP1 POP DUP3 DUP2 MSTORE PUSH1 0x20 DUP2 ADD DUP5 DUP5 DUP5 ADD GT ISZERO PUSH3 0xC28 JUMPI PUSH3 0xC28 PUSH1 0x0 DUP1 REVERT JUMPDEST PUSH3 0xC35 DUP5 DUP3 DUP6 PUSH3 0xBE8 JUMP JUMPDEST POP SWAP4 SWAP3 POP POP POP JUMP JUMPDEST PUSH1 0x0 DUP3 PUSH1 0x1F DUP4 ADD SLT PUSH3 0xC53 JUMPI PUSH3 0xC53 PUSH1 0x0 DUP1 REVERT JUMPDEST DUP2 CALLDATALOAD PUSH3 0x80D DUP5 DUP3 PUSH1 0x20 DUP7 ADD PUSH3 0xBF4 JUMP JUMPDEST PUSH1 0x0 PUSH1 0x1 PUSH1 0x1 PUSH1 0xA0 SHL SUB DUP3 AND JUMPDEST SWAP3 SWAP2 POP POP JUMP JUMPDEST PUSH3 0xC83 DUP2 PUSH3 0xC65 JUMP JUMPDEST DUP2 EQ PUSH3 0x9C8 JUMPI PUSH1 0x0 DUP1 REVERT JUMPDEST DUP1 CALLDATALOAD PUSH3 0xC72 DUP2 PUSH3 0xC78 JUMP JUMPDEST PUSH1 0x0 DUP1 PUSH1 0x40 DUP4 DUP6 SUB SLT ISZERO PUSH3 0xCB4 JUMPI PUSH3 0xCB4 PUSH1 0x0 DUP1 REVERT JUMPDEST DUP3 CALLDATALOAD PUSH8 0xFFFFFFFFFFFFFFFF DUP2 GT ISZERO PUSH3 0xCD0 JUMPI PUSH3 0xCD0 PUSH1 0x0 DUP1 REVERT JUMPDEST PUSH3 0xCDE DUP6 DUP3 DUP7 ADD PUSH3 0xC3D JUMP JUMPDEST SWAP3 POP POP PUSH1 0x20 PUSH3 0xCF1 DUP6 DUP3 DUP7 ADD PUSH3 0xC8F JUMP JUMPDEST SWAP2 POP POP SWAP3 POP SWAP3 SWAP1 POP JUMP JUMPDEST DUP1 JUMPDEST DUP3 MSTORE POP POP JUMP JUMPDEST PUSH1 0x20 DUP2 ADD PUSH3 0xC72 DUP3 DUP5 PUSH3 0xCFB JUMP JUMPDEST PUSH1 0x0 PUSH1 0x20 DUP3 DUP5 SUB SLT ISZERO PUSH3 0xD2A JUMPI PUSH3 0xD2A PUSH1 0x0 DUP1 REVERT JUMPDEST DUP2 CALLDATALOAD PUSH8 0xFFFFFFFFFFFFFFFF DUP2 GT ISZERO PUSH3 0xD46 JUMPI PUSH3 0xD46 PUSH1 0x0 DUP1 REVERT JUMPDEST PUSH3 0x80D DUP5 DUP3 DUP6 ADD PUSH3 0xC3D JUMP JUMPDEST PUSH3 0xCFD DUP2 PUSH3 0xC65 JUMP JUMPDEST PUSH1 0x20 DUP2 ADD PUSH3 0xC72 DUP3 DUP5 PUSH3 0xD54 JUMP JUMPDEST DUP1 PUSH3 0xC83 JUMP JUMPDEST DUP1 CALLDATALOAD PUSH3 0xC72 DUP2 PUSH3 0xD6F JUMP JUMPDEST PUSH1 0xFF DUP2 AND PUSH3 0xC83 JUMP JUMPDEST DUP1 CALLDATALOAD PUSH3 0xC72 DUP2 PUSH3 0xD83 JUMP JUMPDEST PUSH1 0x0 DUP1 PUSH1 0x0 DUP1 PUSH1 0x0 DUP1 PUSH1 0x0 PUSH1 0xE0 DUP9 DUP11 SUB SLT ISZERO PUSH3 0xDBA JUMPI PUSH3 0xDBA PUSH1 0x0 DUP1 REVERT JUMPDEST PUSH1 0x0 PUSH3 0xDC8 DUP11 DUP11 PUSH3 0xC8F JUMP JUMPDEST SWAP8 POP POP PUSH1 0x20 PUSH3 0xDDB DUP11 DUP3 DUP12 ADD PUSH3 0xC8F JUMP JUMPDEST SWAP7 POP POP PUSH1 0x40 PUSH3 0xDEE DUP11 DUP3 DUP12 ADD PUSH3 0xD76 JUMP JUMPDEST SWAP6 POP POP PUSH1 0x60 PUSH3 0xE01 DUP11 DUP3 DUP12 ADD PUSH3 0xD76 JUMP JUMPDEST SWAP5 POP POP PUSH1 0x80 PUSH3 0xE14 DUP11 DUP3 DUP12 ADD PUSH3 0xD8D JUMP JUMPDEST SWAP4 POP POP PUSH1 0xA0 PUSH3 0xE27 DUP11 DUP3 DUP12 ADD PUSH3 0xD76 JUMP JUMPDEST SWAP3 POP POP PUSH1 0xC0 PUSH3 0xE3A DUP11 DUP3 DUP12 ADD PUSH3 0xD76 JUMP JUMPDEST SWAP2 POP POP SWAP3 SWAP6 SWAP9 SWAP2 SWAP5 SWAP8 POP SWAP3 SWAP6 POP JUMP JUMPDEST DUP1 ISZERO ISZERO PUSH3 0xCFD JUMP JUMPDEST PUSH1 0x20 DUP2 ADD PUSH3 0xC72 DUP3 DUP5 PUSH3 0xE49 JUMP JUMPDEST PUSH1 0x0 DUP1 PUSH1 0x40 DUP4 DUP6 SUB SLT ISZERO PUSH3 0xE7A JUMPI PUSH3 0xE7A PUSH1 0x0 DUP1 REVERT JUMPDEST DUP3 CALLDATALOAD PUSH8 0xFFFFFFFFFFFFFFFF DUP2 GT ISZERO PUSH3 0xE96 JUMPI PUSH3 0xE96 PUSH1 0x0 DUP1 REVERT JUMPDEST PUSH3 0xEA4 DUP6 DUP3 DUP7 ADD PUSH3 0xC3D JUMP JUMPDEST SWAP3 POP POP PUSH1 0x20 DUP4 ADD CALLDATALOAD PUSH8 0xFFFFFFFFFFFFFFFF DUP2 GT ISZERO PUSH3 0xEC6 JUMPI PUSH3 0xEC6 PUSH1 0x0 DUP1 REVERT JUMPDEST PUSH3 0xCF1 DUP6 DUP3 DUP7 ADD PUSH3 0xC3D JUMP JUMPDEST PUSH1 0x0 DUP1 PUSH1 0x0 PUSH1 0x60 DUP5 DUP7 SUB SLT ISZERO PUSH3 0xEEE JUMPI PUSH3 0xEEE PUSH1 0x0 DUP1 REVERT JUMPDEST DUP4 CALLDATALOAD PUSH8 0xFFFFFFFFFFFFFFFF DUP2 GT ISZERO PUSH3 0xF0A JUMPI PUSH3 0xF0A PUSH1 0x0 DUP1 REVERT JUMPDEST PUSH3 0xF18 DUP7 DUP3 DUP8 ADD PUSH3 0xC3D JUMP JUMPDEST SWAP4 POP POP PUSH1 0x20 PUSH3 0xF2B DUP7 DUP3 DUP8 ADD PUSH3 0xC8F JUMP JUMPDEST SWAP3 POP POP PUSH1 0x40 PUSH3 0xF3E DUP7 DUP3 DUP8 ADD PUSH3 0xD76 JUMP JUMPDEST SWAP2 POP POP SWAP3 POP SWAP3 POP SWAP3 JUMP JUMPDEST PUSH1 0x0 PUSH1 0x20 DUP3 DUP5 SUB SLT ISZERO PUSH3 0xF5F JUMPI PUSH3 0xF5F PUSH1 0x0 DUP1 REVERT JUMPDEST PUSH1 0x0 PUSH3 0x80D DUP5 DUP5 PUSH3 0xC8F JUMP JUMPDEST PUSH1 0x0 DUP1 PUSH1 0x0 PUSH1 0x60 DUP5 DUP7 SUB SLT ISZERO PUSH3 0xF87 JUMPI PUSH3 0xF87 PUSH1 0x0 DUP1 REVERT JUMPDEST PUSH1 0x0 PUSH3 0xF18 DUP7 DUP7 PUSH3 0xC8F JUMP JUMPDEST PUSH1 0x0 JUMPDEST DUP4 DUP2 LT ISZERO PUSH3 0xFB2 JUMPI DUP2 DUP2 ADD MLOAD DUP4 DUP3 ADD MSTORE PUSH1 0x20 ADD PUSH3 0xF98 JUMP JUMPDEST POP POP PUSH1 0x0 SWAP2 ADD MSTORE JUMP JUMPDEST PUSH1 0x0 PUSH3 0xFC6 DUP3 MLOAD SWAP1 JUMP JUMPDEST DUP1 DUP5 MSTORE PUSH1 0x20 DUP5 ADD SWAP4 POP PUSH3 0xFDF DUP2 DUP6 PUSH1 0x20 DUP7 ADD PUSH3 0xF95 JUMP JUMPDEST PUSH1 0x1F ADD PUSH1 0x1F NOT AND SWAP3 SWAP1 SWAP3 ADD SWAP3 SWAP2 POP POP JUMP JUMPDEST PUSH1 0x20 DUP1 DUP3 MSTORE DUP2 ADD PUSH3 0x1003 DUP2 DUP5 PUSH3 0xFBB JUMP JUMPDEST SWAP4 SWAP3 POP POP POP JUMP JUMPDEST DUP1 MLOAD PUSH3 0xC72 DUP2 PUSH3 0xD6F JUMP JUMPDEST PUSH1 0x0 PUSH1 0x20 DUP3 DUP5 SUB SLT ISZERO PUSH3 0x102E JUMPI PUSH3 0x102E PUSH1 0x0 DUP1 REVERT JUMPDEST PUSH1 0x0 PUSH3 0x80D DUP5 DUP5 PUSH3 0x100A JUMP JUMPDEST PUSH1 0x0 PUSH3 0x1047 DUP3 MLOAD SWAP1 JUMP JUMPDEST PUSH3 0x1057 DUP2 DUP6 PUSH1 0x20 DUP7 ADD PUSH3 0xF95 JUMP JUMPDEST SWAP3 SWAP1 SWAP3 ADD SWAP3 SWAP2 POP POP JUMP JUMPDEST PUSH1 0x0 PUSH3 0x1003 DUP3 DUP5 PUSH3 0x103C JUMP JUMPDEST PUSH1 0xFF DUP2 AND PUSH3 0xCFD JUMP JUMPDEST PUSH1 0xE0 DUP2 ADD PUSH3 0x1089 DUP3 DUP11 PUSH3 0xD54 JUMP JUMPDEST PUSH3 0x1098 PUSH1 0x20 DUP4 ADD DUP10 PUSH3 0xD54 JUMP JUMPDEST PUSH3 0x10A7 PUSH1 0x40 DUP4 ADD DUP9 PUSH3 0xCFB JUMP JUMPDEST PUSH3 0x10B6 PUSH1 0x60 DUP4 ADD DUP8 PUSH3 0xCFB JUMP JUMPDEST PUSH3 0x10C5 PUSH1 0x80 DUP4 ADD DUP7 PUSH3 0x106F JUMP JUMPDEST PUSH3 0x10D4 PUSH1 0xA0 DUP4 ADD DUP6 PUSH3 0xCFB JUMP JUMPDEST PUSH3 0x10E3 PUSH1 0xC0 DUP4 ADD DUP5 PUSH3 0xCFB JUMP JUMPDEST SWAP9 SWAP8 POP POP POP POP POP POP POP POP JUMP JUMPDEST PUSH1 0x40 DUP2 ADD PUSH3 0x10FF DUP3 DUP6 PUSH3 0xD54 JUMP JUMPDEST PUSH3 0x1003 PUSH1 0x20 DUP4 ADD DUP5 PUSH3 0xCFB JUMP JUMPDEST PUSH1 0x40 DUP1 DUP3 MSTORE DUP2 ADD PUSH3 0x1121 DUP2 DUP6 PUSH3 0xFBB JUMP JUMPDEST SWAP1 POP DUP2 DUP2 SUB PUSH1 0x20 DUP4 ADD MSTORE PUSH3 0x80D DUP2 DUP5 PUSH3 0xFBB JUMP JUMPDEST PUSH1 0x20 DUP1 DUP3 MSTORE DUP2 ADD PUSH3 0xC72 DUP2 PUSH1 0x26 DUP2 MSTORE PUSH32 0x4F776E61626C653A206E6577206F776E657220697320746865207A65726F2061 PUSH1 0x20 DUP3 ADD MSTORE PUSH6 0x646472657373 PUSH1 0xD0 SHL PUSH1 0x40 DUP3 ADD MSTORE PUSH1 0x60 ADD SWAP1 JUMP JUMPDEST PUSH1 0x20 DUP1 DUP3 MSTORE DUP2 DUP2 ADD SWAP1 DUP2 MSTORE PUSH32 0x4F776E61626C653A2063616C6C6572206973206E6F7420746865206F776E6572 PUSH1 0x40 DUP4 ADD MSTORE PUSH1 0x60 DUP3 ADD PUSH3 0xC72 JUMP INVALID PUSH2 0x160 PUSH1 0x40 MSTORE CALLVALUE DUP1 ISZERO PUSH3 0x12 JUMPI PUSH1 0x0 DUP1 REVERT JUMPDEST POP PUSH1 0x40 MLOAD PUSH3 0x227B CODESIZE SUB DUP1 PUSH3 0x227B DUP4 CODECOPY DUP2 ADD PUSH1 0x40 DUP2 SWAP1 MSTORE PUSH3 0x35 SWAP2 PUSH3 0x383 JUMP JUMPDEST PUSH1 0x40 DUP1 MLOAD DUP1 DUP3 ADD SWAP1 SWAP2 MSTORE PUSH1 0x1 DUP2 MSTORE PUSH1 0x31 PUSH1 0xF8 SHL PUSH1 0x20 DUP3 ADD MSTORE DUP3 SWAP1 DUP2 SWAP1 DUP2 DUP5 PUSH1 0x3 PUSH3 0x61 DUP4 DUP3 PUSH3 0x4F7 JUMP JUMPDEST POP PUSH1 0x4 PUSH3 0x70 DUP3 DUP3 PUSH3 0x4F7 JUMP JUMPDEST POP POP POP PUSH3 0x8D PUSH3 0x87 PUSH3 0x102 PUSH1 0x20 SHL PUSH1 0x20 SHR JUMP JUMPDEST PUSH3 0x106 JUMP JUMPDEST PUSH3 0xA8 PUSH1 0x6 DUP4 PUSH3 0x158 PUSH1 0x20 SHL PUSH3 0x6BC OR SWAP1 SWAP2 SWAP1 PUSH1 0x20 SHR JUMP JUMPDEST PUSH2 0x120 MSTORE PUSH3 0xC5 DUP2 PUSH1 0x7 PUSH3 0x158 PUSH1 0x20 SWAP1 DUP2 SHL PUSH3 0x6BC OR SWAP1 SHR JUMP JUMPDEST PUSH2 0x140 MSTORE DUP2 MLOAD PUSH1 0x20 DUP1 DUP5 ADD SWAP2 SWAP1 SWAP2 KECCAK256 PUSH1 0xE0 MSTORE DUP2 MLOAD SWAP1 DUP3 ADD KECCAK256 PUSH2 0x100 MSTORE CHAINID PUSH1 0xA0 MSTORE PUSH3 0xEF PUSH3 0x1A8 JUMP JUMPDEST PUSH1 0x80 MSTORE POP POP ADDRESS PUSH1 0xC0 MSTORE POP PUSH3 0x6E0 SWAP2 POP POP JUMP JUMPDEST CALLER SWAP1 JUMP JUMPDEST PUSH1 0x5 DUP1 SLOAD PUSH1 0x1 PUSH1 0x1 PUSH1 0xA0 SHL SUB DUP4 DUP2 AND PUSH1 0x1 PUSH1 0x1 PUSH1 0xA0 SHL SUB NOT DUP4 AND DUP2 OR SWAP1 SWAP4 SSTORE PUSH1 0x40 MLOAD SWAP2 AND SWAP2 SWAP1 DUP3 SWAP1 PUSH32 0x8BE0079C531659141344CD1FD0A4F28419497F9722A3DAAFE3B4186F6B6457E0 SWAP1 PUSH1 0x0 SWAP1 LOG3 POP POP JUMP JUMPDEST PUSH1 0x0 PUSH1 0x20 DUP4 MLOAD LT ISZERO PUSH3 0x178 JUMPI PUSH3 0x170 DUP4 PUSH3 0x204 JUMP JUMPDEST SWAP1 POP PUSH3 0x1A2 JUMP JUMPDEST DUP3 PUSH3 0x18F DUP4 PUSH3 0x250 PUSH1 0x20 SHL PUSH3 0x6ED OR PUSH1 0x20 SHR JUMP JUMPDEST SWAP1 PUSH3 0x19C SWAP1 DUP3 PUSH3 0x4F7 JUMP JUMPDEST POP PUSH1 0xFF SWAP1 POP JUMPDEST SWAP3 SWAP2 POP POP JUMP JUMPDEST PUSH1 0xE0 MLOAD PUSH2 0x100 MLOAD PUSH1 0x40 MLOAD PUSH1 0x0 SWAP3 PUSH3 0x1E9 SWAP3 PUSH32 0x8B73C3C69BB8FE3D512ECC4CF759CC79239F7B179B0FFACAA9A75D522B39400F SWAP3 CHAINID SWAP1 ADDRESS SWAP1 PUSH1 0x20 ADD PUSH3 0x5EC JUMP JUMPDEST PUSH1 0x40 MLOAD PUSH1 0x20 DUP2 DUP4 SUB SUB DUP2 MSTORE SWAP1 PUSH1 0x40 MSTORE DUP1 MLOAD SWAP1 PUSH1 0x20 ADD KECCAK256 SWAP1 POP SWAP1 JUMP JUMPDEST PUSH1 0x0 DUP1 DUP3 SWAP1 POP PUSH1 0x1F DUP2 MLOAD GT ISZERO PUSH3 0x23B JUMPI DUP3 PUSH1 0x40 MLOAD PUSH4 0x305A27A9 PUSH1 0xE0 SHL DUP2 MSTORE PUSH1 0x4 ADD PUSH3 0x232 SWAP2 SWAP1 PUSH3 0x677 JUMP JUMPDEST PUSH1 0x40 MLOAD DUP1 SWAP2 SUB SWAP1 REVERT JUMPDEST DUP1 MLOAD PUSH3 0x248 DUP3 PUSH3 0x69C JUMP JUMPDEST OR SWAP4 SWAP3 POP POP POP JUMP JUMPDEST SWAP1 JUMP JUMPDEST PUSH4 0x4E487B71 PUSH1 0xE0 SHL PUSH1 0x0 MSTORE PUSH1 0x41 PUSH1 0x4 MSTORE PUSH1 0x24 PUSH1 0x0 REVERT JUMPDEST PUSH1 0x1F NOT PUSH1 0x1F DUP4 ADD AND DUP2 ADD DUP2 DUP2 LT PUSH1 0x1 PUSH1 0x1 PUSH1 0x40 SHL SUB DUP3 GT OR ISZERO PUSH3 0x291 JUMPI PUSH3 0x291 PUSH3 0x253 JUMP JUMPDEST PUSH1 0x40 MSTORE POP POP JUMP JUMPDEST PUSH1 0x0 PUSH3 0x2A4 PUSH1 0x40 MLOAD SWAP1 JUMP JUMPDEST SWAP1 POP PUSH3 0x2B2 DUP3 DUP3 PUSH3 0x269 JUMP JUMPDEST SWAP2 SWAP1 POP JUMP JUMPDEST PUSH1 0x0 PUSH1 0x1 PUSH1 0x1 PUSH1 0x40 SHL SUB DUP3 GT ISZERO PUSH3 0x2D3 JUMPI PUSH3 0x2D3 PUSH3 0x253 JUMP JUMPDEST PUSH1 0x1F NOT PUSH1 0x1F DUP4 ADD AND PUSH1 0x20 ADD SWAP3 SWAP2 POP POP JUMP JUMPDEST PUSH1 0x0 JUMPDEST DUP4 DUP2 LT ISZERO PUSH3 0x301 JUMPI DUP2 DUP2 ADD MLOAD DUP4 DUP3 ADD MSTORE PUSH1 0x20 ADD PUSH3 0x2E7 JUMP JUMPDEST POP POP PUSH1 0x0 SWAP2 ADD MSTORE JUMP JUMPDEST PUSH1 0x0 PUSH3 0x321 PUSH3 0x31B DUP5 PUSH3 0x2B7 JUMP JUMPDEST PUSH3 0x298 JUMP JUMPDEST SWAP1 POP DUP3 DUP2 MSTORE PUSH1 0x20 DUP2 ADD DUP5 DUP5 DUP5 ADD GT ISZERO PUSH3 0x33E JUMPI PUSH3 0x33E PUSH1 0x0 DUP1 REVERT JUMPDEST PUSH3 0x34B DUP5 DUP3 DUP6 PUSH3 0x2E4 JUMP JUMPDEST POP SWAP4 SWAP3 POP POP POP JUMP JUMPDEST PUSH1 0x0 DUP3 PUSH1 0x1F DUP4 ADD SLT PUSH3 0x369 JUMPI PUSH3 0x369 PUSH1 0x0 DUP1 REVERT JUMPDEST DUP2 MLOAD PUSH3 0x37B DUP5 DUP3 PUSH1 0x20 DUP7 ADD PUSH3 0x30A JUMP JUMPDEST SWAP5 SWAP4 POP POP POP POP JUMP JUMPDEST PUSH1 0x0 DUP1 PUSH1 0x40 DUP4 DUP6 SUB SLT ISZERO PUSH3 0x39B JUMPI PUSH3 0x39B PUSH1 0x0 DUP1 REVERT JUMPDEST DUP3 MLOAD PUSH1 0x1 PUSH1 0x1 PUSH1 0x40 SHL SUB DUP2 GT ISZERO PUSH3 0x3B6 JUMPI PUSH3 0x3B6 PUSH1 0x0 DUP1 REVERT JUMPDEST PUSH3 0x3C4 DUP6 DUP3 DUP7 ADD PUSH3 0x353 JUMP JUMPDEST SWAP3 POP POP PUSH1 0x20 DUP4 ADD MLOAD PUSH1 0x1 PUSH1 0x1 PUSH1 0x40 SHL SUB DUP2 GT ISZERO PUSH3 0x3E5 JUMPI PUSH3 0x3E5 PUSH1 0x0 DUP1 REVERT JUMPDEST PUSH3 0x3F3 DUP6 DUP3 DUP7 ADD PUSH3 0x353 JUMP JUMPDEST SWAP2 POP POP SWAP3 POP SWAP3 SWAP1 POP JUMP JUMPDEST PUSH4 0x4E487B71 PUSH1 0xE0 SHL PUSH1 0x0 MSTORE PUSH1 0x22 PUSH1 0x4 MSTORE PUSH1 0x24 PUSH1 0x0 REVERT JUMPDEST PUSH1 0x2 DUP2 DIV PUSH1 0x1 DUP3 AND DUP1 PUSH3 0x428 JUMPI PUSH1 0x7F DUP3 AND SWAP2 POP JUMPDEST PUSH1 0x20 DUP3 LT DUP2 SUB PUSH3 0x43D JUMPI PUSH3 0x43D PUSH3 0x3FD JUMP JUMPDEST POP SWAP2 SWAP1 POP JUMP JUMPDEST PUSH1 0x0 PUSH3 0x1A2 PUSH3 0x250 DUP4 DUP2 JUMP JUMPDEST PUSH3 0x45C DUP4 PUSH3 0x443 JUMP JUMPDEST DUP2 SLOAD PUSH1 0x8 DUP5 MUL DUP3 DUP2 SHL PUSH1 0x0 NOT SWAP1 SWAP2 SHL SWAP1 DUP2 AND SWAP1 NOT SWAP1 SWAP2 AND OR DUP3 SSTORE POP POP POP POP JUMP JUMPDEST PUSH1 0x0 PUSH3 0x48B DUP2 DUP5 DUP5 PUSH3 0x451 JUMP JUMPDEST POP POP POP JUMP JUMPDEST DUP2 DUP2 LT ISZERO PUSH3 0x4AF JUMPI PUSH3 0x4A6 PUSH1 0x0 DUP3 PUSH3 0x47C JUMP JUMPDEST PUSH1 0x1 ADD PUSH3 0x490 JUMP JUMPDEST POP POP JUMP JUMPDEST PUSH1 0x1F DUP3 GT ISZERO PUSH3 0x48B JUMPI PUSH1 0x0 DUP2 DUP2 MSTORE PUSH1 0x20 SWAP1 KECCAK256 PUSH1 0x20 PUSH1 0x1F DUP6 ADD DIV DUP2 ADD PUSH1 0x20 DUP6 LT ISZERO PUSH3 0x4DC JUMPI POP DUP1 JUMPDEST PUSH3 0x4F0 PUSH1 0x20 PUSH1 0x1F DUP7 ADD DIV DUP4 ADD DUP3 PUSH3 0x490 JUMP JUMPDEST POP POP POP POP POP JUMP JUMPDEST DUP2 MLOAD PUSH1 0x1 PUSH1 0x1 PUSH1 0x40 SHL SUB DUP2 GT ISZERO PUSH3 0x513 JUMPI PUSH3 0x513 PUSH3 0x253 JUMP JUMPDEST PUSH3 0x51F DUP3 SLOAD PUSH3 0x413 JUMP JUMPDEST PUSH3 0x52C DUP3 DUP3 DUP6 PUSH3 0x4B3 JUMP JUMPDEST PUSH1 0x20 PUSH1 0x1F DUP4 GT PUSH1 0x1 DUP2 EQ PUSH3 0x563 JUMPI PUSH1 0x0 DUP5 ISZERO PUSH3 0x54A JUMPI POP DUP6 DUP3 ADD MLOAD JUMPDEST PUSH1 0x0 NOT PUSH1 0x8 DUP7 MUL SHR NOT DUP2 AND PUSH1 0x2 DUP7 MUL OR DUP7 SSTORE POP PUSH3 0x5BF JUMP JUMPDEST PUSH1 0x0 DUP6 DUP2 MSTORE PUSH1 0x20 DUP2 KECCAK256 PUSH1 0x1F NOT DUP7 AND SWAP2 JUMPDEST DUP3 DUP2 LT ISZERO PUSH3 0x595 JUMPI DUP9 DUP6 ADD MLOAD DUP3 SSTORE PUSH1 0x20 SWAP5 DUP6 ADD SWAP5 PUSH1 0x1 SWAP1 SWAP3 ADD SWAP2 ADD PUSH3 0x573 JUMP JUMPDEST DUP7 DUP4 LT ISZERO PUSH3 0x5B2 JUMPI DUP5 DUP10 ADD MLOAD PUSH1 0x0 NOT PUSH1 0x1F DUP10 AND PUSH1 0x8 MUL SHR NOT AND DUP3 SSTORE JUMPDEST PUSH1 0x1 PUSH1 0x2 DUP9 MUL ADD DUP9 SSTORE POP POP POP JUMPDEST POP POP POP POP POP POP JUMP JUMPDEST DUP1 JUMPDEST DUP3 MSTORE POP POP JUMP JUMPDEST PUSH1 0x0 PUSH1 0x1 PUSH1 0x1 PUSH1 0xA0 SHL SUB DUP3 AND PUSH3 0x1A2 JUMP JUMPDEST PUSH3 0x5C9 DUP2 PUSH3 0x5CF JUMP JUMPDEST PUSH1 0xA0 DUP2 ADD PUSH3 0x5FC DUP3 DUP9 PUSH3 0x5C7 JUMP JUMPDEST PUSH3 0x60B PUSH1 0x20 DUP4 ADD DUP8 PUSH3 0x5C7 JUMP JUMPDEST PUSH3 0x61A PUSH1 0x40 DUP4 ADD DUP7 PUSH3 0x5C7 JUMP JUMPDEST PUSH3 0x629 PUSH1 0x60 DUP4 ADD DUP6 PUSH3 0x5C7 JUMP JUMPDEST PUSH3 0x638 PUSH1 0x80 DUP4 ADD DUP5 PUSH3 0x5E1 JUMP JUMPDEST SWAP7 SWAP6 POP POP POP POP POP POP JUMP JUMPDEST PUSH1 0x0 PUSH3 0x64D DUP3 MLOAD SWAP1 JUMP JUMPDEST DUP1 DUP5 MSTORE PUSH1 0x20 DUP5 ADD SWAP4 POP PUSH3 0x666 DUP2 DUP6 PUSH1 0x20 DUP7 ADD PUSH3 0x2E4 JUMP JUMPDEST PUSH1 0x1F ADD PUSH1 0x1F NOT AND SWAP3 SWAP1 SWAP3 ADD SWAP3 SWAP2 POP POP JUMP JUMPDEST PUSH1 0x20 DUP1 DUP3 MSTORE DUP2 ADD PUSH3 0x68A DUP2 DUP5 PUSH3 0x642 JUMP JUMPDEST SWAP4 SWAP3 POP POP POP JUMP JUMPDEST PUSH1 0x0 PUSH3 0x1A2 DUP3 MLOAD SWAP1 JUMP JUMPDEST PUSH1 0x0 PUSH3 0x6A7 DUP3 MLOAD SWAP1 JUMP JUMPDEST PUSH1 0x20 DUP4 ADD PUSH3 0x6B6 DUP2 PUSH3 0x691 JUMP JUMPDEST SWAP3 POP PUSH1 0x20 DUP3 LT ISZERO PUSH3 0x6D9 JUMPI PUSH3 0x6D4 PUSH1 0x0 NOT DUP4 PUSH1 0x20 SUB PUSH1 0x8 MUL SHL SWAP1 JUMP JUMPDEST DUP4 AND SWAP3 POP JUMPDEST POP POP SWAP2 SWAP1 POP JUMP JUMPDEST PUSH1 0x80 MLOAD PUSH1 0xA0 MLOAD PUSH1 0xC0 MLOAD PUSH1 0xE0 MLOAD PUSH2 0x100 MLOAD PUSH2 0x120 MLOAD PUSH2 0x140 MLOAD PUSH2 0x1B40 PUSH3 0x73B PUSH1 0x0 CODECOPY PUSH1 0x0 PUSH2 0x4D9 ADD MSTORE PUSH1 0x0 PUSH2 0x4AE ADD MSTORE PUSH1 0x0 PUSH2 0xD01 ADD MSTORE PUSH1 0x0 PUSH2 0xCE0 ADD MSTORE PUSH1 0x0 PUSH2 0x903 ADD MSTORE PUSH1 0x0 PUSH2 0x92D ADD MSTORE PUSH1 0x0 PUSH2 0x957 ADD MSTORE PUSH2 0x1B40 PUSH1 0x0 RETURN INVALID PUSH1 0x80 PUSH1 0x40 MSTORE CALLVALUE DUP1 ISZERO PUSH2 0x10 JUMPI PUSH1 0x0 DUP1 REVERT JUMPDEST POP PUSH1 0x4 CALLDATASIZE LT PUSH2 0x147 JUMPI PUSH1 0x0 CALLDATALOAD PUSH1 0xE0 SHR DUP1 PUSH4 0x715018A6 GT PUSH2 0xC8 JUMPI DUP1 PUSH4 0x95D89B41 GT PUSH2 0x8C JUMPI DUP1 PUSH4 0xD505ACCF GT PUSH2 0x66 JUMPI DUP1 PUSH4 0xD505ACCF EQ PUSH2 0x2B9 JUMPI DUP1 PUSH4 0xDD62ED3E EQ PUSH2 0x2CC JUMPI DUP1 PUSH4 0xF2FDE38B EQ PUSH2 0x305 JUMPI PUSH1 0x0 DUP1 REVERT JUMPDEST DUP1 PUSH4 0x95D89B41 EQ PUSH2 0x28B JUMPI DUP1 PUSH4 0xA457C2D7 EQ PUSH2 0x293 JUMPI DUP1 PUSH4 0xA9059CBB EQ PUSH2 0x2A6 JUMPI PUSH1 0x0 DUP1 REVERT JUMPDEST DUP1 PUSH4 0x715018A6 EQ PUSH2 0x229 JUMPI DUP1 PUSH4 0x79CC6790 EQ PUSH2 0x231 JUMPI DUP1 PUSH4 0x7ECEBE00 EQ PUSH2 0x244 JUMPI DUP1 PUSH4 0x84B0196E EQ PUSH2 0x257 JUMPI DUP1 PUSH4 0x8DA5CB5B EQ PUSH2 0x272 JUMPI PUSH1 0x0 DUP1 REVERT JUMPDEST DUP1 PUSH4 0x3644E515 GT PUSH2 0x10F JUMPI DUP1 PUSH4 0x3644E515 EQ PUSH2 0x1BD JUMPI DUP1 PUSH4 0x39509351 EQ PUSH2 0x1C5 JUMPI DUP1 PUSH4 0x40C10F19 EQ PUSH2 0x1D8 JUMPI DUP1 PUSH4 0x42966C68 EQ PUSH2 0x1ED JUMPI DUP1 PUSH4 0x70A08231 EQ PUSH2 0x200 JUMPI PUSH1 0x0 DUP1 REVERT JUMPDEST DUP1 PUSH4 0x6FDDE03 EQ PUSH2 0x14C JUMPI DUP1 PUSH4 0x95EA7B3 EQ PUSH2 0x16A JUMPI DUP1 PUSH4 0x18160DDD EQ PUSH2 0x18A JUMPI DUP1 PUSH4 0x23B872DD EQ PUSH2 0x19B JUMPI DUP1 PUSH4 0x313CE567 EQ PUSH2 0x1AE JUMPI JUMPDEST PUSH1 0x0 DUP1 REVERT JUMPDEST PUSH2 0x154 PUSH2 0x318 JUMP JUMPDEST PUSH1 0x40 MLOAD PUSH2 0x161 SWAP2 SWAP1 PUSH2 0xF74 JUMP JUMPDEST PUSH1 0x40 MLOAD DUP1 SWAP2 SUB SWAP1 RETURN JUMPDEST PUSH2 0x17D PUSH2 0x178 CALLDATASIZE PUSH1 0x4 PUSH2 0xFCD JUMP JUMPDEST PUSH2 0x3AA JUMP JUMPDEST PUSH1 0x40 MLOAD PUSH2 0x161 SWAP2 SWAP1 PUSH2 0x1014 JUMP JUMPDEST PUSH1 0x2 SLOAD JUMPDEST PUSH1 0x40 MLOAD PUSH2 0x161 SWAP2 SWAP1 PUSH2 0x1028 JUMP JUMPDEST PUSH2 0x17D PUSH2 0x1A9 CALLDATASIZE PUSH1 0x4 PUSH2 0x1036 JUMP JUMPDEST PUSH2 0x3C4 JUMP JUMPDEST PUSH1 0x12 PUSH1 0x40 MLOAD PUSH2 0x161 SWAP2 SWAP1 PUSH2 0x108F JUMP JUMPDEST PUSH2 0x18E PUSH2 0x3E8 JUMP JUMPDEST PUSH2 0x17D PUSH2 0x1D3 CALLDATASIZE PUSH1 0x4 PUSH2 0xFCD JUMP JUMPDEST PUSH2 0x3F7 JUMP JUMPDEST PUSH2 0x1EB PUSH2 0x1E6 CALLDATASIZE PUSH1 0x4 PUSH2 0xFCD JUMP JUMPDEST PUSH2 0x436 JUMP JUMPDEST STOP JUMPDEST PUSH2 0x1EB PUSH2 0x1FB CALLDATASIZE PUSH1 0x4 PUSH2 0x109D JUMP JUMPDEST PUSH2 0x44C JUMP JUMPDEST PUSH2 0x18E PUSH2 0x20E CALLDATASIZE PUSH1 0x4 PUSH2 0x10C6 JUMP JUMPDEST PUSH1 0x1 PUSH1 0x1 PUSH1 0xA0 SHL SUB AND PUSH1 0x0 SWAP1 DUP2 MSTORE PUSH1 0x20 DUP2 SWAP1 MSTORE PUSH1 0x40 SWAP1 KECCAK256 SLOAD SWAP1 JUMP JUMPDEST PUSH2 0x1EB PUSH2 0x459 JUMP JUMPDEST PUSH2 0x1EB PUSH2 0x23F CALLDATASIZE PUSH1 0x4 PUSH2 0xFCD JUMP JUMPDEST PUSH2 0x46D JUMP JUMPDEST PUSH2 0x18E PUSH2 0x252 CALLDATASIZE PUSH1 0x4 PUSH2 0x10C6 JUMP JUMPDEST PUSH2 0x482 JUMP JUMPDEST PUSH2 0x25F PUSH2 0x4A0 JUMP JUMPDEST PUSH1 0x40 MLOAD PUSH2 0x161 SWAP8 SWAP7 SWAP6 SWAP5 SWAP4 SWAP3 SWAP2 SWAP1 PUSH2 0x1175 JUMP JUMPDEST PUSH1 0x5 SLOAD PUSH1 0x1 PUSH1 0x1 PUSH1 0xA0 SHL SUB AND PUSH1 0x40 MLOAD PUSH2 0x161 SWAP2 SWAP1 PUSH2 0x11F1 JUMP JUMPDEST PUSH2 0x154 PUSH2 0x529 JUMP JUMPDEST PUSH2 0x17D PUSH2 0x2A1 CALLDATASIZE PUSH1 0x4 PUSH2 0xFCD JUMP JUMPDEST PUSH2 0x538 JUMP JUMPDEST PUSH2 0x17D PUSH2 0x2B4 CALLDATASIZE PUSH1 0x4 PUSH2 0xFCD JUMP JUMPDEST PUSH2 0x595 JUMP JUMPDEST PUSH2 0x1EB PUSH2 0x2C7 CALLDATASIZE PUSH1 0x4 PUSH2 0x1213 JUMP JUMPDEST PUSH2 0x5A3 JUMP JUMPDEST PUSH2 0x18E PUSH2 0x2DA CALLDATASIZE PUSH1 0x4 PUSH2 0x12B2 JUMP JUMPDEST PUSH1 0x1 PUSH1 0x1 PUSH1 0xA0 SHL SUB SWAP2 DUP3 AND PUSH1 0x0 SWAP1 DUP2 MSTORE PUSH1 0x1 PUSH1 0x20 SWAP1 DUP2 MSTORE PUSH1 0x40 DUP1 DUP4 KECCAK256 SWAP4 SWAP1 SWAP5 AND DUP3 MSTORE SWAP2 SWAP1 SWAP2 MSTORE KECCAK256 SLOAD SWAP1 JUMP JUMPDEST PUSH2 0x1EB PUSH2 0x313 CALLDATASIZE PUSH1 0x4 PUSH2 0x10C6 JUMP JUMPDEST PUSH2 0x685 JUMP JUMPDEST PUSH1 0x60 PUSH1 0x3 DUP1 SLOAD PUSH2 0x327 SWAP1 PUSH2 0x12FB JUMP JUMPDEST DUP1 PUSH1 0x1F ADD PUSH1 0x20 DUP1 SWAP2 DIV MUL PUSH1 0x20 ADD PUSH1 0x40 MLOAD SWAP1 DUP2 ADD PUSH1 0x40 MSTORE DUP1 SWAP3 SWAP2 SWAP1 DUP2 DUP2 MSTORE PUSH1 0x20 ADD DUP3 DUP1 SLOAD PUSH2 0x353 SWAP1 PUSH2 0x12FB JUMP JUMPDEST DUP1 ISZERO PUSH2 0x3A0 JUMPI DUP1 PUSH1 0x1F LT PUSH2 0x375 JUMPI PUSH2 0x100 DUP1 DUP4 SLOAD DIV MUL DUP4 MSTORE SWAP2 PUSH1 0x20 ADD SWAP2 PUSH2 0x3A0 JUMP JUMPDEST DUP3 ADD SWAP2 SWAP1 PUSH1 0x0 MSTORE PUSH1 0x20 PUSH1 0x0 KECCAK256 SWAP1 JUMPDEST DUP2 SLOAD DUP2 MSTORE SWAP1 PUSH1 0x1 ADD SWAP1 PUSH1 0x20 ADD DUP1 DUP4 GT PUSH2 0x383 JUMPI DUP3 SWAP1 SUB PUSH1 0x1F AND DUP3 ADD SWAP2 JUMPDEST POP POP POP POP POP SWAP1 POP SWAP1 JUMP JUMPDEST PUSH1 0x0 CALLER PUSH2 0x3B8 DUP2 DUP6 DUP6 PUSH2 0x6F0 JUMP JUMPDEST PUSH1 0x1 SWAP2 POP POP JUMPDEST SWAP3 SWAP2 POP POP JUMP JUMPDEST PUSH1 0x0 CALLER PUSH2 0x3D2 DUP6 DUP3 DUP6 PUSH2 0x7A4 JUMP JUMPDEST PUSH2 0x3DD DUP6 DUP6 DUP6 PUSH2 0x806 JUMP JUMPDEST POP PUSH1 0x1 SWAP5 SWAP4 POP POP POP POP JUMP JUMPDEST PUSH1 0x0 PUSH2 0x3F2 PUSH2 0x8F6 JUMP JUMPDEST SWAP1 POP SWAP1 JUMP JUMPDEST CALLER PUSH1 0x0 DUP2 DUP2 MSTORE PUSH1 0x1 PUSH1 0x20 SWAP1 DUP2 MSTORE PUSH1 0x40 DUP1 DUP4 KECCAK256 PUSH1 0x1 PUSH1 0x1 PUSH1 0xA0 SHL SUB DUP8 AND DUP5 MSTORE SWAP1 SWAP2 MSTORE DUP2 KECCAK256 SLOAD SWAP1 SWAP2 SWAP1 PUSH2 0x3B8 SWAP1 DUP3 SWAP1 DUP7 SWAP1 PUSH2 0x431 SWAP1 DUP8 SWAP1 PUSH2 0x1337 JUMP JUMPDEST PUSH2 0x6F0 JUMP JUMPDEST PUSH2 0x43E PUSH2 0x981 JUMP JUMPDEST PUSH2 0x448 DUP3 DUP3 PUSH2 0x9AB JUMP JUMPDEST POP POP JUMP JUMPDEST PUSH2 0x456 CALLER DUP3 PUSH2 0xA41 JUMP JUMPDEST POP JUMP JUMPDEST PUSH2 0x461 PUSH2 0x981 JUMP JUMPDEST PUSH2 0x46B PUSH1 0x0 PUSH2 0xAFD JUMP JUMPDEST JUMP JUMPDEST PUSH2 0x478 DUP3 CALLER DUP4 PUSH2 0x7A4 JUMP JUMPDEST PUSH2 0x448 DUP3 DUP3 PUSH2 0xA41 JUMP JUMPDEST PUSH1 0x1 PUSH1 0x1 PUSH1 0xA0 SHL SUB DUP2 AND PUSH1 0x0 SWAP1 DUP2 MSTORE PUSH1 0x8 PUSH1 0x20 MSTORE PUSH1 0x40 DUP2 KECCAK256 SLOAD PUSH2 0x3BE JUMP JUMPDEST PUSH1 0x0 PUSH1 0x60 DUP1 DUP3 DUP1 DUP1 DUP4 PUSH2 0x4D4 PUSH32 0x0 PUSH1 0x6 PUSH2 0xB5C JUMP JUMPDEST PUSH2 0x4FF PUSH32 0x0 PUSH1 0x7 PUSH2 0xB5C JUMP JUMPDEST PUSH1 0x40 DUP1 MLOAD PUSH1 0x0 DUP1 DUP3 MSTORE PUSH1 0x20 DUP3 ADD SWAP1 SWAP3 MSTORE PUSH1 0xF PUSH1 0xF8 SHL SWAP12 SWAP4 SWAP11 POP SWAP2 SWAP9 POP CHAINID SWAP8 POP ADDRESS SWAP7 POP SWAP5 POP SWAP3 POP SWAP1 POP JUMP JUMPDEST PUSH1 0x60 PUSH1 0x4 DUP1 SLOAD PUSH2 0x327 SWAP1 PUSH2 0x12FB JUMP JUMPDEST CALLER PUSH1 0x0 DUP2 DUP2 MSTORE PUSH1 0x1 PUSH1 0x20 SWAP1 DUP2 MSTORE PUSH1 0x40 DUP1 DUP4 KECCAK256 PUSH1 0x1 PUSH1 0x1 PUSH1 0xA0 SHL SUB DUP8 AND DUP5 MSTORE SWAP1 SWAP2 MSTORE DUP2 KECCAK256 SLOAD SWAP1 SWAP2 SWAP1 DUP4 DUP2 LT ISZERO PUSH2 0x588 JUMPI PUSH1 0x40 MLOAD PUSH3 0x461BCD PUSH1 0xE5 SHL DUP2 MSTORE PUSH1 0x4 ADD PUSH2 0x57F SWAP1 PUSH2 0x13A5 JUMP JUMPDEST PUSH1 0x40 MLOAD DUP1 SWAP2 SUB SWAP1 REVERT JUMPDEST PUSH2 0x3DD DUP3 DUP7 DUP7 DUP5 SUB PUSH2 0x6F0 JUMP JUMPDEST PUSH1 0x0 CALLER PUSH2 0x3B8 DUP2 DUP6 DUP6 PUSH2 0x806 JUMP JUMPDEST DUP4 TIMESTAMP GT ISZERO PUSH2 0x5C3 JUMPI PUSH1 0x40 MLOAD PUSH3 0x461BCD PUSH1 0xE5 SHL DUP2 MSTORE PUSH1 0x4 ADD PUSH2 0x57F SWAP1 PUSH2 0x13EC JUMP JUMPDEST PUSH1 0x0 PUSH32 0x6E71EDAE12B1B97F4D1F60370FEF10105FA2FAAE0126114A169C64845D6126C9 DUP9 DUP9 DUP9 PUSH2 0x5F2 DUP13 PUSH2 0xC00 JUMP JUMPDEST DUP10 PUSH1 0x40 MLOAD PUSH1 0x20 ADD PUSH2 0x608 SWAP7 SWAP6 SWAP5 SWAP4 SWAP3 SWAP2 SWAP1 PUSH2 0x13FC JUMP JUMPDEST PUSH1 0x40 MLOAD PUSH1 0x20 DUP2 DUP4 SUB SUB DUP2 MSTORE SWAP1 PUSH1 0x40 MSTORE DUP1 MLOAD SWAP1 PUSH1 0x20 ADD KECCAK256 SWAP1 POP PUSH1 0x0 PUSH2 0x62B DUP3 PUSH2 0xC28 JUMP JUMPDEST SWAP1 POP PUSH1 0x0 PUSH2 0x63B DUP3 DUP8 DUP8 DUP8 PUSH2 0xC55 JUMP JUMPDEST SWAP1 POP DUP10 PUSH1 0x1 PUSH1 0x1 PUSH1 0xA0 SHL SUB AND DUP2 PUSH1 0x1 PUSH1 0x1 PUSH1 0xA0 SHL SUB AND EQ PUSH2 0x66E JUMPI PUSH1 0x40 MLOAD PUSH3 0x461BCD PUSH1 0xE5 SHL DUP2 MSTORE PUSH1 0x4 ADD PUSH2 0x57F SWAP1 PUSH2 0x148A JUMP JUMPDEST PUSH2 0x679 DUP11 DUP11 DUP11 PUSH2 0x6F0 JUMP JUMPDEST POP POP POP POP POP POP POP POP POP POP JUMP JUMPDEST PUSH2 0x68D PUSH2 0x981 JUMP JUMPDEST PUSH1 0x1 PUSH1 0x1 PUSH1 0xA0 SHL SUB DUP2 AND PUSH2 0x6B3 JUMPI PUSH1 0x40 MLOAD PUSH3 0x461BCD PUSH1 0xE5 SHL DUP2 MSTORE PUSH1 0x4 ADD PUSH2 0x57F SWAP1 PUSH2 0x14DD JUMP JUMPDEST PUSH2 0x456 DUP2 PUSH2 0xAFD JUMP JUMPDEST PUSH1 0x0 PUSH1 0x20 DUP4 MLOAD LT ISZERO PUSH2 0x6D8 JUMPI PUSH2 0x6D1 DUP4 PUSH2 0xC7D JUMP JUMPDEST SWAP1 POP PUSH2 0x3BE JUMP JUMPDEST DUP2 PUSH2 0x6E3 DUP5 DUP3 PUSH2 0x158A JUMP JUMPDEST POP PUSH1 0xFF SWAP1 POP PUSH2 0x3BE JUMP JUMPDEST SWAP1 JUMP JUMPDEST PUSH1 0x1 PUSH1 0x1 PUSH1 0xA0 SHL SUB DUP4 AND PUSH2 0x716 JUMPI PUSH1 0x40 MLOAD PUSH3 0x461BCD PUSH1 0xE5 SHL DUP2 MSTORE PUSH1 0x4 ADD PUSH2 0x57F SWAP1 PUSH2 0x168F JUMP JUMPDEST PUSH1 0x1 PUSH1 0x1 PUSH1 0xA0 SHL SUB DUP3 AND PUSH2 0x73C JUMPI PUSH1 0x40 MLOAD PUSH3 0x461BCD PUSH1 0xE5 SHL DUP2 MSTORE PUSH1 0x4 ADD PUSH2 0x57F SWAP1 PUSH2 0x16DE JUMP JUMPDEST PUSH1 0x1 PUSH1 0x1 PUSH1 0xA0 SHL SUB DUP1 DUP5 AND PUSH1 0x0 DUP2 DUP2 MSTORE PUSH1 0x1 PUSH1 0x20 SWAP1 DUP2 MSTORE PUSH1 0x40 DUP1 DUP4 KECCAK256 SWAP5 DUP8 AND DUP1 DUP5 MSTORE SWAP5 SWAP1 SWAP2 MSTORE SWAP1 DUP2 SWAP1 KECCAK256 DUP5 SWAP1 SSTORE MLOAD PUSH32 0x8C5BE1E5EBEC7D5BD14F71427D1E84F3DD0314C0F7B2291E5B200AC8C7C3B925 SWAP1 PUSH2 0x797 SWAP1 DUP6 SWAP1 PUSH2 0x1028 JUMP JUMPDEST PUSH1 0x40 MLOAD DUP1 SWAP2 SUB SWAP1 LOG3 POP POP POP JUMP JUMPDEST PUSH1 0x1 PUSH1 0x1 PUSH1 0xA0 SHL SUB DUP4 DUP2 AND PUSH1 0x0 SWAP1 DUP2 MSTORE PUSH1 0x1 PUSH1 0x20 SWAP1 DUP2 MSTORE PUSH1 0x40 DUP1 DUP4 KECCAK256 SWAP4 DUP7 AND DUP4 MSTORE SWAP3 SWAP1 MSTORE KECCAK256 SLOAD PUSH1 0x0 NOT DUP2 EQ PUSH2 0x800 JUMPI DUP2 DUP2 LT ISZERO PUSH2 0x7F3 JUMPI PUSH1 0x40 MLOAD PUSH3 0x461BCD PUSH1 0xE5 SHL DUP2 MSTORE PUSH1 0x4 ADD PUSH2 0x57F SWAP1 PUSH2 0x1722 JUMP JUMPDEST PUSH2 0x800 DUP5 DUP5 DUP5 DUP5 SUB PUSH2 0x6F0 JUMP JUMPDEST POP POP POP POP JUMP JUMPDEST PUSH1 0x1 PUSH1 0x1 PUSH1 0xA0 SHL SUB DUP4 AND PUSH2 0x82C JUMPI PUSH1 0x40 MLOAD PUSH3 0x461BCD PUSH1 0xE5 SHL DUP2 MSTORE PUSH1 0x4 ADD PUSH2 0x57F SWAP1 PUSH2 0x1774 JUMP JUMPDEST PUSH1 0x1 PUSH1 0x1 PUSH1 0xA0 SHL SUB DUP3 AND PUSH2 0x852 JUMPI PUSH1 0x40 MLOAD PUSH3 0x461BCD PUSH1 0xE5 SHL DUP2 MSTORE PUSH1 0x4 ADD PUSH2 0x57F SWAP1 PUSH2 0x17C4 JUMP JUMPDEST PUSH1 0x1 PUSH1 0x1 PUSH1 0xA0 SHL SUB DUP4 AND PUSH1 0x0 SWAP1 DUP2 MSTORE PUSH1 0x20 DUP2 SWAP1 MSTORE PUSH1 0x40 SWAP1 KECCAK256 SLOAD DUP2 DUP2 LT ISZERO PUSH2 0x88B JUMPI PUSH1 0x40 MLOAD PUSH3 0x461BCD PUSH1 0xE5 SHL DUP2 MSTORE PUSH1 0x4 ADD PUSH2 0x57F SWAP1 PUSH2 0x1817 JUMP JUMPDEST PUSH1 0x1 PUSH1 0x1 PUSH1 0xA0 SHL SUB DUP1 DUP6 AND PUSH1 0x0 DUP2 DUP2 MSTORE PUSH1 0x20 DUP2 SWAP1 MSTORE PUSH1 0x40 DUP1 DUP3 KECCAK256 DUP7 DUP7 SUB SWAP1 SSTORE SWAP3 DUP7 AND DUP1 DUP3 MSTORE SWAP1 DUP4 SWAP1 KECCAK256 DUP1 SLOAD DUP7 ADD SWAP1 SSTORE SWAP2 MLOAD PUSH32 0xDDF252AD1BE2C89B69C2B068FC378DAA952BA7F163C4A11628F55A4DF523B3EF SWAP1 PUSH2 0x8E9 SWAP1 DUP7 SWAP1 PUSH2 0x1028 JUMP JUMPDEST PUSH1 0x40 MLOAD DUP1 SWAP2 SUB SWAP1 LOG3 PUSH2 0x800 JUMP JUMPDEST PUSH1 0x0 ADDRESS PUSH1 0x1 PUSH1 0x1 PUSH1 0xA0 SHL SUB PUSH32 0x0 AND EQ DUP1 ISZERO PUSH2 0x94F JUMPI POP PUSH32 0x0 CHAINID EQ JUMPDEST ISZERO PUSH2 0x979 JUMPI POP PUSH32 0x0 SWAP1 JUMP JUMPDEST PUSH2 0x3F2 PUSH2 0xCBB JUMP JUMPDEST PUSH1 0x5 SLOAD PUSH1 0x1 PUSH1 0x1 PUSH1 0xA0 SHL SUB AND CALLER EQ PUSH2 0x46B JUMPI PUSH1 0x40 MLOAD PUSH3 0x461BCD PUSH1 0xE5 SHL DUP2 MSTORE PUSH1 0x4 ADD PUSH2 0x57F SWAP1 PUSH2 0x1859 JUMP JUMPDEST PUSH1 0x1 PUSH1 0x1 PUSH1 0xA0 SHL SUB DUP3 AND PUSH2 0x9D1 JUMPI PUSH1 0x40 MLOAD PUSH3 0x461BCD PUSH1 0xE5 SHL DUP2 MSTORE PUSH1 0x4 ADD PUSH2 0x57F SWAP1 PUSH2 0x189D JUMP JUMPDEST DUP1 PUSH1 0x2 PUSH1 0x0 DUP3 DUP3 SLOAD PUSH2 0x9E3 SWAP2 SWAP1 PUSH2 0x1337 JUMP JUMPDEST SWAP1 SWAP2 SSTORE POP POP PUSH1 0x1 PUSH1 0x1 PUSH1 0xA0 SHL SUB DUP3 AND PUSH1 0x0 DUP2 DUP2 MSTORE PUSH1 0x20 DUP2 SWAP1 MSTORE PUSH1 0x40 DUP1 DUP3 KECCAK256 DUP1 SLOAD DUP6 ADD SWAP1 SSTORE MLOAD PUSH32 0xDDF252AD1BE2C89B69C2B068FC378DAA952BA7F163C4A11628F55A4DF523B3EF SWAP1 PUSH2 0xA35 SWAP1 DUP6 SWAP1 PUSH2 0x1028 JUMP JUMPDEST PUSH1 0x40 MLOAD DUP1 SWAP2 SUB SWAP1 LOG3 POP POP JUMP JUMPDEST PUSH1 0x1 PUSH1 0x1 PUSH1 0xA0 SHL SUB DUP3 AND PUSH2 0xA67 JUMPI PUSH1 0x40 MLOAD PUSH3 0x461BCD PUSH1 0xE5 SHL DUP2 MSTORE PUSH1 0x4 ADD PUSH2 0x57F SWAP1 PUSH2 0x18EB JUMP JUMPDEST PUSH1 0x1 PUSH1 0x1 PUSH1 0xA0 SHL SUB DUP3 AND PUSH1 0x0 SWAP1 DUP2 MSTORE PUSH1 0x20 DUP2 SWAP1 MSTORE PUSH1 0x40 SWAP1 KECCAK256 SLOAD DUP2 DUP2 LT ISZERO PUSH2 0xAA0 JUMPI PUSH1 0x40 MLOAD PUSH3 0x461BCD PUSH1 0xE5 SHL DUP2 MSTORE PUSH1 0x4 ADD PUSH2 0x57F SWAP1 PUSH2 0x193A JUMP JUMPDEST PUSH1 0x1 PUSH1 0x1 PUSH1 0xA0 SHL SUB DUP4 AND PUSH1 0x0 DUP2 DUP2 MSTORE PUSH1 0x20 DUP2 SWAP1 MSTORE PUSH1 0x40 DUP1 DUP3 KECCAK256 DUP6 DUP6 SUB SWAP1 SSTORE PUSH1 0x2 DUP1 SLOAD DUP7 SWAP1 SUB SWAP1 SSTORE MLOAD SWAP1 SWAP2 SWAP1 PUSH32 0xDDF252AD1BE2C89B69C2B068FC378DAA952BA7F163C4A11628F55A4DF523B3EF SWAP1 PUSH2 0x797 SWAP1 DUP7 SWAP1 PUSH2 0x1028 JUMP JUMPDEST POP POP POP JUMP JUMPDEST PUSH1 0x5 DUP1 SLOAD PUSH1 0x1 PUSH1 0x1 PUSH1 0xA0 SHL SUB DUP4 DUP2 AND PUSH20 0xFFFFFFFFFFFFFFFFFFFFFFFFFFFFFFFFFFFFFFFF NOT DUP4 AND DUP2 OR SWAP1 SWAP4 SSTORE PUSH1 0x40 MLOAD SWAP2 AND SWAP2 SWAP1 DUP3 SWAP1 PUSH32 0x8BE0079C531659141344CD1FD0A4F28419497F9722A3DAAFE3B4186F6B6457E0 SWAP1 PUSH1 0x0 SWAP1 LOG3 POP POP JUMP JUMPDEST PUSH1 0x60 PUSH1 0xFF DUP4 EQ PUSH2 0xB6F JUMPI PUSH2 0x6D1 DUP4 PUSH2 0xD51 JUMP JUMPDEST DUP2 DUP1 SLOAD PUSH2 0xB7B SWAP1 PUSH2 0x12FB JUMP JUMPDEST DUP1 PUSH1 0x1F ADD PUSH1 0x20 DUP1 SWAP2 DIV MUL PUSH1 0x20 ADD PUSH1 0x40 MLOAD SWAP1 DUP2 ADD PUSH1 0x40 MSTORE DUP1 SWAP3 SWAP2 SWAP1 DUP2 DUP2 MSTORE PUSH1 0x20 ADD DUP3 DUP1 SLOAD PUSH2 0xBA7 SWAP1 PUSH2 0x12FB JUMP JUMPDEST DUP1 ISZERO PUSH2 0xBF4 JUMPI DUP1 PUSH1 0x1F LT PUSH2 0xBC9 JUMPI PUSH2 0x100 DUP1 DUP4 SLOAD DIV MUL DUP4 MSTORE SWAP2 PUSH1 0x20 ADD SWAP2 PUSH2 0xBF4 JUMP JUMPDEST DUP3 ADD SWAP2 SWAP1 PUSH1 0x0 MSTORE PUSH1 0x20 PUSH1 0x0 KECCAK256 SWAP1 JUMPDEST DUP2 SLOAD DUP2 MSTORE SWAP1 PUSH1 0x1 ADD SWAP1 PUSH1 0x20 ADD DUP1 DUP4 GT PUSH2 0xBD7 JUMPI DUP3 SWAP1 SUB PUSH1 0x1F AND DUP3 ADD SWAP2 JUMPDEST POP POP POP POP POP SWAP1 POP PUSH2 0x3BE JUMP JUMPDEST PUSH1 0x1 PUSH1 0x1 PUSH1 0xA0 SHL SUB DUP2 AND PUSH1 0x0 SWAP1 DUP2 MSTORE PUSH1 0x8 PUSH1 0x20 MSTORE PUSH1 0x40 SWAP1 KECCAK256 DUP1 SLOAD PUSH1 0x1 DUP2 ADD DUP3 SSTORE SWAP1 JUMPDEST POP SWAP2 SWAP1 POP JUMP JUMPDEST PUSH1 0x0 PUSH2 0x3BE PUSH2 0xC35 PUSH2 0x8F6 JUMP JUMPDEST DUP4 PUSH1 0x40 MLOAD PUSH2 0x1901 PUSH1 0xF0 SHL DUP2 MSTORE PUSH1 0x2 DUP2 ADD SWAP3 SWAP1 SWAP3 MSTORE PUSH1 0x22 DUP3 ADD MSTORE PUSH1 0x42 SWAP1 KECCAK256 SWAP1 JUMP JUMPDEST PUSH1 0x0 DUP1 PUSH1 0x0 PUSH2 0xC66 DUP8 DUP8 DUP8 DUP8 PUSH2 0xD90 JUMP JUMPDEST SWAP2 POP SWAP2 POP PUSH2 0xC73 DUP2 PUSH2 0xE47 JUMP JUMPDEST POP SWAP6 SWAP5 POP POP POP POP POP JUMP JUMPDEST PUSH1 0x0 DUP1 DUP3 SWAP1 POP PUSH1 0x1F DUP2 MLOAD GT ISZERO PUSH2 0xCA8 JUMPI DUP3 PUSH1 0x40 MLOAD PUSH4 0x305A27A9 PUSH1 0xE0 SHL DUP2 MSTORE PUSH1 0x4 ADD PUSH2 0x57F SWAP2 SWAP1 PUSH2 0xF74 JUMP JUMPDEST DUP1 MLOAD PUSH2 0xCB3 DUP3 PUSH2 0x1954 JUMP JUMPDEST OR SWAP4 SWAP3 POP POP POP JUMP JUMPDEST PUSH1 0x0 PUSH32 0x8B73C3C69BB8FE3D512ECC4CF759CC79239F7B179B0FFACAA9A75D522B39400F PUSH32 0x0 PUSH32 0x0 CHAINID ADDRESS PUSH1 0x40 MLOAD PUSH1 0x20 ADD PUSH2 0xD36 SWAP6 SWAP5 SWAP4 SWAP3 SWAP2 SWAP1 PUSH2 0x1993 JUMP JUMPDEST PUSH1 0x40 MLOAD PUSH1 0x20 DUP2 DUP4 SUB SUB DUP2 MSTORE SWAP1 PUSH1 0x40 MSTORE DUP1 MLOAD SWAP1 PUSH1 0x20 ADD KECCAK256 SWAP1 POP SWAP1 JUMP JUMPDEST PUSH1 0x60 PUSH1 0x0 PUSH2 0xD5E DUP4 PUSH2 0xEF6 JUMP JUMPDEST PUSH1 0x40 DUP1 MLOAD PUSH1 0x20 DUP1 DUP3 MSTORE DUP2 DUP4 ADD SWAP1 SWAP3 MSTORE SWAP2 SWAP3 POP PUSH1 0x0 SWAP2 SWAP1 PUSH1 0x20 DUP3 ADD DUP2 DUP1 CALLDATASIZE DUP4 CALLDATACOPY POP POP POP SWAP2 DUP3 MSTORE POP PUSH1 0x20 DUP2 ADD SWAP3 SWAP1 SWAP3 MSTORE POP SWAP1 JUMP JUMPDEST PUSH1 0x0 DUP1 PUSH32 0x7FFFFFFFFFFFFFFFFFFFFFFFFFFFFFFF5D576E7357A4501DDFE92F46681B20A0 DUP4 GT ISZERO PUSH2 0xDC7 JUMPI POP PUSH1 0x0 SWAP1 POP PUSH1 0x3 PUSH2 0xE3E JUMP JUMPDEST PUSH1 0x0 PUSH1 0x1 DUP8 DUP8 DUP8 DUP8 PUSH1 0x40 MLOAD PUSH1 0x0 DUP2 MSTORE PUSH1 0x20 ADD PUSH1 0x40 MSTORE PUSH1 0x40 MLOAD PUSH2 0xDEC SWAP5 SWAP4 SWAP3 SWAP2 SWAP1 PUSH2 0x19DF JUMP JUMPDEST PUSH1 0x20 PUSH1 0x40 MLOAD PUSH1 0x20 DUP2 SUB SWAP1 DUP1 DUP5 SUB SWAP1 DUP6 GAS STATICCALL ISZERO DUP1 ISZERO PUSH2 0xE0E JUMPI RETURNDATASIZE PUSH1 0x0 DUP1 RETURNDATACOPY RETURNDATASIZE PUSH1 0x0 REVERT JUMPDEST POP POP PUSH1 0x40 MLOAD PUSH1 0x1F NOT ADD MLOAD SWAP2 POP POP PUSH1 0x1 PUSH1 0x1 PUSH1 0xA0 SHL SUB DUP2 AND PUSH2 0xE37 JUMPI PUSH1 0x0 PUSH1 0x1 SWAP3 POP SWAP3 POP POP PUSH2 0xE3E JUMP JUMPDEST SWAP2 POP PUSH1 0x0 SWAP1 POP JUMPDEST SWAP5 POP SWAP5 SWAP3 POP POP POP JUMP JUMPDEST PUSH1 0x0 DUP2 PUSH1 0x4 DUP2 GT ISZERO PUSH2 0xE5B JUMPI PUSH2 0xE5B PUSH2 0x1A1D JUMP JUMPDEST SUB PUSH2 0xE63 JUMPI POP JUMP JUMPDEST PUSH1 0x1 DUP2 PUSH1 0x4 DUP2 GT ISZERO PUSH2 0xE77 JUMPI PUSH2 0xE77 PUSH2 0x1A1D JUMP JUMPDEST SUB PUSH2 0xE94 JUMPI PUSH1 0x40 MLOAD PUSH3 0x461BCD PUSH1 0xE5 SHL DUP2 MSTORE PUSH1 0x4 ADD PUSH2 0x57F SWAP1 PUSH2 0x1A67 JUMP JUMPDEST PUSH1 0x2 DUP2 PUSH1 0x4 DUP2 GT ISZERO PUSH2 0xEA8 JUMPI PUSH2 0xEA8 PUSH2 0x1A1D JUMP JUMPDEST SUB PUSH2 0xEC5 JUMPI PUSH1 0x40 MLOAD PUSH3 0x461BCD PUSH1 0xE5 SHL DUP2 MSTORE PUSH1 0x4 ADD PUSH2 0x57F SWAP1 PUSH2 0x1AAB JUMP JUMPDEST PUSH1 0x3 DUP2 PUSH1 0x4 DUP2 GT ISZERO PUSH2 0xED9 JUMPI PUSH2 0xED9 PUSH2 0x1A1D JUMP JUMPDEST SUB PUSH2 0x456 JUMPI PUSH1 0x40 MLOAD PUSH3 0x461BCD PUSH1 0xE5 SHL DUP2 MSTORE PUSH1 0x4 ADD PUSH2 0x57F SWAP1 PUSH2 0x1AFA JUMP JUMPDEST PUSH1 0x0 PUSH1 0xFF DUP3 AND PUSH1 0x1F DUP2 GT ISZERO PUSH2 0x3BE JUMPI PUSH1 0x40 MLOAD PUSH4 0x2CD44AC3 PUSH1 0xE2 SHL DUP2 MSTORE PUSH1 0x4 ADD PUSH1 0x40 MLOAD DUP1 SWAP2 SUB SWAP1 REVERT JUMPDEST PUSH1 0x0 JUMPDEST DUP4 DUP2 LT ISZERO PUSH2 0xF39 JUMPI DUP2 DUP2 ADD MLOAD DUP4 DUP3 ADD MSTORE PUSH1 0x20 ADD PUSH2 0xF21 JUMP JUMPDEST POP POP PUSH1 0x0 SWAP2 ADD MSTORE JUMP JUMPDEST PUSH1 0x0 PUSH2 0xF4C DUP3 MLOAD SWAP1 JUMP JUMPDEST DUP1 DUP5 MSTORE PUSH1 0x20 DUP5 ADD SWAP4 POP PUSH2 0xF63 DUP2 DUP6 PUSH1 0x20 DUP7 ADD PUSH2 0xF1E JUMP JUMPDEST PUSH1 0x1F ADD PUSH1 0x1F NOT AND SWAP3 SWAP1 SWAP3 ADD SWAP3 SWAP2 POP POP JUMP JUMPDEST PUSH1 0x20 DUP1 DUP3 MSTORE DUP2 ADD PUSH2 0xF85 DUP2 DUP5 PUSH2 0xF42 JUMP JUMPDEST SWAP4 SWAP3 POP POP POP JUMP JUMPDEST PUSH1 0x0 PUSH1 0x1 PUSH1 0x1 PUSH1 0xA0 SHL SUB DUP3 AND PUSH2 0x3BE JUMP JUMPDEST PUSH2 0xFA6 DUP2 PUSH2 0xF8C JUMP JUMPDEST DUP2 EQ PUSH2 0x456 JUMPI PUSH1 0x0 DUP1 REVERT JUMPDEST DUP1 CALLDATALOAD PUSH2 0x3BE DUP2 PUSH2 0xF9D JUMP JUMPDEST DUP1 PUSH2 0xFA6 JUMP JUMPDEST DUP1 CALLDATALOAD PUSH2 0x3BE DUP2 PUSH2 0xFBC JUMP JUMPDEST PUSH1 0x0 DUP1 PUSH1 0x40 DUP4 DUP6 SUB SLT ISZERO PUSH2 0xFE3 JUMPI PUSH2 0xFE3 PUSH1 0x0 DUP1 REVERT JUMPDEST PUSH1 0x0 PUSH2 0xFEF DUP6 DUP6 PUSH2 0xFB1 JUMP JUMPDEST SWAP3 POP POP PUSH1 0x20 PUSH2 0x1000 DUP6 DUP3 DUP7 ADD PUSH2 0xFC2 JUMP JUMPDEST SWAP2 POP POP SWAP3 POP SWAP3 SWAP1 POP JUMP JUMPDEST DUP1 ISZERO ISZERO JUMPDEST DUP3 MSTORE POP POP JUMP JUMPDEST PUSH1 0x20 DUP2 ADD PUSH2 0x3BE DUP3 DUP5 PUSH2 0x100A JUMP JUMPDEST DUP1 PUSH2 0x100E JUMP JUMPDEST PUSH1 0x20 DUP2 ADD PUSH2 0x3BE DUP3 DUP5 PUSH2 0x1022 JUMP JUMPDEST PUSH1 0x0 DUP1 PUSH1 0x0 PUSH1 0x60 DUP5 DUP7 SUB SLT ISZERO PUSH2 0x104E JUMPI PUSH2 0x104E PUSH1 0x0 DUP1 REVERT JUMPDEST PUSH1 0x0 PUSH2 0x105A DUP7 DUP7 PUSH2 0xFB1 JUMP JUMPDEST SWAP4 POP POP PUSH1 0x20 PUSH2 0x106B DUP7 DUP3 DUP8 ADD PUSH2 0xFB1 JUMP JUMPDEST SWAP3 POP POP PUSH1 0x40 PUSH2 0x107C DUP7 DUP3 DUP8 ADD PUSH2 0xFC2 JUMP JUMPDEST SWAP2 POP POP SWAP3 POP SWAP3 POP SWAP3 JUMP JUMPDEST PUSH1 0xFF DUP2 AND PUSH2 0x100E JUMP JUMPDEST PUSH1 0x20 DUP2 ADD PUSH2 0x3BE DUP3 DUP5 PUSH2 0x1086 JUMP JUMPDEST PUSH1 0x0 PUSH1 0x20 DUP3 DUP5 SUB SLT ISZERO PUSH2 0x10B2 JUMPI PUSH2 0x10B2 PUSH1 0x0 DUP1 REVERT JUMPDEST PUSH1 0x0 PUSH2 0x10BE DUP5 DUP5 PUSH2 0xFC2 JUMP JUMPDEST SWAP5 SWAP4 POP POP POP POP JUMP JUMPDEST PUSH1 0x0 PUSH1 0x20 DUP3 DUP5 SUB SLT ISZERO PUSH2 0x10DB JUMPI PUSH2 0x10DB PUSH1 0x0 DUP1 REVERT JUMPDEST PUSH1 0x0 PUSH2 0x10BE DUP5 DUP5 PUSH2 0xFB1 JUMP JUMPDEST PUSH32 0xFF00000000000000000000000000000000000000000000000000000000000000 DUP2 AND PUSH2 0x100E JUMP JUMPDEST PUSH2 0x100E DUP2 PUSH2 0xF8C JUMP JUMPDEST PUSH1 0x0 PUSH2 0x1124 DUP4 DUP4 PUSH2 0x1022 JUMP JUMPDEST POP POP PUSH1 0x20 ADD SWAP1 JUMP JUMPDEST PUSH1 0x0 PUSH2 0x1136 DUP3 MLOAD SWAP1 JUMP JUMPDEST DUP1 DUP5 MSTORE PUSH1 0x20 SWAP4 DUP5 ADD SWAP4 DUP4 ADD DUP1 PUSH1 0x0 JUMPDEST DUP4 DUP2 LT ISZERO PUSH2 0x116A JUMPI DUP2 MLOAD PUSH2 0x1159 DUP9 DUP3 PUSH2 0x1118 JUMP JUMPDEST SWAP8 POP PUSH1 0x20 DUP4 ADD SWAP3 POP POP PUSH1 0x1 ADD PUSH2 0x1145 JUMP JUMPDEST POP SWAP5 SWAP6 SWAP5 POP POP POP POP POP JUMP JUMPDEST PUSH1 0xE0 DUP2 ADD PUSH2 0x1183 DUP3 DUP11 PUSH2 0x10E7 JUMP JUMPDEST DUP2 DUP2 SUB PUSH1 0x20 DUP4 ADD MSTORE PUSH2 0x1195 DUP2 DUP10 PUSH2 0xF42 JUMP JUMPDEST SWAP1 POP DUP2 DUP2 SUB PUSH1 0x40 DUP4 ADD MSTORE PUSH2 0x11A9 DUP2 DUP9 PUSH2 0xF42 JUMP JUMPDEST SWAP1 POP PUSH2 0x11B8 PUSH1 0x60 DUP4 ADD DUP8 PUSH2 0x1022 JUMP JUMPDEST PUSH2 0x11C5 PUSH1 0x80 DUP4 ADD DUP7 PUSH2 0x110F JUMP JUMPDEST PUSH2 0x11D2 PUSH1 0xA0 DUP4 ADD DUP6 PUSH2 0x1022 JUMP JUMPDEST DUP2 DUP2 SUB PUSH1 0xC0 DUP4 ADD MSTORE PUSH2 0x11E4 DUP2 DUP5 PUSH2 0x112C JUMP JUMPDEST SWAP10 SWAP9 POP POP POP POP POP POP POP POP POP JUMP JUMPDEST PUSH1 0x20 DUP2 ADD PUSH2 0x3BE DUP3 DUP5 PUSH2 0x110F JUMP JUMPDEST PUSH1 0xFF DUP2 AND PUSH2 0xFA6 JUMP JUMPDEST DUP1 CALLDATALOAD PUSH2 0x3BE DUP2 PUSH2 0x11FF JUMP JUMPDEST PUSH1 0x0 DUP1 PUSH1 0x0 DUP1 PUSH1 0x0 DUP1 PUSH1 0x0 PUSH1 0xE0 DUP9 DUP11 SUB SLT ISZERO PUSH2 0x1231 JUMPI PUSH2 0x1231 PUSH1 0x0 DUP1 REVERT JUMPDEST PUSH1 0x0 PUSH2 0x123D DUP11 DUP11 PUSH2 0xFB1 JUMP JUMPDEST SWAP8 POP POP PUSH1 0x20 PUSH2 0x124E DUP11 DUP3 DUP12 ADD PUSH2 0xFB1 JUMP JUMPDEST SWAP7 POP POP PUSH1 0x40 PUSH2 0x125F DUP11 DUP3 DUP12 ADD PUSH2 0xFC2 JUMP JUMPDEST SWAP6 POP POP PUSH1 0x60 PUSH2 0x1270 DUP11 DUP3 DUP12 ADD PUSH2 0xFC2 JUMP JUMPDEST SWAP5 POP POP PUSH1 0x80 PUSH2 0x1281 DUP11 DUP3 DUP12 ADD PUSH2 0x1208 JUMP JUMPDEST SWAP4 POP POP PUSH1 0xA0 PUSH2 0x1292 DUP11 DUP3 DUP12 ADD PUSH2 0xFC2 JUMP JUMPDEST SWAP3 POP POP PUSH1 0xC0 PUSH2 0x12A3 DUP11 DUP3 DUP12 ADD PUSH2 0xFC2 JUMP JUMPDEST SWAP2 POP POP SWAP3 SWAP6 SWAP9 SWAP2 SWAP5 SWAP8 POP SWAP3 SWAP6 POP JUMP JUMPDEST PUSH1 0x0 DUP1 PUSH1 0x40 DUP4 DUP6 SUB SLT ISZERO PUSH2 0x12C8 JUMPI PUSH2 0x12C8 PUSH1 0x0 DUP1 REVERT JUMPDEST PUSH1 0x0 PUSH2 0x12D4 DUP6 DUP6 PUSH2 0xFB1 JUMP JUMPDEST SWAP3 POP POP PUSH1 0x20 PUSH2 0x1000 DUP6 DUP3 DUP7 ADD PUSH2 0xFB1 JUMP JUMPDEST PUSH4 0x4E487B71 PUSH1 0xE0 SHL PUSH1 0x0 MSTORE PUSH1 0x22 PUSH1 0x4 MSTORE PUSH1 0x24 PUSH1 0x0 REVERT JUMPDEST PUSH1 0x2 DUP2 DIV PUSH1 0x1 DUP3 AND DUP1 PUSH2 0x130F JUMPI PUSH1 0x7F DUP3 AND SWAP2 POP JUMPDEST PUSH1 0x20 DUP3 LT DUP2 SUB PUSH2 0xC22 JUMPI PUSH2 0xC22 PUSH2 0x12E5 JUMP JUMPDEST PUSH4 0x4E487B71 PUSH1 0xE0 SHL PUSH1 0x0 MSTORE PUSH1 0x11 PUSH1 0x4 MSTORE PUSH1 0x24 PUSH1 0x0 REVERT JUMPDEST DUP1 DUP3 ADD DUP1 DUP3 GT ISZERO PUSH2 0x3BE JUMPI PUSH2 0x3BE PUSH2 0x1321 JUMP JUMPDEST PUSH4 0x4E487B71 PUSH1 0xE0 SHL PUSH1 0x0 MSTORE PUSH1 0x41 PUSH1 0x4 MSTORE PUSH1 0x24 PUSH1 0x0 REVERT JUMPDEST PUSH1 0x25 DUP2 MSTORE PUSH1 0x0 PUSH1 0x20 DUP3 ADD PUSH32 0x45524332303A2064656372656173656420616C6C6F77616E63652062656C6F77 DUP2 MSTORE PUSH5 0x207A65726F PUSH1 0xD8 SHL PUSH1 0x20 DUP3 ADD MSTORE SWAP2 POP JUMPDEST POP PUSH1 0x40 ADD SWAP1 JUMP JUMPDEST PUSH1 0x20 DUP1 DUP3 MSTORE DUP2 ADD PUSH2 0x3BE DUP2 PUSH2 0x1360 JUMP JUMPDEST PUSH1 0x1D DUP2 MSTORE PUSH1 0x0 PUSH1 0x20 DUP3 ADD PUSH32 0x45524332305065726D69743A206578706972656420646561646C696E65000000 DUP2 MSTORE SWAP2 POP JUMPDEST POP PUSH1 0x20 ADD SWAP1 JUMP JUMPDEST PUSH1 0x20 DUP1 DUP3 MSTORE DUP2 ADD PUSH2 0x3BE DUP2 PUSH2 0x13B5 JUMP JUMPDEST PUSH1 0xC0 DUP2 ADD PUSH2 0x140A DUP3 DUP10 PUSH2 0x1022 JUMP JUMPDEST PUSH2 0x1417 PUSH1 0x20 DUP4 ADD DUP9 PUSH2 0x110F JUMP JUMPDEST PUSH2 0x1424 PUSH1 0x40 DUP4 ADD DUP8 PUSH2 0x110F JUMP JUMPDEST PUSH2 0x1431 PUSH1 0x60 DUP4 ADD DUP7 PUSH2 0x1022 JUMP JUMPDEST PUSH2 0x143E PUSH1 0x80 DUP4 ADD DUP6 PUSH2 0x1022 JUMP JUMPDEST PUSH2 0x144B PUSH1 0xA0 DUP4 ADD DUP5 PUSH2 0x1022 JUMP JUMPDEST SWAP8 SWAP7 POP POP POP POP POP POP POP JUMP JUMPDEST PUSH1 0x1E DUP2 MSTORE PUSH1 0x0 PUSH1 0x20 DUP3 ADD PUSH32 0x45524332305065726D69743A20696E76616C6964207369676E61747572650000 DUP2 MSTORE SWAP2 POP PUSH2 0x13E5 JUMP JUMPDEST PUSH1 0x20 DUP1 DUP3 MSTORE DUP2 ADD PUSH2 0x3BE DUP2 PUSH2 0x1456 JUMP JUMPDEST PUSH1 0x26 DUP2 MSTORE PUSH1 0x0 PUSH1 0x20 DUP3 ADD PUSH32 0x4F776E61626C653A206E6577206F776E657220697320746865207A65726F2061 DUP2 MSTORE PUSH6 0x646472657373 PUSH1 0xD0 SHL PUSH1 0x20 DUP3 ADD MSTORE SWAP2 POP PUSH2 0x139E JUMP JUMPDEST PUSH1 0x20 DUP1 DUP3 MSTORE DUP2 ADD PUSH2 0x3BE DUP2 PUSH2 0x149A JUMP JUMPDEST PUSH1 0x0 PUSH2 0x3BE PUSH2 0x6ED DUP4 DUP2 JUMP JUMPDEST PUSH2 0x1502 DUP4 PUSH2 0x14ED JUMP JUMPDEST DUP2 SLOAD PUSH1 0x8 DUP5 MUL DUP3 DUP2 SHL PUSH1 0x0 NOT SWAP1 SWAP2 SHL SWAP1 DUP2 AND SWAP1 NOT SWAP1 SWAP2 AND OR DUP3 SSTORE POP POP POP POP JUMP JUMPDEST PUSH1 0x0 PUSH2 0xAF8 DUP2 DUP5 DUP5 PUSH2 0x14F9 JUMP JUMPDEST DUP2 DUP2 LT ISZERO PUSH2 0x448 JUMPI PUSH2 0x1542 PUSH1 0x0 DUP3 PUSH2 0x1522 JUMP JUMPDEST PUSH1 0x1 ADD PUSH2 0x152F JUMP JUMPDEST PUSH1 0x1F DUP3 GT ISZERO PUSH2 0xAF8 JUMPI PUSH1 0x0 DUP2 DUP2 MSTORE PUSH1 0x20 SWAP1 KECCAK256 PUSH1 0x20 PUSH1 0x1F DUP6 ADD DIV DUP2 ADD PUSH1 0x20 DUP6 LT ISZERO PUSH2 0x1571 JUMPI POP DUP1 JUMPDEST PUSH2 0x1583 PUSH1 0x20 PUSH1 0x1F DUP7 ADD DIV DUP4 ADD DUP3 PUSH2 0x152F JUMP JUMPDEST POP POP POP POP POP JUMP JUMPDEST DUP2 MLOAD PUSH8 0xFFFFFFFFFFFFFFFF DUP2 GT ISZERO PUSH2 0x15A4 JUMPI PUSH2 0x15A4 PUSH2 0x134A JUMP JUMPDEST PUSH2 0x15AE DUP3 SLOAD PUSH2 0x12FB JUMP JUMPDEST PUSH2 0x15B9 DUP3 DUP3 DUP6 PUSH2 0x154A JUMP JUMPDEST PUSH1 0x20 PUSH1 0x1F DUP4 GT PUSH1 0x1 DUP2 EQ PUSH2 0x15ED JUMPI PUSH1 0x0 DUP5 ISZERO PUSH2 0x15D5 JUMPI POP DUP6 DUP3 ADD MLOAD JUMPDEST PUSH1 0x0 NOT PUSH1 0x8 DUP7 MUL SHR NOT DUP2 AND PUSH1 0x2 DUP7 MUL OR DUP7 SSTORE POP PUSH2 0x1646 JUMP JUMPDEST PUSH1 0x0 DUP6 DUP2 MSTORE PUSH1 0x20 DUP2 KECCAK256 PUSH1 0x1F NOT DUP7 AND SWAP2 JUMPDEST DUP3 DUP2 LT ISZERO PUSH2 0x161D JUMPI DUP9 DUP6 ADD MLOAD DUP3 SSTORE PUSH1 0x20 SWAP5 DUP6 ADD SWAP5 PUSH1 0x1 SWAP1 SWAP3 ADD SWAP2 ADD PUSH2 0x15FD JUMP JUMPDEST DUP7 DUP4 LT ISZERO PUSH2 0x1639 JUMPI DUP5 DUP10 ADD MLOAD PUSH1 0x0 NOT PUSH1 0x1F DUP10 AND PUSH1 0x8 MUL SHR NOT AND DUP3 SSTORE JUMPDEST PUSH1 0x1 PUSH1 0x2 DUP9 MUL ADD DUP9 SSTORE POP POP POP JUMPDEST POP POP POP POP POP POP JUMP JUMPDEST PUSH1 0x24 DUP2 MSTORE PUSH1 0x0 PUSH1 0x20 DUP3 ADD PUSH32 0x45524332303A20617070726F76652066726F6D20746865207A65726F20616464 DUP2 MSTORE PUSH4 0x72657373 PUSH1 0xE0 SHL PUSH1 0x20 DUP3 ADD MSTORE SWAP2 POP PUSH2 0x139E JUMP JUMPDEST PUSH1 0x20 DUP1 DUP3 MSTORE DUP2 ADD PUSH2 0x3BE DUP2 PUSH2 0x164E JUMP JUMPDEST PUSH1 0x22 DUP2 MSTORE PUSH1 0x0 PUSH1 0x20 DUP3 ADD PUSH32 0x45524332303A20617070726F766520746F20746865207A65726F206164647265 DUP2 MSTORE PUSH2 0x7373 PUSH1 0xF0 SHL PUSH1 0x20 DUP3 ADD MSTORE SWAP2 POP PUSH2 0x139E JUMP JUMPDEST PUSH1 0x20 DUP1 DUP3 MSTORE DUP2 ADD PUSH2 0x3BE DUP2 PUSH2 0x169F JUMP JUMPDEST PUSH1 0x1D DUP2 MSTORE PUSH1 0x0 PUSH1 0x20 DUP3 ADD PUSH32 0x45524332303A20696E73756666696369656E7420616C6C6F77616E6365000000 DUP2 MSTORE SWAP2 POP PUSH2 0x13E5 JUMP JUMPDEST PUSH1 0x20 DUP1 DUP3 MSTORE DUP2 ADD PUSH2 0x3BE DUP2 PUSH2 0x16EE JUMP JUMPDEST PUSH1 0x25 DUP2 MSTORE PUSH1 0x0 PUSH1 0x20 DUP3 ADD PUSH32 0x45524332303A207472616E736665722066726F6D20746865207A65726F206164 DUP2 MSTORE PUSH5 0x6472657373 PUSH1 0xD8 SHL PUSH1 0x20 DUP3 ADD MSTORE SWAP2 POP PUSH2 0x139E JUMP JUMPDEST PUSH1 0x20 DUP1 DUP3 MSTORE DUP2 ADD PUSH2 0x3BE DUP2 PUSH2 0x1732 JUMP JUMPDEST PUSH1 0x23 DUP2 MSTORE PUSH1 0x0 PUSH1 0x20 DUP3 ADD PUSH32 0x45524332303A207472616E7366657220746F20746865207A65726F2061646472 DUP2 MSTORE PUSH3 0x657373 PUSH1 0xE8 SHL PUSH1 0x20 DUP3 ADD MSTORE SWAP2 POP PUSH2 0x139E JUMP JUMPDEST PUSH1 0x20 DUP1 DUP3 MSTORE DUP2 ADD PUSH2 0x3BE DUP2 PUSH2 0x1784 JUMP JUMPDEST PUSH1 0x26 DUP2 MSTORE PUSH1 0x0 PUSH1 0x20 DUP3 ADD PUSH32 0x45524332303A207472616E7366657220616D6F756E7420657863656564732062 DUP2 MSTORE PUSH6 0x616C616E6365 PUSH1 0xD0 SHL PUSH1 0x20 DUP3 ADD MSTORE SWAP2 POP PUSH2 0x139E JUMP JUMPDEST PUSH1 0x20 DUP1 DUP3 MSTORE DUP2 ADD PUSH2 0x3BE DUP2 PUSH2 0x17D4 JUMP JUMPDEST PUSH1 0x20 DUP1 DUP3 MSTORE PUSH32 0x4F776E61626C653A2063616C6C6572206973206E6F7420746865206F776E6572 SWAP2 ADD SWAP1 DUP2 MSTORE PUSH1 0x0 PUSH2 0x13E5 JUMP JUMPDEST PUSH1 0x20 DUP1 DUP3 MSTORE DUP2 ADD PUSH2 0x3BE DUP2 PUSH2 0x1827 JUMP JUMPDEST PUSH1 0x1F DUP2 MSTORE PUSH1 0x0 PUSH1 0x20 DUP3 ADD PUSH32 0x45524332303A206D696E7420746F20746865207A65726F206164647265737300 DUP2 MSTORE SWAP2 POP PUSH2 0x13E5 JUMP JUMPDEST PUSH1 0x20 DUP1 DUP3 MSTORE DUP2 ADD PUSH2 0x3BE DUP2 PUSH2 0x1869 JUMP JUMPDEST PUSH1 0x21 DUP2 MSTORE PUSH1 0x0 PUSH1 0x20 DUP3 ADD PUSH32 0x45524332303A206275726E2066726F6D20746865207A65726F20616464726573 DUP2 MSTORE PUSH1 0x73 PUSH1 0xF8 SHL PUSH1 0x20 DUP3 ADD MSTORE SWAP2 POP PUSH2 0x139E JUMP JUMPDEST PUSH1 0x20 DUP1 DUP3 MSTORE DUP2 ADD PUSH2 0x3BE DUP2 PUSH2 0x18AD JUMP JUMPDEST PUSH1 0x22 DUP2 MSTORE PUSH1 0x0 PUSH1 0x20 DUP3 ADD PUSH32 0x45524332303A206275726E20616D6F756E7420657863656564732062616C616E DUP2 MSTORE PUSH2 0x6365 PUSH1 0xF0 SHL PUSH1 0x20 DUP3 ADD MSTORE SWAP2 POP PUSH2 0x139E JUMP JUMPDEST PUSH1 0x20 DUP1 DUP3 MSTORE DUP2 ADD PUSH2 0x3BE DUP2 PUSH2 0x18FB JUMP JUMPDEST PUSH1 0x0 PUSH2 0x3BE DUP3 MLOAD SWAP1 JUMP JUMPDEST PUSH1 0x0 PUSH2 0x195E DUP3 MLOAD SWAP1 JUMP JUMPDEST PUSH1 0x20 DUP4 ADD PUSH2 0x196B DUP2 PUSH2 0x194A JUMP JUMPDEST SWAP3 POP PUSH1 0x20 DUP3 LT ISZERO PUSH2 0x198C JUMPI PUSH2 0x1987 PUSH1 0x0 NOT DUP4 PUSH1 0x20 SUB PUSH1 0x8 MUL SHL SWAP1 JUMP JUMPDEST DUP4 AND SWAP3 POP JUMPDEST POP POP SWAP2 SWAP1 POP JUMP JUMPDEST PUSH1 0xA0 DUP2 ADD PUSH2 0x19A1 DUP3 DUP9 PUSH2 0x1022 JUMP JUMPDEST PUSH2 0x19AE PUSH1 0x20 DUP4 ADD DUP8 PUSH2 0x1022 JUMP JUMPDEST PUSH2 0x19BB PUSH1 0x40 DUP4 ADD DUP7 PUSH2 0x1022 JUMP JUMPDEST PUSH2 0x19C8 PUSH1 0x60 DUP4 ADD DUP6 PUSH2 0x1022 JUMP JUMPDEST PUSH2 0x19D5 PUSH1 0x80 DUP4 ADD DUP5 PUSH2 0x110F JUMP JUMPDEST SWAP7 SWAP6 POP POP POP POP POP POP JUMP JUMPDEST PUSH1 0x80 DUP2 ADD PUSH2 0x19ED DUP3 DUP8 PUSH2 0x1022 JUMP JUMPDEST PUSH2 0x19FA PUSH1 0x20 DUP4 ADD DUP7 PUSH2 0x1086 JUMP JUMPDEST PUSH2 0x1A07 PUSH1 0x40 DUP4 ADD DUP6 PUSH2 0x1022 JUMP JUMPDEST PUSH2 0x1A14 PUSH1 0x60 DUP4 ADD DUP5 PUSH2 0x1022 JUMP JUMPDEST SWAP6 SWAP5 POP POP POP POP POP JUMP JUMPDEST PUSH4 0x4E487B71 PUSH1 0xE0 SHL PUSH1 0x0 MSTORE PUSH1 0x21 PUSH1 0x4 MSTORE PUSH1 0x24 PUSH1 0x0 REVERT JUMPDEST PUSH1 0x18 DUP2 MSTORE PUSH1 0x0 PUSH1 0x20 DUP3 ADD PUSH32 0x45434453413A20696E76616C6964207369676E61747572650000000000000000 DUP2 MSTORE SWAP2 POP PUSH2 0x13E5 JUMP JUMPDEST PUSH1 0x20 DUP1 DUP3 MSTORE DUP2 ADD PUSH2 0x3BE DUP2 PUSH2 0x1A33 JUMP JUMPDEST PUSH1 0x1F DUP2 MSTORE PUSH1 0x0 PUSH1 0x20 DUP3 ADD PUSH32 0x45434453413A20696E76616C6964207369676E6174757265206C656E67746800 DUP2 MSTORE SWAP2 POP PUSH2 0x13E5 JUMP JUMPDEST PUSH1 0x20 DUP1 DUP3 MSTORE DUP2 ADD PUSH2 0x3BE DUP2 PUSH2 0x1A77 JUMP JUMPDEST PUSH1 0x22 DUP2 MSTORE PUSH1 0x0 PUSH1 0x20 DUP3 ADD PUSH32 0x45434453413A20696E76616C6964207369676E6174757265202773272076616C DUP2 MSTORE PUSH2 0x7565 PUSH1 0xF0 SHL PUSH1 0x20 DUP3 ADD MSTORE SWAP2 POP PUSH2 0x139E JUMP JUMPDEST PUSH1 0x20 DUP1 DUP3 MSTORE DUP2 ADD PUSH2 0x3BE DUP2 PUSH2 0x1ABB JUMP INVALID LOG2 PUSH5 0x6970667358 0x22 SLT KECCAK256 RETURNDATASIZE INVALID 0xB5 DIFFICULTY 0xAE DUP6 0xD4 0xE1 LT 0x2D ORIGIN LOG3 MLOAD COINBASE 0xB8 0x29 0x4E PUSH5 0xB4A2F8001B PUSH4 0xED66DF09 0xAD 0xD2 SWAP5 0xD0 PUSH5 0x736F6C6343 STOP ADDMOD GT STOP CALLER LOG2 PUSH5 0x6970667358 0x22 SLT KECCAK256 0xC1 0x28 PUSH24 0x8B46ED9EAE0F0E07DC67C3DDF222714AB4FDB0FE0B010E4 0xE 0xBF 0x23 EQ PUSH24 0x64736F6C6343000811003300000000000000000000000000 "},"methodIdentifiers":{"DEFAULT_ADMIN_ROLE()":"a217fddf","RELAYER()":"2483e715","burnWrappedToken(string,uint256,address)":"9d5777f9","burnWrappedTokenWithPermit(string,uint256,address,uint256,uint8,bytes32,bytes32)":"d5afd6f6","factory()":"c45a0155","fee()":"ddca3f43","getRoleAdmin(bytes32)":"248a9ca3","grantRole(bytes32,address)":"2f2ff15d","hasRole(bytes32,address)":"91d14854","initiateTransfer(address,address,uint256,uint256)":"99472c33","initiateTransferWithPermit(address,address,uint256,uint256,uint256,uint8,bytes32,bytes32)":"b8539996","mintToken(string,string,address,address,uint256)":"e4f7e720","renounceRole(bytes32,address)":"36568abe","revokeRole(bytes32,address)":"d547741f","setFee(uint256)":"69fe0e2d","supportsInterface(bytes4)":"01ffc9a7","unWrapToken(address,address,uint256)":"c0499d9a","wrappedToNative(address)":"a5e83bcb"}}}}}