{"contracts/Bridge.sol":{"Bridge":{"abi":[{"inputs":[],"stateMutability":"nonpayable","type":"constructor"},{"inputs":[],"name":"Bridge__FundsCannotBeZero","type":"error"},{"inputs":[],"name":"Bridge__InsufficientBalance","type":"error"},{"inputs":[],"name":"Bridge__NotAllowedToDoThisAction","type":"error"},{"inputs":[],"name":"Bridge__TokenNameEmpty","type":"error"},{"inputs":[],"name":"Bridge__TokenSymbolEmpty","type":"error"},{"inputs":[],"name":"Bridge__WrapTokenDoesNotExist","type":"error"},{"inputs":[],"name":"Bridge__ZeroAddressProvided","type":"error"},{"anonymous":false,"inputs":[{"indexed":true,"internalType":"address","name":"user","type":"address"},{"indexed":false,"internalType":"address","name":"tokenAddress","type":"address"},{"indexed":false,"internalType":"uint256","name":"amount","type":"uint256"},{"indexed":true,"internalType":"uint256","name":"chainId","type":"uint256"},{"indexed":false,"internalType":"uint256","name":"timestamp","type":"uint256"}],"name":"BurnedToken","type":"event"},{"anonymous":false,"inputs":[{"indexed":false,"internalType":"uint256","name":"fee","type":"uint256"}],"name":"FeeUpdated","type":"event"},{"anonymous":false,"inputs":[{"indexed":true,"internalType":"bytes32","name":"role","type":"bytes32"},{"indexed":true,"internalType":"bytes32","name":"previousAdminRole","type":"bytes32"},{"indexed":true,"internalType":"bytes32","name":"newAdminRole","type":"bytes32"}],"name":"RoleAdminChanged","type":"event"},{"anonymous":false,"inputs":[{"indexed":true,"internalType":"bytes32","name":"role","type":"bytes32"},{"indexed":true,"internalType":"address","name":"account","type":"address"},{"indexed":true,"internalType":"address","name":"sender","type":"address"}],"name":"RoleGranted","type":"event"},{"anonymous":false,"inputs":[{"indexed":true,"internalType":"bytes32","name":"role","type":"bytes32"},{"indexed":true,"internalType":"address","name":"account","type":"address"},{"indexed":true,"internalType":"address","name":"sender","type":"address"}],"name":"RoleRevoked","type":"event"},{"anonymous":false,"inputs":[{"indexed":true,"internalType":"address","name":"user","type":"address"},{"indexed":false,"internalType":"address","name":"tokenAddress","type":"address"},{"indexed":false,"internalType":"uint256","name":"amount","type":"uint256"},{"indexed":true,"internalType":"uint256","name":"chainId","type":"uint256"},{"indexed":false,"internalType":"uint256","name":"timestamp","type":"uint256"},{"indexed":true,"internalType":"string","name":"tokenSymbol","type":"string"},{"indexed":false,"internalType":"string","name":"tokenName","type":"string"}],"name":"TokenMinted","type":"event"},{"anonymous":false,"inputs":[{"indexed":true,"internalType":"address","name":"user","type":"address"},{"indexed":true,"internalType":"address","name":"tokenAddress","type":"address"},{"indexed":false,"internalType":"uint256","name":"sourceChainId","type":"uint256"},{"indexed":false,"internalType":"uint256","name":"amount","type":"uint256"},{"indexed":false,"internalType":"uint256","name":"fee","type":"uint256"},{"indexed":false,"internalType":"uint256","name":"timestamp","type":"uint256"},{"indexed":true,"internalType":"uint256","name":"targetChainId","type":"uint256"}],"name":"TransferInitiated","type":"event"},{"anonymous":false,"inputs":[{"indexed":true,"internalType":"address","name":"user","type":"address"},{"indexed":false,"internalType":"address","name":"nativeTokenAddress","type":"address"},{"indexed":false,"internalType":"uint256","name":"amount","type":"uint256"},{"indexed":true,"internalType":"uint256","name":"chainId","type":"uint256"},{"indexed":false,"internalType":"uint256","name":"timestamp","type":"uint256"}],"name":"UnWrappedToken","type":"event"},{"inputs":[],"name":"DEFAULT_ADMIN_ROLE","outputs":[{"internalType":"bytes32","name":"","type":"bytes32"}],"stateMutability":"view","type":"function"},{"inputs":[],"name":"RELAYER","outputs":[{"internalType":"bytes32","name":"","type":"bytes32"}],"stateMutability":"view","type":"function"},{"inputs":[{"internalType":"string","name":"_symbol","type":"string"},{"internalType":"uint256","name":"_amount","type":"uint256"},{"internalType":"address","name":"_user","type":"address"}],"name":"burnWrappedToken","outputs":[],"stateMutability":"nonpayable","type":"function"},{"inputs":[{"internalType":"string","name":"_symbol","type":"string"},{"internalType":"uint256","name":"_amount","type":"uint256"},{"internalType":"address","name":"_user","type":"address"},{"internalType":"uint256","name":"_deadline","type":"uint256"},{"internalType":"uint8","name":"_v","type":"uint8"},{"internalType":"bytes32","name":"_r","type":"bytes32"},{"internalType":"bytes32","name":"_s","type":"bytes32"}],"name":"burnWrappedTokenWithPermit","outputs":[],"stateMutability":"nonpayable","type":"function"},{"inputs":[],"name":"factory","outputs":[{"internalType":"contract WERC20Factory","name":"","type":"address"}],"stateMutability":"view","type":"function"},{"inputs":[],"name":"fee","outputs":[{"internalType":"uint256","name":"","type":"uint256"}],"stateMutability":"view","type":"function"},{"inputs":[{"internalType":"bytes32","name":"role","type":"bytes32"}],"name":"getRoleAdmin","outputs":[{"internalType":"bytes32","name":"","type":"bytes32"}],"stateMutability":"view","type":"function"},{"inputs":[{"internalType":"bytes32","name":"role","type":"bytes32"},{"internalType":"address","name":"account","type":"address"}],"name":"grantRole","outputs":[],"stateMutability":"nonpayable","type":"function"},{"inputs":[{"internalType":"bytes32","name":"role","type":"bytes32"},{"internalType":"address","name":"account","type":"address"}],"name":"hasRole","outputs":[{"internalType":"bool","name":"","type":"bool"}],"stateMutability":"view","type":"function"},{"inputs":[{"internalType":"address","name":"_user","type":"address"},{"internalType":"address","name":"_tokenAddress","type":"address"},{"internalType":"uint256","name":"_targetChainId","type":"uint256"},{"internalType":"uint256","name":"_amount","type":"uint256"}],"name":"initiateTransfer","outputs":[],"stateMutability":"nonpayable","type":"function"},{"inputs":[{"internalType":"address","name":"_user","type":"address"},{"internalType":"address","name":"_tokenAddress","type":"address"},{"internalType":"uint256","name":"_targetChainId","type":"uint256"},{"internalType":"uint256","name":"_amount","type":"uint256"},{"internalType":"uint256","name":"_deadline","type":"uint256"},{"internalType":"uint8","name":"_v","type":"uint8"},{"internalType":"bytes32","name":"_r","type":"bytes32"},{"internalType":"bytes32","name":"_s","type":"bytes32"}],"name":"initiateTransferWithPermit","outputs":[],"stateMutability":"nonpayable","type":"function"},{"inputs":[{"internalType":"string","name":"_symbol","type":"string"},{"internalType":"string","name":"_tokenName","type":"string"},{"internalType":"address","name":"_to","type":"address"},{"internalType":"address","name":"_tokenAddress","type":"address"},{"internalType":"uint256","name":"_amount","type":"uint256"}],"name":"mintToken","outputs":[],"stateMutability":"nonpayable","type":"function"},{"inputs":[{"internalType":"bytes32","name":"role","type":"bytes32"},{"internalType":"address","name":"account","type":"address"}],"name":"renounceRole","outputs":[],"stateMutability":"nonpayable","type":"function"},{"inputs":[{"internalType":"bytes32","name":"role","type":"bytes32"},{"internalType":"address","name":"account","type":"address"}],"name":"revokeRole","outputs":[],"stateMutability":"nonpayable","type":"function"},{"inputs":[{"internalType":"uint256","name":"_fee","type":"uint256"}],"name":"setFee","outputs":[],"stateMutability":"nonpayable","type":"function"},{"inputs":[{"internalType":"bytes4","name":"interfaceId","type":"bytes4"}],"name":"supportsInterface","outputs":[{"internalType":"bool","name":"","type":"bool"}],"stateMutability":"view","type":"function"},{"inputs":[{"internalType":"address","name":"_to","type":"address"},{"internalType":"address","name":"_nativeTokenAddress","type":"address"},{"internalType":"uint256","name":"_amount","type":"uint256"}],"name":"unWrapToken","outputs":[],"stateMutability":"nonpayable","type":"function"},{"inputs":[{"internalType":"address","name":"","type":"address"}],"name":"wrappedToNative","outputs":[{"internalType":"address","name":"","type":"address"}],"stateMutability":"view","type":"function"}],"evm":{"bytecode":{"linkReferences":{},"object":"608060405266038d7ea4c680006002553480156200001c57600080fd5b5062000039672387edadca5bf70560c01b6200011460201b60201c565b62000055678057dde6b6155ce860c01b6200011460201b60201c565b62000071675a3b650828c5e3c460c01b6200011460201b60201c565b620000866000801b336200011760201b60201c565b620000a26772c92daf6d917eaf60c01b6200011460201b60201c565b604051620000b0906200027a565b604051809103906000f080158015620000cd573d6000803e3d6000fd5b50600160006101000a81548173ffffffffffffffffffffffffffffffffffffffff021916908373ffffffffffffffffffffffffffffffffffffffff16021790555062000288565b50565b6200012982826200020860201b60201c565b6200020457600160008084815260200190815260200160002060000160008373ffffffffffffffffffffffffffffffffffffffff1673ffffffffffffffffffffffffffffffffffffffff16815260200190815260200160002060006101000a81548160ff021916908315150217905550620001a96200027260201b60201c565b73ffffffffffffffffffffffffffffffffffffffff168173ffffffffffffffffffffffffffffffffffffffff16837f2f8788117e7eff1d82e926ec794901d17c78024a50270940304540a733656f0d60405160405180910390a45b5050565b600080600084815260200190815260200160002060000160008373ffffffffffffffffffffffffffffffffffffffff1673ffffffffffffffffffffffffffffffffffffffff16815260200190815260200160002060009054906101000a900460ff16905092915050565b600033905090565b61683280620044e183390190565b61424980620002986000396000f3fe608060405234801561001057600080fd5b50600436106101165760003560e01c8063a217fddf116100a2578063c45a015511610071578063c45a0155146102db578063d547741f146102f9578063d5afd6f614610315578063ddca3f4314610331578063e4f7e7201461034f57610116565b8063a217fddf14610255578063a5e83bcb14610273578063b8539996146102a3578063c0499d9a146102bf57610116565b806336568abe116100e957806336568abe146101b557806369fe0e2d146101d157806391d14854146101ed57806399472c331461021d5780639d5777f91461023957610116565b806301ffc9a71461011b5780632483e7151461014b578063248a9ca3146101695780632f2ff15d14610199575b600080fd5b61013560048036038101906101309190613323565b61036b565b604051610142919061336b565b60405180910390f35b6101536103e5565b604051610160919061339f565b60405180910390f35b610183600480360381019061017e91906133e6565b610409565b604051610190919061339f565b60405180910390f35b6101b360048036038101906101ae9190613471565b610428565b005b6101cf60048036038101906101ca9190613471565b610449565b005b6101eb60048036038101906101e691906134e7565b6104cc565b005b61020760048036038101906102029190613471565b610654565b604051610214919061336b565b60405180910390f35b61023760048036038101906102329190613514565b6106be565b005b610253600480360381019061024e91906136c1565b610b03565b005b61025d6111fc565b60405161026a919061339f565b60405180910390f35b61028d60048036038101906102889190613730565b611203565b60405161029a919061376c565b60405180910390f35b6102bd60048036038101906102b891906137c0565b611236565b005b6102d960048036038101906102d49190613876565b61171e565b005b6102e3611c59565b6040516102f09190613928565b60405180910390f35b610313600480360381019061030e9190613471565b611c7f565b005b61032f600480360381019061032a9190613943565b611ca0565b005b6103396123a5565b6040516103469190613a10565b60405180910390f35b61036960048036038101906103649190613a2b565b6123ab565b005b60007f7965db0b000000000000000000000000000000000000000000000000000000007bffffffffffffffffffffffffffffffffffffffffffffffffffffffff1916827bffffffffffffffffffffffffffffffffffffffffffffffffffffffff191614806103de57506103dd82612d7f565b5b9050919050565b7fab4f864e5201b0fde9b5ee3e4cf96384802b0ffdfcf7f9de4699ce21a30afc4f81565b6000806000838152602001908152602001600020600101549050919050565b61043182610409565b61043a81612de9565b6104448383612dfd565b505050565b610451612edd565b73ffffffffffffffffffffffffffffffffffffffff168173ffffffffffffffffffffffffffffffffffffffff16146104be576040517f08c379a00000000000000000000000000000000000000000000000000000000081526004016104b590613b61565b60405180910390fd5b6104c88282612ee5565b5050565b6104e0677aa54d8f9801479c60c01b612fc6565b6104f4675a7d6f03a6e1de5f60c01b612fc6565b6105086781776f79597c21f760c01b612fc6565b61051c678c1ba9c689c9a86e60c01b612fc6565b6105296000801b33610654565b6105875761054167f2f17fae1c2392bd60c01b612fc6565b61055567fc967848b61e854260c01b612fc6565b6040517f3e78b92100000000000000000000000000000000000000000000000000000000815260040160405180910390fd5b61059b670c3cf2d150dde65a60c01b612fc6565b6105af6760aabf99db99ab9b60c01b612fc6565b6105c36777fc70097457318460c01b612fc6565b6105d767fe507c27c50b70f760c01b612fc6565b6105eb67ca342b4f092e51f060c01b612fc6565b806002819055506106066742d2b5510edfaf2a60c01b612fc6565b61061a67f93c9f83db36e70360c01b612fc6565b7f8c4d35e54a3f2ef1134138fd8ea3daee6a3c89e10d2665996babdf70261e2c76816040516106499190613a10565b60405180910390a150565b600080600084815260200190815260200160002060000160008373ffffffffffffffffffffffffffffffffffffffff1673ffffffffffffffffffffffffffffffffffffffff16815260200190815260200160002060009054906101000a900460ff16905092915050565b6106d2673d8814f9584c68fb60c01b612fc6565b836106e767d5196811086cb8b260c01b612fc6565b6106fb67bb533c4b9930e45b60c01b612fc6565b61070f67d7d0e1953eeebf3760c01b612fc6565b600073ffffffffffffffffffffffffffffffffffffffff168173ffffffffffffffffffffffffffffffffffffffff160361078957610757676599d08f5becbd4b60c01b612fc6565b6040517f9e1ff14a00000000000000000000000000000000000000000000000000000000815260040160405180910390fd5b61079d6703e74da221f3558e60c01b612fc6565b6107b1673e77f514d818811460c01b612fc6565b6107c5679c43ebad1a642f7160c01b612fc6565b6107d967abbaba756e4adce060c01b612fc6565b836107ee67d5196811086cb8b260c01b612fc6565b61080267bb533c4b9930e45b60c01b612fc6565b61081667d7d0e1953eeebf3760c01b612fc6565b600073ffffffffffffffffffffffffffffffffffffffff168173ffffffffffffffffffffffffffffffffffffffff16036108905761085e676599d08f5becbd4b60c01b612fc6565b6040517f9e1ff14a00000000000000000000000000000000000000000000000000000000815260040160405180910390fd5b6108a46703e74da221f3558e60c01b612fc6565b6108b8673e77f514d818811460c01b612fc6565b6108cc674885dd2ee10c8ac460c01b612fc6565b6108e0676c343fffc3c0d30160c01b612fc6565b826108f567f4402b390defadaf60c01b612fc6565b610909677ab5172fbe4ec27e60c01b612fc6565b61091d67947ebed4bdc8a1ea60c01b612fc6565b6000810361096b57610939674aef7898a80c62ea60c01b612fc6565b6040517feb9365e700000000000000000000000000000000000000000000000000000000815260040160405180910390fd5b61097f6723ac32a220ed2ea560c01b612fc6565b61099367916ffa0fd43f9ffc60c01b612fc6565b6109a7673a9480545614b92660c01b612fc6565b6109bb679120cd68338d246660c01b612fc6565b6109cf676aa77cf08188dc6060c01b612fc6565b6109e367137128fba8e2d81860c01b612fc6565b8573ffffffffffffffffffffffffffffffffffffffff166323b872dd8830876040518463ffffffff1660e01b8152600401610a2093929190613b81565b6020604051808303816000875af1158015610a3f573d6000803e3d6000fd5b505050506040513d601f19601f82011682018060405250810190610a639190613be4565b50610a7867beed5ebbb21e90cc60c01b612fc6565b610a8c6727542b80fde955e260c01b612fc6565b848673ffffffffffffffffffffffffffffffffffffffff168873ffffffffffffffffffffffffffffffffffffffff167f7c640dc4b99abc9030f33ecd8184a0d9422bd4919dc19090f82cae7ab4bb90bb468860025442604051610af29493929190613c11565b60405180910390a450505050505050565b610b176765dd331a21a5eb3560c01b612fc6565b81610b2c67f4402b390defadaf60c01b612fc6565b610b40677ab5172fbe4ec27e60c01b612fc6565b610b5467947ebed4bdc8a1ea60c01b612fc6565b60008103610ba257610b70674aef7898a80c62ea60c01b612fc6565b6040517feb9365e700000000000000000000000000000000000000000000000000000000815260040160405180910390fd5b610bb66723ac32a220ed2ea560c01b612fc6565b610bca67916ffa0fd43f9ffc60c01b612fc6565b610bde679263bb64998d688860c01b612fc6565b610bf2677348a5fbefa0d8f960c01b612fc6565b81610c0767d5196811086cb8b260c01b612fc6565b610c1b67bb533c4b9930e45b60c01b612fc6565b610c2f67d7d0e1953eeebf3760c01b612fc6565b600073ffffffffffffffffffffffffffffffffffffffff168173ffffffffffffffffffffffffffffffffffffffff1603610ca957610c77676599d08f5becbd4b60c01b612fc6565b6040517f9e1ff14a00000000000000000000000000000000000000000000000000000000815260040160405180910390fd5b610cbd6703e74da221f3558e60c01b612fc6565b610cd1673e77f514d818811460c01b612fc6565b610ce567e12ba1db1133725f60c01b612fc6565b610cf967414c6882074d545c60c01b612fc6565b610d0d674d177ce813d8f85860c01b612fc6565b610d21676c306ad76d3f297260c01b612fc6565b6040518060200160405280600081525080519060200120858051906020012003610d9f57610d5967df03bc0ff6c5913360c01b612fc6565b610d6d67b01cd7ff6d7b9c6f60c01b612fc6565b6040517f53da02f600000000000000000000000000000000000000000000000000000000815260040160405180910390fd5b610db3674ab1964062ca3e3960c01b612fc6565b610dc767353a364caa6ab2a360c01b612fc6565b610ddb676dd6eb50a0b3a93a60c01b612fc6565b6000600160009054906101000a900473ffffffffffffffffffffffffffffffffffffffff1673ffffffffffffffffffffffffffffffffffffffff166318c04bbb876040518263ffffffff1660e01b8152600401610e389190613cc4565b602060405180830381865afa158015610e55573d6000803e3d6000fd5b505050506040513d601f19601f82011682018060405250810190610e799190613cfb565b9050610e8f67019b345f572555dd60c01b612fc6565b610ea367374d5170e079b1fd60c01b612fc6565b600073ffffffffffffffffffffffffffffffffffffffff168173ffffffffffffffffffffffffffffffffffffffff1603610f3157610eeb67611773e9cae1c08360c01b612fc6565b610eff679bf788dadbdc82e660c01b612fc6565b6040517fcd659d9e00000000000000000000000000000000000000000000000000000000815260040160405180910390fd5b610f45672ab89965fcaef5cb60c01b612fc6565b610f5967c95374251b3417e260c01b612fc6565b610f6d67d8af8d5db0dc5df460c01b612fc6565b6000600160009054906101000a900473ffffffffffffffffffffffffffffffffffffffff1673ffffffffffffffffffffffffffffffffffffffff16630403185288336040518363ffffffff1660e01b8152600401610fcc929190613d28565b602060405180830381865afa158015610fe9573d6000803e3d6000fd5b505050506040513d601f19601f8201168201806040525081019061100d9190613d6d565b905061102367979d7d38b8d96faf60c01b612fc6565b611037670f69f9d28d919ff060c01b612fc6565b8581101561109957611053677daec9d3aec31bb860c01b612fc6565b6110676742df635ca7bdddf860c01b612fc6565b6040517f2d434d5600000000000000000000000000000000000000000000000000000000815260040160405180910390fd5b6110ad6707f31ee6e025d62960c01b612fc6565b6110c167070d38aa1cbc1f0a60c01b612fc6565b6110d56719f2b7d65bd50bbf60c01b612fc6565b600160009054906101000a900473ffffffffffffffffffffffffffffffffffffffff1673ffffffffffffffffffffffffffffffffffffffff1663f6b911bc8387896040518463ffffffff1660e01b815260040161113493929190613b81565b6020604051808303816000875af1158015611153573d6000803e3d6000fd5b505050506040513d601f19601f820116820180604052508101906111779190613be4565b5061118c6797703adc236cd63360c01b612fc6565b6111a0671cb1fa72f75c430660c01b612fc6565b468573ffffffffffffffffffffffffffffffffffffffff167f822728b2e9b3325a8f48b7e695afc68b81e15a152aaa52500402d8af303f64788489426040516111eb93929190613d9a565b60405180910390a350505050505050565b6000801b81565b60036020528060005260406000206000915054906101000a900473ffffffffffffffffffffffffffffffffffffffff1681565b61124a67b996ec2b53a247f560c01b612fc6565b8761125f67d5196811086cb8b260c01b612fc6565b61127367bb533c4b9930e45b60c01b612fc6565b61128767d7d0e1953eeebf3760c01b612fc6565b600073ffffffffffffffffffffffffffffffffffffffff168173ffffffffffffffffffffffffffffffffffffffff1603611301576112cf676599d08f5becbd4b60c01b612fc6565b6040517f9e1ff14a00000000000000000000000000000000000000000000000000000000815260040160405180910390fd5b6113156703e74da221f3558e60c01b612fc6565b611329673e77f514d818811460c01b612fc6565b61133d6757362dcdfae6a93860c01b612fc6565b61135167ebea68eb8055006060c01b612fc6565b8761136667d5196811086cb8b260c01b612fc6565b61137a67bb533c4b9930e45b60c01b612fc6565b61138e67d7d0e1953eeebf3760c01b612fc6565b600073ffffffffffffffffffffffffffffffffffffffff168173ffffffffffffffffffffffffffffffffffffffff1603611408576113d6676599d08f5becbd4b60c01b612fc6565b6040517f9e1ff14a00000000000000000000000000000000000000000000000000000000815260040160405180910390fd5b61141c6703e74da221f3558e60c01b612fc6565b611430673e77f514d818811460c01b612fc6565b61144467955c110f9dbed7ea60c01b612fc6565b61145867cf1c1172e91cbf4260c01b612fc6565b8661146d67f4402b390defadaf60c01b612fc6565b611481677ab5172fbe4ec27e60c01b612fc6565b61149567947ebed4bdc8a1ea60c01b612fc6565b600081036114e3576114b1674aef7898a80c62ea60c01b612fc6565b6040517feb9365e700000000000000000000000000000000000000000000000000000000815260040160405180910390fd5b6114f76723ac32a220ed2ea560c01b612fc6565b61150b67916ffa0fd43f9ffc60c01b612fc6565b61151f674589628df5a833ec60c01b612fc6565b6115336736ed9c452fc18f3660c01b612fc6565b61154767815951dc898fbf0c60c01b612fc6565b61155b6765b9f08bdc74e25b60c01b612fc6565b8973ffffffffffffffffffffffffffffffffffffffff1663d505accf8c308b8b8b8b8b6040518863ffffffff1660e01b81526004016115a09796959493929190613de0565b600060405180830381600087803b1580156115ba57600080fd5b505af11580156115ce573d6000803e3d6000fd5b505050506115e667f53bd0889a53bc5260c01b612fc6565b6115fa675b3bd21e1dc5afec60c01b612fc6565b8973ffffffffffffffffffffffffffffffffffffffff166323b872dd8c308b6040518463ffffffff1660e01b815260040161163793929190613b81565b6020604051808303816000875af1158015611656573d6000803e3d6000fd5b505050506040513d601f19601f8201168201806040525081019061167a9190613be4565b5061168f6722dc7ffaa78dd1d760c01b612fc6565b6116a36746eeb20d71f810f760c01b612fc6565b888a73ffffffffffffffffffffffffffffffffffffffff168c73ffffffffffffffffffffffffffffffffffffffff167f7c640dc4b99abc9030f33ecd8184a0d9422bd4919dc19090f82cae7ab4bb90bb468c600254426040516117099493929190613c11565b60405180910390a45050505050505050505050565b611732677c8ceae586013ff260c01b612fc6565b8261174767d5196811086cb8b260c01b612fc6565b61175b67bb533c4b9930e45b60c01b612fc6565b61176f67d7d0e1953eeebf3760c01b612fc6565b600073ffffffffffffffffffffffffffffffffffffffff168173ffffffffffffffffffffffffffffffffffffffff16036117e9576117b7676599d08f5becbd4b60c01b612fc6565b6040517f9e1ff14a00000000000000000000000000000000000000000000000000000000815260040160405180910390fd5b6117fd6703e74da221f3558e60c01b612fc6565b611811673e77f514d818811460c01b612fc6565b611825670376aa6d2e5ac3b560c01b612fc6565b6118396716ef2458bd02b98960c01b612fc6565b8261184e67d5196811086cb8b260c01b612fc6565b61186267bb533c4b9930e45b60c01b612fc6565b61187667d7d0e1953eeebf3760c01b612fc6565b600073ffffffffffffffffffffffffffffffffffffffff168173ffffffffffffffffffffffffffffffffffffffff16036118f0576118be676599d08f5becbd4b60c01b612fc6565b6040517f9e1ff14a00000000000000000000000000000000000000000000000000000000815260040160405180910390fd5b6119046703e74da221f3558e60c01b612fc6565b611918673e77f514d818811460c01b612fc6565b61192c67ce17b7b23a97b49860c01b612fc6565b61194067f30ada715ae8bc9f60c01b612fc6565b8261195567f4402b390defadaf60c01b612fc6565b611969677ab5172fbe4ec27e60c01b612fc6565b61197d67947ebed4bdc8a1ea60c01b612fc6565b600081036119cb57611999674aef7898a80c62ea60c01b612fc6565b6040517feb9365e700000000000000000000000000000000000000000000000000000000815260040160405180910390fd5b6119df6723ac32a220ed2ea560c01b612fc6565b6119f367916ffa0fd43f9ffc60c01b612fc6565b611a0767e40f728d57612be160c01b612fc6565b611a1b673c640cbde21feb9160c01b612fc6565b611a2f67d12bab92915ae9d160c01b612fc6565b611a436772af20468ac424f460c01b612fc6565b611a5767860a62e2cdd04c5a60c01b612fc6565b611a817fab4f864e5201b0fde9b5ee3e4cf96384802b0ffdfcf7f9de4699ce21a30afc4f33610654565b611adf57611a9967742e3cb883fe4be960c01b612fc6565b611aad6732d29a816aa61d1c60c01b612fc6565b6040517f3e78b92100000000000000000000000000000000000000000000000000000000815260040160405180910390fd5b611af3673ccaded0aa2e2b8860c01b612fc6565b611b076771db857e5e92852860c01b612fc6565b611b1b671126c1b5019d95fe60c01b612fc6565b611b2f676253d1c9486a5bdc60c01b612fc6565b611b4367782d1ee468b0ad9e60c01b612fc6565b611b5767fb49b0ec3250762b60c01b612fc6565b8473ffffffffffffffffffffffffffffffffffffffff1663a9059cbb87866040518363ffffffff1660e01b8152600401611b92929190613e4f565b6020604051808303816000875af1158015611bb1573d6000803e3d6000fd5b505050506040513d601f19601f82011682018060405250810190611bd59190613be4565b50611bea6765670391dea6ea7160c01b612fc6565b611bfe67ea9f108aa6cf231c60c01b612fc6565b468673ffffffffffffffffffffffffffffffffffffffff167f65cd6a06ca30d1a4e804e78cf9b5610e805bf360dacebe97903b74aaf903886f878742604051611c4993929190613d9a565b60405180910390a3505050505050565b600160009054906101000a900473ffffffffffffffffffffffffffffffffffffffff1681565b611c8882610409565b611c9181612de9565b611c9b8383612ee5565b505050565b611cb4677b1133001d5d649660c01b612fc6565b85611cc967f4402b390defadaf60c01b612fc6565b611cdd677ab5172fbe4ec27e60c01b612fc6565b611cf167947ebed4bdc8a1ea60c01b612fc6565b60008103611d3f57611d0d674aef7898a80c62ea60c01b612fc6565b6040517feb9365e700000000000000000000000000000000000000000000000000000000815260040160405180910390fd5b611d536723ac32a220ed2ea560c01b612fc6565b611d6767916ffa0fd43f9ffc60c01b612fc6565b611d7b67955b175ccedd5f6e60c01b612fc6565b611d8f6756af6448eb07eb9460c01b612fc6565b85611da467d5196811086cb8b260c01b612fc6565b611db867bb533c4b9930e45b60c01b612fc6565b611dcc67d7d0e1953eeebf3760c01b612fc6565b600073ffffffffffffffffffffffffffffffffffffffff168173ffffffffffffffffffffffffffffffffffffffff1603611e4657611e14676599d08f5becbd4b60c01b612fc6565b6040517f9e1ff14a00000000000000000000000000000000000000000000000000000000815260040160405180910390fd5b611e5a6703e74da221f3558e60c01b612fc6565b611e6e673e77f514d818811460c01b612fc6565b611e8267e517e7852b45d08b60c01b612fc6565b611e96677afde50bb9e1903c60c01b612fc6565b611eaa677480e05966dd6f5160c01b612fc6565b611ebe67a029411772ccacec60c01b612fc6565b6040518060200160405280600081525080519060200120898051906020012003611f3c57611ef667e91728fccab102aa60c01b612fc6565b611f0a67fc59856767d7e7ac60c01b612fc6565b6040517f53da02f600000000000000000000000000000000000000000000000000000000815260040160405180910390fd5b611f5067c0a505cffd14e43760c01b612fc6565b611f64675e45cdbf250b9e1660c01b612fc6565b611f78670ff7f82ce7432ded60c01b612fc6565b6000600160009054906101000a900473ffffffffffffffffffffffffffffffffffffffff1673ffffffffffffffffffffffffffffffffffffffff166318c04bbb8b6040518263ffffffff1660e01b8152600401611fd59190613cc4565b602060405180830381865afa158015611ff2573d6000803e3d6000fd5b505050506040513d601f19601f820116820180604052508101906120169190613cfb565b905061202c67e64ab9dfbe58636a60c01b612fc6565b612040674030540b5c859ada60c01b612fc6565b600073ffffffffffffffffffffffffffffffffffffffff168173ffffffffffffffffffffffffffffffffffffffff16036120ce5761208867f9a0f23d5824702d60c01b612fc6565b61209c677f1b0709f0f7d09360c01b612fc6565b6040517fcd659d9e00000000000000000000000000000000000000000000000000000000815260040160405180910390fd5b6120e267943a73b013aedf6560c01b612fc6565b6120f6679aaed8e67f556f6d60c01b612fc6565b61210a6706611e754ab4f4a660c01b612fc6565b6000600160009054906101000a900473ffffffffffffffffffffffffffffffffffffffff1673ffffffffffffffffffffffffffffffffffffffff1663040318528c336040518363ffffffff1660e01b8152600401612169929190613d28565b602060405180830381865afa158015612186573d6000803e3d6000fd5b505050506040513d601f19601f820116820180604052508101906121aa9190613d6d565b90506121c067d436c4201e33eedf60c01b612fc6565b6121d467ef627506aa8feae460c01b612fc6565b89811015612236576121f06711e145ffe20ae54760c01b612fc6565b6122046736fee3cfef27b16d60c01b612fc6565b6040517f2d434d5600000000000000000000000000000000000000000000000000000000815260040160405180910390fd5b61224a6773356d88e410eb3e60c01b612fc6565b61225e678e306205f21e832060c01b612fc6565b61227267964b9bde0724926860c01b612fc6565b600160009054906101000a900473ffffffffffffffffffffffffffffffffffffffff1673ffffffffffffffffffffffffffffffffffffffff16632dce1f6b838b8d8c8c8c8c6040518863ffffffff1660e01b81526004016122d99796959493929190613de0565b6020604051808303816000875af11580156122f8573d6000803e3d6000fd5b505050506040513d601f19601f8201168201806040525081019061231c9190613be4565b5061233167052570e55b27134960c01b612fc6565b61234567addf2f89d11183fd60c01b612fc6565b468973ffffffffffffffffffffffffffffffffffffffff167f822728b2e9b3325a8f48b7e695afc68b81e15a152aaa52500402d8af303f6478848d4260405161239093929190613d9a565b60405180910390a35050505050505050505050565b60025481565b6123bf67197c30178c911be860c01b612fc6565b826123d467d5196811086cb8b260c01b612fc6565b6123e867bb533c4b9930e45b60c01b612fc6565b6123fc67d7d0e1953eeebf3760c01b612fc6565b600073ffffffffffffffffffffffffffffffffffffffff168173ffffffffffffffffffffffffffffffffffffffff160361247657612444676599d08f5becbd4b60c01b612fc6565b6040517f9e1ff14a00000000000000000000000000000000000000000000000000000000815260040160405180910390fd5b61248a6703e74da221f3558e60c01b612fc6565b61249e673e77f514d818811460c01b612fc6565b6124b2677dd2b1878c7c530d60c01b612fc6565b6124c66781d164bee6c1dae360c01b612fc6565b826124db67d5196811086cb8b260c01b612fc6565b6124ef67bb533c4b9930e45b60c01b612fc6565b61250367d7d0e1953eeebf3760c01b612fc6565b600073ffffffffffffffffffffffffffffffffffffffff168173ffffffffffffffffffffffffffffffffffffffff160361257d5761254b676599d08f5becbd4b60c01b612fc6565b6040517f9e1ff14a00000000000000000000000000000000000000000000000000000000815260040160405180910390fd5b6125916703e74da221f3558e60c01b612fc6565b6125a5673e77f514d818811460c01b612fc6565b6125b967e3cf9eb3bd86940e60c01b612fc6565b6125cd67f87681caa9c7730260c01b612fc6565b826125e267f4402b390defadaf60c01b612fc6565b6125f6677ab5172fbe4ec27e60c01b612fc6565b61260a67947ebed4bdc8a1ea60c01b612fc6565b6000810361265857612626674aef7898a80c62ea60c01b612fc6565b6040517feb9365e700000000000000000000000000000000000000000000000000000000815260040160405180910390fd5b61266c6723ac32a220ed2ea560c01b612fc6565b61268067916ffa0fd43f9ffc60c01b612fc6565b61269467b324e32c7c3bd8d260c01b612fc6565b6126a867c5875324ef4e82d260c01b612fc6565b6126bc67d12bab92915ae9d160c01b612fc6565b6126d06772af20468ac424f460c01b612fc6565b6126e467860a62e2cdd04c5a60c01b612fc6565b61270e7fab4f864e5201b0fde9b5ee3e4cf96384802b0ffdfcf7f9de4699ce21a30afc4f33610654565b61276c5761272667742e3cb883fe4be960c01b612fc6565b61273a6732d29a816aa61d1c60c01b612fc6565b6040517f3e78b92100000000000000000000000000000000000000000000000000000000815260040160405180910390fd5b612780673ccaded0aa2e2b8860c01b612fc6565b6127946771db857e5e92852860c01b612fc6565b6127a8675babb4650a699d9860c01b612fc6565b6127bc67205550dd1bb5a96d60c01b612fc6565b6127d067219956af9b07dd1260c01b612fc6565b6127e467db3d159d4b1cf9e560c01b612fc6565b60405180602001604052806000815250805190602001208880519060200120036128625761281c675f63f8d4d0da2c4e60c01b612fc6565b61283067725baca84807e9ff60c01b612fc6565b6040517f53da02f600000000000000000000000000000000000000000000000000000000815260040160405180910390fd5b61287667e4f6e1a22002347060c01b612fc6565b61288a67336beb87ce7e720260c01b612fc6565b61289e67514a66e94037d4a160c01b612fc6565b604051806020016040528060008152508051906020012087805190602001200361291c576128d667b916f5b9ee09c17f60c01b612fc6565b6128ea67bf8a30ed68a1c6d060c01b612fc6565b6040517f41c14c8b00000000000000000000000000000000000000000000000000000000815260040160405180910390fd5b61293067e15b253c37c5dbe560c01b612fc6565b61294467cd42471ce6ba3a9b60c01b612fc6565b61295867edba8cb35890727760c01b612fc6565b60008860405160200161296b9190613eda565b6040516020818303038152906040529050612990672708fd371f9115bc60c01b612fc6565b6129a467f29fe6e08859ec7b60c01b612fc6565b6000600160009054906101000a900473ffffffffffffffffffffffffffffffffffffffff1673ffffffffffffffffffffffffffffffffffffffff166318c04bbb836040518263ffffffff1660e01b8152600401612a019190613cc4565b602060405180830381865afa158015612a1e573d6000803e3d6000fd5b505050506040513d601f19601f82011682018060405250810190612a429190613cfb565b9050612a5867808ece4d1dde1f5e60c01b612fc6565b612a6c67e5cf27b33f154c9960c01b612fc6565b600073ffffffffffffffffffffffffffffffffffffffff168173ffffffffffffffffffffffffffffffffffffffff1603612c0157612ab4670f44256532372d6e60c01b612fc6565b612ac8674d71d9e831ede22960c01b612fc6565b600160009054906101000a900473ffffffffffffffffffffffffffffffffffffffff1673ffffffffffffffffffffffffffffffffffffffff1663518f58c58a846040518363ffffffff1660e01b8152600401612b25929190613f00565b6020604051808303816000875af1158015612b44573d6000803e3d6000fd5b505050506040513d601f19601f82011682018060405250810190612b689190613cfb565b9050612b7e67ea747de38ed3434960c01b612fc6565b86600360008373ffffffffffffffffffffffffffffffffffffffff1673ffffffffffffffffffffffffffffffffffffffff16815260200190815260200160002060006101000a81548173ffffffffffffffffffffffffffffffffffffffff021916908373ffffffffffffffffffffffffffffffffffffffff160217905550612c16565b612c15670e6e92d3c694ca8860c01b612fc6565b5b612c2a67bcbd19cd74da8cee60c01b612fc6565b612c3e67eb7d0ebb43d26e7860c01b612fc6565b600160009054906101000a900473ffffffffffffffffffffffffffffffffffffffff1673ffffffffffffffffffffffffffffffffffffffff16637e8816b9838a896040518463ffffffff1660e01b8152600401612c9d93929190613f37565b6020604051808303816000875af1158015612cbc573d6000803e3d6000fd5b505050506040513d601f19601f82011682018060405250810190612ce09190613be4565b50612cf567fcea1d5e26ad2e5a60c01b612fc6565b612d096724ce7dc937428c6a60c01b612fc6565b81604051612d179190613f75565b6040518091039020468973ffffffffffffffffffffffffffffffffffffffff167e21ea588197ce7e376ec3c4248fbdbcf230305a4f7b8f00874a9f5bdc2995aa848a428f604051612d6b9493929190613f8c565b60405180910390a450505050505050505050565b60007f01ffc9a7000000000000000000000000000000000000000000000000000000007bffffffffffffffffffffffffffffffffffffffffffffffffffffffff1916827bffffffffffffffffffffffffffffffffffffffffffffffffffffffff1916149050919050565b612dfa81612df5612edd565b612fc9565b50565b612e078282610654565b612ed957600160008084815260200190815260200160002060000160008373ffffffffffffffffffffffffffffffffffffffff1673ffffffffffffffffffffffffffffffffffffffff16815260200190815260200160002060006101000a81548160ff021916908315150217905550612e7e612edd565b73ffffffffffffffffffffffffffffffffffffffff168173ffffffffffffffffffffffffffffffffffffffff16837f2f8788117e7eff1d82e926ec794901d17c78024a50270940304540a733656f0d60405160405180910390a45b5050565b600033905090565b612eef8282610654565b15612fc257600080600084815260200190815260200160002060000160008373ffffffffffffffffffffffffffffffffffffffff1673ffffffffffffffffffffffffffffffffffffffff16815260200190815260200160002060006101000a81548160ff021916908315150217905550612f67612edd565b73ffffffffffffffffffffffffffffffffffffffff168173ffffffffffffffffffffffffffffffffffffffff16837ff6391f5c32d9c69d2a47ea670b442974b53935d1edc7fd64eb21e047a839171b60405160405180910390a45b5050565b50565b612fd38282610654565b61304a57612fe08161304e565b612fee8360001c602061307b565b604051602001612fff929190614070565b6040516020818303038152906040526040517f08c379a00000000000000000000000000000000000000000000000000000000081526004016130419190613cc4565b60405180910390fd5b5050565b60606130748273ffffffffffffffffffffffffffffffffffffffff16601460ff1661307b565b9050919050565b60606000600283600261308e91906140d9565b613098919061411b565b67ffffffffffffffff8111156130b1576130b0613596565b5b6040519080825280601f01601f1916602001820160405280156130e35781602001600182028036833780820191505090505b5090507f30000000000000000000000000000000000000000000000000000000000000008160008151811061311b5761311a61414f565b5b60200101907effffffffffffffffffffffffffffffffffffffffffffffffffffffffffffff1916908160001a9053507f78000000000000000000000000000000000000000000000000000000000000008160018151811061317f5761317e61414f565b5b60200101907effffffffffffffffffffffffffffffffffffffffffffffffffffffffffffff1916908160001a905350600060018460026131bf91906140d9565b6131c9919061411b565b90505b6001811115613269577f3031323334353637383961626364656600000000000000000000000000000000600f86166010811061320b5761320a61414f565b5b1a60f81b8282815181106132225761322161414f565b5b60200101907effffffffffffffffffffffffffffffffffffffffffffffffffffffffffffff1916908160001a905350600485901c9450806132629061417e565b90506131cc565b50600084146132ad576040517f08c379a00000000000000000000000000000000000000000000000000000000081526004016132a4906141f3565b60405180910390fd5b8091505092915050565b6000604051905090565b600080fd5b600080fd5b60007fffffffff0000000000000000000000000000000000000000000000000000000082169050919050565b613300816132cb565b811461330b57600080fd5b50565b60008135905061331d816132f7565b92915050565b600060208284031215613339576133386132c1565b5b60006133478482850161330e565b91505092915050565b60008115159050919050565b61336581613350565b82525050565b6000602082019050613380600083018461335c565b92915050565b6000819050919050565b61339981613386565b82525050565b60006020820190506133b46000830184613390565b92915050565b6133c381613386565b81146133ce57600080fd5b50565b6000813590506133e0816133ba565b92915050565b6000602082840312156133fc576133fb6132c1565b5b600061340a848285016133d1565b91505092915050565b600073ffffffffffffffffffffffffffffffffffffffff82169050919050565b600061343e82613413565b9050919050565b61344e81613433565b811461345957600080fd5b50565b60008135905061346b81613445565b92915050565b60008060408385031215613488576134876132c1565b5b6000613496858286016133d1565b92505060206134a78582860161345c565b9150509250929050565b6000819050919050565b6134c4816134b1565b81146134cf57600080fd5b50565b6000813590506134e1816134bb565b92915050565b6000602082840312156134fd576134fc6132c1565b5b600061350b848285016134d2565b91505092915050565b6000806000806080858703121561352e5761352d6132c1565b5b600061353c8782880161345c565b945050602061354d8782880161345c565b935050604061355e878288016134d2565b925050606061356f878288016134d2565b91505092959194509250565b600080fd5b600080fd5b6000601f19601f8301169050919050565b7f4e487b7100000000000000000000000000000000000000000000000000000000600052604160045260246000fd5b6135ce82613585565b810181811067ffffffffffffffff821117156135ed576135ec613596565b5b80604052505050565b60006136006132b7565b905061360c82826135c5565b919050565b600067ffffffffffffffff82111561362c5761362b613596565b5b61363582613585565b9050602081019050919050565b82818337600083830152505050565b600061366461365f84613611565b6135f6565b9050828152602081018484840111156136805761367f613580565b5b61368b848285613642565b509392505050565b600082601f8301126136a8576136a761357b565b5b81356136b8848260208601613651565b91505092915050565b6000806000606084860312156136da576136d96132c1565b5b600084013567ffffffffffffffff8111156136f8576136f76132c6565b5b61370486828701613693565b9350506020613715868287016134d2565b92505060406137268682870161345c565b9150509250925092565b600060208284031215613746576137456132c1565b5b60006137548482850161345c565b91505092915050565b61376681613433565b82525050565b6000602082019050613781600083018461375d565b92915050565b600060ff82169050919050565b61379d81613787565b81146137a857600080fd5b50565b6000813590506137ba81613794565b92915050565b600080600080600080600080610100898b0312156137e1576137e06132c1565b5b60006137ef8b828c0161345c565b98505060206138008b828c0161345c565b97505060406138118b828c016134d2565b96505060606138228b828c016134d2565b95505060806138338b828c016134d2565b94505060a06138448b828c016137ab565b93505060c06138558b828c016133d1565b92505060e06138668b828c016133d1565b9150509295985092959890939650565b60008060006060848603121561388f5761388e6132c1565b5b600061389d8682870161345c565b93505060206138ae8682870161345c565b92505060406138bf868287016134d2565b9150509250925092565b6000819050919050565b60006138ee6138e96138e484613413565b6138c9565b613413565b9050919050565b6000613900826138d3565b9050919050565b6000613912826138f5565b9050919050565b61392281613907565b82525050565b600060208201905061393d6000830184613919565b92915050565b600080600080600080600060e0888a031215613962576139616132c1565b5b600088013567ffffffffffffffff8111156139805761397f6132c6565b5b61398c8a828b01613693565b975050602061399d8a828b016134d2565b96505060406139ae8a828b0161345c565b95505060606139bf8a828b016134d2565b94505060806139d08a828b016137ab565b93505060a06139e18a828b016133d1565b92505060c06139f28a828b016133d1565b91505092959891949750929550565b613a0a816134b1565b82525050565b6000602082019050613a256000830184613a01565b92915050565b600080600080600060a08688031215613a4757613a466132c1565b5b600086013567ffffffffffffffff811115613a6557613a646132c6565b5b613a7188828901613693565b955050602086013567ffffffffffffffff811115613a9257613a916132c6565b5b613a9e88828901613693565b9450506040613aaf8882890161345c565b9350506060613ac08882890161345c565b9250506080613ad1888289016134d2565b9150509295509295909350565b600082825260208201905092915050565b7f416363657373436f6e74726f6c3a2063616e206f6e6c792072656e6f756e636560008201527f20726f6c657320666f722073656c660000000000000000000000000000000000602082015250565b6000613b4b602f83613ade565b9150613b5682613aef565b604082019050919050565b60006020820190508181036000830152613b7a81613b3e565b9050919050565b6000606082019050613b96600083018661375d565b613ba3602083018561375d565b613bb06040830184613a01565b949350505050565b613bc181613350565b8114613bcc57600080fd5b50565b600081519050613bde81613bb8565b92915050565b600060208284031215613bfa57613bf96132c1565b5b6000613c0884828501613bcf565b91505092915050565b6000608082019050613c266000830187613a01565b613c336020830186613a01565b613c406040830185613a01565b613c4d6060830184613a01565b95945050505050565b600081519050919050565b60005b83811015613c7f578082015181840152602081019050613c64565b60008484015250505050565b6000613c9682613c56565b613ca08185613ade565b9350613cb0818560208601613c61565b613cb981613585565b840191505092915050565b60006020820190508181036000830152613cde8184613c8b565b905092915050565b600081519050613cf581613445565b92915050565b600060208284031215613d1157613d106132c1565b5b6000613d1f84828501613ce6565b91505092915050565b60006040820190508181036000830152613d428185613c8b565b9050613d51602083018461375d565b9392505050565b600081519050613d67816134bb565b92915050565b600060208284031215613d8357613d826132c1565b5b6000613d9184828501613d58565b91505092915050565b6000606082019050613daf600083018661375d565b613dbc6020830185613a01565b613dc96040830184613a01565b949350505050565b613dda81613787565b82525050565b600060e082019050613df5600083018a61375d565b613e02602083018961375d565b613e0f6040830188613a01565b613e1c6060830187613a01565b613e296080830186613dd1565b613e3660a0830185613390565b613e4360c0830184613390565b98975050505050505050565b6000604082019050613e64600083018561375d565b613e716020830184613a01565b9392505050565b7f5700000000000000000000000000000000000000000000000000000000000000815250565b600081905092915050565b6000613eb482613c56565b613ebe8185613e9e565b9350613ece818560208601613c61565b80840191505092915050565b6000613ee582613e78565b600182019150613ef58284613ea9565b915081905092915050565b60006040820190508181036000830152613f1a8185613c8b565b90508181036020830152613f2e8184613c8b565b90509392505050565b60006060820190508181036000830152613f518186613c8b565b9050613f60602083018561375d565b613f6d6040830184613a01565b949350505050565b6000613f818284613ea9565b915081905092915050565b6000608082019050613fa1600083018761375d565b613fae6020830186613a01565b613fbb6040830185613a01565b8181036060830152613fcd8184613c8b565b905095945050505050565b7f416363657373436f6e74726f6c3a206163636f756e7420000000000000000000600082015250565b600061400e601783613e9e565b915061401982613fd8565b601782019050919050565b7f206973206d697373696e6720726f6c6520000000000000000000000000000000600082015250565b600061405a601183613e9e565b915061406582614024565b601182019050919050565b600061407b82614001565b91506140878285613ea9565b91506140928261404d565b915061409e8284613ea9565b91508190509392505050565b7f4e487b7100000000000000000000000000000000000000000000000000000000600052601160045260246000fd5b60006140e4826134b1565b91506140ef836134b1565b92508282026140fd816134b1565b91508282048414831517614114576141136140aa565b5b5092915050565b6000614126826134b1565b9150614131836134b1565b9250828201905080821115614149576141486140aa565b5b92915050565b7f4e487b7100000000000000000000000000000000000000000000000000000000600052603260045260246000fd5b6000614189826134b1565b91506000820361419c5761419b6140aa565b5b600182039050919050565b7f537472696e67733a20686578206c656e67746820696e73756666696369656e74600082015250565b60006141dd602083613ade565b91506141e8826141a7565b602082019050919050565b6000602082019050818103600083015261420c816141d0565b905091905056fea2646970667358221220007670cede3d2fa47c619cd0dad1a593f387a8d94ed1f659109780d7795413fd64736f6c6343000811003360806040523480156200001157600080fd5b5062000032620000266200003860201b60201c565b6200004060201b60201c565b62000104565b600033905090565b60008060009054906101000a900473ffffffffffffffffffffffffffffffffffffffff169050816000806101000a81548173ffffffffffffffffffffffffffffffffffffffff021916908373ffffffffffffffffffffffffffffffffffffffff1602179055508173ffffffffffffffffffffffffffffffffffffffff168173ffffffffffffffffffffffffffffffffffffffff167f8be0079c531659141344cd1fd0a4f28419497f9722a3daafe3b4186f6b6457e060405160405180910390a35050565b61671e80620001146000396000f3fe60806040523480156200001157600080fd5b5060043610620000ca5760003560e01c8063715018a6116200008d578063d3e2a0ca1162000063578063d3e2a0ca1462000241578063f2fde38b1462000277578063f6b911bc146200029757620000ca565b8063715018a614620001dd5780637e8816b914620001e95780638da5cb5b146200021f57620000ca565b80630403185214620000cf57806318c04bbb14620001055780632dce1f6b146200013b578063518f58c51462000171578063640df64414620001a7575b600080fd5b620000ed6004803603810190620000e79190620024ac565b620002cd565b604051620000fc91906200252d565b60405180910390f35b6200012360048036038101906200011d91906200254a565b62000704565b604051620001329190620025ac565b60405180910390f35b62000159600480360381019062000153919062002673565b620008af565b60405162000168919062002743565b60405180910390f35b6200018f600480360381019062000189919062002760565b62000ddd565b6040516200019e9190620025ac565b60405180910390f35b620001c56004803603810190620001bf91906200254a565b62001340565b604051620001d491906200252d565b60405180910390f35b620001e762001647565b005b620002076004803603810190620002019190620027e5565b6200165f565b60405162000216919062002743565b60405180910390f35b6200022962001bf0565b604051620002389190620025ac565b60405180910390f35b6200025f60048036038101906200025991906200254a565b62001c19565b6040516200026e9190620025ac565b60405180910390f35b6200029560048036038101906200028f919062002860565b62001c62565b005b620002b56004803603810190620002af919062002892565b62001cec565b604051620002c4919062002743565b60405180910390f35b6000620002e567c8090e55db7ce2e360c01b6200216f565b82620002fc67484cc96a2245a49060c01b6200216f565b6200031267347f5d8f66680f4160c01b6200216f565b620003286785a1070c3d56cf2460c01b6200216f565b6040518060200160405280600081525080519060200120818051906020012003620003ab5762000363676b8c4da67bc868d460c01b6200216f565b6200037967e548e7f8e40b1b5a60c01b6200216f565b6040517f9243059c00000000000000000000000000000000000000000000000000000000815260040160405180910390fd5b620003c1674195d9d5beeaab2160c01b6200216f565b620003d767931c12efafc1b4c160c01b6200216f565b620003ed679baaca79c8b3543660c01b6200216f565b6200040367742541b3ea50197b60c01b6200216f565b826200041a675dfb0ba1eb2680ed60c01b6200216f565b62000430672b3c86e0f6e42abc60c01b6200216f565b6200044667cc7e0c257ffe784460c01b6200216f565b600073ffffffffffffffffffffffffffffffffffffffff168173ffffffffffffffffffffffffffffffffffffffff1603620004d9576200049167701688fd2114f61b60c01b6200216f565b620004a767a14c870434005ae860c01b6200216f565b6040517f67cfa16e00000000000000000000000000000000000000000000000000000000815260040160405180910390fd5b620004ef67a1cf429b8dfa64a960c01b6200216f565b62000505674f55603b7080411560c01b6200216f565b6200051b67f6814dcb01c6171160c01b6200216f565b6200053167f1339daee574187960c01b6200216f565b6200054767f783a172fdcfce2060c01b6200216f565b6200055d6723c3465db0a21a0860c01b6200216f565b60006200056a8662000704565b905062000582678854e172e1cc18bd60c01b6200216f565b6200059867661eab8506529cce60c01b6200216f565b600073ffffffffffffffffffffffffffffffffffffffff168173ffffffffffffffffffffffffffffffffffffffff16036200063857620005e36728c2bfe01063d2c960c01b6200216f565b620005f967233489dafddb465660c01b6200216f565b856040517f0a14efa40000000000000000000000000000000000000000000000000000000081526004016200062f919062002977565b60405180910390fd5b6200064e67d15ad2440a2aad1160c01b6200216f565b6200066467f1677c611f0c558960c01b6200216f565b6200067a677bbf2b1ca5219c3b60c01b6200216f565b8073ffffffffffffffffffffffffffffffffffffffff166370a08231866040518263ffffffff1660e01b8152600401620006b59190620025ac565b602060405180830381865afa158015620006d3573d6000803e3d6000fd5b505050506040513d601f19601f82011682018060405250810190620006f99190620029b2565b935050505092915050565b60006200071c67c18af01e7e36e1e160c01b6200216f565b816200073367484cc96a2245a49060c01b6200216f565b6200074967347f5d8f66680f4160c01b6200216f565b6200075f6785a1070c3d56cf2460c01b6200216f565b6040518060200160405280600081525080519060200120818051906020012003620007e2576200079a676b8c4da67bc868d460c01b6200216f565b620007b067e548e7f8e40b1b5a60c01b6200216f565b6040517f9243059c00000000000000000000000000000000000000000000000000000000815260040160405180910390fd5b620007f8674195d9d5beeaab2160c01b6200216f565b6200080e67931c12efafc1b4c160c01b6200216f565b6200082467a3982148d9d3cde560c01b6200216f565b6200083a67d83f1ef77430086960c01b6200216f565b6200085067b18fc8e32fdcabf160c01b6200216f565b620008666768d65048187249fc60c01b6200216f565b60018360405162000878919062002a26565b908152602001604051809103902060009054906101000a900473ffffffffffffffffffffffffffffffffffffffff16915050919050565b6000620008c767c3f0026ce8925d8d60c01b6200216f565b620008d162002172565b620008e7678baf2f321729208760c01b6200216f565b620008fd67da18c7d6bf1a060660c01b6200216f565b8762000914675dfb0ba1eb2680ed60c01b6200216f565b6200092a672b3c86e0f6e42abc60c01b6200216f565b6200094067cc7e0c257ffe784460c01b6200216f565b600073ffffffffffffffffffffffffffffffffffffffff168173ffffffffffffffffffffffffffffffffffffffff1603620009d3576200098b67701688fd2114f61b60c01b6200216f565b620009a167a14c870434005ae860c01b6200216f565b6040517f67cfa16e00000000000000000000000000000000000000000000000000000000815260040160405180910390fd5b620009e967a1cf429b8dfa64a960c01b6200216f565b620009ff674f55603b7080411560c01b6200216f565b62000a156777f1cb5408a54f4060c01b6200216f565b62000a2b6734ca85ab26000acf60c01b6200216f565b8762000a42675dfb0ba1eb2680ed60c01b6200216f565b62000a58672b3c86e0f6e42abc60c01b6200216f565b62000a6e67cc7e0c257ffe784460c01b6200216f565b600073ffffffffffffffffffffffffffffffffffffffff168173ffffffffffffffffffffffffffffffffffffffff160362000b015762000ab967701688fd2114f61b60c01b6200216f565b62000acf67a14c870434005ae860c01b6200216f565b6040517f67cfa16e00000000000000000000000000000000000000000000000000000000815260040160405180910390fd5b62000b1767a1cf429b8dfa64a960c01b6200216f565b62000b2d674f55603b7080411560c01b6200216f565b62000b4367e119ae7540327c4860c01b6200216f565b62000b5967467476778b0bb37160c01b6200216f565b8762000b7067e658cbb9cae323ac60c01b6200216f565b62000b8667fd26a16af225198960c01b6200216f565b62000b9c67b74a0f0e2740cc6e60c01b6200216f565b6000810362000c035762000bbb678290d0aadc2b78a260c01b6200216f565b62000bd16704fecc1cd219780960c01b6200216f565b6040517f2689c50c00000000000000000000000000000000000000000000000000000000815260040160405180910390fd5b62000c19678fda0c490ca343b960c01b6200216f565b62000c2f67ca8d4499040ff82e60c01b6200216f565b62000c4567f819f5251725ba0860c01b6200216f565b62000c5b673f08186e85c3b57060c01b6200216f565b62000c7167d160049e0205333360c01b6200216f565b62000c8767116b2fdf213f29a060c01b6200216f565b8a73ffffffffffffffffffffffffffffffffffffffff1663d505accf8b308c8c8c8c8c6040518863ffffffff1660e01b815260040162000cce979695949392919062002a61565b600060405180830381600087803b15801562000ce957600080fd5b505af115801562000cfe573d6000803e3d6000fd5b5050505062000d18678c31cb3aaf3fba6c60c01b6200216f565b62000d2e67d9a88da1ae544aff60c01b6200216f565b8a73ffffffffffffffffffffffffffffffffffffffff166379cc67908b8b6040518363ffffffff1660e01b815260040162000d6b92919062002ade565b600060405180830381600087803b15801562000d8657600080fd5b505af115801562000d9b573d6000803e3d6000fd5b5050505062000db5673a4718e06d5b782c60c01b6200216f565b62000dcb6731878349d2fe43da60c01b6200216f565b60019350505050979650505050505050565b600062000df567eb3de81cab49e27560c01b6200216f565b62000dff62002172565b62000e15675adead4e77eb459e60c01b6200216f565b62000e2b672c5ca56d1574057e60c01b6200216f565b8162000e4267484cc96a2245a49060c01b6200216f565b62000e5867347f5d8f66680f4160c01b6200216f565b62000e6e6785a1070c3d56cf2460c01b6200216f565b604051806020016040528060008152508051906020012081805190602001200362000ef15762000ea9676b8c4da67bc868d460c01b6200216f565b62000ebf67e548e7f8e40b1b5a60c01b6200216f565b6040517f9243059c00000000000000000000000000000000000000000000000000000000815260040160405180910390fd5b62000f07674195d9d5beeaab2160c01b6200216f565b62000f1d67931c12efafc1b4c160c01b6200216f565b62000f336798c72f5c488b054660c01b6200216f565b62000f49670e7a0b6f4b50afa760c01b6200216f565b8362000f60673a198578e3df94cf60c01b6200216f565b62000f76671febb6b6d9e32d1360c01b6200216f565b62000f8c678d30774638f1980660c01b6200216f565b60405180602001604052806000815250805190602001208180519060200120036200100f5762000fc76764227fe395cf1c1660c01b6200216f565b62000fdd67a0afbc35f52b65c160c01b6200216f565b6040517f5f3f156600000000000000000000000000000000000000000000000000000000815260040160405180910390fd5b6200102567ab38e880dcfe5ac960c01b6200216f565b6200103b677affc1ae9458ce6260c01b6200216f565b62001051674df2611e4836609560c01b6200216f565b62001067670c0dde4a6a9c88d460c01b6200216f565b6200107d67530434f7c0e8f75b60c01b6200216f565b62001093677582f1b16546ed9060c01b6200216f565b600073ffffffffffffffffffffffffffffffffffffffff16600185604051620010bd919062002a26565b908152602001604051809103902060009054906101000a900473ffffffffffffffffffffffffffffffffffffffff1673ffffffffffffffffffffffffffffffffffffffff161462001173576200111e67fa633b49cb38e21560c01b6200216f565b62001134676f0e9c2302a1dcc760c01b6200216f565b836040517f85bc08700000000000000000000000000000000000000000000000000000000081526004016200116a919062002977565b60405180910390fd5b62001189674baf84dd4c79b87e60c01b6200216f565b6200119f67970c49f2d80e209f60c01b6200216f565b620011b56701192fbb440b37e960c01b6200216f565b60008585604051620011c790620022c3565b620011d492919062002b0b565b604051809103906000f080158015620011f1573d6000803e3d6000fd5b5090506200120a67916dc7284d03dabe60c01b6200216f565b806001866040516200121d919062002a26565b908152602001604051809103902060006101000a81548173ffffffffffffffffffffffffffffffffffffffff021916908373ffffffffffffffffffffffffffffffffffffffff1602179055506200127f674a886d7dbd43817c60c01b6200216f565b62001295679f5ba7f2ccf5818960c01b6200216f565b84604051620012a5919062002a26565b604051809103902086604051620012bd919062002a26565b60405180910390208273ffffffffffffffffffffffffffffffffffffffff167ffb30167b90e3d8f2deaf0ebbb65d1849868ebf79c6d25c020b39fa156f61a9a960405160405180910390a46200131e6722f74ce7b19bb8cf60c01b6200216f565b62001334678fe94b8ecae7cc6760c01b6200216f565b80935050505092915050565b600062001358670352f88b55c9f65a60c01b6200216f565b816200136f67484cc96a2245a49060c01b6200216f565b6200138567347f5d8f66680f4160c01b6200216f565b6200139b6785a1070c3d56cf2460c01b6200216f565b60405180602001604052806000815250805190602001208180519060200120036200141e57620013d6676b8c4da67bc868d460c01b6200216f565b620013ec67e548e7f8e40b1b5a60c01b6200216f565b6040517f9243059c00000000000000000000000000000000000000000000000000000000815260040160405180910390fd5b62001434674195d9d5beeaab2160c01b6200216f565b6200144a67931c12efafc1b4c160c01b6200216f565b62001460675d46ac18dcd7e17960c01b6200216f565b62001476671a6dc85f54f0e12960c01b6200216f565b6200148c6701c321176affe9fa60c01b6200216f565b620014a26786f874d49d98901c60c01b6200216f565b6000620014af8462000704565b9050620014c767c7ad190777797be560c01b6200216f565b620014dd67abe3cdd0cf65900d60c01b6200216f565b600073ffffffffffffffffffffffffffffffffffffffff168173ffffffffffffffffffffffffffffffffffffffff16036200157d576200152867812b7636c77adc1b60c01b6200216f565b6200153e674a34ec3f56bbddd760c01b6200216f565b836040517f0a14efa400000000000000000000000000000000000000000000000000000000815260040162001574919062002977565b60405180910390fd5b62001593678d604e4151c7535160c01b6200216f565b620015a9671a7579a2985083c860c01b6200216f565b620015bf670273c838697a4d4760c01b6200216f565b8073ffffffffffffffffffffffffffffffffffffffff166370a08231336040518263ffffffff1660e01b8152600401620015fa9190620025ac565b602060405180830381865afa15801562001618573d6000803e3d6000fd5b505050506040513d601f19601f820116820180604052508101906200163e9190620029b2565b92505050919050565b6200165162002172565b6200165d6000620021f7565b565b60006200167767a09e9dfcf7abd72960c01b6200216f565b6200168162002172565b6200169767e7a1bdaa9329696a60c01b6200216f565b620016ad678ebfe5a4ca02500a60c01b6200216f565b82620016c4675dfb0ba1eb2680ed60c01b6200216f565b620016da672b3c86e0f6e42abc60c01b6200216f565b620016f067cc7e0c257ffe784460c01b6200216f565b600073ffffffffffffffffffffffffffffffffffffffff168173ffffffffffffffffffffffffffffffffffffffff160362001783576200173b67701688fd2114f61b60c01b6200216f565b6200175167a14c870434005ae860c01b6200216f565b6040517f67cfa16e00000000000000000000000000000000000000000000000000000000815260040160405180910390fd5b6200179967a1cf429b8dfa64a960c01b6200216f565b620017af674f55603b7080411560c01b6200216f565b620017c56741e808ff69b37e2560c01b6200216f565b620017db67089f4ed53dfa9bd760c01b6200216f565b84620017f267484cc96a2245a49060c01b6200216f565b6200180867347f5d8f66680f4160c01b6200216f565b6200181e6785a1070c3d56cf2460c01b6200216f565b6040518060200160405280600081525080519060200120818051906020012003620018a15762001859676b8c4da67bc868d460c01b6200216f565b6200186f67e548e7f8e40b1b5a60c01b6200216f565b6040517f9243059c00000000000000000000000000000000000000000000000000000000815260040160405180910390fd5b620018b7674195d9d5beeaab2160c01b6200216f565b620018cd67931c12efafc1b4c160c01b6200216f565b620018e36796c593491c342d7160c01b6200216f565b620018f9674013caebff24044560c01b6200216f565b836200191067e658cbb9cae323ac60c01b6200216f565b6200192667fd26a16af225198960c01b6200216f565b6200193c67b74a0f0e2740cc6e60c01b6200216f565b60008103620019a3576200195b678290d0aadc2b78a260c01b6200216f565b620019716704fecc1cd219780960c01b6200216f565b6040517f2689c50c00000000000000000000000000000000000000000000000000000000815260040160405180910390fd5b620019b9678fda0c490ca343b960c01b6200216f565b620019cf67ca8d4499040ff82e60c01b6200216f565b620019e5679c60b0dd7c7731e060c01b6200216f565b620019fb67d6037629f171cde760c01b6200216f565b62001a11673464ae127e444bee60c01b6200216f565b62001a27673c941039b0893d0e60c01b6200216f565b600062001a348862000704565b905062001a4c67626d361b70fdab7360c01b6200216f565b62001a62675925b04c1a0a79ad60c01b6200216f565b600073ffffffffffffffffffffffffffffffffffffffff168173ffffffffffffffffffffffffffffffffffffffff160362001b025762001aad67267c6e9f953c794760c01b6200216f565b62001ac367697e218933c2468160c01b6200216f565b876040517f0a14efa400000000000000000000000000000000000000000000000000000000815260040162001af9919062002977565b60405180910390fd5b62001b186789e9c9b22145775360c01b6200216f565b62001b2e673e1d7a32ed58687860c01b6200216f565b62001b44676fd48892af51b6b560c01b6200216f565b8073ffffffffffffffffffffffffffffffffffffffff166340c10f1988886040518363ffffffff1660e01b815260040162001b8192919062002ade565b600060405180830381600087803b15801562001b9c57600080fd5b505af115801562001bb1573d6000803e3d6000fd5b5050505062001bcb6714ce0b0b40971a3660c01b6200216f565b62001be1674580b91ad750f9db60c01b6200216f565b60019450505050509392505050565b60008060009054906101000a900473ffffffffffffffffffffffffffffffffffffffff16905090565b6001818051602081018201805184825260208301602085012081835280955050505050506000915054906101000a900473ffffffffffffffffffffffffffffffffffffffff1681565b62001c6c62002172565b600073ffffffffffffffffffffffffffffffffffffffff168173ffffffffffffffffffffffffffffffffffffffff160362001cde576040517f08c379a000000000000000000000000000000000000000000000000000000000815260040162001cd59062002bbc565b60405180910390fd5b62001ce981620021f7565b50565b600062001d0467678d593a300c840560c01b6200216f565b62001d0e62002172565b62001d24676d1d66b97622def760c01b6200216f565b62001d3a67f5f569f309ecad7360c01b6200216f565b8362001d51675dfb0ba1eb2680ed60c01b6200216f565b62001d67672b3c86e0f6e42abc60c01b6200216f565b62001d7d67cc7e0c257ffe784460c01b6200216f565b600073ffffffffffffffffffffffffffffffffffffffff168173ffffffffffffffffffffffffffffffffffffffff160362001e105762001dc867701688fd2114f61b60c01b6200216f565b62001dde67a14c870434005ae860c01b6200216f565b6040517f67cfa16e00000000000000000000000000000000000000000000000000000000815260040160405180910390fd5b62001e2667a1cf429b8dfa64a960c01b6200216f565b62001e3c674f55603b7080411560c01b6200216f565b62001e5267ff0acc14050370f760c01b6200216f565b62001e6867f5bb430a699c7e1260c01b6200216f565b8362001e7f675dfb0ba1eb2680ed60c01b6200216f565b62001e95672b3c86e0f6e42abc60c01b6200216f565b62001eab67cc7e0c257ffe784460c01b6200216f565b600073ffffffffffffffffffffffffffffffffffffffff168173ffffffffffffffffffffffffffffffffffffffff160362001f3e5762001ef667701688fd2114f61b60c01b6200216f565b62001f0c67a14c870434005ae860c01b6200216f565b6040517f67cfa16e00000000000000000000000000000000000000000000000000000000815260040160405180910390fd5b62001f5467a1cf429b8dfa64a960c01b6200216f565b62001f6a674f55603b7080411560c01b6200216f565b62001f80674f87d3bf4771d72560c01b6200216f565b62001f9667d162abf1fa51f8bb60c01b6200216f565b8362001fad67e658cbb9cae323ac60c01b6200216f565b62001fc367fd26a16af225198960c01b6200216f565b62001fd967b74a0f0e2740cc6e60c01b6200216f565b60008103620020405762001ff8678290d0aadc2b78a260c01b6200216f565b6200200e6704fecc1cd219780960c01b6200216f565b6040517f2689c50c00000000000000000000000000000000000000000000000000000000815260040160405180910390fd5b62002056678fda0c490ca343b960c01b6200216f565b6200206c67ca8d4499040ff82e60c01b6200216f565b6200208267fed26a2b648becd860c01b6200216f565b6200209867b69625f070b6825060c01b6200216f565b620020ae67fa4587a9b242e38660c01b6200216f565b620020c46769d478e82f2b75b260c01b6200216f565b8673ffffffffffffffffffffffffffffffffffffffff166379cc679087876040518363ffffffff1660e01b81526004016200210192919062002ade565b600060405180830381600087803b1580156200211c57600080fd5b505af115801562002131573d6000803e3d6000fd5b505050506200214b6702f09c2b93dcdf1b60c01b6200216f565b62002161678eb967825f7afe1860c01b6200216f565b600193505050509392505050565b50565b6200217c620022bb565b73ffffffffffffffffffffffffffffffffffffffff166200219c62001bf0565b73ffffffffffffffffffffffffffffffffffffffff1614620021f5576040517f08c379a0000000000000000000000000000000000000000000000000000000008152600401620021ec9062002c2e565b60405180910390fd5b565b60008060009054906101000a900473ffffffffffffffffffffffffffffffffffffffff169050816000806101000a81548173ffffffffffffffffffffffffffffffffffffffff021916908373ffffffffffffffffffffffffffffffffffffffff1602179055508173ffffffffffffffffffffffffffffffffffffffff168173ffffffffffffffffffffffffffffffffffffffff167f8be0079c531659141344cd1fd0a4f28419497f9722a3daafe3b4186f6b6457e060405160405180910390a35050565b600033905090565b613a988062002c5183390190565b6000604051905090565b600080fd5b600080fd5b600080fd5b600080fd5b6000601f19601f8301169050919050565b7f4e487b7100000000000000000000000000000000000000000000000000000000600052604160045260246000fd5b6200233a82620022ef565b810181811067ffffffffffffffff821117156200235c576200235b62002300565b5b80604052505050565b600062002371620022d1565b90506200237f82826200232f565b919050565b600067ffffffffffffffff821115620023a257620023a162002300565b5b620023ad82620022ef565b9050602081019050919050565b82818337600083830152505050565b6000620023e0620023da8462002384565b62002365565b905082815260208101848484011115620023ff57620023fe620022ea565b5b6200240c848285620023ba565b509392505050565b600082601f8301126200242c576200242b620022e5565b5b81356200243e848260208601620023c9565b91505092915050565b600073ffffffffffffffffffffffffffffffffffffffff82169050919050565b6000620024748262002447565b9050919050565b620024868162002467565b81146200249257600080fd5b50565b600081359050620024a6816200247b565b92915050565b60008060408385031215620024c657620024c5620022db565b5b600083013567ffffffffffffffff811115620024e757620024e6620022e0565b5b620024f58582860162002414565b9250506020620025088582860162002495565b9150509250929050565b6000819050919050565b620025278162002512565b82525050565b60006020820190506200254460008301846200251c565b92915050565b600060208284031215620025635762002562620022db565b5b600082013567ffffffffffffffff811115620025845762002583620022e0565b5b620025928482850162002414565b91505092915050565b620025a68162002467565b82525050565b6000602082019050620025c360008301846200259b565b92915050565b620025d48162002512565b8114620025e057600080fd5b50565b600081359050620025f481620025c9565b92915050565b600060ff82169050919050565b6200261281620025fa565b81146200261e57600080fd5b50565b600081359050620026328162002607565b92915050565b6000819050919050565b6200264d8162002638565b81146200265957600080fd5b50565b6000813590506200266d8162002642565b92915050565b600080600080600080600060e0888a031215620026955762002694620022db565b5b6000620026a58a828b0162002495565b9750506020620026b88a828b0162002495565b9650506040620026cb8a828b01620025e3565b9550506060620026de8a828b01620025e3565b9450506080620026f18a828b0162002621565b93505060a0620027048a828b016200265c565b92505060c0620027178a828b016200265c565b91505092959891949750929550565b60008115159050919050565b6200273d8162002726565b82525050565b60006020820190506200275a600083018462002732565b92915050565b600080604083850312156200277a5762002779620022db565b5b600083013567ffffffffffffffff8111156200279b576200279a620022e0565b5b620027a98582860162002414565b925050602083013567ffffffffffffffff811115620027cd57620027cc620022e0565b5b620027db8582860162002414565b9150509250929050565b600080600060608486031215620028015762002800620022db565b5b600084013567ffffffffffffffff811115620028225762002821620022e0565b5b620028308682870162002414565b9350506020620028438682870162002495565b92505060406200285686828701620025e3565b9150509250925092565b600060208284031215620028795762002878620022db565b5b6000620028898482850162002495565b91505092915050565b600080600060608486031215620028ae57620028ad620022db565b5b6000620028be8682870162002495565b9350506020620028d18682870162002495565b9250506040620028e486828701620025e3565b9150509250925092565b600081519050919050565b600082825260208201905092915050565b60005b838110156200292a5780820151818401526020810190506200290d565b60008484015250505050565b60006200294382620028ee565b6200294f8185620028f9565b9350620029618185602086016200290a565b6200296c81620022ef565b840191505092915050565b6000602082019050818103600083015262002993818462002936565b905092915050565b600081519050620029ac81620025c9565b92915050565b600060208284031215620029cb57620029ca620022db565b5b6000620029db848285016200299b565b91505092915050565b600081905092915050565b6000620029fc82620028ee565b62002a088185620029e4565b935062002a1a8185602086016200290a565b80840191505092915050565b600062002a348284620029ef565b915081905092915050565b62002a4a81620025fa565b82525050565b62002a5b8162002638565b82525050565b600060e08201905062002a78600083018a6200259b565b62002a8760208301896200259b565b62002a9660408301886200251c565b62002aa560608301876200251c565b62002ab4608083018662002a3f565b62002ac360a083018562002a50565b62002ad260c083018462002a50565b98975050505050505050565b600060408201905062002af560008301856200259b565b62002b0460208301846200251c565b9392505050565b6000604082019050818103600083015262002b27818562002936565b9050818103602083015262002b3d818462002936565b90509392505050565b7f4f776e61626c653a206e6577206f776e657220697320746865207a65726f206160008201527f6464726573730000000000000000000000000000000000000000000000000000602082015250565b600062002ba4602683620028f9565b915062002bb18262002b46565b604082019050919050565b6000602082019050818103600083015262002bd78162002b95565b9050919050565b7f4f776e61626c653a2063616c6c6572206973206e6f7420746865206f776e6572600082015250565b600062002c16602083620028f9565b915062002c238262002bde565b602082019050919050565b6000602082019050818103600083015262002c498162002c07565b905091905056fe6101606040523480156200001257600080fd5b5060405162003a9838038062003a9883398181016040528101906200003891906200052c565b81806040518060400160405280600181526020017f310000000000000000000000000000000000000000000000000000000000000081525084848160039081620000839190620007fc565b508060049081620000959190620007fc565b505050620000b8620000ac6200019760201b60201c565b6200019f60201b60201c565b620000d36006836200026560201b62000b751790919060201c565b6101208181525050620000f66007826200026560201b62000b751790919060201c565b6101408181525050818051906020012060e08181525050808051906020012061010081815250504660a0818152505062000135620002c260201b60201c565b608081815250503073ffffffffffffffffffffffffffffffffffffffff1660c08173ffffffffffffffffffffffffffffffffffffffff16815250505050506200018f674e58cd6a8c3f97d860c01b6200031f60201b60201c565b505062000ac9565b600033905090565b6000600560009054906101000a900473ffffffffffffffffffffffffffffffffffffffff16905081600560006101000a81548173ffffffffffffffffffffffffffffffffffffffff021916908373ffffffffffffffffffffffffffffffffffffffff1602179055508173ffffffffffffffffffffffffffffffffffffffff168173ffffffffffffffffffffffffffffffffffffffff167f8be0079c531659141344cd1fd0a4f28419497f9722a3daafe3b4186f6b6457e060405160405180910390a35050565b60006020835110156200028b5762000283836200032260201b60201c565b9050620002bc565b82620002a2836200038f60201b62000bb91760201c565b6000019081620002b39190620007fc565b5060ff60001b90505b92915050565b60007f8b73c3c69bb8fe3d512ecc4cf759cc79239f7b179b0ffacaa9a75d522b39400f60e0516101005146306040516020016200030495949392919062000954565b60405160208183030381529060405280519060200120905090565b50565b600080829050601f815111156200037257826040517f305a27a900000000000000000000000000000000000000000000000000000000815260040162000369919062000a03565b60405180910390fd5b805181620003809062000a59565b60001c1760001b915050919050565b6000819050919050565b6000604051905090565b600080fd5b600080fd5b600080fd5b600080fd5b6000601f19601f8301169050919050565b7f4e487b7100000000000000000000000000000000000000000000000000000000600052604160045260246000fd5b6200040282620003b7565b810181811067ffffffffffffffff82111715620004245762000423620003c8565b5b80604052505050565b60006200043962000399565b9050620004478282620003f7565b919050565b600067ffffffffffffffff8211156200046a5762000469620003c8565b5b6200047582620003b7565b9050602081019050919050565b60005b83811015620004a257808201518184015260208101905062000485565b60008484015250505050565b6000620004c5620004bf846200044c565b6200042d565b905082815260208101848484011115620004e457620004e3620003b2565b5b620004f184828562000482565b509392505050565b600082601f830112620005115762000510620003ad565b5b815162000523848260208601620004ae565b91505092915050565b60008060408385031215620005465762000545620003a3565b5b600083015167ffffffffffffffff811115620005675762000566620003a8565b5b6200057585828601620004f9565b925050602083015167ffffffffffffffff811115620005995762000598620003a8565b5b620005a785828601620004f9565b9150509250929050565b600081519050919050565b7f4e487b7100000000000000000000000000000000000000000000000000000000600052602260045260246000fd5b600060028204905060018216806200060457607f821691505b6020821081036200061a5762000619620005bc565b5b50919050565b60008190508160005260206000209050919050565b60006020601f8301049050919050565b600082821b905092915050565b600060088302620006847fffffffffffffffffffffffffffffffffffffffffffffffffffffffffffffffff8262000645565b62000690868362000645565b95508019841693508086168417925050509392505050565b6000819050919050565b6000819050919050565b6000620006dd620006d7620006d184620006a8565b620006b2565b620006a8565b9050919050565b6000819050919050565b620006f983620006bc565b620007116200070882620006e4565b84845462000652565b825550505050565b600090565b6200072862000719565b62000735818484620006ee565b505050565b5b818110156200075d57620007516000826200071e565b6001810190506200073b565b5050565b601f821115620007ac57620007768162000620565b620007818462000635565b8101602085101562000791578190505b620007a9620007a08562000635565b8301826200073a565b50505b505050565b600082821c905092915050565b6000620007d160001984600802620007b1565b1980831691505092915050565b6000620007ec8383620007be565b9150826002028217905092915050565b6200080782620005b1565b67ffffffffffffffff811115620008235762000822620003c8565b5b6200082f8254620005eb565b6200083c82828562000761565b600060209050601f8311600181146200087457600084156200085f578287015190505b6200086b8582620007de565b865550620008db565b601f198416620008848662000620565b60005b82811015620008ae5784890151825560018201915060208501945060208101905062000887565b86831015620008ce5784890151620008ca601f891682620007be565b8355505b6001600288020188555050505b505050505050565b6000819050919050565b620008f881620008e3565b82525050565b6200090981620006a8565b82525050565b600073ffffffffffffffffffffffffffffffffffffffff82169050919050565b60006200093c826200090f565b9050919050565b6200094e816200092f565b82525050565b600060a0820190506200096b6000830188620008ed565b6200097a6020830187620008ed565b620009896040830186620008ed565b620009986060830185620008fe565b620009a7608083018462000943565b9695505050505050565b600082825260208201905092915050565b6000620009cf82620005b1565b620009db8185620009b1565b9350620009ed81856020860162000482565b620009f881620003b7565b840191505092915050565b6000602082019050818103600083015262000a1f8184620009c2565b905092915050565b600081519050919050565b6000819050602082019050919050565b600062000a508251620008e3565b80915050919050565b600062000a668262000a27565b8262000a728462000a32565b905062000a7f8162000a42565b9250602082101562000ac25762000abd7fffffffffffffffffffffffffffffffffffffffffffffffffffffffffffffffff8360200360080262000645565b831692505b5050919050565b60805160a05160c05160e051610100516101205161014051612f7462000b246000396000610718015260006106e4015260006117d0015260006117af0152600061109a015260006110f0015260006111190152612f746000f3fe608060405234801561001057600080fd5b50600436106101475760003560e01c8063715018a6116100c857806395d89b411161008c578063d505accf11610066578063d505accf146103d2578063dd62ed3e146103ee578063f2fde38b1461041e57610147565b806395d89b4114610354578063a457c2d714610372578063a9059cbb146103a257610147565b8063715018a6146102bc57806379cc6790146102c65780637ecebe00146102e257806384b0196e146103125780638da5cb5b1461033657610147565b80633644e5151161010f5780633644e51514610206578063395093511461022457806340c10f191461025457806342966c681461027057806370a082311461028c57610147565b806306fdde031461014c578063095ea7b31461016a57806318160ddd1461019a57806323b872dd146101b8578063313ce567146101e8575b600080fd5b61015461043a565b6040516101619190611c13565b60405180910390f35b610184600480360381019061017f9190611cce565b6104cc565b6040516101919190611d29565b60405180910390f35b6101a26104ef565b6040516101af9190611d53565b60405180910390f35b6101d260048036038101906101cd9190611d6e565b6104f9565b6040516101df9190611d29565b60405180910390f35b6101f0610528565b6040516101fd9190611ddd565b60405180910390f35b61020e610531565b60405161021b9190611e11565b60405180910390f35b61023e60048036038101906102399190611cce565b610540565b60405161024b9190611d29565b60405180910390f35b61026e60048036038101906102699190611cce565b610577565b005b61028a60048036038101906102859190611e2c565b6105f1565b005b6102a660048036038101906102a19190611e59565b610605565b6040516102b39190611d53565b60405180910390f35b6102c461064d565b005b6102e060048036038101906102db9190611cce565b610661565b005b6102fc60048036038101906102f79190611e59565b610681565b6040516103099190611d53565b60405180910390f35b61031a6106d1565b60405161032d9796959493929190611f8e565b60405180910390f35b61033e6107d3565b60405161034b9190612012565b60405180910390f35b61035c6107fd565b6040516103699190611c13565b60405180910390f35b61038c60048036038101906103879190611cce565b61088f565b6040516103999190611d29565b60405180910390f35b6103bc60048036038101906103b79190611cce565b610906565b6040516103c99190611d29565b60405180910390f35b6103ec60048036038101906103e79190612085565b610929565b005b61040860048036038101906104039190612127565b610a6b565b6040516104159190611d53565b60405180910390f35b61043860048036038101906104339190611e59565b610af2565b005b60606003805461044990612196565b80601f016020809104026020016040519081016040528092919081815260200182805461047590612196565b80156104c25780601f10610497576101008083540402835291602001916104c2565b820191906000526020600020905b8154815290600101906020018083116104a557829003601f168201915b5050505050905090565b6000806104d7610bc3565b90506104e4818585610bcb565b600191505092915050565b6000600254905090565b600080610504610bc3565b9050610511858285610d94565b61051c858585610e20565b60019150509392505050565b60006012905090565b600061053b611096565b905090565b60008061054b610bc3565b905061056c81858561055d8589610a6b565b61056791906121f6565b610bcb565b600191505092915050565b61058b6746f6b21cddd11b7f60c01b61114d565b610593611150565b6105a767b978c3e92b055e8160c01b61114d565b6105bb67d6ea567f55feb56160c01b61114d565b6105cf6770301c9f234b4fda60c01b61114d565b6105e367945534efa047b49b60c01b61114d565b6105ed82826111ce565b5050565b6106026105fc610bc3565b82611324565b50565b60008060008373ffffffffffffffffffffffffffffffffffffffff1673ffffffffffffffffffffffffffffffffffffffff168152602001908152602001600020549050919050565b610655611150565b61065f60006114f1565b565b6106738261066d610bc3565b83610d94565b61067d8282611324565b5050565b60006106ca600860008473ffffffffffffffffffffffffffffffffffffffff1673ffffffffffffffffffffffffffffffffffffffff1681526020019081526020016000206115b7565b9050919050565b60006060806000806000606061071160067f00000000000000000000000000000000000000000000000000000000000000006115c590919063ffffffff16565b61074560077f00000000000000000000000000000000000000000000000000000000000000006115c590919063ffffffff16565b46306000801b600067ffffffffffffffff8111156107665761076561222a565b5b6040519080825280602002602001820160405280156107945781602001602082028036833780820191505090505b507f0f00000000000000000000000000000000000000000000000000000000000000959493929190965096509650965096509650965090919293949596565b6000600560009054906101000a900473ffffffffffffffffffffffffffffffffffffffff16905090565b60606004805461080c90612196565b80601f016020809104026020016040519081016040528092919081815260200182805461083890612196565b80156108855780601f1061085a57610100808354040283529160200191610885565b820191906000526020600020905b81548152906001019060200180831161086857829003601f168201915b5050505050905090565b60008061089a610bc3565b905060006108a88286610a6b565b9050838110156108ed576040517f08c379a00000000000000000000000000000000000000000000000000000000081526004016108e4906122cb565b60405180910390fd5b6108fa8286868403610bcb565b60019250505092915050565b600080610911610bc3565b905061091e818585610e20565b600191505092915050565b8342111561096c576040517f08c379a000000000000000000000000000000000000000000000000000000000815260040161096390612337565b60405180910390fd5b60007f6e71edae12b1b97f4d1f60370fef10105fa2faae0126114a169c64845d6126c988888861099b8c611675565b896040516020016109b196959493929190612357565b60405160208183030381529060405280519060200120905060006109d4826116d3565b905060006109e4828787876116ed565b90508973ffffffffffffffffffffffffffffffffffffffff168173ffffffffffffffffffffffffffffffffffffffff1614610a54576040517f08c379a0000000000000000000000000000000000000000000000000000000008152600401610a4b90612404565b60405180910390fd5b610a5f8a8a8a610bcb565b50505050505050505050565b6000600160008473ffffffffffffffffffffffffffffffffffffffff1673ffffffffffffffffffffffffffffffffffffffff16815260200190815260200160002060008373ffffffffffffffffffffffffffffffffffffffff1673ffffffffffffffffffffffffffffffffffffffff16815260200190815260200160002054905092915050565b610afa611150565b600073ffffffffffffffffffffffffffffffffffffffff168173ffffffffffffffffffffffffffffffffffffffff1603610b69576040517f08c379a0000000000000000000000000000000000000000000000000000000008152600401610b6090612496565b60405180910390fd5b610b72816114f1565b50565b6000602083511015610b9157610b8a83611718565b9050610bb3565b82610b9b83610bb9565b6000019081610baa9190612662565b5060ff60001b90505b92915050565b6000819050919050565b600033905090565b600073ffffffffffffffffffffffffffffffffffffffff168373ffffffffffffffffffffffffffffffffffffffff1603610c3a576040517f08c379a0000000000000000000000000000000000000000000000000000000008152600401610c31906127a6565b60405180910390fd5b600073ffffffffffffffffffffffffffffffffffffffff168273ffffffffffffffffffffffffffffffffffffffff1603610ca9576040517f08c379a0000000000000000000000000000000000000000000000000000000008152600401610ca090612838565b60405180910390fd5b80600160008573ffffffffffffffffffffffffffffffffffffffff1673ffffffffffffffffffffffffffffffffffffffff16815260200190815260200160002060008473ffffffffffffffffffffffffffffffffffffffff1673ffffffffffffffffffffffffffffffffffffffff168152602001908152602001600020819055508173ffffffffffffffffffffffffffffffffffffffff168373ffffffffffffffffffffffffffffffffffffffff167f8c5be1e5ebec7d5bd14f71427d1e84f3dd0314c0f7b2291e5b200ac8c7c3b92583604051610d879190611d53565b60405180910390a3505050565b6000610da08484610a6b565b90507fffffffffffffffffffffffffffffffffffffffffffffffffffffffffffffffff8114610e1a5781811015610e0c576040517f08c379a0000000000000000000000000000000000000000000000000000000008152600401610e03906128a4565b60405180910390fd5b610e198484848403610bcb565b5b50505050565b600073ffffffffffffffffffffffffffffffffffffffff168373ffffffffffffffffffffffffffffffffffffffff1603610e8f576040517f08c379a0000000000000000000000000000000000000000000000000000000008152600401610e8690612936565b60405180910390fd5b600073ffffffffffffffffffffffffffffffffffffffff168273ffffffffffffffffffffffffffffffffffffffff1603610efe576040517f08c379a0000000000000000000000000000000000000000000000000000000008152600401610ef5906129c8565b60405180910390fd5b610f09838383611780565b60008060008573ffffffffffffffffffffffffffffffffffffffff1673ffffffffffffffffffffffffffffffffffffffff16815260200190815260200160002054905081811015610f8f576040517f08c379a0000000000000000000000000000000000000000000000000000000008152600401610f8690612a5a565b60405180910390fd5b8181036000808673ffffffffffffffffffffffffffffffffffffffff1673ffffffffffffffffffffffffffffffffffffffff16815260200190815260200160002081905550816000808573ffffffffffffffffffffffffffffffffffffffff1673ffffffffffffffffffffffffffffffffffffffff168152602001908152602001600020600082825401925050819055508273ffffffffffffffffffffffffffffffffffffffff168473ffffffffffffffffffffffffffffffffffffffff167fddf252ad1be2c89b69c2b068fc378daa952ba7f163c4a11628f55a4df523b3ef8460405161107d9190611d53565b60405180910390a3611090848484611785565b50505050565b60007f000000000000000000000000000000000000000000000000000000000000000073ffffffffffffffffffffffffffffffffffffffff163073ffffffffffffffffffffffffffffffffffffffff1614801561111257507f000000000000000000000000000000000000000000000000000000000000000046145b1561113f577f0000000000000000000000000000000000000000000000000000000000000000905061114a565b61114761178a565b90505b90565b50565b611158610bc3565b73ffffffffffffffffffffffffffffffffffffffff166111766107d3565b73ffffffffffffffffffffffffffffffffffffffff16146111cc576040517f08c379a00000000000000000000000000000000000000000000000000000000081526004016111c390612ac6565b60405180910390fd5b565b600073ffffffffffffffffffffffffffffffffffffffff168273ffffffffffffffffffffffffffffffffffffffff160361123d576040517f08c379a000000000000000000000000000000000000000000000000000000000815260040161123490612b32565b60405180910390fd5b61124960008383611780565b806002600082825461125b91906121f6565b92505081905550806000808473ffffffffffffffffffffffffffffffffffffffff1673ffffffffffffffffffffffffffffffffffffffff168152602001908152602001600020600082825401925050819055508173ffffffffffffffffffffffffffffffffffffffff16600073ffffffffffffffffffffffffffffffffffffffff167fddf252ad1be2c89b69c2b068fc378daa952ba7f163c4a11628f55a4df523b3ef8360405161130c9190611d53565b60405180910390a361132060008383611785565b5050565b600073ffffffffffffffffffffffffffffffffffffffff168273ffffffffffffffffffffffffffffffffffffffff1603611393576040517f08c379a000000000000000000000000000000000000000000000000000000000815260040161138a90612bc4565b60405180910390fd5b61139f82600083611780565b60008060008473ffffffffffffffffffffffffffffffffffffffff1673ffffffffffffffffffffffffffffffffffffffff16815260200190815260200160002054905081811015611425576040517f08c379a000000000000000000000000000000000000000000000000000000000815260040161141c90612c56565b60405180910390fd5b8181036000808573ffffffffffffffffffffffffffffffffffffffff1673ffffffffffffffffffffffffffffffffffffffff1681526020019081526020016000208190555081600260008282540392505081905550600073ffffffffffffffffffffffffffffffffffffffff168373ffffffffffffffffffffffffffffffffffffffff167fddf252ad1be2c89b69c2b068fc378daa952ba7f163c4a11628f55a4df523b3ef846040516114d89190611d53565b60405180910390a36114ec83600084611785565b505050565b6000600560009054906101000a900473ffffffffffffffffffffffffffffffffffffffff16905081600560006101000a81548173ffffffffffffffffffffffffffffffffffffffff021916908373ffffffffffffffffffffffffffffffffffffffff1602179055508173ffffffffffffffffffffffffffffffffffffffff168173ffffffffffffffffffffffffffffffffffffffff167f8be0079c531659141344cd1fd0a4f28419497f9722a3daafe3b4186f6b6457e060405160405180910390a35050565b600081600001549050919050565b606060ff60001b83146115e2576115db83611820565b905061166f565b8180546115ee90612196565b80601f016020809104026020016040519081016040528092919081815260200182805461161a90612196565b80156116675780601f1061163c57610100808354040283529160200191611667565b820191906000526020600020905b81548152906001019060200180831161164a57829003601f168201915b505050505090505b92915050565b600080600860008473ffffffffffffffffffffffffffffffffffffffff1673ffffffffffffffffffffffffffffffffffffffff16815260200190815260200160002090506116c2816115b7565b91506116cd81611894565b50919050565b60006116e66116e0611096565b836118aa565b9050919050565b60008060006116fe878787876118eb565b9150915061170b816119cd565b8192505050949350505050565b600080829050601f8151111561176557826040517f305a27a900000000000000000000000000000000000000000000000000000000815260040161175c9190611c13565b60405180910390fd5b80518161177190612ca6565b60001c1760001b915050919050565b505050565b505050565b60007f8b73c3c69bb8fe3d512ecc4cf759cc79239f7b179b0ffacaa9a75d522b39400f7f00000000000000000000000000000000000000000000000000000000000000007f00000000000000000000000000000000000000000000000000000000000000004630604051602001611805959493929190612d0d565b60405160208183030381529060405280519060200120905090565b6060600061182d83611b33565b90506000602067ffffffffffffffff81111561184c5761184b61222a565b5b6040519080825280601f01601f19166020018201604052801561187e5781602001600182028036833780820191505090505b5090508181528360208201528092505050919050565b6001816000016000828254019250508190555050565b60006040517f190100000000000000000000000000000000000000000000000000000000000081528360028201528260228201526042812091505092915050565b6000807f7fffffffffffffffffffffffffffffff5d576e7357a4501ddfe92f46681b20a08360001c11156119265760006003915091506119c4565b60006001878787876040516000815260200160405260405161194b9493929190612d60565b6020604051602081039080840390855afa15801561196d573d6000803e3d6000fd5b505050602060405103519050600073ffffffffffffffffffffffffffffffffffffffff168173ffffffffffffffffffffffffffffffffffffffff16036119bb576000600192509250506119c4565b80600092509250505b94509492505050565b600060048111156119e1576119e0612da5565b5b8160048111156119f4576119f3612da5565b5b0315611b305760016004811115611a0e57611a0d612da5565b5b816004811115611a2157611a20612da5565b5b03611a61576040517f08c379a0000000000000000000000000000000000000000000000000000000008152600401611a5890612e20565b60405180910390fd5b60026004811115611a7557611a74612da5565b5b816004811115611a8857611a87612da5565b5b03611ac8576040517f08c379a0000000000000000000000000000000000000000000000000000000008152600401611abf90612e8c565b60405180910390fd5b60036004811115611adc57611adb612da5565b5b816004811115611aef57611aee612da5565b5b03611b2f576040517f08c379a0000000000000000000000000000000000000000000000000000000008152600401611b2690612f1e565b60405180910390fd5b5b50565b60008060ff8360001c169050601f811115611b7a576040517fb3512b0c00000000000000000000000000000000000000000000000000000000815260040160405180910390fd5b80915050919050565b600081519050919050565b600082825260208201905092915050565b60005b83811015611bbd578082015181840152602081019050611ba2565b60008484015250505050565b6000601f19601f8301169050919050565b6000611be582611b83565b611bef8185611b8e565b9350611bff818560208601611b9f565b611c0881611bc9565b840191505092915050565b60006020820190508181036000830152611c2d8184611bda565b905092915050565b600080fd5b600073ffffffffffffffffffffffffffffffffffffffff82169050919050565b6000611c6582611c3a565b9050919050565b611c7581611c5a565b8114611c8057600080fd5b50565b600081359050611c9281611c6c565b92915050565b6000819050919050565b611cab81611c98565b8114611cb657600080fd5b50565b600081359050611cc881611ca2565b92915050565b60008060408385031215611ce557611ce4611c35565b5b6000611cf385828601611c83565b9250506020611d0485828601611cb9565b9150509250929050565b60008115159050919050565b611d2381611d0e565b82525050565b6000602082019050611d3e6000830184611d1a565b92915050565b611d4d81611c98565b82525050565b6000602082019050611d686000830184611d44565b92915050565b600080600060608486031215611d8757611d86611c35565b5b6000611d9586828701611c83565b9350506020611da686828701611c83565b9250506040611db786828701611cb9565b9150509250925092565b600060ff82169050919050565b611dd781611dc1565b82525050565b6000602082019050611df26000830184611dce565b92915050565b6000819050919050565b611e0b81611df8565b82525050565b6000602082019050611e266000830184611e02565b92915050565b600060208284031215611e4257611e41611c35565b5b6000611e5084828501611cb9565b91505092915050565b600060208284031215611e6f57611e6e611c35565b5b6000611e7d84828501611c83565b91505092915050565b60007fff0000000000000000000000000000000000000000000000000000000000000082169050919050565b611ebb81611e86565b82525050565b611eca81611c5a565b82525050565b600081519050919050565b600082825260208201905092915050565b6000819050602082019050919050565b611f0581611c98565b82525050565b6000611f178383611efc565b60208301905092915050565b6000602082019050919050565b6000611f3b82611ed0565b611f458185611edb565b9350611f5083611eec565b8060005b83811015611f81578151611f688882611f0b565b9750611f7383611f23565b925050600181019050611f54565b5085935050505092915050565b600060e082019050611fa3600083018a611eb2565b8181036020830152611fb58189611bda565b90508181036040830152611fc98188611bda565b9050611fd86060830187611d44565b611fe56080830186611ec1565b611ff260a0830185611e02565b81810360c08301526120048184611f30565b905098975050505050505050565b60006020820190506120276000830184611ec1565b92915050565b61203681611dc1565b811461204157600080fd5b50565b6000813590506120538161202d565b92915050565b61206281611df8565b811461206d57600080fd5b50565b60008135905061207f81612059565b92915050565b600080600080600080600060e0888a0312156120a4576120a3611c35565b5b60006120b28a828b01611c83565b97505060206120c38a828b01611c83565b96505060406120d48a828b01611cb9565b95505060606120e58a828b01611cb9565b94505060806120f68a828b01612044565b93505060a06121078a828b01612070565b92505060c06121188a828b01612070565b91505092959891949750929550565b6000806040838503121561213e5761213d611c35565b5b600061214c85828601611c83565b925050602061215d85828601611c83565b9150509250929050565b7f4e487b7100000000000000000000000000000000000000000000000000000000600052602260045260246000fd5b600060028204905060018216806121ae57607f821691505b6020821081036121c1576121c0612167565b5b50919050565b7f4e487b7100000000000000000000000000000000000000000000000000000000600052601160045260246000fd5b600061220182611c98565b915061220c83611c98565b9250828201905080821115612224576122236121c7565b5b92915050565b7f4e487b7100000000000000000000000000000000000000000000000000000000600052604160045260246000fd5b7f45524332303a2064656372656173656420616c6c6f77616e63652062656c6f7760008201527f207a65726f000000000000000000000000000000000000000000000000000000602082015250565b60006122b5602583611b8e565b91506122c082612259565b604082019050919050565b600060208201905081810360008301526122e4816122a8565b9050919050565b7f45524332305065726d69743a206578706972656420646561646c696e65000000600082015250565b6000612321601d83611b8e565b915061232c826122eb565b602082019050919050565b6000602082019050818103600083015261235081612314565b9050919050565b600060c08201905061236c6000830189611e02565b6123796020830188611ec1565b6123866040830187611ec1565b6123936060830186611d44565b6123a06080830185611d44565b6123ad60a0830184611d44565b979650505050505050565b7f45524332305065726d69743a20696e76616c6964207369676e61747572650000600082015250565b60006123ee601e83611b8e565b91506123f9826123b8565b602082019050919050565b6000602082019050818103600083015261241d816123e1565b9050919050565b7f4f776e61626c653a206e6577206f776e657220697320746865207a65726f206160008201527f6464726573730000000000000000000000000000000000000000000000000000602082015250565b6000612480602683611b8e565b915061248b82612424565b604082019050919050565b600060208201905081810360008301526124af81612473565b9050919050565b60008190508160005260206000209050919050565b60006020601f8301049050919050565b600082821b905092915050565b6000600883026125187fffffffffffffffffffffffffffffffffffffffffffffffffffffffffffffffff826124db565b61252286836124db565b95508019841693508086168417925050509392505050565b6000819050919050565b600061255f61255a61255584611c98565b61253a565b611c98565b9050919050565b6000819050919050565b61257983612544565b61258d61258582612566565b8484546124e8565b825550505050565b600090565b6125a2612595565b6125ad818484612570565b505050565b5b818110156125d1576125c660008261259a565b6001810190506125b3565b5050565b601f821115612616576125e7816124b6565b6125f0846124cb565b810160208510156125ff578190505b61261361260b856124cb565b8301826125b2565b50505b505050565b600082821c905092915050565b60006126396000198460080261261b565b1980831691505092915050565b60006126528383612628565b9150826002028217905092915050565b61266b82611b83565b67ffffffffffffffff8111156126845761268361222a565b5b61268e8254612196565b6126998282856125d5565b600060209050601f8311600181146126cc57600084156126ba578287015190505b6126c48582612646565b86555061272c565b601f1984166126da866124b6565b60005b82811015612702578489015182556001820191506020850194506020810190506126dd565b8683101561271f578489015161271b601f891682612628565b8355505b6001600288020188555050505b505050505050565b7f45524332303a20617070726f76652066726f6d20746865207a65726f2061646460008201527f7265737300000000000000000000000000000000000000000000000000000000602082015250565b6000612790602483611b8e565b915061279b82612734565b604082019050919050565b600060208201905081810360008301526127bf81612783565b9050919050565b7f45524332303a20617070726f766520746f20746865207a65726f20616464726560008201527f7373000000000000000000000000000000000000000000000000000000000000602082015250565b6000612822602283611b8e565b915061282d826127c6565b604082019050919050565b6000602082019050818103600083015261285181612815565b9050919050565b7f45524332303a20696e73756666696369656e7420616c6c6f77616e6365000000600082015250565b600061288e601d83611b8e565b915061289982612858565b602082019050919050565b600060208201905081810360008301526128bd81612881565b9050919050565b7f45524332303a207472616e736665722066726f6d20746865207a65726f20616460008201527f6472657373000000000000000000000000000000000000000000000000000000602082015250565b6000612920602583611b8e565b915061292b826128c4565b604082019050919050565b6000602082019050818103600083015261294f81612913565b9050919050565b7f45524332303a207472616e7366657220746f20746865207a65726f206164647260008201527f6573730000000000000000000000000000000000000000000000000000000000602082015250565b60006129b2602383611b8e565b91506129bd82612956565b604082019050919050565b600060208201905081810360008301526129e1816129a5565b9050919050565b7f45524332303a207472616e7366657220616d6f756e742065786365656473206260008201527f616c616e63650000000000000000000000000000000000000000000000000000602082015250565b6000612a44602683611b8e565b9150612a4f826129e8565b604082019050919050565b60006020820190508181036000830152612a7381612a37565b9050919050565b7f4f776e61626c653a2063616c6c6572206973206e6f7420746865206f776e6572600082015250565b6000612ab0602083611b8e565b9150612abb82612a7a565b602082019050919050565b60006020820190508181036000830152612adf81612aa3565b9050919050565b7f45524332303a206d696e7420746f20746865207a65726f206164647265737300600082015250565b6000612b1c601f83611b8e565b9150612b2782612ae6565b602082019050919050565b60006020820190508181036000830152612b4b81612b0f565b9050919050565b7f45524332303a206275726e2066726f6d20746865207a65726f2061646472657360008201527f7300000000000000000000000000000000000000000000000000000000000000602082015250565b6000612bae602183611b8e565b9150612bb982612b52565b604082019050919050565b60006020820190508181036000830152612bdd81612ba1565b9050919050565b7f45524332303a206275726e20616d6f756e7420657863656564732062616c616e60008201527f6365000000000000000000000000000000000000000000000000000000000000602082015250565b6000612c40602283611b8e565b9150612c4b82612be4565b604082019050919050565b60006020820190508181036000830152612c6f81612c33565b9050919050565b600081519050919050565b6000819050602082019050919050565b6000612c9d8251611df8565b80915050919050565b6000612cb182612c76565b82612cbb84612c81565b9050612cc681612c91565b92506020821015612d0657612d017fffffffffffffffffffffffffffffffffffffffffffffffffffffffffffffffff836020036008026124db565b831692505b5050919050565b600060a082019050612d226000830188611e02565b612d2f6020830187611e02565b612d3c6040830186611e02565b612d496060830185611d44565b612d566080830184611ec1565b9695505050505050565b6000608082019050612d756000830187611e02565b612d826020830186611dce565b612d8f6040830185611e02565b612d9c6060830184611e02565b95945050505050565b7f4e487b7100000000000000000000000000000000000000000000000000000000600052602160045260246000fd5b7f45434453413a20696e76616c6964207369676e61747572650000000000000000600082015250565b6000612e0a601883611b8e565b9150612e1582612dd4565b602082019050919050565b60006020820190508181036000830152612e3981612dfd565b9050919050565b7f45434453413a20696e76616c6964207369676e6174757265206c656e67746800600082015250565b6000612e76601f83611b8e565b9150612e8182612e40565b602082019050919050565b60006020820190508181036000830152612ea581612e69565b9050919050565b7f45434453413a20696e76616c6964207369676e6174757265202773272076616c60008201527f7565000000000000000000000000000000000000000000000000000000000000602082015250565b6000612f08602283611b8e565b9150612f1382612eac565b604082019050919050565b60006020820190508181036000830152612f3781612efb565b905091905056fea26469706673582212209b5bfa7c51f7568c8e08d26a6cae2b24ff959d5496ce96c226fc38c210f3170d64736f6c63430008110033a264697066735822122022eff9dd53134305c3425afc56e47501504050535f8637d402545300e5acf2bf64736f6c63430008110033","opcodes":"PUSH1 0x80 PUSH1 0x40 MSTORE PUSH7 0x38D7EA4C68000 PUSH1 0x2 SSTORE CALLVALUE DUP1 ISZERO PUSH3 0x1C JUMPI PUSH1 0x0 DUP1 REVERT JUMPDEST POP PUSH3 0x39 PUSH8 0x2387EDADCA5BF705 PUSH1 0xC0 SHL PUSH3 0x114 PUSH1 0x20 SHL PUSH1 0x20 SHR JUMP JUMPDEST PUSH3 0x55 PUSH8 0x8057DDE6B6155CE8 PUSH1 0xC0 SHL PUSH3 0x114 PUSH1 0x20 SHL PUSH1 0x20 SHR JUMP JUMPDEST PUSH3 0x71 PUSH8 0x5A3B650828C5E3C4 PUSH1 0xC0 SHL PUSH3 0x114 PUSH1 0x20 SHL PUSH1 0x20 SHR JUMP JUMPDEST PUSH3 0x86 PUSH1 0x0 DUP1 SHL CALLER PUSH3 0x117 PUSH1 0x20 SHL PUSH1 0x20 SHR JUMP JUMPDEST PUSH3 0xA2 PUSH8 0x72C92DAF6D917EAF PUSH1 0xC0 SHL PUSH3 0x114 PUSH1 0x20 SHL PUSH1 0x20 SHR JUMP JUMPDEST PUSH1 0x40 MLOAD PUSH3 0xB0 SWAP1 PUSH3 0x27A JUMP JUMPDEST PUSH1 0x40 MLOAD DUP1 SWAP2 SUB SWAP1 PUSH1 0x0 CREATE DUP1 ISZERO DUP1 ISZERO PUSH3 0xCD JUMPI RETURNDATASIZE PUSH1 0x0 DUP1 RETURNDATACOPY RETURNDATASIZE PUSH1 0x0 REVERT JUMPDEST POP PUSH1 0x1 PUSH1 0x0 PUSH2 0x100 EXP DUP2 SLOAD DUP2 PUSH20 0xFFFFFFFFFFFFFFFFFFFFFFFFFFFFFFFFFFFFFFFF MUL NOT AND SWAP1 DUP4 PUSH20 0xFFFFFFFFFFFFFFFFFFFFFFFFFFFFFFFFFFFFFFFF AND MUL OR SWAP1 SSTORE POP PUSH3 0x288 JUMP JUMPDEST POP JUMP JUMPDEST PUSH3 0x129 DUP3 DUP3 PUSH3 0x208 PUSH1 0x20 SHL PUSH1 0x20 SHR JUMP JUMPDEST PUSH3 0x204 JUMPI PUSH1 0x1 PUSH1 0x0 DUP1 DUP5 DUP2 MSTORE PUSH1 0x20 ADD SWAP1 DUP2 MSTORE PUSH1 0x20 ADD PUSH1 0x0 KECCAK256 PUSH1 0x0 ADD PUSH1 0x0 DUP4 PUSH20 0xFFFFFFFFFFFFFFFFFFFFFFFFFFFFFFFFFFFFFFFF AND PUSH20 0xFFFFFFFFFFFFFFFFFFFFFFFFFFFFFFFFFFFFFFFF AND DUP2 MSTORE PUSH1 0x20 ADD SWAP1 DUP2 MSTORE PUSH1 0x20 ADD PUSH1 0x0 KECCAK256 PUSH1 0x0 PUSH2 0x100 EXP DUP2 SLOAD DUP2 PUSH1 0xFF MUL NOT AND SWAP1 DUP4 ISZERO ISZERO MUL OR SWAP1 SSTORE POP PUSH3 0x1A9 PUSH3 0x272 PUSH1 0x20 SHL PUSH1 0x20 SHR JUMP JUMPDEST PUSH20 0xFFFFFFFFFFFFFFFFFFFFFFFFFFFFFFFFFFFFFFFF AND DUP2 PUSH20 0xFFFFFFFFFFFFFFFFFFFFFFFFFFFFFFFFFFFFFFFF AND DUP4 PUSH32 0x2F8788117E7EFF1D82E926EC794901D17C78024A50270940304540A733656F0D PUSH1 0x40 MLOAD PUSH1 0x40 MLOAD DUP1 SWAP2 SUB SWAP1 LOG4 JUMPDEST POP POP JUMP JUMPDEST PUSH1 0x0 DUP1 PUSH1 0x0 DUP5 DUP2 MSTORE PUSH1 0x20 ADD SWAP1 DUP2 MSTORE PUSH1 0x20 ADD PUSH1 0x0 KECCAK256 PUSH1 0x0 ADD PUSH1 0x0 DUP4 PUSH20 0xFFFFFFFFFFFFFFFFFFFFFFFFFFFFFFFFFFFFFFFF AND PUSH20 0xFFFFFFFFFFFFFFFFFFFFFFFFFFFFFFFFFFFFFFFF AND DUP2 MSTORE PUSH1 0x20 ADD SWAP1 DUP2 MSTORE PUSH1 0x20 ADD PUSH1 0x0 KECCAK256 PUSH1 0x0 SWAP1 SLOAD SWAP1 PUSH2 0x100 EXP SWAP1 DIV PUSH1 0xFF AND SWAP1 POP SWAP3 SWAP2 POP POP JUMP JUMPDEST PUSH1 0x0 CALLER SWAP1 POP SWAP1 JUMP JUMPDEST PUSH2 0x6832 DUP1 PUSH3 0x44E1 DUP4 CODECOPY ADD SWAP1 JUMP JUMPDEST PUSH2 0x4249 DUP1 PUSH3 0x298 PUSH1 0x0 CODECOPY PUSH1 0x0 RETURN INVALID PUSH1 0x80 PUSH1 0x40 MSTORE CALLVALUE DUP1 ISZERO PUSH2 0x10 JUMPI PUSH1 0x0 DUP1 REVERT JUMPDEST POP PUSH1 0x4 CALLDATASIZE LT PUSH2 0x116 JUMPI PUSH1 0x0 CALLDATALOAD PUSH1 0xE0 SHR DUP1 PUSH4 0xA217FDDF GT PUSH2 0xA2 JUMPI DUP1 PUSH4 0xC45A0155 GT PUSH2 0x71 JUMPI DUP1 PUSH4 0xC45A0155 EQ PUSH2 0x2DB JUMPI DUP1 PUSH4 0xD547741F EQ PUSH2 0x2F9 JUMPI DUP1 PUSH4 0xD5AFD6F6 EQ PUSH2 0x315 JUMPI DUP1 PUSH4 0xDDCA3F43 EQ PUSH2 0x331 JUMPI DUP1 PUSH4 0xE4F7E720 EQ PUSH2 0x34F JUMPI PUSH2 0x116 JUMP JUMPDEST DUP1 PUSH4 0xA217FDDF EQ PUSH2 0x255 JUMPI DUP1 PUSH4 0xA5E83BCB EQ PUSH2 0x273 JUMPI DUP1 PUSH4 0xB8539996 EQ PUSH2 0x2A3 JUMPI DUP1 PUSH4 0xC0499D9A EQ PUSH2 0x2BF JUMPI PUSH2 0x116 JUMP JUMPDEST DUP1 PUSH4 0x36568ABE GT PUSH2 0xE9 JUMPI DUP1 PUSH4 0x36568ABE EQ PUSH2 0x1B5 JUMPI DUP1 PUSH4 0x69FE0E2D EQ PUSH2 0x1D1 JUMPI DUP1 PUSH4 0x91D14854 EQ PUSH2 0x1ED JUMPI DUP1 PUSH4 0x99472C33 EQ PUSH2 0x21D JUMPI DUP1 PUSH4 0x9D5777F9 EQ PUSH2 0x239 JUMPI PUSH2 0x116 JUMP JUMPDEST DUP1 PUSH4 0x1FFC9A7 EQ PUSH2 0x11B JUMPI DUP1 PUSH4 0x2483E715 EQ PUSH2 0x14B JUMPI DUP1 PUSH4 0x248A9CA3 EQ PUSH2 0x169 JUMPI DUP1 PUSH4 0x2F2FF15D EQ PUSH2 0x199 JUMPI JUMPDEST PUSH1 0x0 DUP1 REVERT JUMPDEST PUSH2 0x135 PUSH1 0x4 DUP1 CALLDATASIZE SUB DUP2 ADD SWAP1 PUSH2 0x130 SWAP2 SWAP1 PUSH2 0x3323 JUMP JUMPDEST PUSH2 0x36B JUMP JUMPDEST PUSH1 0x40 MLOAD PUSH2 0x142 SWAP2 SWAP1 PUSH2 0x336B JUMP JUMPDEST PUSH1 0x40 MLOAD DUP1 SWAP2 SUB SWAP1 RETURN JUMPDEST PUSH2 0x153 PUSH2 0x3E5 JUMP JUMPDEST PUSH1 0x40 MLOAD PUSH2 0x160 SWAP2 SWAP1 PUSH2 0x339F JUMP JUMPDEST PUSH1 0x40 MLOAD DUP1 SWAP2 SUB SWAP1 RETURN JUMPDEST PUSH2 0x183 PUSH1 0x4 DUP1 CALLDATASIZE SUB DUP2 ADD SWAP1 PUSH2 0x17E SWAP2 SWAP1 PUSH2 0x33E6 JUMP JUMPDEST PUSH2 0x409 JUMP JUMPDEST PUSH1 0x40 MLOAD PUSH2 0x190 SWAP2 SWAP1 PUSH2 0x339F JUMP JUMPDEST PUSH1 0x40 MLOAD DUP1 SWAP2 SUB SWAP1 RETURN JUMPDEST PUSH2 0x1B3 PUSH1 0x4 DUP1 CALLDATASIZE SUB DUP2 ADD SWAP1 PUSH2 0x1AE SWAP2 SWAP1 PUSH2 0x3471 JUMP JUMPDEST PUSH2 0x428 JUMP JUMPDEST STOP JUMPDEST PUSH2 0x1CF PUSH1 0x4 DUP1 CALLDATASIZE SUB DUP2 ADD SWAP1 PUSH2 0x1CA SWAP2 SWAP1 PUSH2 0x3471 JUMP JUMPDEST PUSH2 0x449 JUMP JUMPDEST STOP JUMPDEST PUSH2 0x1EB PUSH1 0x4 DUP1 CALLDATASIZE SUB DUP2 ADD SWAP1 PUSH2 0x1E6 SWAP2 SWAP1 PUSH2 0x34E7 JUMP JUMPDEST PUSH2 0x4CC JUMP JUMPDEST STOP JUMPDEST PUSH2 0x207 PUSH1 0x4 DUP1 CALLDATASIZE SUB DUP2 ADD SWAP1 PUSH2 0x202 SWAP2 SWAP1 PUSH2 0x3471 JUMP JUMPDEST PUSH2 0x654 JUMP JUMPDEST PUSH1 0x40 MLOAD PUSH2 0x214 SWAP2 SWAP1 PUSH2 0x336B JUMP JUMPDEST PUSH1 0x40 MLOAD DUP1 SWAP2 SUB SWAP1 RETURN JUMPDEST PUSH2 0x237 PUSH1 0x4 DUP1 CALLDATASIZE SUB DUP2 ADD SWAP1 PUSH2 0x232 SWAP2 SWAP1 PUSH2 0x3514 JUMP JUMPDEST PUSH2 0x6BE JUMP JUMPDEST STOP JUMPDEST PUSH2 0x253 PUSH1 0x4 DUP1 CALLDATASIZE SUB DUP2 ADD SWAP1 PUSH2 0x24E SWAP2 SWAP1 PUSH2 0x36C1 JUMP JUMPDEST PUSH2 0xB03 JUMP JUMPDEST STOP JUMPDEST PUSH2 0x25D PUSH2 0x11FC JUMP JUMPDEST PUSH1 0x40 MLOAD PUSH2 0x26A SWAP2 SWAP1 PUSH2 0x339F JUMP JUMPDEST PUSH1 0x40 MLOAD DUP1 SWAP2 SUB SWAP1 RETURN JUMPDEST PUSH2 0x28D PUSH1 0x4 DUP1 CALLDATASIZE SUB DUP2 ADD SWAP1 PUSH2 0x288 SWAP2 SWAP1 PUSH2 0x3730 JUMP JUMPDEST PUSH2 0x1203 JUMP JUMPDEST PUSH1 0x40 MLOAD PUSH2 0x29A SWAP2 SWAP1 PUSH2 0x376C JUMP JUMPDEST PUSH1 0x40 MLOAD DUP1 SWAP2 SUB SWAP1 RETURN JUMPDEST PUSH2 0x2BD PUSH1 0x4 DUP1 CALLDATASIZE SUB DUP2 ADD SWAP1 PUSH2 0x2B8 SWAP2 SWAP1 PUSH2 0x37C0 JUMP JUMPDEST PUSH2 0x1236 JUMP JUMPDEST STOP JUMPDEST PUSH2 0x2D9 PUSH1 0x4 DUP1 CALLDATASIZE SUB DUP2 ADD SWAP1 PUSH2 0x2D4 SWAP2 SWAP1 PUSH2 0x3876 JUMP JUMPDEST PUSH2 0x171E JUMP JUMPDEST STOP JUMPDEST PUSH2 0x2E3 PUSH2 0x1C59 JUMP JUMPDEST PUSH1 0x40 MLOAD PUSH2 0x2F0 SWAP2 SWAP1 PUSH2 0x3928 JUMP JUMPDEST PUSH1 0x40 MLOAD DUP1 SWAP2 SUB SWAP1 RETURN JUMPDEST PUSH2 0x313 PUSH1 0x4 DUP1 CALLDATASIZE SUB DUP2 ADD SWAP1 PUSH2 0x30E SWAP2 SWAP1 PUSH2 0x3471 JUMP JUMPDEST PUSH2 0x1C7F JUMP JUMPDEST STOP JUMPDEST PUSH2 0x32F PUSH1 0x4 DUP1 CALLDATASIZE SUB DUP2 ADD SWAP1 PUSH2 0x32A SWAP2 SWAP1 PUSH2 0x3943 JUMP JUMPDEST PUSH2 0x1CA0 JUMP JUMPDEST STOP JUMPDEST PUSH2 0x339 PUSH2 0x23A5 JUMP JUMPDEST PUSH1 0x40 MLOAD PUSH2 0x346 SWAP2 SWAP1 PUSH2 0x3A10 JUMP JUMPDEST PUSH1 0x40 MLOAD DUP1 SWAP2 SUB SWAP1 RETURN JUMPDEST PUSH2 0x369 PUSH1 0x4 DUP1 CALLDATASIZE SUB DUP2 ADD SWAP1 PUSH2 0x364 SWAP2 SWAP1 PUSH2 0x3A2B JUMP JUMPDEST PUSH2 0x23AB JUMP JUMPDEST STOP JUMPDEST PUSH1 0x0 PUSH32 0x7965DB0B00000000000000000000000000000000000000000000000000000000 PUSH28 0xFFFFFFFFFFFFFFFFFFFFFFFFFFFFFFFFFFFFFFFFFFFFFFFFFFFFFFFF NOT AND DUP3 PUSH28 0xFFFFFFFFFFFFFFFFFFFFFFFFFFFFFFFFFFFFFFFFFFFFFFFFFFFFFFFF NOT AND EQ DUP1 PUSH2 0x3DE JUMPI POP PUSH2 0x3DD DUP3 PUSH2 0x2D7F JUMP JUMPDEST JUMPDEST SWAP1 POP SWAP2 SWAP1 POP JUMP JUMPDEST PUSH32 0xAB4F864E5201B0FDE9B5EE3E4CF96384802B0FFDFCF7F9DE4699CE21A30AFC4F DUP2 JUMP JUMPDEST PUSH1 0x0 DUP1 PUSH1 0x0 DUP4 DUP2 MSTORE PUSH1 0x20 ADD SWAP1 DUP2 MSTORE PUSH1 0x20 ADD PUSH1 0x0 KECCAK256 PUSH1 0x1 ADD SLOAD SWAP1 POP SWAP2 SWAP1 POP JUMP JUMPDEST PUSH2 0x431 DUP3 PUSH2 0x409 JUMP JUMPDEST PUSH2 0x43A DUP2 PUSH2 0x2DE9 JUMP JUMPDEST PUSH2 0x444 DUP4 DUP4 PUSH2 0x2DFD JUMP JUMPDEST POP POP POP JUMP JUMPDEST PUSH2 0x451 PUSH2 0x2EDD JUMP JUMPDEST PUSH20 0xFFFFFFFFFFFFFFFFFFFFFFFFFFFFFFFFFFFFFFFF AND DUP2 PUSH20 0xFFFFFFFFFFFFFFFFFFFFFFFFFFFFFFFFFFFFFFFF AND EQ PUSH2 0x4BE JUMPI PUSH1 0x40 MLOAD PUSH32 0x8C379A000000000000000000000000000000000000000000000000000000000 DUP2 MSTORE PUSH1 0x4 ADD PUSH2 0x4B5 SWAP1 PUSH2 0x3B61 JUMP JUMPDEST PUSH1 0x40 MLOAD DUP1 SWAP2 SUB SWAP1 REVERT JUMPDEST PUSH2 0x4C8 DUP3 DUP3 PUSH2 0x2EE5 JUMP JUMPDEST POP POP JUMP JUMPDEST PUSH2 0x4E0 PUSH8 0x7AA54D8F9801479C PUSH1 0xC0 SHL PUSH2 0x2FC6 JUMP JUMPDEST PUSH2 0x4F4 PUSH8 0x5A7D6F03A6E1DE5F PUSH1 0xC0 SHL PUSH2 0x2FC6 JUMP JUMPDEST PUSH2 0x508 PUSH8 0x81776F79597C21F7 PUSH1 0xC0 SHL PUSH2 0x2FC6 JUMP JUMPDEST PUSH2 0x51C PUSH8 0x8C1BA9C689C9A86E PUSH1 0xC0 SHL PUSH2 0x2FC6 JUMP JUMPDEST PUSH2 0x529 PUSH1 0x0 DUP1 SHL CALLER PUSH2 0x654 JUMP JUMPDEST PUSH2 0x587 JUMPI PUSH2 0x541 PUSH8 0xF2F17FAE1C2392BD PUSH1 0xC0 SHL PUSH2 0x2FC6 JUMP JUMPDEST PUSH2 0x555 PUSH8 0xFC967848B61E8542 PUSH1 0xC0 SHL PUSH2 0x2FC6 JUMP JUMPDEST PUSH1 0x40 MLOAD PUSH32 0x3E78B92100000000000000000000000000000000000000000000000000000000 DUP2 MSTORE PUSH1 0x4 ADD PUSH1 0x40 MLOAD DUP1 SWAP2 SUB SWAP1 REVERT JUMPDEST PUSH2 0x59B PUSH8 0xC3CF2D150DDE65A PUSH1 0xC0 SHL PUSH2 0x2FC6 JUMP JUMPDEST PUSH2 0x5AF PUSH8 0x60AABF99DB99AB9B PUSH1 0xC0 SHL PUSH2 0x2FC6 JUMP JUMPDEST PUSH2 0x5C3 PUSH8 0x77FC700974573184 PUSH1 0xC0 SHL PUSH2 0x2FC6 JUMP JUMPDEST PUSH2 0x5D7 PUSH8 0xFE507C27C50B70F7 PUSH1 0xC0 SHL PUSH2 0x2FC6 JUMP JUMPDEST PUSH2 0x5EB PUSH8 0xCA342B4F092E51F0 PUSH1 0xC0 SHL PUSH2 0x2FC6 JUMP JUMPDEST DUP1 PUSH1 0x2 DUP2 SWAP1 SSTORE POP PUSH2 0x606 PUSH8 0x42D2B5510EDFAF2A PUSH1 0xC0 SHL PUSH2 0x2FC6 JUMP JUMPDEST PUSH2 0x61A PUSH8 0xF93C9F83DB36E703 PUSH1 0xC0 SHL PUSH2 0x2FC6 JUMP JUMPDEST PUSH32 0x8C4D35E54A3F2EF1134138FD8EA3DAEE6A3C89E10D2665996BABDF70261E2C76 DUP2 PUSH1 0x40 MLOAD PUSH2 0x649 SWAP2 SWAP1 PUSH2 0x3A10 JUMP JUMPDEST PUSH1 0x40 MLOAD DUP1 SWAP2 SUB SWAP1 LOG1 POP JUMP JUMPDEST PUSH1 0x0 DUP1 PUSH1 0x0 DUP5 DUP2 MSTORE PUSH1 0x20 ADD SWAP1 DUP2 MSTORE PUSH1 0x20 ADD PUSH1 0x0 KECCAK256 PUSH1 0x0 ADD PUSH1 0x0 DUP4 PUSH20 0xFFFFFFFFFFFFFFFFFFFFFFFFFFFFFFFFFFFFFFFF AND PUSH20 0xFFFFFFFFFFFFFFFFFFFFFFFFFFFFFFFFFFFFFFFF AND DUP2 MSTORE PUSH1 0x20 ADD SWAP1 DUP2 MSTORE PUSH1 0x20 ADD PUSH1 0x0 KECCAK256 PUSH1 0x0 SWAP1 SLOAD SWAP1 PUSH2 0x100 EXP SWAP1 DIV PUSH1 0xFF AND SWAP1 POP SWAP3 SWAP2 POP POP JUMP JUMPDEST PUSH2 0x6D2 PUSH8 0x3D8814F9584C68FB PUSH1 0xC0 SHL PUSH2 0x2FC6 JUMP JUMPDEST DUP4 PUSH2 0x6E7 PUSH8 0xD5196811086CB8B2 PUSH1 0xC0 SHL PUSH2 0x2FC6 JUMP JUMPDEST PUSH2 0x6FB PUSH8 0xBB533C4B9930E45B PUSH1 0xC0 SHL PUSH2 0x2FC6 JUMP JUMPDEST PUSH2 0x70F PUSH8 0xD7D0E1953EEEBF37 PUSH1 0xC0 SHL PUSH2 0x2FC6 JUMP JUMPDEST PUSH1 0x0 PUSH20 0xFFFFFFFFFFFFFFFFFFFFFFFFFFFFFFFFFFFFFFFF AND DUP2 PUSH20 0xFFFFFFFFFFFFFFFFFFFFFFFFFFFFFFFFFFFFFFFF AND SUB PUSH2 0x789 JUMPI PUSH2 0x757 PUSH8 0x6599D08F5BECBD4B PUSH1 0xC0 SHL PUSH2 0x2FC6 JUMP JUMPDEST PUSH1 0x40 MLOAD PUSH32 0x9E1FF14A00000000000000000000000000000000000000000000000000000000 DUP2 MSTORE PUSH1 0x4 ADD PUSH1 0x40 MLOAD DUP1 SWAP2 SUB SWAP1 REVERT JUMPDEST PUSH2 0x79D PUSH8 0x3E74DA221F3558E PUSH1 0xC0 SHL PUSH2 0x2FC6 JUMP JUMPDEST PUSH2 0x7B1 PUSH8 0x3E77F514D8188114 PUSH1 0xC0 SHL PUSH2 0x2FC6 JUMP JUMPDEST PUSH2 0x7C5 PUSH8 0x9C43EBAD1A642F71 PUSH1 0xC0 SHL PUSH2 0x2FC6 JUMP JUMPDEST PUSH2 0x7D9 PUSH8 0xABBABA756E4ADCE0 PUSH1 0xC0 SHL PUSH2 0x2FC6 JUMP JUMPDEST DUP4 PUSH2 0x7EE PUSH8 0xD5196811086CB8B2 PUSH1 0xC0 SHL PUSH2 0x2FC6 JUMP JUMPDEST PUSH2 0x802 PUSH8 0xBB533C4B9930E45B PUSH1 0xC0 SHL PUSH2 0x2FC6 JUMP JUMPDEST PUSH2 0x816 PUSH8 0xD7D0E1953EEEBF37 PUSH1 0xC0 SHL PUSH2 0x2FC6 JUMP JUMPDEST PUSH1 0x0 PUSH20 0xFFFFFFFFFFFFFFFFFFFFFFFFFFFFFFFFFFFFFFFF AND DUP2 PUSH20 0xFFFFFFFFFFFFFFFFFFFFFFFFFFFFFFFFFFFFFFFF AND SUB PUSH2 0x890 JUMPI PUSH2 0x85E PUSH8 0x6599D08F5BECBD4B PUSH1 0xC0 SHL PUSH2 0x2FC6 JUMP JUMPDEST PUSH1 0x40 MLOAD PUSH32 0x9E1FF14A00000000000000000000000000000000000000000000000000000000 DUP2 MSTORE PUSH1 0x4 ADD PUSH1 0x40 MLOAD DUP1 SWAP2 SUB SWAP1 REVERT JUMPDEST PUSH2 0x8A4 PUSH8 0x3E74DA221F3558E PUSH1 0xC0 SHL PUSH2 0x2FC6 JUMP JUMPDEST PUSH2 0x8B8 PUSH8 0x3E77F514D8188114 PUSH1 0xC0 SHL PUSH2 0x2FC6 JUMP JUMPDEST PUSH2 0x8CC PUSH8 0x4885DD2EE10C8AC4 PUSH1 0xC0 SHL PUSH2 0x2FC6 JUMP JUMPDEST PUSH2 0x8E0 PUSH8 0x6C343FFFC3C0D301 PUSH1 0xC0 SHL PUSH2 0x2FC6 JUMP JUMPDEST DUP3 PUSH2 0x8F5 PUSH8 0xF4402B390DEFADAF PUSH1 0xC0 SHL PUSH2 0x2FC6 JUMP JUMPDEST PUSH2 0x909 PUSH8 0x7AB5172FBE4EC27E PUSH1 0xC0 SHL PUSH2 0x2FC6 JUMP JUMPDEST PUSH2 0x91D PUSH8 0x947EBED4BDC8A1EA PUSH1 0xC0 SHL PUSH2 0x2FC6 JUMP JUMPDEST PUSH1 0x0 DUP2 SUB PUSH2 0x96B JUMPI PUSH2 0x939 PUSH8 0x4AEF7898A80C62EA PUSH1 0xC0 SHL PUSH2 0x2FC6 JUMP JUMPDEST PUSH1 0x40 MLOAD PUSH32 0xEB9365E700000000000000000000000000000000000000000000000000000000 DUP2 MSTORE PUSH1 0x4 ADD PUSH1 0x40 MLOAD DUP1 SWAP2 SUB SWAP1 REVERT JUMPDEST PUSH2 0x97F PUSH8 0x23AC32A220ED2EA5 PUSH1 0xC0 SHL PUSH2 0x2FC6 JUMP JUMPDEST PUSH2 0x993 PUSH8 0x916FFA0FD43F9FFC PUSH1 0xC0 SHL PUSH2 0x2FC6 JUMP JUMPDEST PUSH2 0x9A7 PUSH8 0x3A9480545614B926 PUSH1 0xC0 SHL PUSH2 0x2FC6 JUMP JUMPDEST PUSH2 0x9BB PUSH8 0x9120CD68338D2466 PUSH1 0xC0 SHL PUSH2 0x2FC6 JUMP JUMPDEST PUSH2 0x9CF PUSH8 0x6AA77CF08188DC60 PUSH1 0xC0 SHL PUSH2 0x2FC6 JUMP JUMPDEST PUSH2 0x9E3 PUSH8 0x137128FBA8E2D818 PUSH1 0xC0 SHL PUSH2 0x2FC6 JUMP JUMPDEST DUP6 PUSH20 0xFFFFFFFFFFFFFFFFFFFFFFFFFFFFFFFFFFFFFFFF AND PUSH4 0x23B872DD DUP9 ADDRESS DUP8 PUSH1 0x40 MLOAD DUP5 PUSH4 0xFFFFFFFF AND PUSH1 0xE0 SHL DUP2 MSTORE PUSH1 0x4 ADD PUSH2 0xA20 SWAP4 SWAP3 SWAP2 SWAP1 PUSH2 0x3B81 JUMP JUMPDEST PUSH1 0x20 PUSH1 0x40 MLOAD DUP1 DUP4 SUB DUP2 PUSH1 0x0 DUP8 GAS CALL ISZERO DUP1 ISZERO PUSH2 0xA3F JUMPI RETURNDATASIZE PUSH1 0x0 DUP1 RETURNDATACOPY RETURNDATASIZE PUSH1 0x0 REVERT JUMPDEST POP POP POP POP PUSH1 0x40 MLOAD RETURNDATASIZE PUSH1 0x1F NOT PUSH1 0x1F DUP3 ADD AND DUP3 ADD DUP1 PUSH1 0x40 MSTORE POP DUP2 ADD SWAP1 PUSH2 0xA63 SWAP2 SWAP1 PUSH2 0x3BE4 JUMP JUMPDEST POP PUSH2 0xA78 PUSH8 0xBEED5EBBB21E90CC PUSH1 0xC0 SHL PUSH2 0x2FC6 JUMP JUMPDEST PUSH2 0xA8C PUSH8 0x27542B80FDE955E2 PUSH1 0xC0 SHL PUSH2 0x2FC6 JUMP JUMPDEST DUP5 DUP7 PUSH20 0xFFFFFFFFFFFFFFFFFFFFFFFFFFFFFFFFFFFFFFFF AND DUP9 PUSH20 0xFFFFFFFFFFFFFFFFFFFFFFFFFFFFFFFFFFFFFFFF AND PUSH32 0x7C640DC4B99ABC9030F33ECD8184A0D9422BD4919DC19090F82CAE7AB4BB90BB CHAINID DUP9 PUSH1 0x2 SLOAD TIMESTAMP PUSH1 0x40 MLOAD PUSH2 0xAF2 SWAP5 SWAP4 SWAP3 SWAP2 SWAP1 PUSH2 0x3C11 JUMP JUMPDEST PUSH1 0x40 MLOAD DUP1 SWAP2 SUB SWAP1 LOG4 POP POP POP POP POP POP POP JUMP JUMPDEST PUSH2 0xB17 PUSH8 0x65DD331A21A5EB35 PUSH1 0xC0 SHL PUSH2 0x2FC6 JUMP JUMPDEST DUP2 PUSH2 0xB2C PUSH8 0xF4402B390DEFADAF PUSH1 0xC0 SHL PUSH2 0x2FC6 JUMP JUMPDEST PUSH2 0xB40 PUSH8 0x7AB5172FBE4EC27E PUSH1 0xC0 SHL PUSH2 0x2FC6 JUMP JUMPDEST PUSH2 0xB54 PUSH8 0x947EBED4BDC8A1EA PUSH1 0xC0 SHL PUSH2 0x2FC6 JUMP JUMPDEST PUSH1 0x0 DUP2 SUB PUSH2 0xBA2 JUMPI PUSH2 0xB70 PUSH8 0x4AEF7898A80C62EA PUSH1 0xC0 SHL PUSH2 0x2FC6 JUMP JUMPDEST PUSH1 0x40 MLOAD PUSH32 0xEB9365E700000000000000000000000000000000000000000000000000000000 DUP2 MSTORE PUSH1 0x4 ADD PUSH1 0x40 MLOAD DUP1 SWAP2 SUB SWAP1 REVERT JUMPDEST PUSH2 0xBB6 PUSH8 0x23AC32A220ED2EA5 PUSH1 0xC0 SHL PUSH2 0x2FC6 JUMP JUMPDEST PUSH2 0xBCA PUSH8 0x916FFA0FD43F9FFC PUSH1 0xC0 SHL PUSH2 0x2FC6 JUMP JUMPDEST PUSH2 0xBDE PUSH8 0x9263BB64998D6888 PUSH1 0xC0 SHL PUSH2 0x2FC6 JUMP JUMPDEST PUSH2 0xBF2 PUSH8 0x7348A5FBEFA0D8F9 PUSH1 0xC0 SHL PUSH2 0x2FC6 JUMP JUMPDEST DUP2 PUSH2 0xC07 PUSH8 0xD5196811086CB8B2 PUSH1 0xC0 SHL PUSH2 0x2FC6 JUMP JUMPDEST PUSH2 0xC1B PUSH8 0xBB533C4B9930E45B PUSH1 0xC0 SHL PUSH2 0x2FC6 JUMP JUMPDEST PUSH2 0xC2F PUSH8 0xD7D0E1953EEEBF37 PUSH1 0xC0 SHL PUSH2 0x2FC6 JUMP JUMPDEST PUSH1 0x0 PUSH20 0xFFFFFFFFFFFFFFFFFFFFFFFFFFFFFFFFFFFFFFFF AND DUP2 PUSH20 0xFFFFFFFFFFFFFFFFFFFFFFFFFFFFFFFFFFFFFFFF AND SUB PUSH2 0xCA9 JUMPI PUSH2 0xC77 PUSH8 0x6599D08F5BECBD4B PUSH1 0xC0 SHL PUSH2 0x2FC6 JUMP JUMPDEST PUSH1 0x40 MLOAD PUSH32 0x9E1FF14A00000000000000000000000000000000000000000000000000000000 DUP2 MSTORE PUSH1 0x4 ADD PUSH1 0x40 MLOAD DUP1 SWAP2 SUB SWAP1 REVERT JUMPDEST PUSH2 0xCBD PUSH8 0x3E74DA221F3558E PUSH1 0xC0 SHL PUSH2 0x2FC6 JUMP JUMPDEST PUSH2 0xCD1 PUSH8 0x3E77F514D8188114 PUSH1 0xC0 SHL PUSH2 0x2FC6 JUMP JUMPDEST PUSH2 0xCE5 PUSH8 0xE12BA1DB1133725F PUSH1 0xC0 SHL PUSH2 0x2FC6 JUMP JUMPDEST PUSH2 0xCF9 PUSH8 0x414C6882074D545C PUSH1 0xC0 SHL PUSH2 0x2FC6 JUMP JUMPDEST PUSH2 0xD0D PUSH8 0x4D177CE813D8F858 PUSH1 0xC0 SHL PUSH2 0x2FC6 JUMP JUMPDEST PUSH2 0xD21 PUSH8 0x6C306AD76D3F2972 PUSH1 0xC0 SHL PUSH2 0x2FC6 JUMP JUMPDEST PUSH1 0x40 MLOAD DUP1 PUSH1 0x20 ADD PUSH1 0x40 MSTORE DUP1 PUSH1 0x0 DUP2 MSTORE POP DUP1 MLOAD SWAP1 PUSH1 0x20 ADD KECCAK256 DUP6 DUP1 MLOAD SWAP1 PUSH1 0x20 ADD KECCAK256 SUB PUSH2 0xD9F JUMPI PUSH2 0xD59 PUSH8 0xDF03BC0FF6C59133 PUSH1 0xC0 SHL PUSH2 0x2FC6 JUMP JUMPDEST PUSH2 0xD6D PUSH8 0xB01CD7FF6D7B9C6F PUSH1 0xC0 SHL PUSH2 0x2FC6 JUMP JUMPDEST PUSH1 0x40 MLOAD PUSH32 0x53DA02F600000000000000000000000000000000000000000000000000000000 DUP2 MSTORE PUSH1 0x4 ADD PUSH1 0x40 MLOAD DUP1 SWAP2 SUB SWAP1 REVERT JUMPDEST PUSH2 0xDB3 PUSH8 0x4AB1964062CA3E39 PUSH1 0xC0 SHL PUSH2 0x2FC6 JUMP JUMPDEST PUSH2 0xDC7 PUSH8 0x353A364CAA6AB2A3 PUSH1 0xC0 SHL PUSH2 0x2FC6 JUMP JUMPDEST PUSH2 0xDDB PUSH8 0x6DD6EB50A0B3A93A PUSH1 0xC0 SHL PUSH2 0x2FC6 JUMP JUMPDEST PUSH1 0x0 PUSH1 0x1 PUSH1 0x0 SWAP1 SLOAD SWAP1 PUSH2 0x100 EXP SWAP1 DIV PUSH20 0xFFFFFFFFFFFFFFFFFFFFFFFFFFFFFFFFFFFFFFFF AND PUSH20 0xFFFFFFFFFFFFFFFFFFFFFFFFFFFFFFFFFFFFFFFF AND PUSH4 0x18C04BBB DUP8 PUSH1 0x40 MLOAD DUP3 PUSH4 0xFFFFFFFF AND PUSH1 0xE0 SHL DUP2 MSTORE PUSH1 0x4 ADD PUSH2 0xE38 SWAP2 SWAP1 PUSH2 0x3CC4 JUMP JUMPDEST PUSH1 0x20 PUSH1 0x40 MLOAD DUP1 DUP4 SUB DUP2 DUP7 GAS STATICCALL ISZERO DUP1 ISZERO PUSH2 0xE55 JUMPI RETURNDATASIZE PUSH1 0x0 DUP1 RETURNDATACOPY RETURNDATASIZE PUSH1 0x0 REVERT JUMPDEST POP POP POP POP PUSH1 0x40 MLOAD RETURNDATASIZE PUSH1 0x1F NOT PUSH1 0x1F DUP3 ADD AND DUP3 ADD DUP1 PUSH1 0x40 MSTORE POP DUP2 ADD SWAP1 PUSH2 0xE79 SWAP2 SWAP1 PUSH2 0x3CFB JUMP JUMPDEST SWAP1 POP PUSH2 0xE8F PUSH8 0x19B345F572555DD PUSH1 0xC0 SHL PUSH2 0x2FC6 JUMP JUMPDEST PUSH2 0xEA3 PUSH8 0x374D5170E079B1FD PUSH1 0xC0 SHL PUSH2 0x2FC6 JUMP JUMPDEST PUSH1 0x0 PUSH20 0xFFFFFFFFFFFFFFFFFFFFFFFFFFFFFFFFFFFFFFFF AND DUP2 PUSH20 0xFFFFFFFFFFFFFFFFFFFFFFFFFFFFFFFFFFFFFFFF AND SUB PUSH2 0xF31 JUMPI PUSH2 0xEEB PUSH8 0x611773E9CAE1C083 PUSH1 0xC0 SHL PUSH2 0x2FC6 JUMP JUMPDEST PUSH2 0xEFF PUSH8 0x9BF788DADBDC82E6 PUSH1 0xC0 SHL PUSH2 0x2FC6 JUMP JUMPDEST PUSH1 0x40 MLOAD PUSH32 0xCD659D9E00000000000000000000000000000000000000000000000000000000 DUP2 MSTORE PUSH1 0x4 ADD PUSH1 0x40 MLOAD DUP1 SWAP2 SUB SWAP1 REVERT JUMPDEST PUSH2 0xF45 PUSH8 0x2AB89965FCAEF5CB PUSH1 0xC0 SHL PUSH2 0x2FC6 JUMP JUMPDEST PUSH2 0xF59 PUSH8 0xC95374251B3417E2 PUSH1 0xC0 SHL PUSH2 0x2FC6 JUMP JUMPDEST PUSH2 0xF6D PUSH8 0xD8AF8D5DB0DC5DF4 PUSH1 0xC0 SHL PUSH2 0x2FC6 JUMP JUMPDEST PUSH1 0x0 PUSH1 0x1 PUSH1 0x0 SWAP1 SLOAD SWAP1 PUSH2 0x100 EXP SWAP1 DIV PUSH20 0xFFFFFFFFFFFFFFFFFFFFFFFFFFFFFFFFFFFFFFFF AND PUSH20 0xFFFFFFFFFFFFFFFFFFFFFFFFFFFFFFFFFFFFFFFF AND PUSH4 0x4031852 DUP9 CALLER PUSH1 0x40 MLOAD DUP4 PUSH4 0xFFFFFFFF AND PUSH1 0xE0 SHL DUP2 MSTORE PUSH1 0x4 ADD PUSH2 0xFCC SWAP3 SWAP2 SWAP1 PUSH2 0x3D28 JUMP JUMPDEST PUSH1 0x20 PUSH1 0x40 MLOAD DUP1 DUP4 SUB DUP2 DUP7 GAS STATICCALL ISZERO DUP1 ISZERO PUSH2 0xFE9 JUMPI RETURNDATASIZE PUSH1 0x0 DUP1 RETURNDATACOPY RETURNDATASIZE PUSH1 0x0 REVERT JUMPDEST POP POP POP POP PUSH1 0x40 MLOAD RETURNDATASIZE PUSH1 0x1F NOT PUSH1 0x1F DUP3 ADD AND DUP3 ADD DUP1 PUSH1 0x40 MSTORE POP DUP2 ADD SWAP1 PUSH2 0x100D SWAP2 SWAP1 PUSH2 0x3D6D JUMP JUMPDEST SWAP1 POP PUSH2 0x1023 PUSH8 0x979D7D38B8D96FAF PUSH1 0xC0 SHL PUSH2 0x2FC6 JUMP JUMPDEST PUSH2 0x1037 PUSH8 0xF69F9D28D919FF0 PUSH1 0xC0 SHL PUSH2 0x2FC6 JUMP JUMPDEST DUP6 DUP2 LT ISZERO PUSH2 0x1099 JUMPI PUSH2 0x1053 PUSH8 0x7DAEC9D3AEC31BB8 PUSH1 0xC0 SHL PUSH2 0x2FC6 JUMP JUMPDEST PUSH2 0x1067 PUSH8 0x42DF635CA7BDDDF8 PUSH1 0xC0 SHL PUSH2 0x2FC6 JUMP JUMPDEST PUSH1 0x40 MLOAD PUSH32 0x2D434D5600000000000000000000000000000000000000000000000000000000 DUP2 MSTORE PUSH1 0x4 ADD PUSH1 0x40 MLOAD DUP1 SWAP2 SUB SWAP1 REVERT JUMPDEST PUSH2 0x10AD PUSH8 0x7F31EE6E025D629 PUSH1 0xC0 SHL PUSH2 0x2FC6 JUMP JUMPDEST PUSH2 0x10C1 PUSH8 0x70D38AA1CBC1F0A PUSH1 0xC0 SHL PUSH2 0x2FC6 JUMP JUMPDEST PUSH2 0x10D5 PUSH8 0x19F2B7D65BD50BBF PUSH1 0xC0 SHL PUSH2 0x2FC6 JUMP JUMPDEST PUSH1 0x1 PUSH1 0x0 SWAP1 SLOAD SWAP1 PUSH2 0x100 EXP SWAP1 DIV PUSH20 0xFFFFFFFFFFFFFFFFFFFFFFFFFFFFFFFFFFFFFFFF AND PUSH20 0xFFFFFFFFFFFFFFFFFFFFFFFFFFFFFFFFFFFFFFFF AND PUSH4 0xF6B911BC DUP4 DUP8 DUP10 PUSH1 0x40 MLOAD DUP5 PUSH4 0xFFFFFFFF AND PUSH1 0xE0 SHL DUP2 MSTORE PUSH1 0x4 ADD PUSH2 0x1134 SWAP4 SWAP3 SWAP2 SWAP1 PUSH2 0x3B81 JUMP JUMPDEST PUSH1 0x20 PUSH1 0x40 MLOAD DUP1 DUP4 SUB DUP2 PUSH1 0x0 DUP8 GAS CALL ISZERO DUP1 ISZERO PUSH2 0x1153 JUMPI RETURNDATASIZE PUSH1 0x0 DUP1 RETURNDATACOPY RETURNDATASIZE PUSH1 0x0 REVERT JUMPDEST POP POP POP POP PUSH1 0x40 MLOAD RETURNDATASIZE PUSH1 0x1F NOT PUSH1 0x1F DUP3 ADD AND DUP3 ADD DUP1 PUSH1 0x40 MSTORE POP DUP2 ADD SWAP1 PUSH2 0x1177 SWAP2 SWAP1 PUSH2 0x3BE4 JUMP JUMPDEST POP PUSH2 0x118C PUSH8 0x97703ADC236CD633 PUSH1 0xC0 SHL PUSH2 0x2FC6 JUMP JUMPDEST PUSH2 0x11A0 PUSH8 0x1CB1FA72F75C4306 PUSH1 0xC0 SHL PUSH2 0x2FC6 JUMP JUMPDEST CHAINID DUP6 PUSH20 0xFFFFFFFFFFFFFFFFFFFFFFFFFFFFFFFFFFFFFFFF AND PUSH32 0x822728B2E9B3325A8F48B7E695AFC68B81E15A152AAA52500402D8AF303F6478 DUP5 DUP10 TIMESTAMP PUSH1 0x40 MLOAD PUSH2 0x11EB SWAP4 SWAP3 SWAP2 SWAP1 PUSH2 0x3D9A JUMP JUMPDEST PUSH1 0x40 MLOAD DUP1 SWAP2 SUB SWAP1 LOG3 POP POP POP POP POP POP POP JUMP JUMPDEST PUSH1 0x0 DUP1 SHL DUP2 JUMP JUMPDEST PUSH1 0x3 PUSH1 0x20 MSTORE DUP1 PUSH1 0x0 MSTORE PUSH1 0x40 PUSH1 0x0 KECCAK256 PUSH1 0x0 SWAP2 POP SLOAD SWAP1 PUSH2 0x100 EXP SWAP1 DIV PUSH20 0xFFFFFFFFFFFFFFFFFFFFFFFFFFFFFFFFFFFFFFFF AND DUP2 JUMP JUMPDEST PUSH2 0x124A PUSH8 0xB996EC2B53A247F5 PUSH1 0xC0 SHL PUSH2 0x2FC6 JUMP JUMPDEST DUP8 PUSH2 0x125F PUSH8 0xD5196811086CB8B2 PUSH1 0xC0 SHL PUSH2 0x2FC6 JUMP JUMPDEST PUSH2 0x1273 PUSH8 0xBB533C4B9930E45B PUSH1 0xC0 SHL PUSH2 0x2FC6 JUMP JUMPDEST PUSH2 0x1287 PUSH8 0xD7D0E1953EEEBF37 PUSH1 0xC0 SHL PUSH2 0x2FC6 JUMP JUMPDEST PUSH1 0x0 PUSH20 0xFFFFFFFFFFFFFFFFFFFFFFFFFFFFFFFFFFFFFFFF AND DUP2 PUSH20 0xFFFFFFFFFFFFFFFFFFFFFFFFFFFFFFFFFFFFFFFF AND SUB PUSH2 0x1301 JUMPI PUSH2 0x12CF PUSH8 0x6599D08F5BECBD4B PUSH1 0xC0 SHL PUSH2 0x2FC6 JUMP JUMPDEST PUSH1 0x40 MLOAD PUSH32 0x9E1FF14A00000000000000000000000000000000000000000000000000000000 DUP2 MSTORE PUSH1 0x4 ADD PUSH1 0x40 MLOAD DUP1 SWAP2 SUB SWAP1 REVERT JUMPDEST PUSH2 0x1315 PUSH8 0x3E74DA221F3558E PUSH1 0xC0 SHL PUSH2 0x2FC6 JUMP JUMPDEST PUSH2 0x1329 PUSH8 0x3E77F514D8188114 PUSH1 0xC0 SHL PUSH2 0x2FC6 JUMP JUMPDEST PUSH2 0x133D PUSH8 0x57362DCDFAE6A938 PUSH1 0xC0 SHL PUSH2 0x2FC6 JUMP JUMPDEST PUSH2 0x1351 PUSH8 0xEBEA68EB80550060 PUSH1 0xC0 SHL PUSH2 0x2FC6 JUMP JUMPDEST DUP8 PUSH2 0x1366 PUSH8 0xD5196811086CB8B2 PUSH1 0xC0 SHL PUSH2 0x2FC6 JUMP JUMPDEST PUSH2 0x137A PUSH8 0xBB533C4B9930E45B PUSH1 0xC0 SHL PUSH2 0x2FC6 JUMP JUMPDEST PUSH2 0x138E PUSH8 0xD7D0E1953EEEBF37 PUSH1 0xC0 SHL PUSH2 0x2FC6 JUMP JUMPDEST PUSH1 0x0 PUSH20 0xFFFFFFFFFFFFFFFFFFFFFFFFFFFFFFFFFFFFFFFF AND DUP2 PUSH20 0xFFFFFFFFFFFFFFFFFFFFFFFFFFFFFFFFFFFFFFFF AND SUB PUSH2 0x1408 JUMPI PUSH2 0x13D6 PUSH8 0x6599D08F5BECBD4B PUSH1 0xC0 SHL PUSH2 0x2FC6 JUMP JUMPDEST PUSH1 0x40 MLOAD PUSH32 0x9E1FF14A00000000000000000000000000000000000000000000000000000000 DUP2 MSTORE PUSH1 0x4 ADD PUSH1 0x40 MLOAD DUP1 SWAP2 SUB SWAP1 REVERT JUMPDEST PUSH2 0x141C PUSH8 0x3E74DA221F3558E PUSH1 0xC0 SHL PUSH2 0x2FC6 JUMP JUMPDEST PUSH2 0x1430 PUSH8 0x3E77F514D8188114 PUSH1 0xC0 SHL PUSH2 0x2FC6 JUMP JUMPDEST PUSH2 0x1444 PUSH8 0x955C110F9DBED7EA PUSH1 0xC0 SHL PUSH2 0x2FC6 JUMP JUMPDEST PUSH2 0x1458 PUSH8 0xCF1C1172E91CBF42 PUSH1 0xC0 SHL PUSH2 0x2FC6 JUMP JUMPDEST DUP7 PUSH2 0x146D PUSH8 0xF4402B390DEFADAF PUSH1 0xC0 SHL PUSH2 0x2FC6 JUMP JUMPDEST PUSH2 0x1481 PUSH8 0x7AB5172FBE4EC27E PUSH1 0xC0 SHL PUSH2 0x2FC6 JUMP JUMPDEST PUSH2 0x1495 PUSH8 0x947EBED4BDC8A1EA PUSH1 0xC0 SHL PUSH2 0x2FC6 JUMP JUMPDEST PUSH1 0x0 DUP2 SUB PUSH2 0x14E3 JUMPI PUSH2 0x14B1 PUSH8 0x4AEF7898A80C62EA PUSH1 0xC0 SHL PUSH2 0x2FC6 JUMP JUMPDEST PUSH1 0x40 MLOAD PUSH32 0xEB9365E700000000000000000000000000000000000000000000000000000000 DUP2 MSTORE PUSH1 0x4 ADD PUSH1 0x40 MLOAD DUP1 SWAP2 SUB SWAP1 REVERT JUMPDEST PUSH2 0x14F7 PUSH8 0x23AC32A220ED2EA5 PUSH1 0xC0 SHL PUSH2 0x2FC6 JUMP JUMPDEST PUSH2 0x150B PUSH8 0x916FFA0FD43F9FFC PUSH1 0xC0 SHL PUSH2 0x2FC6 JUMP JUMPDEST PUSH2 0x151F PUSH8 0x4589628DF5A833EC PUSH1 0xC0 SHL PUSH2 0x2FC6 JUMP JUMPDEST PUSH2 0x1533 PUSH8 0x36ED9C452FC18F36 PUSH1 0xC0 SHL PUSH2 0x2FC6 JUMP JUMPDEST PUSH2 0x1547 PUSH8 0x815951DC898FBF0C PUSH1 0xC0 SHL PUSH2 0x2FC6 JUMP JUMPDEST PUSH2 0x155B PUSH8 0x65B9F08BDC74E25B PUSH1 0xC0 SHL PUSH2 0x2FC6 JUMP JUMPDEST DUP10 PUSH20 0xFFFFFFFFFFFFFFFFFFFFFFFFFFFFFFFFFFFFFFFF AND PUSH4 0xD505ACCF DUP13 ADDRESS DUP12 DUP12 DUP12 DUP12 DUP12 PUSH1 0x40 MLOAD DUP9 PUSH4 0xFFFFFFFF AND PUSH1 0xE0 SHL DUP2 MSTORE PUSH1 0x4 ADD PUSH2 0x15A0 SWAP8 SWAP7 SWAP6 SWAP5 SWAP4 SWAP3 SWAP2 SWAP1 PUSH2 0x3DE0 JUMP JUMPDEST PUSH1 0x0 PUSH1 0x40 MLOAD DUP1 DUP4 SUB DUP2 PUSH1 0x0 DUP8 DUP1 EXTCODESIZE ISZERO DUP1 ISZERO PUSH2 0x15BA JUMPI PUSH1 0x0 DUP1 REVERT JUMPDEST POP GAS CALL ISZERO DUP1 ISZERO PUSH2 0x15CE JUMPI RETURNDATASIZE PUSH1 0x0 DUP1 RETURNDATACOPY RETURNDATASIZE PUSH1 0x0 REVERT JUMPDEST POP POP POP POP PUSH2 0x15E6 PUSH8 0xF53BD0889A53BC52 PUSH1 0xC0 SHL PUSH2 0x2FC6 JUMP JUMPDEST PUSH2 0x15FA PUSH8 0x5B3BD21E1DC5AFEC PUSH1 0xC0 SHL PUSH2 0x2FC6 JUMP JUMPDEST DUP10 PUSH20 0xFFFFFFFFFFFFFFFFFFFFFFFFFFFFFFFFFFFFFFFF AND PUSH4 0x23B872DD DUP13 ADDRESS DUP12 PUSH1 0x40 MLOAD DUP5 PUSH4 0xFFFFFFFF AND PUSH1 0xE0 SHL DUP2 MSTORE PUSH1 0x4 ADD PUSH2 0x1637 SWAP4 SWAP3 SWAP2 SWAP1 PUSH2 0x3B81 JUMP JUMPDEST PUSH1 0x20 PUSH1 0x40 MLOAD DUP1 DUP4 SUB DUP2 PUSH1 0x0 DUP8 GAS CALL ISZERO DUP1 ISZERO PUSH2 0x1656 JUMPI RETURNDATASIZE PUSH1 0x0 DUP1 RETURNDATACOPY RETURNDATASIZE PUSH1 0x0 REVERT JUMPDEST POP POP POP POP PUSH1 0x40 MLOAD RETURNDATASIZE PUSH1 0x1F NOT PUSH1 0x1F DUP3 ADD AND DUP3 ADD DUP1 PUSH1 0x40 MSTORE POP DUP2 ADD SWAP1 PUSH2 0x167A SWAP2 SWAP1 PUSH2 0x3BE4 JUMP JUMPDEST POP PUSH2 0x168F PUSH8 0x22DC7FFAA78DD1D7 PUSH1 0xC0 SHL PUSH2 0x2FC6 JUMP JUMPDEST PUSH2 0x16A3 PUSH8 0x46EEB20D71F810F7 PUSH1 0xC0 SHL PUSH2 0x2FC6 JUMP JUMPDEST DUP9 DUP11 PUSH20 0xFFFFFFFFFFFFFFFFFFFFFFFFFFFFFFFFFFFFFFFF AND DUP13 PUSH20 0xFFFFFFFFFFFFFFFFFFFFFFFFFFFFFFFFFFFFFFFF AND PUSH32 0x7C640DC4B99ABC9030F33ECD8184A0D9422BD4919DC19090F82CAE7AB4BB90BB CHAINID DUP13 PUSH1 0x2 SLOAD TIMESTAMP PUSH1 0x40 MLOAD PUSH2 0x1709 SWAP5 SWAP4 SWAP3 SWAP2 SWAP1 PUSH2 0x3C11 JUMP JUMPDEST PUSH1 0x40 MLOAD DUP1 SWAP2 SUB SWAP1 LOG4 POP POP POP POP POP POP POP POP POP POP POP JUMP JUMPDEST PUSH2 0x1732 PUSH8 0x7C8CEAE586013FF2 PUSH1 0xC0 SHL PUSH2 0x2FC6 JUMP JUMPDEST DUP3 PUSH2 0x1747 PUSH8 0xD5196811086CB8B2 PUSH1 0xC0 SHL PUSH2 0x2FC6 JUMP JUMPDEST PUSH2 0x175B PUSH8 0xBB533C4B9930E45B PUSH1 0xC0 SHL PUSH2 0x2FC6 JUMP JUMPDEST PUSH2 0x176F PUSH8 0xD7D0E1953EEEBF37 PUSH1 0xC0 SHL PUSH2 0x2FC6 JUMP JUMPDEST PUSH1 0x0 PUSH20 0xFFFFFFFFFFFFFFFFFFFFFFFFFFFFFFFFFFFFFFFF AND DUP2 PUSH20 0xFFFFFFFFFFFFFFFFFFFFFFFFFFFFFFFFFFFFFFFF AND SUB PUSH2 0x17E9 JUMPI PUSH2 0x17B7 PUSH8 0x6599D08F5BECBD4B PUSH1 0xC0 SHL PUSH2 0x2FC6 JUMP JUMPDEST PUSH1 0x40 MLOAD PUSH32 0x9E1FF14A00000000000000000000000000000000000000000000000000000000 DUP2 MSTORE PUSH1 0x4 ADD PUSH1 0x40 MLOAD DUP1 SWAP2 SUB SWAP1 REVERT JUMPDEST PUSH2 0x17FD PUSH8 0x3E74DA221F3558E PUSH1 0xC0 SHL PUSH2 0x2FC6 JUMP JUMPDEST PUSH2 0x1811 PUSH8 0x3E77F514D8188114 PUSH1 0xC0 SHL PUSH2 0x2FC6 JUMP JUMPDEST PUSH2 0x1825 PUSH8 0x376AA6D2E5AC3B5 PUSH1 0xC0 SHL PUSH2 0x2FC6 JUMP JUMPDEST PUSH2 0x1839 PUSH8 0x16EF2458BD02B989 PUSH1 0xC0 SHL PUSH2 0x2FC6 JUMP JUMPDEST DUP3 PUSH2 0x184E PUSH8 0xD5196811086CB8B2 PUSH1 0xC0 SHL PUSH2 0x2FC6 JUMP JUMPDEST PUSH2 0x1862 PUSH8 0xBB533C4B9930E45B PUSH1 0xC0 SHL PUSH2 0x2FC6 JUMP JUMPDEST PUSH2 0x1876 PUSH8 0xD7D0E1953EEEBF37 PUSH1 0xC0 SHL PUSH2 0x2FC6 JUMP JUMPDEST PUSH1 0x0 PUSH20 0xFFFFFFFFFFFFFFFFFFFFFFFFFFFFFFFFFFFFFFFF AND DUP2 PUSH20 0xFFFFFFFFFFFFFFFFFFFFFFFFFFFFFFFFFFFFFFFF AND SUB PUSH2 0x18F0 JUMPI PUSH2 0x18BE PUSH8 0x6599D08F5BECBD4B PUSH1 0xC0 SHL PUSH2 0x2FC6 JUMP JUMPDEST PUSH1 0x40 MLOAD PUSH32 0x9E1FF14A00000000000000000000000000000000000000000000000000000000 DUP2 MSTORE PUSH1 0x4 ADD PUSH1 0x40 MLOAD DUP1 SWAP2 SUB SWAP1 REVERT JUMPDEST PUSH2 0x1904 PUSH8 0x3E74DA221F3558E PUSH1 0xC0 SHL PUSH2 0x2FC6 JUMP JUMPDEST PUSH2 0x1918 PUSH8 0x3E77F514D8188114 PUSH1 0xC0 SHL PUSH2 0x2FC6 JUMP JUMPDEST PUSH2 0x192C PUSH8 0xCE17B7B23A97B498 PUSH1 0xC0 SHL PUSH2 0x2FC6 JUMP JUMPDEST PUSH2 0x1940 PUSH8 0xF30ADA715AE8BC9F PUSH1 0xC0 SHL PUSH2 0x2FC6 JUMP JUMPDEST DUP3 PUSH2 0x1955 PUSH8 0xF4402B390DEFADAF PUSH1 0xC0 SHL PUSH2 0x2FC6 JUMP JUMPDEST PUSH2 0x1969 PUSH8 0x7AB5172FBE4EC27E PUSH1 0xC0 SHL PUSH2 0x2FC6 JUMP JUMPDEST PUSH2 0x197D PUSH8 0x947EBED4BDC8A1EA PUSH1 0xC0 SHL PUSH2 0x2FC6 JUMP JUMPDEST PUSH1 0x0 DUP2 SUB PUSH2 0x19CB JUMPI PUSH2 0x1999 PUSH8 0x4AEF7898A80C62EA PUSH1 0xC0 SHL PUSH2 0x2FC6 JUMP JUMPDEST PUSH1 0x40 MLOAD PUSH32 0xEB9365E700000000000000000000000000000000000000000000000000000000 DUP2 MSTORE PUSH1 0x4 ADD PUSH1 0x40 MLOAD DUP1 SWAP2 SUB SWAP1 REVERT JUMPDEST PUSH2 0x19DF PUSH8 0x23AC32A220ED2EA5 PUSH1 0xC0 SHL PUSH2 0x2FC6 JUMP JUMPDEST PUSH2 0x19F3 PUSH8 0x916FFA0FD43F9FFC PUSH1 0xC0 SHL PUSH2 0x2FC6 JUMP JUMPDEST PUSH2 0x1A07 PUSH8 0xE40F728D57612BE1 PUSH1 0xC0 SHL PUSH2 0x2FC6 JUMP JUMPDEST PUSH2 0x1A1B PUSH8 0x3C640CBDE21FEB91 PUSH1 0xC0 SHL PUSH2 0x2FC6 JUMP JUMPDEST PUSH2 0x1A2F PUSH8 0xD12BAB92915AE9D1 PUSH1 0xC0 SHL PUSH2 0x2FC6 JUMP JUMPDEST PUSH2 0x1A43 PUSH8 0x72AF20468AC424F4 PUSH1 0xC0 SHL PUSH2 0x2FC6 JUMP JUMPDEST PUSH2 0x1A57 PUSH8 0x860A62E2CDD04C5A PUSH1 0xC0 SHL PUSH2 0x2FC6 JUMP JUMPDEST PUSH2 0x1A81 PUSH32 0xAB4F864E5201B0FDE9B5EE3E4CF96384802B0FFDFCF7F9DE4699CE21A30AFC4F CALLER PUSH2 0x654 JUMP JUMPDEST PUSH2 0x1ADF JUMPI PUSH2 0x1A99 PUSH8 0x742E3CB883FE4BE9 PUSH1 0xC0 SHL PUSH2 0x2FC6 JUMP JUMPDEST PUSH2 0x1AAD PUSH8 0x32D29A816AA61D1C PUSH1 0xC0 SHL PUSH2 0x2FC6 JUMP JUMPDEST PUSH1 0x40 MLOAD PUSH32 0x3E78B92100000000000000000000000000000000000000000000000000000000 DUP2 MSTORE PUSH1 0x4 ADD PUSH1 0x40 MLOAD DUP1 SWAP2 SUB SWAP1 REVERT JUMPDEST PUSH2 0x1AF3 PUSH8 0x3CCADED0AA2E2B88 PUSH1 0xC0 SHL PUSH2 0x2FC6 JUMP JUMPDEST PUSH2 0x1B07 PUSH8 0x71DB857E5E928528 PUSH1 0xC0 SHL PUSH2 0x2FC6 JUMP JUMPDEST PUSH2 0x1B1B PUSH8 0x1126C1B5019D95FE PUSH1 0xC0 SHL PUSH2 0x2FC6 JUMP JUMPDEST PUSH2 0x1B2F PUSH8 0x6253D1C9486A5BDC PUSH1 0xC0 SHL PUSH2 0x2FC6 JUMP JUMPDEST PUSH2 0x1B43 PUSH8 0x782D1EE468B0AD9E PUSH1 0xC0 SHL PUSH2 0x2FC6 JUMP JUMPDEST PUSH2 0x1B57 PUSH8 0xFB49B0EC3250762B PUSH1 0xC0 SHL PUSH2 0x2FC6 JUMP JUMPDEST DUP5 PUSH20 0xFFFFFFFFFFFFFFFFFFFFFFFFFFFFFFFFFFFFFFFF AND PUSH4 0xA9059CBB DUP8 DUP7 PUSH1 0x40 MLOAD DUP4 PUSH4 0xFFFFFFFF AND PUSH1 0xE0 SHL DUP2 MSTORE PUSH1 0x4 ADD PUSH2 0x1B92 SWAP3 SWAP2 SWAP1 PUSH2 0x3E4F JUMP JUMPDEST PUSH1 0x20 PUSH1 0x40 MLOAD DUP1 DUP4 SUB DUP2 PUSH1 0x0 DUP8 GAS CALL ISZERO DUP1 ISZERO PUSH2 0x1BB1 JUMPI RETURNDATASIZE PUSH1 0x0 DUP1 RETURNDATACOPY RETURNDATASIZE PUSH1 0x0 REVERT JUMPDEST POP POP POP POP PUSH1 0x40 MLOAD RETURNDATASIZE PUSH1 0x1F NOT PUSH1 0x1F DUP3 ADD AND DUP3 ADD DUP1 PUSH1 0x40 MSTORE POP DUP2 ADD SWAP1 PUSH2 0x1BD5 SWAP2 SWAP1 PUSH2 0x3BE4 JUMP JUMPDEST POP PUSH2 0x1BEA PUSH8 0x65670391DEA6EA71 PUSH1 0xC0 SHL PUSH2 0x2FC6 JUMP JUMPDEST PUSH2 0x1BFE PUSH8 0xEA9F108AA6CF231C PUSH1 0xC0 SHL PUSH2 0x2FC6 JUMP JUMPDEST CHAINID DUP7 PUSH20 0xFFFFFFFFFFFFFFFFFFFFFFFFFFFFFFFFFFFFFFFF AND PUSH32 0x65CD6A06CA30D1A4E804E78CF9B5610E805BF360DACEBE97903B74AAF903886F DUP8 DUP8 TIMESTAMP PUSH1 0x40 MLOAD PUSH2 0x1C49 SWAP4 SWAP3 SWAP2 SWAP1 PUSH2 0x3D9A JUMP JUMPDEST PUSH1 0x40 MLOAD DUP1 SWAP2 SUB SWAP1 LOG3 POP POP POP POP POP POP JUMP JUMPDEST PUSH1 0x1 PUSH1 0x0 SWAP1 SLOAD SWAP1 PUSH2 0x100 EXP SWAP1 DIV PUSH20 0xFFFFFFFFFFFFFFFFFFFFFFFFFFFFFFFFFFFFFFFF AND DUP2 JUMP JUMPDEST PUSH2 0x1C88 DUP3 PUSH2 0x409 JUMP JUMPDEST PUSH2 0x1C91 DUP2 PUSH2 0x2DE9 JUMP JUMPDEST PUSH2 0x1C9B DUP4 DUP4 PUSH2 0x2EE5 JUMP JUMPDEST POP POP POP JUMP JUMPDEST PUSH2 0x1CB4 PUSH8 0x7B1133001D5D6496 PUSH1 0xC0 SHL PUSH2 0x2FC6 JUMP JUMPDEST DUP6 PUSH2 0x1CC9 PUSH8 0xF4402B390DEFADAF PUSH1 0xC0 SHL PUSH2 0x2FC6 JUMP JUMPDEST PUSH2 0x1CDD PUSH8 0x7AB5172FBE4EC27E PUSH1 0xC0 SHL PUSH2 0x2FC6 JUMP JUMPDEST PUSH2 0x1CF1 PUSH8 0x947EBED4BDC8A1EA PUSH1 0xC0 SHL PUSH2 0x2FC6 JUMP JUMPDEST PUSH1 0x0 DUP2 SUB PUSH2 0x1D3F JUMPI PUSH2 0x1D0D PUSH8 0x4AEF7898A80C62EA PUSH1 0xC0 SHL PUSH2 0x2FC6 JUMP JUMPDEST PUSH1 0x40 MLOAD PUSH32 0xEB9365E700000000000000000000000000000000000000000000000000000000 DUP2 MSTORE PUSH1 0x4 ADD PUSH1 0x40 MLOAD DUP1 SWAP2 SUB SWAP1 REVERT JUMPDEST PUSH2 0x1D53 PUSH8 0x23AC32A220ED2EA5 PUSH1 0xC0 SHL PUSH2 0x2FC6 JUMP JUMPDEST PUSH2 0x1D67 PUSH8 0x916FFA0FD43F9FFC PUSH1 0xC0 SHL PUSH2 0x2FC6 JUMP JUMPDEST PUSH2 0x1D7B PUSH8 0x955B175CCEDD5F6E PUSH1 0xC0 SHL PUSH2 0x2FC6 JUMP JUMPDEST PUSH2 0x1D8F PUSH8 0x56AF6448EB07EB94 PUSH1 0xC0 SHL PUSH2 0x2FC6 JUMP JUMPDEST DUP6 PUSH2 0x1DA4 PUSH8 0xD5196811086CB8B2 PUSH1 0xC0 SHL PUSH2 0x2FC6 JUMP JUMPDEST PUSH2 0x1DB8 PUSH8 0xBB533C4B9930E45B PUSH1 0xC0 SHL PUSH2 0x2FC6 JUMP JUMPDEST PUSH2 0x1DCC PUSH8 0xD7D0E1953EEEBF37 PUSH1 0xC0 SHL PUSH2 0x2FC6 JUMP JUMPDEST PUSH1 0x0 PUSH20 0xFFFFFFFFFFFFFFFFFFFFFFFFFFFFFFFFFFFFFFFF AND DUP2 PUSH20 0xFFFFFFFFFFFFFFFFFFFFFFFFFFFFFFFFFFFFFFFF AND SUB PUSH2 0x1E46 JUMPI PUSH2 0x1E14 PUSH8 0x6599D08F5BECBD4B PUSH1 0xC0 SHL PUSH2 0x2FC6 JUMP JUMPDEST PUSH1 0x40 MLOAD PUSH32 0x9E1FF14A00000000000000000000000000000000000000000000000000000000 DUP2 MSTORE PUSH1 0x4 ADD PUSH1 0x40 MLOAD DUP1 SWAP2 SUB SWAP1 REVERT JUMPDEST PUSH2 0x1E5A PUSH8 0x3E74DA221F3558E PUSH1 0xC0 SHL PUSH2 0x2FC6 JUMP JUMPDEST PUSH2 0x1E6E PUSH8 0x3E77F514D8188114 PUSH1 0xC0 SHL PUSH2 0x2FC6 JUMP JUMPDEST PUSH2 0x1E82 PUSH8 0xE517E7852B45D08B PUSH1 0xC0 SHL PUSH2 0x2FC6 JUMP JUMPDEST PUSH2 0x1E96 PUSH8 0x7AFDE50BB9E1903C PUSH1 0xC0 SHL PUSH2 0x2FC6 JUMP JUMPDEST PUSH2 0x1EAA PUSH8 0x7480E05966DD6F51 PUSH1 0xC0 SHL PUSH2 0x2FC6 JUMP JUMPDEST PUSH2 0x1EBE PUSH8 0xA029411772CCACEC PUSH1 0xC0 SHL PUSH2 0x2FC6 JUMP JUMPDEST PUSH1 0x40 MLOAD DUP1 PUSH1 0x20 ADD PUSH1 0x40 MSTORE DUP1 PUSH1 0x0 DUP2 MSTORE POP DUP1 MLOAD SWAP1 PUSH1 0x20 ADD KECCAK256 DUP10 DUP1 MLOAD SWAP1 PUSH1 0x20 ADD KECCAK256 SUB PUSH2 0x1F3C JUMPI PUSH2 0x1EF6 PUSH8 0xE91728FCCAB102AA PUSH1 0xC0 SHL PUSH2 0x2FC6 JUMP JUMPDEST PUSH2 0x1F0A PUSH8 0xFC59856767D7E7AC PUSH1 0xC0 SHL PUSH2 0x2FC6 JUMP JUMPDEST PUSH1 0x40 MLOAD PUSH32 0x53DA02F600000000000000000000000000000000000000000000000000000000 DUP2 MSTORE PUSH1 0x4 ADD PUSH1 0x40 MLOAD DUP1 SWAP2 SUB SWAP1 REVERT JUMPDEST PUSH2 0x1F50 PUSH8 0xC0A505CFFD14E437 PUSH1 0xC0 SHL PUSH2 0x2FC6 JUMP JUMPDEST PUSH2 0x1F64 PUSH8 0x5E45CDBF250B9E16 PUSH1 0xC0 SHL PUSH2 0x2FC6 JUMP JUMPDEST PUSH2 0x1F78 PUSH8 0xFF7F82CE7432DED PUSH1 0xC0 SHL PUSH2 0x2FC6 JUMP JUMPDEST PUSH1 0x0 PUSH1 0x1 PUSH1 0x0 SWAP1 SLOAD SWAP1 PUSH2 0x100 EXP SWAP1 DIV PUSH20 0xFFFFFFFFFFFFFFFFFFFFFFFFFFFFFFFFFFFFFFFF AND PUSH20 0xFFFFFFFFFFFFFFFFFFFFFFFFFFFFFFFFFFFFFFFF AND PUSH4 0x18C04BBB DUP12 PUSH1 0x40 MLOAD DUP3 PUSH4 0xFFFFFFFF AND PUSH1 0xE0 SHL DUP2 MSTORE PUSH1 0x4 ADD PUSH2 0x1FD5 SWAP2 SWAP1 PUSH2 0x3CC4 JUMP JUMPDEST PUSH1 0x20 PUSH1 0x40 MLOAD DUP1 DUP4 SUB DUP2 DUP7 GAS STATICCALL ISZERO DUP1 ISZERO PUSH2 0x1FF2 JUMPI RETURNDATASIZE PUSH1 0x0 DUP1 RETURNDATACOPY RETURNDATASIZE PUSH1 0x0 REVERT JUMPDEST POP POP POP POP PUSH1 0x40 MLOAD RETURNDATASIZE PUSH1 0x1F NOT PUSH1 0x1F DUP3 ADD AND DUP3 ADD DUP1 PUSH1 0x40 MSTORE POP DUP2 ADD SWAP1 PUSH2 0x2016 SWAP2 SWAP1 PUSH2 0x3CFB JUMP JUMPDEST SWAP1 POP PUSH2 0x202C PUSH8 0xE64AB9DFBE58636A PUSH1 0xC0 SHL PUSH2 0x2FC6 JUMP JUMPDEST PUSH2 0x2040 PUSH8 0x4030540B5C859ADA PUSH1 0xC0 SHL PUSH2 0x2FC6 JUMP JUMPDEST PUSH1 0x0 PUSH20 0xFFFFFFFFFFFFFFFFFFFFFFFFFFFFFFFFFFFFFFFF AND DUP2 PUSH20 0xFFFFFFFFFFFFFFFFFFFFFFFFFFFFFFFFFFFFFFFF AND SUB PUSH2 0x20CE JUMPI PUSH2 0x2088 PUSH8 0xF9A0F23D5824702D PUSH1 0xC0 SHL PUSH2 0x2FC6 JUMP JUMPDEST PUSH2 0x209C PUSH8 0x7F1B0709F0F7D093 PUSH1 0xC0 SHL PUSH2 0x2FC6 JUMP JUMPDEST PUSH1 0x40 MLOAD PUSH32 0xCD659D9E00000000000000000000000000000000000000000000000000000000 DUP2 MSTORE PUSH1 0x4 ADD PUSH1 0x40 MLOAD DUP1 SWAP2 SUB SWAP1 REVERT JUMPDEST PUSH2 0x20E2 PUSH8 0x943A73B013AEDF65 PUSH1 0xC0 SHL PUSH2 0x2FC6 JUMP JUMPDEST PUSH2 0x20F6 PUSH8 0x9AAED8E67F556F6D PUSH1 0xC0 SHL PUSH2 0x2FC6 JUMP JUMPDEST PUSH2 0x210A PUSH8 0x6611E754AB4F4A6 PUSH1 0xC0 SHL PUSH2 0x2FC6 JUMP JUMPDEST PUSH1 0x0 PUSH1 0x1 PUSH1 0x0 SWAP1 SLOAD SWAP1 PUSH2 0x100 EXP SWAP1 DIV PUSH20 0xFFFFFFFFFFFFFFFFFFFFFFFFFFFFFFFFFFFFFFFF AND PUSH20 0xFFFFFFFFFFFFFFFFFFFFFFFFFFFFFFFFFFFFFFFF AND PUSH4 0x4031852 DUP13 CALLER PUSH1 0x40 MLOAD DUP4 PUSH4 0xFFFFFFFF AND PUSH1 0xE0 SHL DUP2 MSTORE PUSH1 0x4 ADD PUSH2 0x2169 SWAP3 SWAP2 SWAP1 PUSH2 0x3D28 JUMP JUMPDEST PUSH1 0x20 PUSH1 0x40 MLOAD DUP1 DUP4 SUB DUP2 DUP7 GAS STATICCALL ISZERO DUP1 ISZERO PUSH2 0x2186 JUMPI RETURNDATASIZE PUSH1 0x0 DUP1 RETURNDATACOPY RETURNDATASIZE PUSH1 0x0 REVERT JUMPDEST POP POP POP POP PUSH1 0x40 MLOAD RETURNDATASIZE PUSH1 0x1F NOT PUSH1 0x1F DUP3 ADD AND DUP3 ADD DUP1 PUSH1 0x40 MSTORE POP DUP2 ADD SWAP1 PUSH2 0x21AA SWAP2 SWAP1 PUSH2 0x3D6D JUMP JUMPDEST SWAP1 POP PUSH2 0x21C0 PUSH8 0xD436C4201E33EEDF PUSH1 0xC0 SHL PUSH2 0x2FC6 JUMP JUMPDEST PUSH2 0x21D4 PUSH8 0xEF627506AA8FEAE4 PUSH1 0xC0 SHL PUSH2 0x2FC6 JUMP JUMPDEST DUP10 DUP2 LT ISZERO PUSH2 0x2236 JUMPI PUSH2 0x21F0 PUSH8 0x11E145FFE20AE547 PUSH1 0xC0 SHL PUSH2 0x2FC6 JUMP JUMPDEST PUSH2 0x2204 PUSH8 0x36FEE3CFEF27B16D PUSH1 0xC0 SHL PUSH2 0x2FC6 JUMP JUMPDEST PUSH1 0x40 MLOAD PUSH32 0x2D434D5600000000000000000000000000000000000000000000000000000000 DUP2 MSTORE PUSH1 0x4 ADD PUSH1 0x40 MLOAD DUP1 SWAP2 SUB SWAP1 REVERT JUMPDEST PUSH2 0x224A PUSH8 0x73356D88E410EB3E PUSH1 0xC0 SHL PUSH2 0x2FC6 JUMP JUMPDEST PUSH2 0x225E PUSH8 0x8E306205F21E8320 PUSH1 0xC0 SHL PUSH2 0x2FC6 JUMP JUMPDEST PUSH2 0x2272 PUSH8 0x964B9BDE07249268 PUSH1 0xC0 SHL PUSH2 0x2FC6 JUMP JUMPDEST PUSH1 0x1 PUSH1 0x0 SWAP1 SLOAD SWAP1 PUSH2 0x100 EXP SWAP1 DIV PUSH20 0xFFFFFFFFFFFFFFFFFFFFFFFFFFFFFFFFFFFFFFFF AND PUSH20 0xFFFFFFFFFFFFFFFFFFFFFFFFFFFFFFFFFFFFFFFF AND PUSH4 0x2DCE1F6B DUP4 DUP12 DUP14 DUP13 DUP13 DUP13 DUP13 PUSH1 0x40 MLOAD DUP9 PUSH4 0xFFFFFFFF AND PUSH1 0xE0 SHL DUP2 MSTORE PUSH1 0x4 ADD PUSH2 0x22D9 SWAP8 SWAP7 SWAP6 SWAP5 SWAP4 SWAP3 SWAP2 SWAP1 PUSH2 0x3DE0 JUMP JUMPDEST PUSH1 0x20 PUSH1 0x40 MLOAD DUP1 DUP4 SUB DUP2 PUSH1 0x0 DUP8 GAS CALL ISZERO DUP1 ISZERO PUSH2 0x22F8 JUMPI RETURNDATASIZE PUSH1 0x0 DUP1 RETURNDATACOPY RETURNDATASIZE PUSH1 0x0 REVERT JUMPDEST POP POP POP POP PUSH1 0x40 MLOAD RETURNDATASIZE PUSH1 0x1F NOT PUSH1 0x1F DUP3 ADD AND DUP3 ADD DUP1 PUSH1 0x40 MSTORE POP DUP2 ADD SWAP1 PUSH2 0x231C SWAP2 SWAP1 PUSH2 0x3BE4 JUMP JUMPDEST POP PUSH2 0x2331 PUSH8 0x52570E55B271349 PUSH1 0xC0 SHL PUSH2 0x2FC6 JUMP JUMPDEST PUSH2 0x2345 PUSH8 0xADDF2F89D11183FD PUSH1 0xC0 SHL PUSH2 0x2FC6 JUMP JUMPDEST CHAINID DUP10 PUSH20 0xFFFFFFFFFFFFFFFFFFFFFFFFFFFFFFFFFFFFFFFF AND PUSH32 0x822728B2E9B3325A8F48B7E695AFC68B81E15A152AAA52500402D8AF303F6478 DUP5 DUP14 TIMESTAMP PUSH1 0x40 MLOAD PUSH2 0x2390 SWAP4 SWAP3 SWAP2 SWAP1 PUSH2 0x3D9A JUMP JUMPDEST PUSH1 0x40 MLOAD DUP1 SWAP2 SUB SWAP1 LOG3 POP POP POP POP POP POP POP POP POP POP POP JUMP JUMPDEST PUSH1 0x2 SLOAD DUP2 JUMP JUMPDEST PUSH2 0x23BF PUSH8 0x197C30178C911BE8 PUSH1 0xC0 SHL PUSH2 0x2FC6 JUMP JUMPDEST DUP3 PUSH2 0x23D4 PUSH8 0xD5196811086CB8B2 PUSH1 0xC0 SHL PUSH2 0x2FC6 JUMP JUMPDEST PUSH2 0x23E8 PUSH8 0xBB533C4B9930E45B PUSH1 0xC0 SHL PUSH2 0x2FC6 JUMP JUMPDEST PUSH2 0x23FC PUSH8 0xD7D0E1953EEEBF37 PUSH1 0xC0 SHL PUSH2 0x2FC6 JUMP JUMPDEST PUSH1 0x0 PUSH20 0xFFFFFFFFFFFFFFFFFFFFFFFFFFFFFFFFFFFFFFFF AND DUP2 PUSH20 0xFFFFFFFFFFFFFFFFFFFFFFFFFFFFFFFFFFFFFFFF AND SUB PUSH2 0x2476 JUMPI PUSH2 0x2444 PUSH8 0x6599D08F5BECBD4B PUSH1 0xC0 SHL PUSH2 0x2FC6 JUMP JUMPDEST PUSH1 0x40 MLOAD PUSH32 0x9E1FF14A00000000000000000000000000000000000000000000000000000000 DUP2 MSTORE PUSH1 0x4 ADD PUSH1 0x40 MLOAD DUP1 SWAP2 SUB SWAP1 REVERT JUMPDEST PUSH2 0x248A PUSH8 0x3E74DA221F3558E PUSH1 0xC0 SHL PUSH2 0x2FC6 JUMP JUMPDEST PUSH2 0x249E PUSH8 0x3E77F514D8188114 PUSH1 0xC0 SHL PUSH2 0x2FC6 JUMP JUMPDEST PUSH2 0x24B2 PUSH8 0x7DD2B1878C7C530D PUSH1 0xC0 SHL PUSH2 0x2FC6 JUMP JUMPDEST PUSH2 0x24C6 PUSH8 0x81D164BEE6C1DAE3 PUSH1 0xC0 SHL PUSH2 0x2FC6 JUMP JUMPDEST DUP3 PUSH2 0x24DB PUSH8 0xD5196811086CB8B2 PUSH1 0xC0 SHL PUSH2 0x2FC6 JUMP JUMPDEST PUSH2 0x24EF PUSH8 0xBB533C4B9930E45B PUSH1 0xC0 SHL PUSH2 0x2FC6 JUMP JUMPDEST PUSH2 0x2503 PUSH8 0xD7D0E1953EEEBF37 PUSH1 0xC0 SHL PUSH2 0x2FC6 JUMP JUMPDEST PUSH1 0x0 PUSH20 0xFFFFFFFFFFFFFFFFFFFFFFFFFFFFFFFFFFFFFFFF AND DUP2 PUSH20 0xFFFFFFFFFFFFFFFFFFFFFFFFFFFFFFFFFFFFFFFF AND SUB PUSH2 0x257D JUMPI PUSH2 0x254B PUSH8 0x6599D08F5BECBD4B PUSH1 0xC0 SHL PUSH2 0x2FC6 JUMP JUMPDEST PUSH1 0x40 MLOAD PUSH32 0x9E1FF14A00000000000000000000000000000000000000000000000000000000 DUP2 MSTORE PUSH1 0x4 ADD PUSH1 0x40 MLOAD DUP1 SWAP2 SUB SWAP1 REVERT JUMPDEST PUSH2 0x2591 PUSH8 0x3E74DA221F3558E PUSH1 0xC0 SHL PUSH2 0x2FC6 JUMP JUMPDEST PUSH2 0x25A5 PUSH8 0x3E77F514D8188114 PUSH1 0xC0 SHL PUSH2 0x2FC6 JUMP JUMPDEST PUSH2 0x25B9 PUSH8 0xE3CF9EB3BD86940E PUSH1 0xC0 SHL PUSH2 0x2FC6 JUMP JUMPDEST PUSH2 0x25CD PUSH8 0xF87681CAA9C77302 PUSH1 0xC0 SHL PUSH2 0x2FC6 JUMP JUMPDEST DUP3 PUSH2 0x25E2 PUSH8 0xF4402B390DEFADAF PUSH1 0xC0 SHL PUSH2 0x2FC6 JUMP JUMPDEST PUSH2 0x25F6 PUSH8 0x7AB5172FBE4EC27E PUSH1 0xC0 SHL PUSH2 0x2FC6 JUMP JUMPDEST PUSH2 0x260A PUSH8 0x947EBED4BDC8A1EA PUSH1 0xC0 SHL PUSH2 0x2FC6 JUMP JUMPDEST PUSH1 0x0 DUP2 SUB PUSH2 0x2658 JUMPI PUSH2 0x2626 PUSH8 0x4AEF7898A80C62EA PUSH1 0xC0 SHL PUSH2 0x2FC6 JUMP JUMPDEST PUSH1 0x40 MLOAD PUSH32 0xEB9365E700000000000000000000000000000000000000000000000000000000 DUP2 MSTORE PUSH1 0x4 ADD PUSH1 0x40 MLOAD DUP1 SWAP2 SUB SWAP1 REVERT JUMPDEST PUSH2 0x266C PUSH8 0x23AC32A220ED2EA5 PUSH1 0xC0 SHL PUSH2 0x2FC6 JUMP JUMPDEST PUSH2 0x2680 PUSH8 0x916FFA0FD43F9FFC PUSH1 0xC0 SHL PUSH2 0x2FC6 JUMP JUMPDEST PUSH2 0x2694 PUSH8 0xB324E32C7C3BD8D2 PUSH1 0xC0 SHL PUSH2 0x2FC6 JUMP JUMPDEST PUSH2 0x26A8 PUSH8 0xC5875324EF4E82D2 PUSH1 0xC0 SHL PUSH2 0x2FC6 JUMP JUMPDEST PUSH2 0x26BC PUSH8 0xD12BAB92915AE9D1 PUSH1 0xC0 SHL PUSH2 0x2FC6 JUMP JUMPDEST PUSH2 0x26D0 PUSH8 0x72AF20468AC424F4 PUSH1 0xC0 SHL PUSH2 0x2FC6 JUMP JUMPDEST PUSH2 0x26E4 PUSH8 0x860A62E2CDD04C5A PUSH1 0xC0 SHL PUSH2 0x2FC6 JUMP JUMPDEST PUSH2 0x270E PUSH32 0xAB4F864E5201B0FDE9B5EE3E4CF96384802B0FFDFCF7F9DE4699CE21A30AFC4F CALLER PUSH2 0x654 JUMP JUMPDEST PUSH2 0x276C JUMPI PUSH2 0x2726 PUSH8 0x742E3CB883FE4BE9 PUSH1 0xC0 SHL PUSH2 0x2FC6 JUMP JUMPDEST PUSH2 0x273A PUSH8 0x32D29A816AA61D1C PUSH1 0xC0 SHL PUSH2 0x2FC6 JUMP JUMPDEST PUSH1 0x40 MLOAD PUSH32 0x3E78B92100000000000000000000000000000000000000000000000000000000 DUP2 MSTORE PUSH1 0x4 ADD PUSH1 0x40 MLOAD DUP1 SWAP2 SUB SWAP1 REVERT JUMPDEST PUSH2 0x2780 PUSH8 0x3CCADED0AA2E2B88 PUSH1 0xC0 SHL PUSH2 0x2FC6 JUMP JUMPDEST PUSH2 0x2794 PUSH8 0x71DB857E5E928528 PUSH1 0xC0 SHL PUSH2 0x2FC6 JUMP JUMPDEST PUSH2 0x27A8 PUSH8 0x5BABB4650A699D98 PUSH1 0xC0 SHL PUSH2 0x2FC6 JUMP JUMPDEST PUSH2 0x27BC PUSH8 0x205550DD1BB5A96D PUSH1 0xC0 SHL PUSH2 0x2FC6 JUMP JUMPDEST PUSH2 0x27D0 PUSH8 0x219956AF9B07DD12 PUSH1 0xC0 SHL PUSH2 0x2FC6 JUMP JUMPDEST PUSH2 0x27E4 PUSH8 0xDB3D159D4B1CF9E5 PUSH1 0xC0 SHL PUSH2 0x2FC6 JUMP JUMPDEST PUSH1 0x40 MLOAD DUP1 PUSH1 0x20 ADD PUSH1 0x40 MSTORE DUP1 PUSH1 0x0 DUP2 MSTORE POP DUP1 MLOAD SWAP1 PUSH1 0x20 ADD KECCAK256 DUP9 DUP1 MLOAD SWAP1 PUSH1 0x20 ADD KECCAK256 SUB PUSH2 0x2862 JUMPI PUSH2 0x281C PUSH8 0x5F63F8D4D0DA2C4E PUSH1 0xC0 SHL PUSH2 0x2FC6 JUMP JUMPDEST PUSH2 0x2830 PUSH8 0x725BACA84807E9FF PUSH1 0xC0 SHL PUSH2 0x2FC6 JUMP JUMPDEST PUSH1 0x40 MLOAD PUSH32 0x53DA02F600000000000000000000000000000000000000000000000000000000 DUP2 MSTORE PUSH1 0x4 ADD PUSH1 0x40 MLOAD DUP1 SWAP2 SUB SWAP1 REVERT JUMPDEST PUSH2 0x2876 PUSH8 0xE4F6E1A220023470 PUSH1 0xC0 SHL PUSH2 0x2FC6 JUMP JUMPDEST PUSH2 0x288A PUSH8 0x336BEB87CE7E7202 PUSH1 0xC0 SHL PUSH2 0x2FC6 JUMP JUMPDEST PUSH2 0x289E PUSH8 0x514A66E94037D4A1 PUSH1 0xC0 SHL PUSH2 0x2FC6 JUMP JUMPDEST PUSH1 0x40 MLOAD DUP1 PUSH1 0x20 ADD PUSH1 0x40 MSTORE DUP1 PUSH1 0x0 DUP2 MSTORE POP DUP1 MLOAD SWAP1 PUSH1 0x20 ADD KECCAK256 DUP8 DUP1 MLOAD SWAP1 PUSH1 0x20 ADD KECCAK256 SUB PUSH2 0x291C JUMPI PUSH2 0x28D6 PUSH8 0xB916F5B9EE09C17F PUSH1 0xC0 SHL PUSH2 0x2FC6 JUMP JUMPDEST PUSH2 0x28EA PUSH8 0xBF8A30ED68A1C6D0 PUSH1 0xC0 SHL PUSH2 0x2FC6 JUMP JUMPDEST PUSH1 0x40 MLOAD PUSH32 0x41C14C8B00000000000000000000000000000000000000000000000000000000 DUP2 MSTORE PUSH1 0x4 ADD PUSH1 0x40 MLOAD DUP1 SWAP2 SUB SWAP1 REVERT JUMPDEST PUSH2 0x2930 PUSH8 0xE15B253C37C5DBE5 PUSH1 0xC0 SHL PUSH2 0x2FC6 JUMP JUMPDEST PUSH2 0x2944 PUSH8 0xCD42471CE6BA3A9B PUSH1 0xC0 SHL PUSH2 0x2FC6 JUMP JUMPDEST PUSH2 0x2958 PUSH8 0xEDBA8CB358907277 PUSH1 0xC0 SHL PUSH2 0x2FC6 JUMP JUMPDEST PUSH1 0x0 DUP9 PUSH1 0x40 MLOAD PUSH1 0x20 ADD PUSH2 0x296B SWAP2 SWAP1 PUSH2 0x3EDA JUMP JUMPDEST PUSH1 0x40 MLOAD PUSH1 0x20 DUP2 DUP4 SUB SUB DUP2 MSTORE SWAP1 PUSH1 0x40 MSTORE SWAP1 POP PUSH2 0x2990 PUSH8 0x2708FD371F9115BC PUSH1 0xC0 SHL PUSH2 0x2FC6 JUMP JUMPDEST PUSH2 0x29A4 PUSH8 0xF29FE6E08859EC7B PUSH1 0xC0 SHL PUSH2 0x2FC6 JUMP JUMPDEST PUSH1 0x0 PUSH1 0x1 PUSH1 0x0 SWAP1 SLOAD SWAP1 PUSH2 0x100 EXP SWAP1 DIV PUSH20 0xFFFFFFFFFFFFFFFFFFFFFFFFFFFFFFFFFFFFFFFF AND PUSH20 0xFFFFFFFFFFFFFFFFFFFFFFFFFFFFFFFFFFFFFFFF AND PUSH4 0x18C04BBB DUP4 PUSH1 0x40 MLOAD DUP3 PUSH4 0xFFFFFFFF AND PUSH1 0xE0 SHL DUP2 MSTORE PUSH1 0x4 ADD PUSH2 0x2A01 SWAP2 SWAP1 PUSH2 0x3CC4 JUMP JUMPDEST PUSH1 0x20 PUSH1 0x40 MLOAD DUP1 DUP4 SUB DUP2 DUP7 GAS STATICCALL ISZERO DUP1 ISZERO PUSH2 0x2A1E JUMPI RETURNDATASIZE PUSH1 0x0 DUP1 RETURNDATACOPY RETURNDATASIZE PUSH1 0x0 REVERT JUMPDEST POP POP POP POP PUSH1 0x40 MLOAD RETURNDATASIZE PUSH1 0x1F NOT PUSH1 0x1F DUP3 ADD AND DUP3 ADD DUP1 PUSH1 0x40 MSTORE POP DUP2 ADD SWAP1 PUSH2 0x2A42 SWAP2 SWAP1 PUSH2 0x3CFB JUMP JUMPDEST SWAP1 POP PUSH2 0x2A58 PUSH8 0x808ECE4D1DDE1F5E PUSH1 0xC0 SHL PUSH2 0x2FC6 JUMP JUMPDEST PUSH2 0x2A6C PUSH8 0xE5CF27B33F154C99 PUSH1 0xC0 SHL PUSH2 0x2FC6 JUMP JUMPDEST PUSH1 0x0 PUSH20 0xFFFFFFFFFFFFFFFFFFFFFFFFFFFFFFFFFFFFFFFF AND DUP2 PUSH20 0xFFFFFFFFFFFFFFFFFFFFFFFFFFFFFFFFFFFFFFFF AND SUB PUSH2 0x2C01 JUMPI PUSH2 0x2AB4 PUSH8 0xF44256532372D6E PUSH1 0xC0 SHL PUSH2 0x2FC6 JUMP JUMPDEST PUSH2 0x2AC8 PUSH8 0x4D71D9E831EDE229 PUSH1 0xC0 SHL PUSH2 0x2FC6 JUMP JUMPDEST PUSH1 0x1 PUSH1 0x0 SWAP1 SLOAD SWAP1 PUSH2 0x100 EXP SWAP1 DIV PUSH20 0xFFFFFFFFFFFFFFFFFFFFFFFFFFFFFFFFFFFFFFFF AND PUSH20 0xFFFFFFFFFFFFFFFFFFFFFFFFFFFFFFFFFFFFFFFF AND PUSH4 0x518F58C5 DUP11 DUP5 PUSH1 0x40 MLOAD DUP4 PUSH4 0xFFFFFFFF AND PUSH1 0xE0 SHL DUP2 MSTORE PUSH1 0x4 ADD PUSH2 0x2B25 SWAP3 SWAP2 SWAP1 PUSH2 0x3F00 JUMP JUMPDEST PUSH1 0x20 PUSH1 0x40 MLOAD DUP1 DUP4 SUB DUP2 PUSH1 0x0 DUP8 GAS CALL ISZERO DUP1 ISZERO PUSH2 0x2B44 JUMPI RETURNDATASIZE PUSH1 0x0 DUP1 RETURNDATACOPY RETURNDATASIZE PUSH1 0x0 REVERT JUMPDEST POP POP POP POP PUSH1 0x40 MLOAD RETURNDATASIZE PUSH1 0x1F NOT PUSH1 0x1F DUP3 ADD AND DUP3 ADD DUP1 PUSH1 0x40 MSTORE POP DUP2 ADD SWAP1 PUSH2 0x2B68 SWAP2 SWAP1 PUSH2 0x3CFB JUMP JUMPDEST SWAP1 POP PUSH2 0x2B7E PUSH8 0xEA747DE38ED34349 PUSH1 0xC0 SHL PUSH2 0x2FC6 JUMP JUMPDEST DUP7 PUSH1 0x3 PUSH1 0x0 DUP4 PUSH20 0xFFFFFFFFFFFFFFFFFFFFFFFFFFFFFFFFFFFFFFFF AND PUSH20 0xFFFFFFFFFFFFFFFFFFFFFFFFFFFFFFFFFFFFFFFF AND DUP2 MSTORE PUSH1 0x20 ADD SWAP1 DUP2 MSTORE PUSH1 0x20 ADD PUSH1 0x0 KECCAK256 PUSH1 0x0 PUSH2 0x100 EXP DUP2 SLOAD DUP2 PUSH20 0xFFFFFFFFFFFFFFFFFFFFFFFFFFFFFFFFFFFFFFFF MUL NOT AND SWAP1 DUP4 PUSH20 0xFFFFFFFFFFFFFFFFFFFFFFFFFFFFFFFFFFFFFFFF AND MUL OR SWAP1 SSTORE POP PUSH2 0x2C16 JUMP JUMPDEST PUSH2 0x2C15 PUSH8 0xE6E92D3C694CA88 PUSH1 0xC0 SHL PUSH2 0x2FC6 JUMP JUMPDEST JUMPDEST PUSH2 0x2C2A PUSH8 0xBCBD19CD74DA8CEE PUSH1 0xC0 SHL PUSH2 0x2FC6 JUMP JUMPDEST PUSH2 0x2C3E PUSH8 0xEB7D0EBB43D26E78 PUSH1 0xC0 SHL PUSH2 0x2FC6 JUMP JUMPDEST PUSH1 0x1 PUSH1 0x0 SWAP1 SLOAD SWAP1 PUSH2 0x100 EXP SWAP1 DIV PUSH20 0xFFFFFFFFFFFFFFFFFFFFFFFFFFFFFFFFFFFFFFFF AND PUSH20 0xFFFFFFFFFFFFFFFFFFFFFFFFFFFFFFFFFFFFFFFF AND PUSH4 0x7E8816B9 DUP4 DUP11 DUP10 PUSH1 0x40 MLOAD DUP5 PUSH4 0xFFFFFFFF AND PUSH1 0xE0 SHL DUP2 MSTORE PUSH1 0x4 ADD PUSH2 0x2C9D SWAP4 SWAP3 SWAP2 SWAP1 PUSH2 0x3F37 JUMP JUMPDEST PUSH1 0x20 PUSH1 0x40 MLOAD DUP1 DUP4 SUB DUP2 PUSH1 0x0 DUP8 GAS CALL ISZERO DUP1 ISZERO PUSH2 0x2CBC JUMPI RETURNDATASIZE PUSH1 0x0 DUP1 RETURNDATACOPY RETURNDATASIZE PUSH1 0x0 REVERT JUMPDEST POP POP POP POP PUSH1 0x40 MLOAD RETURNDATASIZE PUSH1 0x1F NOT PUSH1 0x1F DUP3 ADD AND DUP3 ADD DUP1 PUSH1 0x40 MSTORE POP DUP2 ADD SWAP1 PUSH2 0x2CE0 SWAP2 SWAP1 PUSH2 0x3BE4 JUMP JUMPDEST POP PUSH2 0x2CF5 PUSH8 0xFCEA1D5E26AD2E5A PUSH1 0xC0 SHL PUSH2 0x2FC6 JUMP JUMPDEST PUSH2 0x2D09 PUSH8 0x24CE7DC937428C6A PUSH1 0xC0 SHL PUSH2 0x2FC6 JUMP JUMPDEST DUP2 PUSH1 0x40 MLOAD PUSH2 0x2D17 SWAP2 SWAP1 PUSH2 0x3F75 JUMP JUMPDEST PUSH1 0x40 MLOAD DUP1 SWAP2 SUB SWAP1 KECCAK256 CHAINID DUP10 PUSH20 0xFFFFFFFFFFFFFFFFFFFFFFFFFFFFFFFFFFFFFFFF AND PUSH31 0x21EA588197CE7E376EC3C4248FBDBCF230305A4F7B8F00874A9F5BDC2995AA DUP5 DUP11 TIMESTAMP DUP16 PUSH1 0x40 MLOAD PUSH2 0x2D6B SWAP5 SWAP4 SWAP3 SWAP2 SWAP1 PUSH2 0x3F8C JUMP JUMPDEST PUSH1 0x40 MLOAD DUP1 SWAP2 SUB SWAP1 LOG4 POP POP POP POP POP POP POP POP POP POP JUMP JUMPDEST PUSH1 0x0 PUSH32 0x1FFC9A700000000000000000000000000000000000000000000000000000000 PUSH28 0xFFFFFFFFFFFFFFFFFFFFFFFFFFFFFFFFFFFFFFFFFFFFFFFFFFFFFFFF NOT AND DUP3 PUSH28 0xFFFFFFFFFFFFFFFFFFFFFFFFFFFFFFFFFFFFFFFFFFFFFFFFFFFFFFFF NOT AND EQ SWAP1 POP SWAP2 SWAP1 POP JUMP JUMPDEST PUSH2 0x2DFA DUP2 PUSH2 0x2DF5 PUSH2 0x2EDD JUMP JUMPDEST PUSH2 0x2FC9 JUMP JUMPDEST POP JUMP JUMPDEST PUSH2 0x2E07 DUP3 DUP3 PUSH2 0x654 JUMP JUMPDEST PUSH2 0x2ED9 JUMPI PUSH1 0x1 PUSH1 0x0 DUP1 DUP5 DUP2 MSTORE PUSH1 0x20 ADD SWAP1 DUP2 MSTORE PUSH1 0x20 ADD PUSH1 0x0 KECCAK256 PUSH1 0x0 ADD PUSH1 0x0 DUP4 PUSH20 0xFFFFFFFFFFFFFFFFFFFFFFFFFFFFFFFFFFFFFFFF AND PUSH20 0xFFFFFFFFFFFFFFFFFFFFFFFFFFFFFFFFFFFFFFFF AND DUP2 MSTORE PUSH1 0x20 ADD SWAP1 DUP2 MSTORE PUSH1 0x20 ADD PUSH1 0x0 KECCAK256 PUSH1 0x0 PUSH2 0x100 EXP DUP2 SLOAD DUP2 PUSH1 0xFF MUL NOT AND SWAP1 DUP4 ISZERO ISZERO MUL OR SWAP1 SSTORE POP PUSH2 0x2E7E PUSH2 0x2EDD JUMP JUMPDEST PUSH20 0xFFFFFFFFFFFFFFFFFFFFFFFFFFFFFFFFFFFFFFFF AND DUP2 PUSH20 0xFFFFFFFFFFFFFFFFFFFFFFFFFFFFFFFFFFFFFFFF AND DUP4 PUSH32 0x2F8788117E7EFF1D82E926EC794901D17C78024A50270940304540A733656F0D PUSH1 0x40 MLOAD PUSH1 0x40 MLOAD DUP1 SWAP2 SUB SWAP1 LOG4 JUMPDEST POP POP JUMP JUMPDEST PUSH1 0x0 CALLER SWAP1 POP SWAP1 JUMP JUMPDEST PUSH2 0x2EEF DUP3 DUP3 PUSH2 0x654 JUMP JUMPDEST ISZERO PUSH2 0x2FC2 JUMPI PUSH1 0x0 DUP1 PUSH1 0x0 DUP5 DUP2 MSTORE PUSH1 0x20 ADD SWAP1 DUP2 MSTORE PUSH1 0x20 ADD PUSH1 0x0 KECCAK256 PUSH1 0x0 ADD PUSH1 0x0 DUP4 PUSH20 0xFFFFFFFFFFFFFFFFFFFFFFFFFFFFFFFFFFFFFFFF AND PUSH20 0xFFFFFFFFFFFFFFFFFFFFFFFFFFFFFFFFFFFFFFFF AND DUP2 MSTORE PUSH1 0x20 ADD SWAP1 DUP2 MSTORE PUSH1 0x20 ADD PUSH1 0x0 KECCAK256 PUSH1 0x0 PUSH2 0x100 EXP DUP2 SLOAD DUP2 PUSH1 0xFF MUL NOT AND SWAP1 DUP4 ISZERO ISZERO MUL OR SWAP1 SSTORE POP PUSH2 0x2F67 PUSH2 0x2EDD JUMP JUMPDEST PUSH20 0xFFFFFFFFFFFFFFFFFFFFFFFFFFFFFFFFFFFFFFFF AND DUP2 PUSH20 0xFFFFFFFFFFFFFFFFFFFFFFFFFFFFFFFFFFFFFFFF AND DUP4 PUSH32 0xF6391F5C32D9C69D2A47EA670B442974B53935D1EDC7FD64EB21E047A839171B PUSH1 0x40 MLOAD PUSH1 0x40 MLOAD DUP1 SWAP2 SUB SWAP1 LOG4 JUMPDEST POP POP JUMP JUMPDEST POP JUMP JUMPDEST PUSH2 0x2FD3 DUP3 DUP3 PUSH2 0x654 JUMP JUMPDEST PUSH2 0x304A JUMPI PUSH2 0x2FE0 DUP2 PUSH2 0x304E JUMP JUMPDEST PUSH2 0x2FEE DUP4 PUSH1 0x0 SHR PUSH1 0x20 PUSH2 0x307B JUMP JUMPDEST PUSH1 0x40 MLOAD PUSH1 0x20 ADD PUSH2 0x2FFF SWAP3 SWAP2 SWAP1 PUSH2 0x4070 JUMP JUMPDEST PUSH1 0x40 MLOAD PUSH1 0x20 DUP2 DUP4 SUB SUB DUP2 MSTORE SWAP1 PUSH1 0x40 MSTORE PUSH1 0x40 MLOAD PUSH32 0x8C379A000000000000000000000000000000000000000000000000000000000 DUP2 MSTORE PUSH1 0x4 ADD PUSH2 0x3041 SWAP2 SWAP1 PUSH2 0x3CC4 JUMP JUMPDEST PUSH1 0x40 MLOAD DUP1 SWAP2 SUB SWAP1 REVERT JUMPDEST POP POP JUMP JUMPDEST PUSH1 0x60 PUSH2 0x3074 DUP3 PUSH20 0xFFFFFFFFFFFFFFFFFFFFFFFFFFFFFFFFFFFFFFFF AND PUSH1 0x14 PUSH1 0xFF AND PUSH2 0x307B JUMP JUMPDEST SWAP1 POP SWAP2 SWAP1 POP JUMP JUMPDEST PUSH1 0x60 PUSH1 0x0 PUSH1 0x2 DUP4 PUSH1 0x2 PUSH2 0x308E SWAP2 SWAP1 PUSH2 0x40D9 JUMP JUMPDEST PUSH2 0x3098 SWAP2 SWAP1 PUSH2 0x411B JUMP JUMPDEST PUSH8 0xFFFFFFFFFFFFFFFF DUP2 GT ISZERO PUSH2 0x30B1 JUMPI PUSH2 0x30B0 PUSH2 0x3596 JUMP JUMPDEST JUMPDEST PUSH1 0x40 MLOAD SWAP1 DUP1 DUP3 MSTORE DUP1 PUSH1 0x1F ADD PUSH1 0x1F NOT AND PUSH1 0x20 ADD DUP3 ADD PUSH1 0x40 MSTORE DUP1 ISZERO PUSH2 0x30E3 JUMPI DUP2 PUSH1 0x20 ADD PUSH1 0x1 DUP3 MUL DUP1 CALLDATASIZE DUP4 CALLDATACOPY DUP1 DUP3 ADD SWAP2 POP POP SWAP1 POP JUMPDEST POP SWAP1 POP PUSH32 0x3000000000000000000000000000000000000000000000000000000000000000 DUP2 PUSH1 0x0 DUP2 MLOAD DUP2 LT PUSH2 0x311B JUMPI PUSH2 0x311A PUSH2 0x414F JUMP JUMPDEST JUMPDEST PUSH1 0x20 ADD ADD SWAP1 PUSH31 0xFFFFFFFFFFFFFFFFFFFFFFFFFFFFFFFFFFFFFFFFFFFFFFFFFFFFFFFFFFFFFF NOT AND SWAP1 DUP2 PUSH1 0x0 BYTE SWAP1 MSTORE8 POP PUSH32 0x7800000000000000000000000000000000000000000000000000000000000000 DUP2 PUSH1 0x1 DUP2 MLOAD DUP2 LT PUSH2 0x317F JUMPI PUSH2 0x317E PUSH2 0x414F JUMP JUMPDEST JUMPDEST PUSH1 0x20 ADD ADD SWAP1 PUSH31 0xFFFFFFFFFFFFFFFFFFFFFFFFFFFFFFFFFFFFFFFFFFFFFFFFFFFFFFFFFFFFFF NOT AND SWAP1 DUP2 PUSH1 0x0 BYTE SWAP1 MSTORE8 POP PUSH1 0x0 PUSH1 0x1 DUP5 PUSH1 0x2 PUSH2 0x31BF SWAP2 SWAP1 PUSH2 0x40D9 JUMP JUMPDEST PUSH2 0x31C9 SWAP2 SWAP1 PUSH2 0x411B JUMP JUMPDEST SWAP1 POP JUMPDEST PUSH1 0x1 DUP2 GT ISZERO PUSH2 0x3269 JUMPI PUSH32 0x3031323334353637383961626364656600000000000000000000000000000000 PUSH1 0xF DUP7 AND PUSH1 0x10 DUP2 LT PUSH2 0x320B JUMPI PUSH2 0x320A PUSH2 0x414F JUMP JUMPDEST JUMPDEST BYTE PUSH1 0xF8 SHL DUP3 DUP3 DUP2 MLOAD DUP2 LT PUSH2 0x3222 JUMPI PUSH2 0x3221 PUSH2 0x414F JUMP JUMPDEST JUMPDEST PUSH1 0x20 ADD ADD SWAP1 PUSH31 0xFFFFFFFFFFFFFFFFFFFFFFFFFFFFFFFFFFFFFFFFFFFFFFFFFFFFFFFFFFFFFF NOT AND SWAP1 DUP2 PUSH1 0x0 BYTE SWAP1 MSTORE8 POP PUSH1 0x4 DUP6 SWAP1 SHR SWAP5 POP DUP1 PUSH2 0x3262 SWAP1 PUSH2 0x417E JUMP JUMPDEST SWAP1 POP PUSH2 0x31CC JUMP JUMPDEST POP PUSH1 0x0 DUP5 EQ PUSH2 0x32AD JUMPI PUSH1 0x40 MLOAD PUSH32 0x8C379A000000000000000000000000000000000000000000000000000000000 DUP2 MSTORE PUSH1 0x4 ADD PUSH2 0x32A4 SWAP1 PUSH2 0x41F3 JUMP JUMPDEST PUSH1 0x40 MLOAD DUP1 SWAP2 SUB SWAP1 REVERT JUMPDEST DUP1 SWAP2 POP POP SWAP3 SWAP2 POP POP JUMP JUMPDEST PUSH1 0x0 PUSH1 0x40 MLOAD SWAP1 POP SWAP1 JUMP JUMPDEST PUSH1 0x0 DUP1 REVERT JUMPDEST PUSH1 0x0 DUP1 REVERT JUMPDEST PUSH1 0x0 PUSH32 0xFFFFFFFF00000000000000000000000000000000000000000000000000000000 DUP3 AND SWAP1 POP SWAP2 SWAP1 POP JUMP JUMPDEST PUSH2 0x3300 DUP2 PUSH2 0x32CB JUMP JUMPDEST DUP2 EQ PUSH2 0x330B JUMPI PUSH1 0x0 DUP1 REVERT JUMPDEST POP JUMP JUMPDEST PUSH1 0x0 DUP2 CALLDATALOAD SWAP1 POP PUSH2 0x331D DUP2 PUSH2 0x32F7 JUMP JUMPDEST SWAP3 SWAP2 POP POP JUMP JUMPDEST PUSH1 0x0 PUSH1 0x20 DUP3 DUP5 SUB SLT ISZERO PUSH2 0x3339 JUMPI PUSH2 0x3338 PUSH2 0x32C1 JUMP JUMPDEST JUMPDEST PUSH1 0x0 PUSH2 0x3347 DUP5 DUP3 DUP6 ADD PUSH2 0x330E JUMP JUMPDEST SWAP2 POP POP SWAP3 SWAP2 POP POP JUMP JUMPDEST PUSH1 0x0 DUP2 ISZERO ISZERO SWAP1 POP SWAP2 SWAP1 POP JUMP JUMPDEST PUSH2 0x3365 DUP2 PUSH2 0x3350 JUMP JUMPDEST DUP3 MSTORE POP POP JUMP JUMPDEST PUSH1 0x0 PUSH1 0x20 DUP3 ADD SWAP1 POP PUSH2 0x3380 PUSH1 0x0 DUP4 ADD DUP5 PUSH2 0x335C JUMP JUMPDEST SWAP3 SWAP2 POP POP JUMP JUMPDEST PUSH1 0x0 DUP2 SWAP1 POP SWAP2 SWAP1 POP JUMP JUMPDEST PUSH2 0x3399 DUP2 PUSH2 0x3386 JUMP JUMPDEST DUP3 MSTORE POP POP JUMP JUMPDEST PUSH1 0x0 PUSH1 0x20 DUP3 ADD SWAP1 POP PUSH2 0x33B4 PUSH1 0x0 DUP4 ADD DUP5 PUSH2 0x3390 JUMP JUMPDEST SWAP3 SWAP2 POP POP JUMP JUMPDEST PUSH2 0x33C3 DUP2 PUSH2 0x3386 JUMP JUMPDEST DUP2 EQ PUSH2 0x33CE JUMPI PUSH1 0x0 DUP1 REVERT JUMPDEST POP JUMP JUMPDEST PUSH1 0x0 DUP2 CALLDATALOAD SWAP1 POP PUSH2 0x33E0 DUP2 PUSH2 0x33BA JUMP JUMPDEST SWAP3 SWAP2 POP POP JUMP JUMPDEST PUSH1 0x0 PUSH1 0x20 DUP3 DUP5 SUB SLT ISZERO PUSH2 0x33FC JUMPI PUSH2 0x33FB PUSH2 0x32C1 JUMP JUMPDEST JUMPDEST PUSH1 0x0 PUSH2 0x340A DUP5 DUP3 DUP6 ADD PUSH2 0x33D1 JUMP JUMPDEST SWAP2 POP POP SWAP3 SWAP2 POP POP JUMP JUMPDEST PUSH1 0x0 PUSH20 0xFFFFFFFFFFFFFFFFFFFFFFFFFFFFFFFFFFFFFFFF DUP3 AND SWAP1 POP SWAP2 SWAP1 POP JUMP JUMPDEST PUSH1 0x0 PUSH2 0x343E DUP3 PUSH2 0x3413 JUMP JUMPDEST SWAP1 POP SWAP2 SWAP1 POP JUMP JUMPDEST PUSH2 0x344E DUP2 PUSH2 0x3433 JUMP JUMPDEST DUP2 EQ PUSH2 0x3459 JUMPI PUSH1 0x0 DUP1 REVERT JUMPDEST POP JUMP JUMPDEST PUSH1 0x0 DUP2 CALLDATALOAD SWAP1 POP PUSH2 0x346B DUP2 PUSH2 0x3445 JUMP JUMPDEST SWAP3 SWAP2 POP POP JUMP JUMPDEST PUSH1 0x0 DUP1 PUSH1 0x40 DUP4 DUP6 SUB SLT ISZERO PUSH2 0x3488 JUMPI PUSH2 0x3487 PUSH2 0x32C1 JUMP JUMPDEST JUMPDEST PUSH1 0x0 PUSH2 0x3496 DUP6 DUP3 DUP7 ADD PUSH2 0x33D1 JUMP JUMPDEST SWAP3 POP POP PUSH1 0x20 PUSH2 0x34A7 DUP6 DUP3 DUP7 ADD PUSH2 0x345C JUMP JUMPDEST SWAP2 POP POP SWAP3 POP SWAP3 SWAP1 POP JUMP JUMPDEST PUSH1 0x0 DUP2 SWAP1 POP SWAP2 SWAP1 POP JUMP JUMPDEST PUSH2 0x34C4 DUP2 PUSH2 0x34B1 JUMP JUMPDEST DUP2 EQ PUSH2 0x34CF JUMPI PUSH1 0x0 DUP1 REVERT JUMPDEST POP JUMP JUMPDEST PUSH1 0x0 DUP2 CALLDATALOAD SWAP1 POP PUSH2 0x34E1 DUP2 PUSH2 0x34BB JUMP JUMPDEST SWAP3 SWAP2 POP POP JUMP JUMPDEST PUSH1 0x0 PUSH1 0x20 DUP3 DUP5 SUB SLT ISZERO PUSH2 0x34FD JUMPI PUSH2 0x34FC PUSH2 0x32C1 JUMP JUMPDEST JUMPDEST PUSH1 0x0 PUSH2 0x350B DUP5 DUP3 DUP6 ADD PUSH2 0x34D2 JUMP JUMPDEST SWAP2 POP POP SWAP3 SWAP2 POP POP JUMP JUMPDEST PUSH1 0x0 DUP1 PUSH1 0x0 DUP1 PUSH1 0x80 DUP6 DUP8 SUB SLT ISZERO PUSH2 0x352E JUMPI PUSH2 0x352D PUSH2 0x32C1 JUMP JUMPDEST JUMPDEST PUSH1 0x0 PUSH2 0x353C DUP8 DUP3 DUP9 ADD PUSH2 0x345C JUMP JUMPDEST SWAP5 POP POP PUSH1 0x20 PUSH2 0x354D DUP8 DUP3 DUP9 ADD PUSH2 0x345C JUMP JUMPDEST SWAP4 POP POP PUSH1 0x40 PUSH2 0x355E DUP8 DUP3 DUP9 ADD PUSH2 0x34D2 JUMP JUMPDEST SWAP3 POP POP PUSH1 0x60 PUSH2 0x356F DUP8 DUP3 DUP9 ADD PUSH2 0x34D2 JUMP JUMPDEST SWAP2 POP POP SWAP3 SWAP6 SWAP2 SWAP5 POP SWAP3 POP JUMP JUMPDEST PUSH1 0x0 DUP1 REVERT JUMPDEST PUSH1 0x0 DUP1 REVERT JUMPDEST PUSH1 0x0 PUSH1 0x1F NOT PUSH1 0x1F DUP4 ADD AND SWAP1 POP SWAP2 SWAP1 POP JUMP JUMPDEST PUSH32 0x4E487B7100000000000000000000000000000000000000000000000000000000 PUSH1 0x0 MSTORE PUSH1 0x41 PUSH1 0x4 MSTORE PUSH1 0x24 PUSH1 0x0 REVERT JUMPDEST PUSH2 0x35CE DUP3 PUSH2 0x3585 JUMP JUMPDEST DUP2 ADD DUP2 DUP2 LT PUSH8 0xFFFFFFFFFFFFFFFF DUP3 GT OR ISZERO PUSH2 0x35ED JUMPI PUSH2 0x35EC PUSH2 0x3596 JUMP JUMPDEST JUMPDEST DUP1 PUSH1 0x40 MSTORE POP POP POP JUMP JUMPDEST PUSH1 0x0 PUSH2 0x3600 PUSH2 0x32B7 JUMP JUMPDEST SWAP1 POP PUSH2 0x360C DUP3 DUP3 PUSH2 0x35C5 JUMP JUMPDEST SWAP2 SWAP1 POP JUMP JUMPDEST PUSH1 0x0 PUSH8 0xFFFFFFFFFFFFFFFF DUP3 GT ISZERO PUSH2 0x362C JUMPI PUSH2 0x362B PUSH2 0x3596 JUMP JUMPDEST JUMPDEST PUSH2 0x3635 DUP3 PUSH2 0x3585 JUMP JUMPDEST SWAP1 POP PUSH1 0x20 DUP2 ADD SWAP1 POP SWAP2 SWAP1 POP JUMP JUMPDEST DUP3 DUP2 DUP4 CALLDATACOPY PUSH1 0x0 DUP4 DUP4 ADD MSTORE POP POP POP JUMP JUMPDEST PUSH1 0x0 PUSH2 0x3664 PUSH2 0x365F DUP5 PUSH2 0x3611 JUMP JUMPDEST PUSH2 0x35F6 JUMP JUMPDEST SWAP1 POP DUP3 DUP2 MSTORE PUSH1 0x20 DUP2 ADD DUP5 DUP5 DUP5 ADD GT ISZERO PUSH2 0x3680 JUMPI PUSH2 0x367F PUSH2 0x3580 JUMP JUMPDEST JUMPDEST PUSH2 0x368B DUP5 DUP3 DUP6 PUSH2 0x3642 JUMP JUMPDEST POP SWAP4 SWAP3 POP POP POP JUMP JUMPDEST PUSH1 0x0 DUP3 PUSH1 0x1F DUP4 ADD SLT PUSH2 0x36A8 JUMPI PUSH2 0x36A7 PUSH2 0x357B JUMP JUMPDEST JUMPDEST DUP2 CALLDATALOAD PUSH2 0x36B8 DUP5 DUP3 PUSH1 0x20 DUP7 ADD PUSH2 0x3651 JUMP JUMPDEST SWAP2 POP POP SWAP3 SWAP2 POP POP JUMP JUMPDEST PUSH1 0x0 DUP1 PUSH1 0x0 PUSH1 0x60 DUP5 DUP7 SUB SLT ISZERO PUSH2 0x36DA JUMPI PUSH2 0x36D9 PUSH2 0x32C1 JUMP JUMPDEST JUMPDEST PUSH1 0x0 DUP5 ADD CALLDATALOAD PUSH8 0xFFFFFFFFFFFFFFFF DUP2 GT ISZERO PUSH2 0x36F8 JUMPI PUSH2 0x36F7 PUSH2 0x32C6 JUMP JUMPDEST JUMPDEST PUSH2 0x3704 DUP7 DUP3 DUP8 ADD PUSH2 0x3693 JUMP JUMPDEST SWAP4 POP POP PUSH1 0x20 PUSH2 0x3715 DUP7 DUP3 DUP8 ADD PUSH2 0x34D2 JUMP JUMPDEST SWAP3 POP POP PUSH1 0x40 PUSH2 0x3726 DUP7 DUP3 DUP8 ADD PUSH2 0x345C JUMP JUMPDEST SWAP2 POP POP SWAP3 POP SWAP3 POP SWAP3 JUMP JUMPDEST PUSH1 0x0 PUSH1 0x20 DUP3 DUP5 SUB SLT ISZERO PUSH2 0x3746 JUMPI PUSH2 0x3745 PUSH2 0x32C1 JUMP JUMPDEST JUMPDEST PUSH1 0x0 PUSH2 0x3754 DUP5 DUP3 DUP6 ADD PUSH2 0x345C JUMP JUMPDEST SWAP2 POP POP SWAP3 SWAP2 POP POP JUMP JUMPDEST PUSH2 0x3766 DUP2 PUSH2 0x3433 JUMP JUMPDEST DUP3 MSTORE POP POP JUMP JUMPDEST PUSH1 0x0 PUSH1 0x20 DUP3 ADD SWAP1 POP PUSH2 0x3781 PUSH1 0x0 DUP4 ADD DUP5 PUSH2 0x375D JUMP JUMPDEST SWAP3 SWAP2 POP POP JUMP JUMPDEST PUSH1 0x0 PUSH1 0xFF DUP3 AND SWAP1 POP SWAP2 SWAP1 POP JUMP JUMPDEST PUSH2 0x379D DUP2 PUSH2 0x3787 JUMP JUMPDEST DUP2 EQ PUSH2 0x37A8 JUMPI PUSH1 0x0 DUP1 REVERT JUMPDEST POP JUMP JUMPDEST PUSH1 0x0 DUP2 CALLDATALOAD SWAP1 POP PUSH2 0x37BA DUP2 PUSH2 0x3794 JUMP JUMPDEST SWAP3 SWAP2 POP POP JUMP JUMPDEST PUSH1 0x0 DUP1 PUSH1 0x0 DUP1 PUSH1 0x0 DUP1 PUSH1 0x0 DUP1 PUSH2 0x100 DUP10 DUP12 SUB SLT ISZERO PUSH2 0x37E1 JUMPI PUSH2 0x37E0 PUSH2 0x32C1 JUMP JUMPDEST JUMPDEST PUSH1 0x0 PUSH2 0x37EF DUP12 DUP3 DUP13 ADD PUSH2 0x345C JUMP JUMPDEST SWAP9 POP POP PUSH1 0x20 PUSH2 0x3800 DUP12 DUP3 DUP13 ADD PUSH2 0x345C JUMP JUMPDEST SWAP8 POP POP PUSH1 0x40 PUSH2 0x3811 DUP12 DUP3 DUP13 ADD PUSH2 0x34D2 JUMP JUMPDEST SWAP7 POP POP PUSH1 0x60 PUSH2 0x3822 DUP12 DUP3 DUP13 ADD PUSH2 0x34D2 JUMP JUMPDEST SWAP6 POP POP PUSH1 0x80 PUSH2 0x3833 DUP12 DUP3 DUP13 ADD PUSH2 0x34D2 JUMP JUMPDEST SWAP5 POP POP PUSH1 0xA0 PUSH2 0x3844 DUP12 DUP3 DUP13 ADD PUSH2 0x37AB JUMP JUMPDEST SWAP4 POP POP PUSH1 0xC0 PUSH2 0x3855 DUP12 DUP3 DUP13 ADD PUSH2 0x33D1 JUMP JUMPDEST SWAP3 POP POP PUSH1 0xE0 PUSH2 0x3866 DUP12 DUP3 DUP13 ADD PUSH2 0x33D1 JUMP JUMPDEST SWAP2 POP POP SWAP3 SWAP6 SWAP9 POP SWAP3 SWAP6 SWAP9 SWAP1 SWAP4 SWAP7 POP JUMP JUMPDEST PUSH1 0x0 DUP1 PUSH1 0x0 PUSH1 0x60 DUP5 DUP7 SUB SLT ISZERO PUSH2 0x388F JUMPI PUSH2 0x388E PUSH2 0x32C1 JUMP JUMPDEST JUMPDEST PUSH1 0x0 PUSH2 0x389D DUP7 DUP3 DUP8 ADD PUSH2 0x345C JUMP JUMPDEST SWAP4 POP POP PUSH1 0x20 PUSH2 0x38AE DUP7 DUP3 DUP8 ADD PUSH2 0x345C JUMP JUMPDEST SWAP3 POP POP PUSH1 0x40 PUSH2 0x38BF DUP7 DUP3 DUP8 ADD PUSH2 0x34D2 JUMP JUMPDEST SWAP2 POP POP SWAP3 POP SWAP3 POP SWAP3 JUMP JUMPDEST PUSH1 0x0 DUP2 SWAP1 POP SWAP2 SWAP1 POP JUMP JUMPDEST PUSH1 0x0 PUSH2 0x38EE PUSH2 0x38E9 PUSH2 0x38E4 DUP5 PUSH2 0x3413 JUMP JUMPDEST PUSH2 0x38C9 JUMP JUMPDEST PUSH2 0x3413 JUMP JUMPDEST SWAP1 POP SWAP2 SWAP1 POP JUMP JUMPDEST PUSH1 0x0 PUSH2 0x3900 DUP3 PUSH2 0x38D3 JUMP JUMPDEST SWAP1 POP SWAP2 SWAP1 POP JUMP JUMPDEST PUSH1 0x0 PUSH2 0x3912 DUP3 PUSH2 0x38F5 JUMP JUMPDEST SWAP1 POP SWAP2 SWAP1 POP JUMP JUMPDEST PUSH2 0x3922 DUP2 PUSH2 0x3907 JUMP JUMPDEST DUP3 MSTORE POP POP JUMP JUMPDEST PUSH1 0x0 PUSH1 0x20 DUP3 ADD SWAP1 POP PUSH2 0x393D PUSH1 0x0 DUP4 ADD DUP5 PUSH2 0x3919 JUMP JUMPDEST SWAP3 SWAP2 POP POP JUMP JUMPDEST PUSH1 0x0 DUP1 PUSH1 0x0 DUP1 PUSH1 0x0 DUP1 PUSH1 0x0 PUSH1 0xE0 DUP9 DUP11 SUB SLT ISZERO PUSH2 0x3962 JUMPI PUSH2 0x3961 PUSH2 0x32C1 JUMP JUMPDEST JUMPDEST PUSH1 0x0 DUP9 ADD CALLDATALOAD PUSH8 0xFFFFFFFFFFFFFFFF DUP2 GT ISZERO PUSH2 0x3980 JUMPI PUSH2 0x397F PUSH2 0x32C6 JUMP JUMPDEST JUMPDEST PUSH2 0x398C DUP11 DUP3 DUP12 ADD PUSH2 0x3693 JUMP JUMPDEST SWAP8 POP POP PUSH1 0x20 PUSH2 0x399D DUP11 DUP3 DUP12 ADD PUSH2 0x34D2 JUMP JUMPDEST SWAP7 POP POP PUSH1 0x40 PUSH2 0x39AE DUP11 DUP3 DUP12 ADD PUSH2 0x345C JUMP JUMPDEST SWAP6 POP POP PUSH1 0x60 PUSH2 0x39BF DUP11 DUP3 DUP12 ADD PUSH2 0x34D2 JUMP JUMPDEST SWAP5 POP POP PUSH1 0x80 PUSH2 0x39D0 DUP11 DUP3 DUP12 ADD PUSH2 0x37AB JUMP JUMPDEST SWAP4 POP POP PUSH1 0xA0 PUSH2 0x39E1 DUP11 DUP3 DUP12 ADD PUSH2 0x33D1 JUMP JUMPDEST SWAP3 POP POP PUSH1 0xC0 PUSH2 0x39F2 DUP11 DUP3 DUP12 ADD PUSH2 0x33D1 JUMP JUMPDEST SWAP2 POP POP SWAP3 SWAP6 SWAP9 SWAP2 SWAP5 SWAP8 POP SWAP3 SWAP6 POP JUMP JUMPDEST PUSH2 0x3A0A DUP2 PUSH2 0x34B1 JUMP JUMPDEST DUP3 MSTORE POP POP JUMP JUMPDEST PUSH1 0x0 PUSH1 0x20 DUP3 ADD SWAP1 POP PUSH2 0x3A25 PUSH1 0x0 DUP4 ADD DUP5 PUSH2 0x3A01 JUMP JUMPDEST SWAP3 SWAP2 POP POP JUMP JUMPDEST PUSH1 0x0 DUP1 PUSH1 0x0 DUP1 PUSH1 0x0 PUSH1 0xA0 DUP7 DUP9 SUB SLT ISZERO PUSH2 0x3A47 JUMPI PUSH2 0x3A46 PUSH2 0x32C1 JUMP JUMPDEST JUMPDEST PUSH1 0x0 DUP7 ADD CALLDATALOAD PUSH8 0xFFFFFFFFFFFFFFFF DUP2 GT ISZERO PUSH2 0x3A65 JUMPI PUSH2 0x3A64 PUSH2 0x32C6 JUMP JUMPDEST JUMPDEST PUSH2 0x3A71 DUP9 DUP3 DUP10 ADD PUSH2 0x3693 JUMP JUMPDEST SWAP6 POP POP PUSH1 0x20 DUP7 ADD CALLDATALOAD PUSH8 0xFFFFFFFFFFFFFFFF DUP2 GT ISZERO PUSH2 0x3A92 JUMPI PUSH2 0x3A91 PUSH2 0x32C6 JUMP JUMPDEST JUMPDEST PUSH2 0x3A9E DUP9 DUP3 DUP10 ADD PUSH2 0x3693 JUMP JUMPDEST SWAP5 POP POP PUSH1 0x40 PUSH2 0x3AAF DUP9 DUP3 DUP10 ADD PUSH2 0x345C JUMP JUMPDEST SWAP4 POP POP PUSH1 0x60 PUSH2 0x3AC0 DUP9 DUP3 DUP10 ADD PUSH2 0x345C JUMP JUMPDEST SWAP3 POP POP PUSH1 0x80 PUSH2 0x3AD1 DUP9 DUP3 DUP10 ADD PUSH2 0x34D2 JUMP JUMPDEST SWAP2 POP POP SWAP3 SWAP6 POP SWAP3 SWAP6 SWAP1 SWAP4 POP JUMP JUMPDEST PUSH1 0x0 DUP3 DUP3 MSTORE PUSH1 0x20 DUP3 ADD SWAP1 POP SWAP3 SWAP2 POP POP JUMP JUMPDEST PUSH32 0x416363657373436F6E74726F6C3A2063616E206F6E6C792072656E6F756E6365 PUSH1 0x0 DUP3 ADD MSTORE PUSH32 0x20726F6C657320666F722073656C660000000000000000000000000000000000 PUSH1 0x20 DUP3 ADD MSTORE POP JUMP JUMPDEST PUSH1 0x0 PUSH2 0x3B4B PUSH1 0x2F DUP4 PUSH2 0x3ADE JUMP JUMPDEST SWAP2 POP PUSH2 0x3B56 DUP3 PUSH2 0x3AEF JUMP JUMPDEST PUSH1 0x40 DUP3 ADD SWAP1 POP SWAP2 SWAP1 POP JUMP JUMPDEST PUSH1 0x0 PUSH1 0x20 DUP3 ADD SWAP1 POP DUP2 DUP2 SUB PUSH1 0x0 DUP4 ADD MSTORE PUSH2 0x3B7A DUP2 PUSH2 0x3B3E JUMP JUMPDEST SWAP1 POP SWAP2 SWAP1 POP JUMP JUMPDEST PUSH1 0x0 PUSH1 0x60 DUP3 ADD SWAP1 POP PUSH2 0x3B96 PUSH1 0x0 DUP4 ADD DUP7 PUSH2 0x375D JUMP JUMPDEST PUSH2 0x3BA3 PUSH1 0x20 DUP4 ADD DUP6 PUSH2 0x375D JUMP JUMPDEST PUSH2 0x3BB0 PUSH1 0x40 DUP4 ADD DUP5 PUSH2 0x3A01 JUMP JUMPDEST SWAP5 SWAP4 POP POP POP POP JUMP JUMPDEST PUSH2 0x3BC1 DUP2 PUSH2 0x3350 JUMP JUMPDEST DUP2 EQ PUSH2 0x3BCC JUMPI PUSH1 0x0 DUP1 REVERT JUMPDEST POP JUMP JUMPDEST PUSH1 0x0 DUP2 MLOAD SWAP1 POP PUSH2 0x3BDE DUP2 PUSH2 0x3BB8 JUMP JUMPDEST SWAP3 SWAP2 POP POP JUMP JUMPDEST PUSH1 0x0 PUSH1 0x20 DUP3 DUP5 SUB SLT ISZERO PUSH2 0x3BFA JUMPI PUSH2 0x3BF9 PUSH2 0x32C1 JUMP JUMPDEST JUMPDEST PUSH1 0x0 PUSH2 0x3C08 DUP5 DUP3 DUP6 ADD PUSH2 0x3BCF JUMP JUMPDEST SWAP2 POP POP SWAP3 SWAP2 POP POP JUMP JUMPDEST PUSH1 0x0 PUSH1 0x80 DUP3 ADD SWAP1 POP PUSH2 0x3C26 PUSH1 0x0 DUP4 ADD DUP8 PUSH2 0x3A01 JUMP JUMPDEST PUSH2 0x3C33 PUSH1 0x20 DUP4 ADD DUP7 PUSH2 0x3A01 JUMP JUMPDEST PUSH2 0x3C40 PUSH1 0x40 DUP4 ADD DUP6 PUSH2 0x3A01 JUMP JUMPDEST PUSH2 0x3C4D PUSH1 0x60 DUP4 ADD DUP5 PUSH2 0x3A01 JUMP JUMPDEST SWAP6 SWAP5 POP POP POP POP POP JUMP JUMPDEST PUSH1 0x0 DUP2 MLOAD SWAP1 POP SWAP2 SWAP1 POP JUMP JUMPDEST PUSH1 0x0 JUMPDEST DUP4 DUP2 LT ISZERO PUSH2 0x3C7F JUMPI DUP1 DUP3 ADD MLOAD DUP2 DUP5 ADD MSTORE PUSH1 0x20 DUP2 ADD SWAP1 POP PUSH2 0x3C64 JUMP JUMPDEST PUSH1 0x0 DUP5 DUP5 ADD MSTORE POP POP POP POP JUMP JUMPDEST PUSH1 0x0 PUSH2 0x3C96 DUP3 PUSH2 0x3C56 JUMP JUMPDEST PUSH2 0x3CA0 DUP2 DUP6 PUSH2 0x3ADE JUMP JUMPDEST SWAP4 POP PUSH2 0x3CB0 DUP2 DUP6 PUSH1 0x20 DUP7 ADD PUSH2 0x3C61 JUMP JUMPDEST PUSH2 0x3CB9 DUP2 PUSH2 0x3585 JUMP JUMPDEST DUP5 ADD SWAP2 POP POP SWAP3 SWAP2 POP POP JUMP JUMPDEST PUSH1 0x0 PUSH1 0x20 DUP3 ADD SWAP1 POP DUP2 DUP2 SUB PUSH1 0x0 DUP4 ADD MSTORE PUSH2 0x3CDE DUP2 DUP5 PUSH2 0x3C8B JUMP JUMPDEST SWAP1 POP SWAP3 SWAP2 POP POP JUMP JUMPDEST PUSH1 0x0 DUP2 MLOAD SWAP1 POP PUSH2 0x3CF5 DUP2 PUSH2 0x3445 JUMP JUMPDEST SWAP3 SWAP2 POP POP JUMP JUMPDEST PUSH1 0x0 PUSH1 0x20 DUP3 DUP5 SUB SLT ISZERO PUSH2 0x3D11 JUMPI PUSH2 0x3D10 PUSH2 0x32C1 JUMP JUMPDEST JUMPDEST PUSH1 0x0 PUSH2 0x3D1F DUP5 DUP3 DUP6 ADD PUSH2 0x3CE6 JUMP JUMPDEST SWAP2 POP POP SWAP3 SWAP2 POP POP JUMP JUMPDEST PUSH1 0x0 PUSH1 0x40 DUP3 ADD SWAP1 POP DUP2 DUP2 SUB PUSH1 0x0 DUP4 ADD MSTORE PUSH2 0x3D42 DUP2 DUP6 PUSH2 0x3C8B JUMP JUMPDEST SWAP1 POP PUSH2 0x3D51 PUSH1 0x20 DUP4 ADD DUP5 PUSH2 0x375D JUMP JUMPDEST SWAP4 SWAP3 POP POP POP JUMP JUMPDEST PUSH1 0x0 DUP2 MLOAD SWAP1 POP PUSH2 0x3D67 DUP2 PUSH2 0x34BB JUMP JUMPDEST SWAP3 SWAP2 POP POP JUMP JUMPDEST PUSH1 0x0 PUSH1 0x20 DUP3 DUP5 SUB SLT ISZERO PUSH2 0x3D83 JUMPI PUSH2 0x3D82 PUSH2 0x32C1 JUMP JUMPDEST JUMPDEST PUSH1 0x0 PUSH2 0x3D91 DUP5 DUP3 DUP6 ADD PUSH2 0x3D58 JUMP JUMPDEST SWAP2 POP POP SWAP3 SWAP2 POP POP JUMP JUMPDEST PUSH1 0x0 PUSH1 0x60 DUP3 ADD SWAP1 POP PUSH2 0x3DAF PUSH1 0x0 DUP4 ADD DUP7 PUSH2 0x375D JUMP JUMPDEST PUSH2 0x3DBC PUSH1 0x20 DUP4 ADD DUP6 PUSH2 0x3A01 JUMP JUMPDEST PUSH2 0x3DC9 PUSH1 0x40 DUP4 ADD DUP5 PUSH2 0x3A01 JUMP JUMPDEST SWAP5 SWAP4 POP POP POP POP JUMP JUMPDEST PUSH2 0x3DDA DUP2 PUSH2 0x3787 JUMP JUMPDEST DUP3 MSTORE POP POP JUMP JUMPDEST PUSH1 0x0 PUSH1 0xE0 DUP3 ADD SWAP1 POP PUSH2 0x3DF5 PUSH1 0x0 DUP4 ADD DUP11 PUSH2 0x375D JUMP JUMPDEST PUSH2 0x3E02 PUSH1 0x20 DUP4 ADD DUP10 PUSH2 0x375D JUMP JUMPDEST PUSH2 0x3E0F PUSH1 0x40 DUP4 ADD DUP9 PUSH2 0x3A01 JUMP JUMPDEST PUSH2 0x3E1C PUSH1 0x60 DUP4 ADD DUP8 PUSH2 0x3A01 JUMP JUMPDEST PUSH2 0x3E29 PUSH1 0x80 DUP4 ADD DUP7 PUSH2 0x3DD1 JUMP JUMPDEST PUSH2 0x3E36 PUSH1 0xA0 DUP4 ADD DUP6 PUSH2 0x3390 JUMP JUMPDEST PUSH2 0x3E43 PUSH1 0xC0 DUP4 ADD DUP5 PUSH2 0x3390 JUMP JUMPDEST SWAP9 SWAP8 POP POP POP POP POP POP POP POP JUMP JUMPDEST PUSH1 0x0 PUSH1 0x40 DUP3 ADD SWAP1 POP PUSH2 0x3E64 PUSH1 0x0 DUP4 ADD DUP6 PUSH2 0x375D JUMP JUMPDEST PUSH2 0x3E71 PUSH1 0x20 DUP4 ADD DUP5 PUSH2 0x3A01 JUMP JUMPDEST SWAP4 SWAP3 POP POP POP JUMP JUMPDEST PUSH32 0x5700000000000000000000000000000000000000000000000000000000000000 DUP2 MSTORE POP JUMP JUMPDEST PUSH1 0x0 DUP2 SWAP1 POP SWAP3 SWAP2 POP POP JUMP JUMPDEST PUSH1 0x0 PUSH2 0x3EB4 DUP3 PUSH2 0x3C56 JUMP JUMPDEST PUSH2 0x3EBE DUP2 DUP6 PUSH2 0x3E9E JUMP JUMPDEST SWAP4 POP PUSH2 0x3ECE DUP2 DUP6 PUSH1 0x20 DUP7 ADD PUSH2 0x3C61 JUMP JUMPDEST DUP1 DUP5 ADD SWAP2 POP POP SWAP3 SWAP2 POP POP JUMP JUMPDEST PUSH1 0x0 PUSH2 0x3EE5 DUP3 PUSH2 0x3E78 JUMP JUMPDEST PUSH1 0x1 DUP3 ADD SWAP2 POP PUSH2 0x3EF5 DUP3 DUP5 PUSH2 0x3EA9 JUMP JUMPDEST SWAP2 POP DUP2 SWAP1 POP SWAP3 SWAP2 POP POP JUMP JUMPDEST PUSH1 0x0 PUSH1 0x40 DUP3 ADD SWAP1 POP DUP2 DUP2 SUB PUSH1 0x0 DUP4 ADD MSTORE PUSH2 0x3F1A DUP2 DUP6 PUSH2 0x3C8B JUMP JUMPDEST SWAP1 POP DUP2 DUP2 SUB PUSH1 0x20 DUP4 ADD MSTORE PUSH2 0x3F2E DUP2 DUP5 PUSH2 0x3C8B JUMP JUMPDEST SWAP1 POP SWAP4 SWAP3 POP POP POP JUMP JUMPDEST PUSH1 0x0 PUSH1 0x60 DUP3 ADD SWAP1 POP DUP2 DUP2 SUB PUSH1 0x0 DUP4 ADD MSTORE PUSH2 0x3F51 DUP2 DUP7 PUSH2 0x3C8B JUMP JUMPDEST SWAP1 POP PUSH2 0x3F60 PUSH1 0x20 DUP4 ADD DUP6 PUSH2 0x375D JUMP JUMPDEST PUSH2 0x3F6D PUSH1 0x40 DUP4 ADD DUP5 PUSH2 0x3A01 JUMP JUMPDEST SWAP5 SWAP4 POP POP POP POP JUMP JUMPDEST PUSH1 0x0 PUSH2 0x3F81 DUP3 DUP5 PUSH2 0x3EA9 JUMP JUMPDEST SWAP2 POP DUP2 SWAP1 POP SWAP3 SWAP2 POP POP JUMP JUMPDEST PUSH1 0x0 PUSH1 0x80 DUP3 ADD SWAP1 POP PUSH2 0x3FA1 PUSH1 0x0 DUP4 ADD DUP8 PUSH2 0x375D JUMP JUMPDEST PUSH2 0x3FAE PUSH1 0x20 DUP4 ADD DUP7 PUSH2 0x3A01 JUMP JUMPDEST PUSH2 0x3FBB PUSH1 0x40 DUP4 ADD DUP6 PUSH2 0x3A01 JUMP JUMPDEST DUP2 DUP2 SUB PUSH1 0x60 DUP4 ADD MSTORE PUSH2 0x3FCD DUP2 DUP5 PUSH2 0x3C8B JUMP JUMPDEST SWAP1 POP SWAP6 SWAP5 POP POP POP POP POP JUMP JUMPDEST PUSH32 0x416363657373436F6E74726F6C3A206163636F756E7420000000000000000000 PUSH1 0x0 DUP3 ADD MSTORE POP JUMP JUMPDEST PUSH1 0x0 PUSH2 0x400E PUSH1 0x17 DUP4 PUSH2 0x3E9E JUMP JUMPDEST SWAP2 POP PUSH2 0x4019 DUP3 PUSH2 0x3FD8 JUMP JUMPDEST PUSH1 0x17 DUP3 ADD SWAP1 POP SWAP2 SWAP1 POP JUMP JUMPDEST PUSH32 0x206973206D697373696E6720726F6C6520000000000000000000000000000000 PUSH1 0x0 DUP3 ADD MSTORE POP JUMP JUMPDEST PUSH1 0x0 PUSH2 0x405A PUSH1 0x11 DUP4 PUSH2 0x3E9E JUMP JUMPDEST SWAP2 POP PUSH2 0x4065 DUP3 PUSH2 0x4024 JUMP JUMPDEST PUSH1 0x11 DUP3 ADD SWAP1 POP SWAP2 SWAP1 POP JUMP JUMPDEST PUSH1 0x0 PUSH2 0x407B DUP3 PUSH2 0x4001 JUMP JUMPDEST SWAP2 POP PUSH2 0x4087 DUP3 DUP6 PUSH2 0x3EA9 JUMP JUMPDEST SWAP2 POP PUSH2 0x4092 DUP3 PUSH2 0x404D JUMP JUMPDEST SWAP2 POP PUSH2 0x409E DUP3 DUP5 PUSH2 0x3EA9 JUMP JUMPDEST SWAP2 POP DUP2 SWAP1 POP SWAP4 SWAP3 POP POP POP JUMP JUMPDEST PUSH32 0x4E487B7100000000000000000000000000000000000000000000000000000000 PUSH1 0x0 MSTORE PUSH1 0x11 PUSH1 0x4 MSTORE PUSH1 0x24 PUSH1 0x0 REVERT JUMPDEST PUSH1 0x0 PUSH2 0x40E4 DUP3 PUSH2 0x34B1 JUMP JUMPDEST SWAP2 POP PUSH2 0x40EF DUP4 PUSH2 0x34B1 JUMP JUMPDEST SWAP3 POP DUP3 DUP3 MUL PUSH2 0x40FD DUP2 PUSH2 0x34B1 JUMP JUMPDEST SWAP2 POP DUP3 DUP3 DIV DUP5 EQ DUP4 ISZERO OR PUSH2 0x4114 JUMPI PUSH2 0x4113 PUSH2 0x40AA JUMP JUMPDEST JUMPDEST POP SWAP3 SWAP2 POP POP JUMP JUMPDEST PUSH1 0x0 PUSH2 0x4126 DUP3 PUSH2 0x34B1 JUMP JUMPDEST SWAP2 POP PUSH2 0x4131 DUP4 PUSH2 0x34B1 JUMP JUMPDEST SWAP3 POP DUP3 DUP3 ADD SWAP1 POP DUP1 DUP3 GT ISZERO PUSH2 0x4149 JUMPI PUSH2 0x4148 PUSH2 0x40AA JUMP JUMPDEST JUMPDEST SWAP3 SWAP2 POP POP JUMP JUMPDEST PUSH32 0x4E487B7100000000000000000000000000000000000000000000000000000000 PUSH1 0x0 MSTORE PUSH1 0x32 PUSH1 0x4 MSTORE PUSH1 0x24 PUSH1 0x0 REVERT JUMPDEST PUSH1 0x0 PUSH2 0x4189 DUP3 PUSH2 0x34B1 JUMP JUMPDEST SWAP2 POP PUSH1 0x0 DUP3 SUB PUSH2 0x419C JUMPI PUSH2 0x419B PUSH2 0x40AA JUMP JUMPDEST JUMPDEST PUSH1 0x1 DUP3 SUB SWAP1 POP SWAP2 SWAP1 POP JUMP JUMPDEST PUSH32 0x537472696E67733A20686578206C656E67746820696E73756666696369656E74 PUSH1 0x0 DUP3 ADD MSTORE POP JUMP JUMPDEST PUSH1 0x0 PUSH2 0x41DD PUSH1 0x20 DUP4 PUSH2 0x3ADE JUMP JUMPDEST SWAP2 POP PUSH2 0x41E8 DUP3 PUSH2 0x41A7 JUMP JUMPDEST PUSH1 0x20 DUP3 ADD SWAP1 POP SWAP2 SWAP1 POP JUMP JUMPDEST PUSH1 0x0 PUSH1 0x20 DUP3 ADD SWAP1 POP DUP2 DUP2 SUB PUSH1 0x0 DUP4 ADD MSTORE PUSH2 0x420C DUP2 PUSH2 0x41D0 JUMP JUMPDEST SWAP1 POP SWAP2 SWAP1 POP JUMP INVALID LOG2 PUSH5 0x6970667358 0x22 SLT KECCAK256 STOP PUSH23 0x70CEDE3D2FA47C619CD0DAD1A593F387A8D94ED1F65910 SWAP8 DUP1 0xD7 PUSH26 0x5413FD64736F6C63430008110033608060405234801562000011 JUMPI PUSH1 0x0 DUP1 REVERT JUMPDEST POP PUSH3 0x32 PUSH3 0x26 PUSH3 0x38 PUSH1 0x20 SHL PUSH1 0x20 SHR JUMP JUMPDEST PUSH3 0x40 PUSH1 0x20 SHL PUSH1 0x20 SHR JUMP JUMPDEST PUSH3 0x104 JUMP JUMPDEST PUSH1 0x0 CALLER SWAP1 POP SWAP1 JUMP JUMPDEST PUSH1 0x0 DUP1 PUSH1 0x0 SWAP1 SLOAD SWAP1 PUSH2 0x100 EXP SWAP1 DIV PUSH20 0xFFFFFFFFFFFFFFFFFFFFFFFFFFFFFFFFFFFFFFFF AND SWAP1 POP DUP2 PUSH1 0x0 DUP1 PUSH2 0x100 EXP DUP2 SLOAD DUP2 PUSH20 0xFFFFFFFFFFFFFFFFFFFFFFFFFFFFFFFFFFFFFFFF MUL NOT AND SWAP1 DUP4 PUSH20 0xFFFFFFFFFFFFFFFFFFFFFFFFFFFFFFFFFFFFFFFF AND MUL OR SWAP1 SSTORE POP DUP2 PUSH20 0xFFFFFFFFFFFFFFFFFFFFFFFFFFFFFFFFFFFFFFFF AND DUP2 PUSH20 0xFFFFFFFFFFFFFFFFFFFFFFFFFFFFFFFFFFFFFFFF AND PUSH32 0x8BE0079C531659141344CD1FD0A4F28419497F9722A3DAAFE3B4186F6B6457E0 PUSH1 0x40 MLOAD PUSH1 0x40 MLOAD DUP1 SWAP2 SUB SWAP1 LOG3 POP POP JUMP JUMPDEST PUSH2 0x671E DUP1 PUSH3 0x114 PUSH1 0x0 CODECOPY PUSH1 0x0 RETURN INVALID PUSH1 0x80 PUSH1 0x40 MSTORE CALLVALUE DUP1 ISZERO PUSH3 0x11 JUMPI PUSH1 0x0 DUP1 REVERT JUMPDEST POP PUSH1 0x4 CALLDATASIZE LT PUSH3 0xCA JUMPI PUSH1 0x0 CALLDATALOAD PUSH1 0xE0 SHR DUP1 PUSH4 0x715018A6 GT PUSH3 0x8D JUMPI DUP1 PUSH4 0xD3E2A0CA GT PUSH3 0x63 JUMPI DUP1 PUSH4 0xD3E2A0CA EQ PUSH3 0x241 JUMPI DUP1 PUSH4 0xF2FDE38B EQ PUSH3 0x277 JUMPI DUP1 PUSH4 0xF6B911BC EQ PUSH3 0x297 JUMPI PUSH3 0xCA JUMP JUMPDEST DUP1 PUSH4 0x715018A6 EQ PUSH3 0x1DD JUMPI DUP1 PUSH4 0x7E8816B9 EQ PUSH3 0x1E9 JUMPI DUP1 PUSH4 0x8DA5CB5B EQ PUSH3 0x21F JUMPI PUSH3 0xCA JUMP JUMPDEST DUP1 PUSH4 0x4031852 EQ PUSH3 0xCF JUMPI DUP1 PUSH4 0x18C04BBB EQ PUSH3 0x105 JUMPI DUP1 PUSH4 0x2DCE1F6B EQ PUSH3 0x13B JUMPI DUP1 PUSH4 0x518F58C5 EQ PUSH3 0x171 JUMPI DUP1 PUSH4 0x640DF644 EQ PUSH3 0x1A7 JUMPI JUMPDEST PUSH1 0x0 DUP1 REVERT JUMPDEST PUSH3 0xED PUSH1 0x4 DUP1 CALLDATASIZE SUB DUP2 ADD SWAP1 PUSH3 0xE7 SWAP2 SWAP1 PUSH3 0x24AC JUMP JUMPDEST PUSH3 0x2CD JUMP JUMPDEST PUSH1 0x40 MLOAD PUSH3 0xFC SWAP2 SWAP1 PUSH3 0x252D JUMP JUMPDEST PUSH1 0x40 MLOAD DUP1 SWAP2 SUB SWAP1 RETURN JUMPDEST PUSH3 0x123 PUSH1 0x4 DUP1 CALLDATASIZE SUB DUP2 ADD SWAP1 PUSH3 0x11D SWAP2 SWAP1 PUSH3 0x254A JUMP JUMPDEST PUSH3 0x704 JUMP JUMPDEST PUSH1 0x40 MLOAD PUSH3 0x132 SWAP2 SWAP1 PUSH3 0x25AC JUMP JUMPDEST PUSH1 0x40 MLOAD DUP1 SWAP2 SUB SWAP1 RETURN JUMPDEST PUSH3 0x159 PUSH1 0x4 DUP1 CALLDATASIZE SUB DUP2 ADD SWAP1 PUSH3 0x153 SWAP2 SWAP1 PUSH3 0x2673 JUMP JUMPDEST PUSH3 0x8AF JUMP JUMPDEST PUSH1 0x40 MLOAD PUSH3 0x168 SWAP2 SWAP1 PUSH3 0x2743 JUMP JUMPDEST PUSH1 0x40 MLOAD DUP1 SWAP2 SUB SWAP1 RETURN JUMPDEST PUSH3 0x18F PUSH1 0x4 DUP1 CALLDATASIZE SUB DUP2 ADD SWAP1 PUSH3 0x189 SWAP2 SWAP1 PUSH3 0x2760 JUMP JUMPDEST PUSH3 0xDDD JUMP JUMPDEST PUSH1 0x40 MLOAD PUSH3 0x19E SWAP2 SWAP1 PUSH3 0x25AC JUMP JUMPDEST PUSH1 0x40 MLOAD DUP1 SWAP2 SUB SWAP1 RETURN JUMPDEST PUSH3 0x1C5 PUSH1 0x4 DUP1 CALLDATASIZE SUB DUP2 ADD SWAP1 PUSH3 0x1BF SWAP2 SWAP1 PUSH3 0x254A JUMP JUMPDEST PUSH3 0x1340 JUMP JUMPDEST PUSH1 0x40 MLOAD PUSH3 0x1D4 SWAP2 SWAP1 PUSH3 0x252D JUMP JUMPDEST PUSH1 0x40 MLOAD DUP1 SWAP2 SUB SWAP1 RETURN JUMPDEST PUSH3 0x1E7 PUSH3 0x1647 JUMP JUMPDEST STOP JUMPDEST PUSH3 0x207 PUSH1 0x4 DUP1 CALLDATASIZE SUB DUP2 ADD SWAP1 PUSH3 0x201 SWAP2 SWAP1 PUSH3 0x27E5 JUMP JUMPDEST PUSH3 0x165F JUMP JUMPDEST PUSH1 0x40 MLOAD PUSH3 0x216 SWAP2 SWAP1 PUSH3 0x2743 JUMP JUMPDEST PUSH1 0x40 MLOAD DUP1 SWAP2 SUB SWAP1 RETURN JUMPDEST PUSH3 0x229 PUSH3 0x1BF0 JUMP JUMPDEST PUSH1 0x40 MLOAD PUSH3 0x238 SWAP2 SWAP1 PUSH3 0x25AC JUMP JUMPDEST PUSH1 0x40 MLOAD DUP1 SWAP2 SUB SWAP1 RETURN JUMPDEST PUSH3 0x25F PUSH1 0x4 DUP1 CALLDATASIZE SUB DUP2 ADD SWAP1 PUSH3 0x259 SWAP2 SWAP1 PUSH3 0x254A JUMP JUMPDEST PUSH3 0x1C19 JUMP JUMPDEST PUSH1 0x40 MLOAD PUSH3 0x26E SWAP2 SWAP1 PUSH3 0x25AC JUMP JUMPDEST PUSH1 0x40 MLOAD DUP1 SWAP2 SUB SWAP1 RETURN JUMPDEST PUSH3 0x295 PUSH1 0x4 DUP1 CALLDATASIZE SUB DUP2 ADD SWAP1 PUSH3 0x28F SWAP2 SWAP1 PUSH3 0x2860 JUMP JUMPDEST PUSH3 0x1C62 JUMP JUMPDEST STOP JUMPDEST PUSH3 0x2B5 PUSH1 0x4 DUP1 CALLDATASIZE SUB DUP2 ADD SWAP1 PUSH3 0x2AF SWAP2 SWAP1 PUSH3 0x2892 JUMP JUMPDEST PUSH3 0x1CEC JUMP JUMPDEST PUSH1 0x40 MLOAD PUSH3 0x2C4 SWAP2 SWAP1 PUSH3 0x2743 JUMP JUMPDEST PUSH1 0x40 MLOAD DUP1 SWAP2 SUB SWAP1 RETURN JUMPDEST PUSH1 0x0 PUSH3 0x2E5 PUSH8 0xC8090E55DB7CE2E3 PUSH1 0xC0 SHL PUSH3 0x216F JUMP JUMPDEST DUP3 PUSH3 0x2FC PUSH8 0x484CC96A2245A490 PUSH1 0xC0 SHL PUSH3 0x216F JUMP JUMPDEST PUSH3 0x312 PUSH8 0x347F5D8F66680F41 PUSH1 0xC0 SHL PUSH3 0x216F JUMP JUMPDEST PUSH3 0x328 PUSH8 0x85A1070C3D56CF24 PUSH1 0xC0 SHL PUSH3 0x216F JUMP JUMPDEST PUSH1 0x40 MLOAD DUP1 PUSH1 0x20 ADD PUSH1 0x40 MSTORE DUP1 PUSH1 0x0 DUP2 MSTORE POP DUP1 MLOAD SWAP1 PUSH1 0x20 ADD KECCAK256 DUP2 DUP1 MLOAD SWAP1 PUSH1 0x20 ADD KECCAK256 SUB PUSH3 0x3AB JUMPI PUSH3 0x363 PUSH8 0x6B8C4DA67BC868D4 PUSH1 0xC0 SHL PUSH3 0x216F JUMP JUMPDEST PUSH3 0x379 PUSH8 0xE548E7F8E40B1B5A PUSH1 0xC0 SHL PUSH3 0x216F JUMP JUMPDEST PUSH1 0x40 MLOAD PUSH32 0x9243059C00000000000000000000000000000000000000000000000000000000 DUP2 MSTORE PUSH1 0x4 ADD PUSH1 0x40 MLOAD DUP1 SWAP2 SUB SWAP1 REVERT JUMPDEST PUSH3 0x3C1 PUSH8 0x4195D9D5BEEAAB21 PUSH1 0xC0 SHL PUSH3 0x216F JUMP JUMPDEST PUSH3 0x3D7 PUSH8 0x931C12EFAFC1B4C1 PUSH1 0xC0 SHL PUSH3 0x216F JUMP JUMPDEST PUSH3 0x3ED PUSH8 0x9BAACA79C8B35436 PUSH1 0xC0 SHL PUSH3 0x216F JUMP JUMPDEST PUSH3 0x403 PUSH8 0x742541B3EA50197B PUSH1 0xC0 SHL PUSH3 0x216F JUMP JUMPDEST DUP3 PUSH3 0x41A PUSH8 0x5DFB0BA1EB2680ED PUSH1 0xC0 SHL PUSH3 0x216F JUMP JUMPDEST PUSH3 0x430 PUSH8 0x2B3C86E0F6E42ABC PUSH1 0xC0 SHL PUSH3 0x216F JUMP JUMPDEST PUSH3 0x446 PUSH8 0xCC7E0C257FFE7844 PUSH1 0xC0 SHL PUSH3 0x216F JUMP JUMPDEST PUSH1 0x0 PUSH20 0xFFFFFFFFFFFFFFFFFFFFFFFFFFFFFFFFFFFFFFFF AND DUP2 PUSH20 0xFFFFFFFFFFFFFFFFFFFFFFFFFFFFFFFFFFFFFFFF AND SUB PUSH3 0x4D9 JUMPI PUSH3 0x491 PUSH8 0x701688FD2114F61B PUSH1 0xC0 SHL PUSH3 0x216F JUMP JUMPDEST PUSH3 0x4A7 PUSH8 0xA14C870434005AE8 PUSH1 0xC0 SHL PUSH3 0x216F JUMP JUMPDEST PUSH1 0x40 MLOAD PUSH32 0x67CFA16E00000000000000000000000000000000000000000000000000000000 DUP2 MSTORE PUSH1 0x4 ADD PUSH1 0x40 MLOAD DUP1 SWAP2 SUB SWAP1 REVERT JUMPDEST PUSH3 0x4EF PUSH8 0xA1CF429B8DFA64A9 PUSH1 0xC0 SHL PUSH3 0x216F JUMP JUMPDEST PUSH3 0x505 PUSH8 0x4F55603B70804115 PUSH1 0xC0 SHL PUSH3 0x216F JUMP JUMPDEST PUSH3 0x51B PUSH8 0xF6814DCB01C61711 PUSH1 0xC0 SHL PUSH3 0x216F JUMP JUMPDEST PUSH3 0x531 PUSH8 0xF1339DAEE5741879 PUSH1 0xC0 SHL PUSH3 0x216F JUMP JUMPDEST PUSH3 0x547 PUSH8 0xF783A172FDCFCE20 PUSH1 0xC0 SHL PUSH3 0x216F JUMP JUMPDEST PUSH3 0x55D PUSH8 0x23C3465DB0A21A08 PUSH1 0xC0 SHL PUSH3 0x216F JUMP JUMPDEST PUSH1 0x0 PUSH3 0x56A DUP7 PUSH3 0x704 JUMP JUMPDEST SWAP1 POP PUSH3 0x582 PUSH8 0x8854E172E1CC18BD PUSH1 0xC0 SHL PUSH3 0x216F JUMP JUMPDEST PUSH3 0x598 PUSH8 0x661EAB8506529CCE PUSH1 0xC0 SHL PUSH3 0x216F JUMP JUMPDEST PUSH1 0x0 PUSH20 0xFFFFFFFFFFFFFFFFFFFFFFFFFFFFFFFFFFFFFFFF AND DUP2 PUSH20 0xFFFFFFFFFFFFFFFFFFFFFFFFFFFFFFFFFFFFFFFF AND SUB PUSH3 0x638 JUMPI PUSH3 0x5E3 PUSH8 0x28C2BFE01063D2C9 PUSH1 0xC0 SHL PUSH3 0x216F JUMP JUMPDEST PUSH3 0x5F9 PUSH8 0x233489DAFDDB4656 PUSH1 0xC0 SHL PUSH3 0x216F JUMP JUMPDEST DUP6 PUSH1 0x40 MLOAD PUSH32 0xA14EFA400000000000000000000000000000000000000000000000000000000 DUP2 MSTORE PUSH1 0x4 ADD PUSH3 0x62F SWAP2 SWAP1 PUSH3 0x2977 JUMP JUMPDEST PUSH1 0x40 MLOAD DUP1 SWAP2 SUB SWAP1 REVERT JUMPDEST PUSH3 0x64E PUSH8 0xD15AD2440A2AAD11 PUSH1 0xC0 SHL PUSH3 0x216F JUMP JUMPDEST PUSH3 0x664 PUSH8 0xF1677C611F0C5589 PUSH1 0xC0 SHL PUSH3 0x216F JUMP JUMPDEST PUSH3 0x67A PUSH8 0x7BBF2B1CA5219C3B PUSH1 0xC0 SHL PUSH3 0x216F JUMP JUMPDEST DUP1 PUSH20 0xFFFFFFFFFFFFFFFFFFFFFFFFFFFFFFFFFFFFFFFF AND PUSH4 0x70A08231 DUP7 PUSH1 0x40 MLOAD DUP3 PUSH4 0xFFFFFFFF AND PUSH1 0xE0 SHL DUP2 MSTORE PUSH1 0x4 ADD PUSH3 0x6B5 SWAP2 SWAP1 PUSH3 0x25AC JUMP JUMPDEST PUSH1 0x20 PUSH1 0x40 MLOAD DUP1 DUP4 SUB DUP2 DUP7 GAS STATICCALL ISZERO DUP1 ISZERO PUSH3 0x6D3 JUMPI RETURNDATASIZE PUSH1 0x0 DUP1 RETURNDATACOPY RETURNDATASIZE PUSH1 0x0 REVERT JUMPDEST POP POP POP POP PUSH1 0x40 MLOAD RETURNDATASIZE PUSH1 0x1F NOT PUSH1 0x1F DUP3 ADD AND DUP3 ADD DUP1 PUSH1 0x40 MSTORE POP DUP2 ADD SWAP1 PUSH3 0x6F9 SWAP2 SWAP1 PUSH3 0x29B2 JUMP JUMPDEST SWAP4 POP POP POP POP SWAP3 SWAP2 POP POP JUMP JUMPDEST PUSH1 0x0 PUSH3 0x71C PUSH8 0xC18AF01E7E36E1E1 PUSH1 0xC0 SHL PUSH3 0x216F JUMP JUMPDEST DUP2 PUSH3 0x733 PUSH8 0x484CC96A2245A490 PUSH1 0xC0 SHL PUSH3 0x216F JUMP JUMPDEST PUSH3 0x749 PUSH8 0x347F5D8F66680F41 PUSH1 0xC0 SHL PUSH3 0x216F JUMP JUMPDEST PUSH3 0x75F PUSH8 0x85A1070C3D56CF24 PUSH1 0xC0 SHL PUSH3 0x216F JUMP JUMPDEST PUSH1 0x40 MLOAD DUP1 PUSH1 0x20 ADD PUSH1 0x40 MSTORE DUP1 PUSH1 0x0 DUP2 MSTORE POP DUP1 MLOAD SWAP1 PUSH1 0x20 ADD KECCAK256 DUP2 DUP1 MLOAD SWAP1 PUSH1 0x20 ADD KECCAK256 SUB PUSH3 0x7E2 JUMPI PUSH3 0x79A PUSH8 0x6B8C4DA67BC868D4 PUSH1 0xC0 SHL PUSH3 0x216F JUMP JUMPDEST PUSH3 0x7B0 PUSH8 0xE548E7F8E40B1B5A PUSH1 0xC0 SHL PUSH3 0x216F JUMP JUMPDEST PUSH1 0x40 MLOAD PUSH32 0x9243059C00000000000000000000000000000000000000000000000000000000 DUP2 MSTORE PUSH1 0x4 ADD PUSH1 0x40 MLOAD DUP1 SWAP2 SUB SWAP1 REVERT JUMPDEST PUSH3 0x7F8 PUSH8 0x4195D9D5BEEAAB21 PUSH1 0xC0 SHL PUSH3 0x216F JUMP JUMPDEST PUSH3 0x80E PUSH8 0x931C12EFAFC1B4C1 PUSH1 0xC0 SHL PUSH3 0x216F JUMP JUMPDEST PUSH3 0x824 PUSH8 0xA3982148D9D3CDE5 PUSH1 0xC0 SHL PUSH3 0x216F JUMP JUMPDEST PUSH3 0x83A PUSH8 0xD83F1EF774300869 PUSH1 0xC0 SHL PUSH3 0x216F JUMP JUMPDEST PUSH3 0x850 PUSH8 0xB18FC8E32FDCABF1 PUSH1 0xC0 SHL PUSH3 0x216F JUMP JUMPDEST PUSH3 0x866 PUSH8 0x68D65048187249FC PUSH1 0xC0 SHL PUSH3 0x216F JUMP JUMPDEST PUSH1 0x1 DUP4 PUSH1 0x40 MLOAD PUSH3 0x878 SWAP2 SWAP1 PUSH3 0x2A26 JUMP JUMPDEST SWAP1 DUP2 MSTORE PUSH1 0x20 ADD PUSH1 0x40 MLOAD DUP1 SWAP2 SUB SWAP1 KECCAK256 PUSH1 0x0 SWAP1 SLOAD SWAP1 PUSH2 0x100 EXP SWAP1 DIV PUSH20 0xFFFFFFFFFFFFFFFFFFFFFFFFFFFFFFFFFFFFFFFF AND SWAP2 POP POP SWAP2 SWAP1 POP JUMP JUMPDEST PUSH1 0x0 PUSH3 0x8C7 PUSH8 0xC3F0026CE8925D8D PUSH1 0xC0 SHL PUSH3 0x216F JUMP JUMPDEST PUSH3 0x8D1 PUSH3 0x2172 JUMP JUMPDEST PUSH3 0x8E7 PUSH8 0x8BAF2F3217292087 PUSH1 0xC0 SHL PUSH3 0x216F JUMP JUMPDEST PUSH3 0x8FD PUSH8 0xDA18C7D6BF1A0606 PUSH1 0xC0 SHL PUSH3 0x216F JUMP JUMPDEST DUP8 PUSH3 0x914 PUSH8 0x5DFB0BA1EB2680ED PUSH1 0xC0 SHL PUSH3 0x216F JUMP JUMPDEST PUSH3 0x92A PUSH8 0x2B3C86E0F6E42ABC PUSH1 0xC0 SHL PUSH3 0x216F JUMP JUMPDEST PUSH3 0x940 PUSH8 0xCC7E0C257FFE7844 PUSH1 0xC0 SHL PUSH3 0x216F JUMP JUMPDEST PUSH1 0x0 PUSH20 0xFFFFFFFFFFFFFFFFFFFFFFFFFFFFFFFFFFFFFFFF AND DUP2 PUSH20 0xFFFFFFFFFFFFFFFFFFFFFFFFFFFFFFFFFFFFFFFF AND SUB PUSH3 0x9D3 JUMPI PUSH3 0x98B PUSH8 0x701688FD2114F61B PUSH1 0xC0 SHL PUSH3 0x216F JUMP JUMPDEST PUSH3 0x9A1 PUSH8 0xA14C870434005AE8 PUSH1 0xC0 SHL PUSH3 0x216F JUMP JUMPDEST PUSH1 0x40 MLOAD PUSH32 0x67CFA16E00000000000000000000000000000000000000000000000000000000 DUP2 MSTORE PUSH1 0x4 ADD PUSH1 0x40 MLOAD DUP1 SWAP2 SUB SWAP1 REVERT JUMPDEST PUSH3 0x9E9 PUSH8 0xA1CF429B8DFA64A9 PUSH1 0xC0 SHL PUSH3 0x216F JUMP JUMPDEST PUSH3 0x9FF PUSH8 0x4F55603B70804115 PUSH1 0xC0 SHL PUSH3 0x216F JUMP JUMPDEST PUSH3 0xA15 PUSH8 0x77F1CB5408A54F40 PUSH1 0xC0 SHL PUSH3 0x216F JUMP JUMPDEST PUSH3 0xA2B PUSH8 0x34CA85AB26000ACF PUSH1 0xC0 SHL PUSH3 0x216F JUMP JUMPDEST DUP8 PUSH3 0xA42 PUSH8 0x5DFB0BA1EB2680ED PUSH1 0xC0 SHL PUSH3 0x216F JUMP JUMPDEST PUSH3 0xA58 PUSH8 0x2B3C86E0F6E42ABC PUSH1 0xC0 SHL PUSH3 0x216F JUMP JUMPDEST PUSH3 0xA6E PUSH8 0xCC7E0C257FFE7844 PUSH1 0xC0 SHL PUSH3 0x216F JUMP JUMPDEST PUSH1 0x0 PUSH20 0xFFFFFFFFFFFFFFFFFFFFFFFFFFFFFFFFFFFFFFFF AND DUP2 PUSH20 0xFFFFFFFFFFFFFFFFFFFFFFFFFFFFFFFFFFFFFFFF AND SUB PUSH3 0xB01 JUMPI PUSH3 0xAB9 PUSH8 0x701688FD2114F61B PUSH1 0xC0 SHL PUSH3 0x216F JUMP JUMPDEST PUSH3 0xACF PUSH8 0xA14C870434005AE8 PUSH1 0xC0 SHL PUSH3 0x216F JUMP JUMPDEST PUSH1 0x40 MLOAD PUSH32 0x67CFA16E00000000000000000000000000000000000000000000000000000000 DUP2 MSTORE PUSH1 0x4 ADD PUSH1 0x40 MLOAD DUP1 SWAP2 SUB SWAP1 REVERT JUMPDEST PUSH3 0xB17 PUSH8 0xA1CF429B8DFA64A9 PUSH1 0xC0 SHL PUSH3 0x216F JUMP JUMPDEST PUSH3 0xB2D PUSH8 0x4F55603B70804115 PUSH1 0xC0 SHL PUSH3 0x216F JUMP JUMPDEST PUSH3 0xB43 PUSH8 0xE119AE7540327C48 PUSH1 0xC0 SHL PUSH3 0x216F JUMP JUMPDEST PUSH3 0xB59 PUSH8 0x467476778B0BB371 PUSH1 0xC0 SHL PUSH3 0x216F JUMP JUMPDEST DUP8 PUSH3 0xB70 PUSH8 0xE658CBB9CAE323AC PUSH1 0xC0 SHL PUSH3 0x216F JUMP JUMPDEST PUSH3 0xB86 PUSH8 0xFD26A16AF2251989 PUSH1 0xC0 SHL PUSH3 0x216F JUMP JUMPDEST PUSH3 0xB9C PUSH8 0xB74A0F0E2740CC6E PUSH1 0xC0 SHL PUSH3 0x216F JUMP JUMPDEST PUSH1 0x0 DUP2 SUB PUSH3 0xC03 JUMPI PUSH3 0xBBB PUSH8 0x8290D0AADC2B78A2 PUSH1 0xC0 SHL PUSH3 0x216F JUMP JUMPDEST PUSH3 0xBD1 PUSH8 0x4FECC1CD2197809 PUSH1 0xC0 SHL PUSH3 0x216F JUMP JUMPDEST PUSH1 0x40 MLOAD PUSH32 0x2689C50C00000000000000000000000000000000000000000000000000000000 DUP2 MSTORE PUSH1 0x4 ADD PUSH1 0x40 MLOAD DUP1 SWAP2 SUB SWAP1 REVERT JUMPDEST PUSH3 0xC19 PUSH8 0x8FDA0C490CA343B9 PUSH1 0xC0 SHL PUSH3 0x216F JUMP JUMPDEST PUSH3 0xC2F PUSH8 0xCA8D4499040FF82E PUSH1 0xC0 SHL PUSH3 0x216F JUMP JUMPDEST PUSH3 0xC45 PUSH8 0xF819F5251725BA08 PUSH1 0xC0 SHL PUSH3 0x216F JUMP JUMPDEST PUSH3 0xC5B PUSH8 0x3F08186E85C3B570 PUSH1 0xC0 SHL PUSH3 0x216F JUMP JUMPDEST PUSH3 0xC71 PUSH8 0xD160049E02053333 PUSH1 0xC0 SHL PUSH3 0x216F JUMP JUMPDEST PUSH3 0xC87 PUSH8 0x116B2FDF213F29A0 PUSH1 0xC0 SHL PUSH3 0x216F JUMP JUMPDEST DUP11 PUSH20 0xFFFFFFFFFFFFFFFFFFFFFFFFFFFFFFFFFFFFFFFF AND PUSH4 0xD505ACCF DUP12 ADDRESS DUP13 DUP13 DUP13 DUP13 DUP13 PUSH1 0x40 MLOAD DUP9 PUSH4 0xFFFFFFFF AND PUSH1 0xE0 SHL DUP2 MSTORE PUSH1 0x4 ADD PUSH3 0xCCE SWAP8 SWAP7 SWAP6 SWAP5 SWAP4 SWAP3 SWAP2 SWAP1 PUSH3 0x2A61 JUMP JUMPDEST PUSH1 0x0 PUSH1 0x40 MLOAD DUP1 DUP4 SUB DUP2 PUSH1 0x0 DUP8 DUP1 EXTCODESIZE ISZERO DUP1 ISZERO PUSH3 0xCE9 JUMPI PUSH1 0x0 DUP1 REVERT JUMPDEST POP GAS CALL ISZERO DUP1 ISZERO PUSH3 0xCFE JUMPI RETURNDATASIZE PUSH1 0x0 DUP1 RETURNDATACOPY RETURNDATASIZE PUSH1 0x0 REVERT JUMPDEST POP POP POP POP PUSH3 0xD18 PUSH8 0x8C31CB3AAF3FBA6C PUSH1 0xC0 SHL PUSH3 0x216F JUMP JUMPDEST PUSH3 0xD2E PUSH8 0xD9A88DA1AE544AFF PUSH1 0xC0 SHL PUSH3 0x216F JUMP JUMPDEST DUP11 PUSH20 0xFFFFFFFFFFFFFFFFFFFFFFFFFFFFFFFFFFFFFFFF AND PUSH4 0x79CC6790 DUP12 DUP12 PUSH1 0x40 MLOAD DUP4 PUSH4 0xFFFFFFFF AND PUSH1 0xE0 SHL DUP2 MSTORE PUSH1 0x4 ADD PUSH3 0xD6B SWAP3 SWAP2 SWAP1 PUSH3 0x2ADE JUMP JUMPDEST PUSH1 0x0 PUSH1 0x40 MLOAD DUP1 DUP4 SUB DUP2 PUSH1 0x0 DUP8 DUP1 EXTCODESIZE ISZERO DUP1 ISZERO PUSH3 0xD86 JUMPI PUSH1 0x0 DUP1 REVERT JUMPDEST POP GAS CALL ISZERO DUP1 ISZERO PUSH3 0xD9B JUMPI RETURNDATASIZE PUSH1 0x0 DUP1 RETURNDATACOPY RETURNDATASIZE PUSH1 0x0 REVERT JUMPDEST POP POP POP POP PUSH3 0xDB5 PUSH8 0x3A4718E06D5B782C PUSH1 0xC0 SHL PUSH3 0x216F JUMP JUMPDEST PUSH3 0xDCB PUSH8 0x31878349D2FE43DA PUSH1 0xC0 SHL PUSH3 0x216F JUMP JUMPDEST PUSH1 0x1 SWAP4 POP POP POP POP SWAP8 SWAP7 POP POP POP POP POP POP POP JUMP JUMPDEST PUSH1 0x0 PUSH3 0xDF5 PUSH8 0xEB3DE81CAB49E275 PUSH1 0xC0 SHL PUSH3 0x216F JUMP JUMPDEST PUSH3 0xDFF PUSH3 0x2172 JUMP JUMPDEST PUSH3 0xE15 PUSH8 0x5ADEAD4E77EB459E PUSH1 0xC0 SHL PUSH3 0x216F JUMP JUMPDEST PUSH3 0xE2B PUSH8 0x2C5CA56D1574057E PUSH1 0xC0 SHL PUSH3 0x216F JUMP JUMPDEST DUP2 PUSH3 0xE42 PUSH8 0x484CC96A2245A490 PUSH1 0xC0 SHL PUSH3 0x216F JUMP JUMPDEST PUSH3 0xE58 PUSH8 0x347F5D8F66680F41 PUSH1 0xC0 SHL PUSH3 0x216F JUMP JUMPDEST PUSH3 0xE6E PUSH8 0x85A1070C3D56CF24 PUSH1 0xC0 SHL PUSH3 0x216F JUMP JUMPDEST PUSH1 0x40 MLOAD DUP1 PUSH1 0x20 ADD PUSH1 0x40 MSTORE DUP1 PUSH1 0x0 DUP2 MSTORE POP DUP1 MLOAD SWAP1 PUSH1 0x20 ADD KECCAK256 DUP2 DUP1 MLOAD SWAP1 PUSH1 0x20 ADD KECCAK256 SUB PUSH3 0xEF1 JUMPI PUSH3 0xEA9 PUSH8 0x6B8C4DA67BC868D4 PUSH1 0xC0 SHL PUSH3 0x216F JUMP JUMPDEST PUSH3 0xEBF PUSH8 0xE548E7F8E40B1B5A PUSH1 0xC0 SHL PUSH3 0x216F JUMP JUMPDEST PUSH1 0x40 MLOAD PUSH32 0x9243059C00000000000000000000000000000000000000000000000000000000 DUP2 MSTORE PUSH1 0x4 ADD PUSH1 0x40 MLOAD DUP1 SWAP2 SUB SWAP1 REVERT JUMPDEST PUSH3 0xF07 PUSH8 0x4195D9D5BEEAAB21 PUSH1 0xC0 SHL PUSH3 0x216F JUMP JUMPDEST PUSH3 0xF1D PUSH8 0x931C12EFAFC1B4C1 PUSH1 0xC0 SHL PUSH3 0x216F JUMP JUMPDEST PUSH3 0xF33 PUSH8 0x98C72F5C488B0546 PUSH1 0xC0 SHL PUSH3 0x216F JUMP JUMPDEST PUSH3 0xF49 PUSH8 0xE7A0B6F4B50AFA7 PUSH1 0xC0 SHL PUSH3 0x216F JUMP JUMPDEST DUP4 PUSH3 0xF60 PUSH8 0x3A198578E3DF94CF PUSH1 0xC0 SHL PUSH3 0x216F JUMP JUMPDEST PUSH3 0xF76 PUSH8 0x1FEBB6B6D9E32D13 PUSH1 0xC0 SHL PUSH3 0x216F JUMP JUMPDEST PUSH3 0xF8C PUSH8 0x8D30774638F19806 PUSH1 0xC0 SHL PUSH3 0x216F JUMP JUMPDEST PUSH1 0x40 MLOAD DUP1 PUSH1 0x20 ADD PUSH1 0x40 MSTORE DUP1 PUSH1 0x0 DUP2 MSTORE POP DUP1 MLOAD SWAP1 PUSH1 0x20 ADD KECCAK256 DUP2 DUP1 MLOAD SWAP1 PUSH1 0x20 ADD KECCAK256 SUB PUSH3 0x100F JUMPI PUSH3 0xFC7 PUSH8 0x64227FE395CF1C16 PUSH1 0xC0 SHL PUSH3 0x216F JUMP JUMPDEST PUSH3 0xFDD PUSH8 0xA0AFBC35F52B65C1 PUSH1 0xC0 SHL PUSH3 0x216F JUMP JUMPDEST PUSH1 0x40 MLOAD PUSH32 0x5F3F156600000000000000000000000000000000000000000000000000000000 DUP2 MSTORE PUSH1 0x4 ADD PUSH1 0x40 MLOAD DUP1 SWAP2 SUB SWAP1 REVERT JUMPDEST PUSH3 0x1025 PUSH8 0xAB38E880DCFE5AC9 PUSH1 0xC0 SHL PUSH3 0x216F JUMP JUMPDEST PUSH3 0x103B PUSH8 0x7AFFC1AE9458CE62 PUSH1 0xC0 SHL PUSH3 0x216F JUMP JUMPDEST PUSH3 0x1051 PUSH8 0x4DF2611E48366095 PUSH1 0xC0 SHL PUSH3 0x216F JUMP JUMPDEST PUSH3 0x1067 PUSH8 0xC0DDE4A6A9C88D4 PUSH1 0xC0 SHL PUSH3 0x216F JUMP JUMPDEST PUSH3 0x107D PUSH8 0x530434F7C0E8F75B PUSH1 0xC0 SHL PUSH3 0x216F JUMP JUMPDEST PUSH3 0x1093 PUSH8 0x7582F1B16546ED90 PUSH1 0xC0 SHL PUSH3 0x216F JUMP JUMPDEST PUSH1 0x0 PUSH20 0xFFFFFFFFFFFFFFFFFFFFFFFFFFFFFFFFFFFFFFFF AND PUSH1 0x1 DUP6 PUSH1 0x40 MLOAD PUSH3 0x10BD SWAP2 SWAP1 PUSH3 0x2A26 JUMP JUMPDEST SWAP1 DUP2 MSTORE PUSH1 0x20 ADD PUSH1 0x40 MLOAD DUP1 SWAP2 SUB SWAP1 KECCAK256 PUSH1 0x0 SWAP1 SLOAD SWAP1 PUSH2 0x100 EXP SWAP1 DIV PUSH20 0xFFFFFFFFFFFFFFFFFFFFFFFFFFFFFFFFFFFFFFFF AND PUSH20 0xFFFFFFFFFFFFFFFFFFFFFFFFFFFFFFFFFFFFFFFF AND EQ PUSH3 0x1173 JUMPI PUSH3 0x111E PUSH8 0xFA633B49CB38E215 PUSH1 0xC0 SHL PUSH3 0x216F JUMP JUMPDEST PUSH3 0x1134 PUSH8 0x6F0E9C2302A1DCC7 PUSH1 0xC0 SHL PUSH3 0x216F JUMP JUMPDEST DUP4 PUSH1 0x40 MLOAD PUSH32 0x85BC087000000000000000000000000000000000000000000000000000000000 DUP2 MSTORE PUSH1 0x4 ADD PUSH3 0x116A SWAP2 SWAP1 PUSH3 0x2977 JUMP JUMPDEST PUSH1 0x40 MLOAD DUP1 SWAP2 SUB SWAP1 REVERT JUMPDEST PUSH3 0x1189 PUSH8 0x4BAF84DD4C79B87E PUSH1 0xC0 SHL PUSH3 0x216F JUMP JUMPDEST PUSH3 0x119F PUSH8 0x970C49F2D80E209F PUSH1 0xC0 SHL PUSH3 0x216F JUMP JUMPDEST PUSH3 0x11B5 PUSH8 0x1192FBB440B37E9 PUSH1 0xC0 SHL PUSH3 0x216F JUMP JUMPDEST PUSH1 0x0 DUP6 DUP6 PUSH1 0x40 MLOAD PUSH3 0x11C7 SWAP1 PUSH3 0x22C3 JUMP JUMPDEST PUSH3 0x11D4 SWAP3 SWAP2 SWAP1 PUSH3 0x2B0B JUMP JUMPDEST PUSH1 0x40 MLOAD DUP1 SWAP2 SUB SWAP1 PUSH1 0x0 CREATE DUP1 ISZERO DUP1 ISZERO PUSH3 0x11F1 JUMPI RETURNDATASIZE PUSH1 0x0 DUP1 RETURNDATACOPY RETURNDATASIZE PUSH1 0x0 REVERT JUMPDEST POP SWAP1 POP PUSH3 0x120A PUSH8 0x916DC7284D03DABE PUSH1 0xC0 SHL PUSH3 0x216F JUMP JUMPDEST DUP1 PUSH1 0x1 DUP7 PUSH1 0x40 MLOAD PUSH3 0x121D SWAP2 SWAP1 PUSH3 0x2A26 JUMP JUMPDEST SWAP1 DUP2 MSTORE PUSH1 0x20 ADD PUSH1 0x40 MLOAD DUP1 SWAP2 SUB SWAP1 KECCAK256 PUSH1 0x0 PUSH2 0x100 EXP DUP2 SLOAD DUP2 PUSH20 0xFFFFFFFFFFFFFFFFFFFFFFFFFFFFFFFFFFFFFFFF MUL NOT AND SWAP1 DUP4 PUSH20 0xFFFFFFFFFFFFFFFFFFFFFFFFFFFFFFFFFFFFFFFF AND MUL OR SWAP1 SSTORE POP PUSH3 0x127F PUSH8 0x4A886D7DBD43817C PUSH1 0xC0 SHL PUSH3 0x216F JUMP JUMPDEST PUSH3 0x1295 PUSH8 0x9F5BA7F2CCF58189 PUSH1 0xC0 SHL PUSH3 0x216F JUMP JUMPDEST DUP5 PUSH1 0x40 MLOAD PUSH3 0x12A5 SWAP2 SWAP1 PUSH3 0x2A26 JUMP JUMPDEST PUSH1 0x40 MLOAD DUP1 SWAP2 SUB SWAP1 KECCAK256 DUP7 PUSH1 0x40 MLOAD PUSH3 0x12BD SWAP2 SWAP1 PUSH3 0x2A26 JUMP JUMPDEST PUSH1 0x40 MLOAD DUP1 SWAP2 SUB SWAP1 KECCAK256 DUP3 PUSH20 0xFFFFFFFFFFFFFFFFFFFFFFFFFFFFFFFFFFFFFFFF AND PUSH32 0xFB30167B90E3D8F2DEAF0EBBB65D1849868EBF79C6D25C020B39FA156F61A9A9 PUSH1 0x40 MLOAD PUSH1 0x40 MLOAD DUP1 SWAP2 SUB SWAP1 LOG4 PUSH3 0x131E PUSH8 0x22F74CE7B19BB8CF PUSH1 0xC0 SHL PUSH3 0x216F JUMP JUMPDEST PUSH3 0x1334 PUSH8 0x8FE94B8ECAE7CC67 PUSH1 0xC0 SHL PUSH3 0x216F JUMP JUMPDEST DUP1 SWAP4 POP POP POP POP SWAP3 SWAP2 POP POP JUMP JUMPDEST PUSH1 0x0 PUSH3 0x1358 PUSH8 0x352F88B55C9F65A PUSH1 0xC0 SHL PUSH3 0x216F JUMP JUMPDEST DUP2 PUSH3 0x136F PUSH8 0x484CC96A2245A490 PUSH1 0xC0 SHL PUSH3 0x216F JUMP JUMPDEST PUSH3 0x1385 PUSH8 0x347F5D8F66680F41 PUSH1 0xC0 SHL PUSH3 0x216F JUMP JUMPDEST PUSH3 0x139B PUSH8 0x85A1070C3D56CF24 PUSH1 0xC0 SHL PUSH3 0x216F JUMP JUMPDEST PUSH1 0x40 MLOAD DUP1 PUSH1 0x20 ADD PUSH1 0x40 MSTORE DUP1 PUSH1 0x0 DUP2 MSTORE POP DUP1 MLOAD SWAP1 PUSH1 0x20 ADD KECCAK256 DUP2 DUP1 MLOAD SWAP1 PUSH1 0x20 ADD KECCAK256 SUB PUSH3 0x141E JUMPI PUSH3 0x13D6 PUSH8 0x6B8C4DA67BC868D4 PUSH1 0xC0 SHL PUSH3 0x216F JUMP JUMPDEST PUSH3 0x13EC PUSH8 0xE548E7F8E40B1B5A PUSH1 0xC0 SHL PUSH3 0x216F JUMP JUMPDEST PUSH1 0x40 MLOAD PUSH32 0x9243059C00000000000000000000000000000000000000000000000000000000 DUP2 MSTORE PUSH1 0x4 ADD PUSH1 0x40 MLOAD DUP1 SWAP2 SUB SWAP1 REVERT JUMPDEST PUSH3 0x1434 PUSH8 0x4195D9D5BEEAAB21 PUSH1 0xC0 SHL PUSH3 0x216F JUMP JUMPDEST PUSH3 0x144A PUSH8 0x931C12EFAFC1B4C1 PUSH1 0xC0 SHL PUSH3 0x216F JUMP JUMPDEST PUSH3 0x1460 PUSH8 0x5D46AC18DCD7E179 PUSH1 0xC0 SHL PUSH3 0x216F JUMP JUMPDEST PUSH3 0x1476 PUSH8 0x1A6DC85F54F0E129 PUSH1 0xC0 SHL PUSH3 0x216F JUMP JUMPDEST PUSH3 0x148C PUSH8 0x1C321176AFFE9FA PUSH1 0xC0 SHL PUSH3 0x216F JUMP JUMPDEST PUSH3 0x14A2 PUSH8 0x86F874D49D98901C PUSH1 0xC0 SHL PUSH3 0x216F JUMP JUMPDEST PUSH1 0x0 PUSH3 0x14AF DUP5 PUSH3 0x704 JUMP JUMPDEST SWAP1 POP PUSH3 0x14C7 PUSH8 0xC7AD190777797BE5 PUSH1 0xC0 SHL PUSH3 0x216F JUMP JUMPDEST PUSH3 0x14DD PUSH8 0xABE3CDD0CF65900D PUSH1 0xC0 SHL PUSH3 0x216F JUMP JUMPDEST PUSH1 0x0 PUSH20 0xFFFFFFFFFFFFFFFFFFFFFFFFFFFFFFFFFFFFFFFF AND DUP2 PUSH20 0xFFFFFFFFFFFFFFFFFFFFFFFFFFFFFFFFFFFFFFFF AND SUB PUSH3 0x157D JUMPI PUSH3 0x1528 PUSH8 0x812B7636C77ADC1B PUSH1 0xC0 SHL PUSH3 0x216F JUMP JUMPDEST PUSH3 0x153E PUSH8 0x4A34EC3F56BBDDD7 PUSH1 0xC0 SHL PUSH3 0x216F JUMP JUMPDEST DUP4 PUSH1 0x40 MLOAD PUSH32 0xA14EFA400000000000000000000000000000000000000000000000000000000 DUP2 MSTORE PUSH1 0x4 ADD PUSH3 0x1574 SWAP2 SWAP1 PUSH3 0x2977 JUMP JUMPDEST PUSH1 0x40 MLOAD DUP1 SWAP2 SUB SWAP1 REVERT JUMPDEST PUSH3 0x1593 PUSH8 0x8D604E4151C75351 PUSH1 0xC0 SHL PUSH3 0x216F JUMP JUMPDEST PUSH3 0x15A9 PUSH8 0x1A7579A2985083C8 PUSH1 0xC0 SHL PUSH3 0x216F JUMP JUMPDEST PUSH3 0x15BF PUSH8 0x273C838697A4D47 PUSH1 0xC0 SHL PUSH3 0x216F JUMP JUMPDEST DUP1 PUSH20 0xFFFFFFFFFFFFFFFFFFFFFFFFFFFFFFFFFFFFFFFF AND PUSH4 0x70A08231 CALLER PUSH1 0x40 MLOAD DUP3 PUSH4 0xFFFFFFFF AND PUSH1 0xE0 SHL DUP2 MSTORE PUSH1 0x4 ADD PUSH3 0x15FA SWAP2 SWAP1 PUSH3 0x25AC JUMP JUMPDEST PUSH1 0x20 PUSH1 0x40 MLOAD DUP1 DUP4 SUB DUP2 DUP7 GAS STATICCALL ISZERO DUP1 ISZERO PUSH3 0x1618 JUMPI RETURNDATASIZE PUSH1 0x0 DUP1 RETURNDATACOPY RETURNDATASIZE PUSH1 0x0 REVERT JUMPDEST POP POP POP POP PUSH1 0x40 MLOAD RETURNDATASIZE PUSH1 0x1F NOT PUSH1 0x1F DUP3 ADD AND DUP3 ADD DUP1 PUSH1 0x40 MSTORE POP DUP2 ADD SWAP1 PUSH3 0x163E SWAP2 SWAP1 PUSH3 0x29B2 JUMP JUMPDEST SWAP3 POP POP POP SWAP2 SWAP1 POP JUMP JUMPDEST PUSH3 0x1651 PUSH3 0x2172 JUMP JUMPDEST PUSH3 0x165D PUSH1 0x0 PUSH3 0x21F7 JUMP JUMPDEST JUMP JUMPDEST PUSH1 0x0 PUSH3 0x1677 PUSH8 0xA09E9DFCF7ABD729 PUSH1 0xC0 SHL PUSH3 0x216F JUMP JUMPDEST PUSH3 0x1681 PUSH3 0x2172 JUMP JUMPDEST PUSH3 0x1697 PUSH8 0xE7A1BDAA9329696A PUSH1 0xC0 SHL PUSH3 0x216F JUMP JUMPDEST PUSH3 0x16AD PUSH8 0x8EBFE5A4CA02500A PUSH1 0xC0 SHL PUSH3 0x216F JUMP JUMPDEST DUP3 PUSH3 0x16C4 PUSH8 0x5DFB0BA1EB2680ED PUSH1 0xC0 SHL PUSH3 0x216F JUMP JUMPDEST PUSH3 0x16DA PUSH8 0x2B3C86E0F6E42ABC PUSH1 0xC0 SHL PUSH3 0x216F JUMP JUMPDEST PUSH3 0x16F0 PUSH8 0xCC7E0C257FFE7844 PUSH1 0xC0 SHL PUSH3 0x216F JUMP JUMPDEST PUSH1 0x0 PUSH20 0xFFFFFFFFFFFFFFFFFFFFFFFFFFFFFFFFFFFFFFFF AND DUP2 PUSH20 0xFFFFFFFFFFFFFFFFFFFFFFFFFFFFFFFFFFFFFFFF AND SUB PUSH3 0x1783 JUMPI PUSH3 0x173B PUSH8 0x701688FD2114F61B PUSH1 0xC0 SHL PUSH3 0x216F JUMP JUMPDEST PUSH3 0x1751 PUSH8 0xA14C870434005AE8 PUSH1 0xC0 SHL PUSH3 0x216F JUMP JUMPDEST PUSH1 0x40 MLOAD PUSH32 0x67CFA16E00000000000000000000000000000000000000000000000000000000 DUP2 MSTORE PUSH1 0x4 ADD PUSH1 0x40 MLOAD DUP1 SWAP2 SUB SWAP1 REVERT JUMPDEST PUSH3 0x1799 PUSH8 0xA1CF429B8DFA64A9 PUSH1 0xC0 SHL PUSH3 0x216F JUMP JUMPDEST PUSH3 0x17AF PUSH8 0x4F55603B70804115 PUSH1 0xC0 SHL PUSH3 0x216F JUMP JUMPDEST PUSH3 0x17C5 PUSH8 0x41E808FF69B37E25 PUSH1 0xC0 SHL PUSH3 0x216F JUMP JUMPDEST PUSH3 0x17DB PUSH8 0x89F4ED53DFA9BD7 PUSH1 0xC0 SHL PUSH3 0x216F JUMP JUMPDEST DUP5 PUSH3 0x17F2 PUSH8 0x484CC96A2245A490 PUSH1 0xC0 SHL PUSH3 0x216F JUMP JUMPDEST PUSH3 0x1808 PUSH8 0x347F5D8F66680F41 PUSH1 0xC0 SHL PUSH3 0x216F JUMP JUMPDEST PUSH3 0x181E PUSH8 0x85A1070C3D56CF24 PUSH1 0xC0 SHL PUSH3 0x216F JUMP JUMPDEST PUSH1 0x40 MLOAD DUP1 PUSH1 0x20 ADD PUSH1 0x40 MSTORE DUP1 PUSH1 0x0 DUP2 MSTORE POP DUP1 MLOAD SWAP1 PUSH1 0x20 ADD KECCAK256 DUP2 DUP1 MLOAD SWAP1 PUSH1 0x20 ADD KECCAK256 SUB PUSH3 0x18A1 JUMPI PUSH3 0x1859 PUSH8 0x6B8C4DA67BC868D4 PUSH1 0xC0 SHL PUSH3 0x216F JUMP JUMPDEST PUSH3 0x186F PUSH8 0xE548E7F8E40B1B5A PUSH1 0xC0 SHL PUSH3 0x216F JUMP JUMPDEST PUSH1 0x40 MLOAD PUSH32 0x9243059C00000000000000000000000000000000000000000000000000000000 DUP2 MSTORE PUSH1 0x4 ADD PUSH1 0x40 MLOAD DUP1 SWAP2 SUB SWAP1 REVERT JUMPDEST PUSH3 0x18B7 PUSH8 0x4195D9D5BEEAAB21 PUSH1 0xC0 SHL PUSH3 0x216F JUMP JUMPDEST PUSH3 0x18CD PUSH8 0x931C12EFAFC1B4C1 PUSH1 0xC0 SHL PUSH3 0x216F JUMP JUMPDEST PUSH3 0x18E3 PUSH8 0x96C593491C342D71 PUSH1 0xC0 SHL PUSH3 0x216F JUMP JUMPDEST PUSH3 0x18F9 PUSH8 0x4013CAEBFF240445 PUSH1 0xC0 SHL PUSH3 0x216F JUMP JUMPDEST DUP4 PUSH3 0x1910 PUSH8 0xE658CBB9CAE323AC PUSH1 0xC0 SHL PUSH3 0x216F JUMP JUMPDEST PUSH3 0x1926 PUSH8 0xFD26A16AF2251989 PUSH1 0xC0 SHL PUSH3 0x216F JUMP JUMPDEST PUSH3 0x193C PUSH8 0xB74A0F0E2740CC6E PUSH1 0xC0 SHL PUSH3 0x216F JUMP JUMPDEST PUSH1 0x0 DUP2 SUB PUSH3 0x19A3 JUMPI PUSH3 0x195B PUSH8 0x8290D0AADC2B78A2 PUSH1 0xC0 SHL PUSH3 0x216F JUMP JUMPDEST PUSH3 0x1971 PUSH8 0x4FECC1CD2197809 PUSH1 0xC0 SHL PUSH3 0x216F JUMP JUMPDEST PUSH1 0x40 MLOAD PUSH32 0x2689C50C00000000000000000000000000000000000000000000000000000000 DUP2 MSTORE PUSH1 0x4 ADD PUSH1 0x40 MLOAD DUP1 SWAP2 SUB SWAP1 REVERT JUMPDEST PUSH3 0x19B9 PUSH8 0x8FDA0C490CA343B9 PUSH1 0xC0 SHL PUSH3 0x216F JUMP JUMPDEST PUSH3 0x19CF PUSH8 0xCA8D4499040FF82E PUSH1 0xC0 SHL PUSH3 0x216F JUMP JUMPDEST PUSH3 0x19E5 PUSH8 0x9C60B0DD7C7731E0 PUSH1 0xC0 SHL PUSH3 0x216F JUMP JUMPDEST PUSH3 0x19FB PUSH8 0xD6037629F171CDE7 PUSH1 0xC0 SHL PUSH3 0x216F JUMP JUMPDEST PUSH3 0x1A11 PUSH8 0x3464AE127E444BEE PUSH1 0xC0 SHL PUSH3 0x216F JUMP JUMPDEST PUSH3 0x1A27 PUSH8 0x3C941039B0893D0E PUSH1 0xC0 SHL PUSH3 0x216F JUMP JUMPDEST PUSH1 0x0 PUSH3 0x1A34 DUP9 PUSH3 0x704 JUMP JUMPDEST SWAP1 POP PUSH3 0x1A4C PUSH8 0x626D361B70FDAB73 PUSH1 0xC0 SHL PUSH3 0x216F JUMP JUMPDEST PUSH3 0x1A62 PUSH8 0x5925B04C1A0A79AD PUSH1 0xC0 SHL PUSH3 0x216F JUMP JUMPDEST PUSH1 0x0 PUSH20 0xFFFFFFFFFFFFFFFFFFFFFFFFFFFFFFFFFFFFFFFF AND DUP2 PUSH20 0xFFFFFFFFFFFFFFFFFFFFFFFFFFFFFFFFFFFFFFFF AND SUB PUSH3 0x1B02 JUMPI PUSH3 0x1AAD PUSH8 0x267C6E9F953C7947 PUSH1 0xC0 SHL PUSH3 0x216F JUMP JUMPDEST PUSH3 0x1AC3 PUSH8 0x697E218933C24681 PUSH1 0xC0 SHL PUSH3 0x216F JUMP JUMPDEST DUP8 PUSH1 0x40 MLOAD PUSH32 0xA14EFA400000000000000000000000000000000000000000000000000000000 DUP2 MSTORE PUSH1 0x4 ADD PUSH3 0x1AF9 SWAP2 SWAP1 PUSH3 0x2977 JUMP JUMPDEST PUSH1 0x40 MLOAD DUP1 SWAP2 SUB SWAP1 REVERT JUMPDEST PUSH3 0x1B18 PUSH8 0x89E9C9B221457753 PUSH1 0xC0 SHL PUSH3 0x216F JUMP JUMPDEST PUSH3 0x1B2E PUSH8 0x3E1D7A32ED586878 PUSH1 0xC0 SHL PUSH3 0x216F JUMP JUMPDEST PUSH3 0x1B44 PUSH8 0x6FD48892AF51B6B5 PUSH1 0xC0 SHL PUSH3 0x216F JUMP JUMPDEST DUP1 PUSH20 0xFFFFFFFFFFFFFFFFFFFFFFFFFFFFFFFFFFFFFFFF AND PUSH4 0x40C10F19 DUP9 DUP9 PUSH1 0x40 MLOAD DUP4 PUSH4 0xFFFFFFFF AND PUSH1 0xE0 SHL DUP2 MSTORE PUSH1 0x4 ADD PUSH3 0x1B81 SWAP3 SWAP2 SWAP1 PUSH3 0x2ADE JUMP JUMPDEST PUSH1 0x0 PUSH1 0x40 MLOAD DUP1 DUP4 SUB DUP2 PUSH1 0x0 DUP8 DUP1 EXTCODESIZE ISZERO DUP1 ISZERO PUSH3 0x1B9C JUMPI PUSH1 0x0 DUP1 REVERT JUMPDEST POP GAS CALL ISZERO DUP1 ISZERO PUSH3 0x1BB1 JUMPI RETURNDATASIZE PUSH1 0x0 DUP1 RETURNDATACOPY RETURNDATASIZE PUSH1 0x0 REVERT JUMPDEST POP POP POP POP PUSH3 0x1BCB PUSH8 0x14CE0B0B40971A36 PUSH1 0xC0 SHL PUSH3 0x216F JUMP JUMPDEST PUSH3 0x1BE1 PUSH8 0x4580B91AD750F9DB PUSH1 0xC0 SHL PUSH3 0x216F JUMP JUMPDEST PUSH1 0x1 SWAP5 POP POP POP POP POP SWAP4 SWAP3 POP POP POP JUMP JUMPDEST PUSH1 0x0 DUP1 PUSH1 0x0 SWAP1 SLOAD SWAP1 PUSH2 0x100 EXP SWAP1 DIV PUSH20 0xFFFFFFFFFFFFFFFFFFFFFFFFFFFFFFFFFFFFFFFF AND SWAP1 POP SWAP1 JUMP JUMPDEST PUSH1 0x1 DUP2 DUP1 MLOAD PUSH1 0x20 DUP2 ADD DUP3 ADD DUP1 MLOAD DUP5 DUP3 MSTORE PUSH1 0x20 DUP4 ADD PUSH1 0x20 DUP6 ADD KECCAK256 DUP2 DUP4 MSTORE DUP1 SWAP6 POP POP POP POP POP POP PUSH1 0x0 SWAP2 POP SLOAD SWAP1 PUSH2 0x100 EXP SWAP1 DIV PUSH20 0xFFFFFFFFFFFFFFFFFFFFFFFFFFFFFFFFFFFFFFFF AND DUP2 JUMP JUMPDEST PUSH3 0x1C6C PUSH3 0x2172 JUMP JUMPDEST PUSH1 0x0 PUSH20 0xFFFFFFFFFFFFFFFFFFFFFFFFFFFFFFFFFFFFFFFF AND DUP2 PUSH20 0xFFFFFFFFFFFFFFFFFFFFFFFFFFFFFFFFFFFFFFFF AND SUB PUSH3 0x1CDE JUMPI PUSH1 0x40 MLOAD PUSH32 0x8C379A000000000000000000000000000000000000000000000000000000000 DUP2 MSTORE PUSH1 0x4 ADD PUSH3 0x1CD5 SWAP1 PUSH3 0x2BBC JUMP JUMPDEST PUSH1 0x40 MLOAD DUP1 SWAP2 SUB SWAP1 REVERT JUMPDEST PUSH3 0x1CE9 DUP2 PUSH3 0x21F7 JUMP JUMPDEST POP JUMP JUMPDEST PUSH1 0x0 PUSH3 0x1D04 PUSH8 0x678D593A300C8405 PUSH1 0xC0 SHL PUSH3 0x216F JUMP JUMPDEST PUSH3 0x1D0E PUSH3 0x2172 JUMP JUMPDEST PUSH3 0x1D24 PUSH8 0x6D1D66B97622DEF7 PUSH1 0xC0 SHL PUSH3 0x216F JUMP JUMPDEST PUSH3 0x1D3A PUSH8 0xF5F569F309ECAD73 PUSH1 0xC0 SHL PUSH3 0x216F JUMP JUMPDEST DUP4 PUSH3 0x1D51 PUSH8 0x5DFB0BA1EB2680ED PUSH1 0xC0 SHL PUSH3 0x216F JUMP JUMPDEST PUSH3 0x1D67 PUSH8 0x2B3C86E0F6E42ABC PUSH1 0xC0 SHL PUSH3 0x216F JUMP JUMPDEST PUSH3 0x1D7D PUSH8 0xCC7E0C257FFE7844 PUSH1 0xC0 SHL PUSH3 0x216F JUMP JUMPDEST PUSH1 0x0 PUSH20 0xFFFFFFFFFFFFFFFFFFFFFFFFFFFFFFFFFFFFFFFF AND DUP2 PUSH20 0xFFFFFFFFFFFFFFFFFFFFFFFFFFFFFFFFFFFFFFFF AND SUB PUSH3 0x1E10 JUMPI PUSH3 0x1DC8 PUSH8 0x701688FD2114F61B PUSH1 0xC0 SHL PUSH3 0x216F JUMP JUMPDEST PUSH3 0x1DDE PUSH8 0xA14C870434005AE8 PUSH1 0xC0 SHL PUSH3 0x216F JUMP JUMPDEST PUSH1 0x40 MLOAD PUSH32 0x67CFA16E00000000000000000000000000000000000000000000000000000000 DUP2 MSTORE PUSH1 0x4 ADD PUSH1 0x40 MLOAD DUP1 SWAP2 SUB SWAP1 REVERT JUMPDEST PUSH3 0x1E26 PUSH8 0xA1CF429B8DFA64A9 PUSH1 0xC0 SHL PUSH3 0x216F JUMP JUMPDEST PUSH3 0x1E3C PUSH8 0x4F55603B70804115 PUSH1 0xC0 SHL PUSH3 0x216F JUMP JUMPDEST PUSH3 0x1E52 PUSH8 0xFF0ACC14050370F7 PUSH1 0xC0 SHL PUSH3 0x216F JUMP JUMPDEST PUSH3 0x1E68 PUSH8 0xF5BB430A699C7E12 PUSH1 0xC0 SHL PUSH3 0x216F JUMP JUMPDEST DUP4 PUSH3 0x1E7F PUSH8 0x5DFB0BA1EB2680ED PUSH1 0xC0 SHL PUSH3 0x216F JUMP JUMPDEST PUSH3 0x1E95 PUSH8 0x2B3C86E0F6E42ABC PUSH1 0xC0 SHL PUSH3 0x216F JUMP JUMPDEST PUSH3 0x1EAB PUSH8 0xCC7E0C257FFE7844 PUSH1 0xC0 SHL PUSH3 0x216F JUMP JUMPDEST PUSH1 0x0 PUSH20 0xFFFFFFFFFFFFFFFFFFFFFFFFFFFFFFFFFFFFFFFF AND DUP2 PUSH20 0xFFFFFFFFFFFFFFFFFFFFFFFFFFFFFFFFFFFFFFFF AND SUB PUSH3 0x1F3E JUMPI PUSH3 0x1EF6 PUSH8 0x701688FD2114F61B PUSH1 0xC0 SHL PUSH3 0x216F JUMP JUMPDEST PUSH3 0x1F0C PUSH8 0xA14C870434005AE8 PUSH1 0xC0 SHL PUSH3 0x216F JUMP JUMPDEST PUSH1 0x40 MLOAD PUSH32 0x67CFA16E00000000000000000000000000000000000000000000000000000000 DUP2 MSTORE PUSH1 0x4 ADD PUSH1 0x40 MLOAD DUP1 SWAP2 SUB SWAP1 REVERT JUMPDEST PUSH3 0x1F54 PUSH8 0xA1CF429B8DFA64A9 PUSH1 0xC0 SHL PUSH3 0x216F JUMP JUMPDEST PUSH3 0x1F6A PUSH8 0x4F55603B70804115 PUSH1 0xC0 SHL PUSH3 0x216F JUMP JUMPDEST PUSH3 0x1F80 PUSH8 0x4F87D3BF4771D725 PUSH1 0xC0 SHL PUSH3 0x216F JUMP JUMPDEST PUSH3 0x1F96 PUSH8 0xD162ABF1FA51F8BB PUSH1 0xC0 SHL PUSH3 0x216F JUMP JUMPDEST DUP4 PUSH3 0x1FAD PUSH8 0xE658CBB9CAE323AC PUSH1 0xC0 SHL PUSH3 0x216F JUMP JUMPDEST PUSH3 0x1FC3 PUSH8 0xFD26A16AF2251989 PUSH1 0xC0 SHL PUSH3 0x216F JUMP JUMPDEST PUSH3 0x1FD9 PUSH8 0xB74A0F0E2740CC6E PUSH1 0xC0 SHL PUSH3 0x216F JUMP JUMPDEST PUSH1 0x0 DUP2 SUB PUSH3 0x2040 JUMPI PUSH3 0x1FF8 PUSH8 0x8290D0AADC2B78A2 PUSH1 0xC0 SHL PUSH3 0x216F JUMP JUMPDEST PUSH3 0x200E PUSH8 0x4FECC1CD2197809 PUSH1 0xC0 SHL PUSH3 0x216F JUMP JUMPDEST PUSH1 0x40 MLOAD PUSH32 0x2689C50C00000000000000000000000000000000000000000000000000000000 DUP2 MSTORE PUSH1 0x4 ADD PUSH1 0x40 MLOAD DUP1 SWAP2 SUB SWAP1 REVERT JUMPDEST PUSH3 0x2056 PUSH8 0x8FDA0C490CA343B9 PUSH1 0xC0 SHL PUSH3 0x216F JUMP JUMPDEST PUSH3 0x206C PUSH8 0xCA8D4499040FF82E PUSH1 0xC0 SHL PUSH3 0x216F JUMP JUMPDEST PUSH3 0x2082 PUSH8 0xFED26A2B648BECD8 PUSH1 0xC0 SHL PUSH3 0x216F JUMP JUMPDEST PUSH3 0x2098 PUSH8 0xB69625F070B68250 PUSH1 0xC0 SHL PUSH3 0x216F JUMP JUMPDEST PUSH3 0x20AE PUSH8 0xFA4587A9B242E386 PUSH1 0xC0 SHL PUSH3 0x216F JUMP JUMPDEST PUSH3 0x20C4 PUSH8 0x69D478E82F2B75B2 PUSH1 0xC0 SHL PUSH3 0x216F JUMP JUMPDEST DUP7 PUSH20 0xFFFFFFFFFFFFFFFFFFFFFFFFFFFFFFFFFFFFFFFF AND PUSH4 0x79CC6790 DUP8 DUP8 PUSH1 0x40 MLOAD DUP4 PUSH4 0xFFFFFFFF AND PUSH1 0xE0 SHL DUP2 MSTORE PUSH1 0x4 ADD PUSH3 0x2101 SWAP3 SWAP2 SWAP1 PUSH3 0x2ADE JUMP JUMPDEST PUSH1 0x0 PUSH1 0x40 MLOAD DUP1 DUP4 SUB DUP2 PUSH1 0x0 DUP8 DUP1 EXTCODESIZE ISZERO DUP1 ISZERO PUSH3 0x211C JUMPI PUSH1 0x0 DUP1 REVERT JUMPDEST POP GAS CALL ISZERO DUP1 ISZERO PUSH3 0x2131 JUMPI RETURNDATASIZE PUSH1 0x0 DUP1 RETURNDATACOPY RETURNDATASIZE PUSH1 0x0 REVERT JUMPDEST POP POP POP POP PUSH3 0x214B PUSH8 0x2F09C2B93DCDF1B PUSH1 0xC0 SHL PUSH3 0x216F JUMP JUMPDEST PUSH3 0x2161 PUSH8 0x8EB967825F7AFE18 PUSH1 0xC0 SHL PUSH3 0x216F JUMP JUMPDEST PUSH1 0x1 SWAP4 POP POP POP POP SWAP4 SWAP3 POP POP POP JUMP JUMPDEST POP JUMP JUMPDEST PUSH3 0x217C PUSH3 0x22BB JUMP JUMPDEST PUSH20 0xFFFFFFFFFFFFFFFFFFFFFFFFFFFFFFFFFFFFFFFF AND PUSH3 0x219C PUSH3 0x1BF0 JUMP JUMPDEST PUSH20 0xFFFFFFFFFFFFFFFFFFFFFFFFFFFFFFFFFFFFFFFF AND EQ PUSH3 0x21F5 JUMPI PUSH1 0x40 MLOAD PUSH32 0x8C379A000000000000000000000000000000000000000000000000000000000 DUP2 MSTORE PUSH1 0x4 ADD PUSH3 0x21EC SWAP1 PUSH3 0x2C2E JUMP JUMPDEST PUSH1 0x40 MLOAD DUP1 SWAP2 SUB SWAP1 REVERT JUMPDEST JUMP JUMPDEST PUSH1 0x0 DUP1 PUSH1 0x0 SWAP1 SLOAD SWAP1 PUSH2 0x100 EXP SWAP1 DIV PUSH20 0xFFFFFFFFFFFFFFFFFFFFFFFFFFFFFFFFFFFFFFFF AND SWAP1 POP DUP2 PUSH1 0x0 DUP1 PUSH2 0x100 EXP DUP2 SLOAD DUP2 PUSH20 0xFFFFFFFFFFFFFFFFFFFFFFFFFFFFFFFFFFFFFFFF MUL NOT AND SWAP1 DUP4 PUSH20 0xFFFFFFFFFFFFFFFFFFFFFFFFFFFFFFFFFFFFFFFF AND MUL OR SWAP1 SSTORE POP DUP2 PUSH20 0xFFFFFFFFFFFFFFFFFFFFFFFFFFFFFFFFFFFFFFFF AND DUP2 PUSH20 0xFFFFFFFFFFFFFFFFFFFFFFFFFFFFFFFFFFFFFFFF AND PUSH32 0x8BE0079C531659141344CD1FD0A4F28419497F9722A3DAAFE3B4186F6B6457E0 PUSH1 0x40 MLOAD PUSH1 0x40 MLOAD DUP1 SWAP2 SUB SWAP1 LOG3 POP POP JUMP JUMPDEST PUSH1 0x0 CALLER SWAP1 POP SWAP1 JUMP JUMPDEST PUSH2 0x3A98 DUP1 PUSH3 0x2C51 DUP4 CODECOPY ADD SWAP1 JUMP JUMPDEST PUSH1 0x0 PUSH1 0x40 MLOAD SWAP1 POP SWAP1 JUMP JUMPDEST PUSH1 0x0 DUP1 REVERT JUMPDEST PUSH1 0x0 DUP1 REVERT JUMPDEST PUSH1 0x0 DUP1 REVERT JUMPDEST PUSH1 0x0 DUP1 REVERT JUMPDEST PUSH1 0x0 PUSH1 0x1F NOT PUSH1 0x1F DUP4 ADD AND SWAP1 POP SWAP2 SWAP1 POP JUMP JUMPDEST PUSH32 0x4E487B7100000000000000000000000000000000000000000000000000000000 PUSH1 0x0 MSTORE PUSH1 0x41 PUSH1 0x4 MSTORE PUSH1 0x24 PUSH1 0x0 REVERT JUMPDEST PUSH3 0x233A DUP3 PUSH3 0x22EF JUMP JUMPDEST DUP2 ADD DUP2 DUP2 LT PUSH8 0xFFFFFFFFFFFFFFFF DUP3 GT OR ISZERO PUSH3 0x235C JUMPI PUSH3 0x235B PUSH3 0x2300 JUMP JUMPDEST JUMPDEST DUP1 PUSH1 0x40 MSTORE POP POP POP JUMP JUMPDEST PUSH1 0x0 PUSH3 0x2371 PUSH3 0x22D1 JUMP JUMPDEST SWAP1 POP PUSH3 0x237F DUP3 DUP3 PUSH3 0x232F JUMP JUMPDEST SWAP2 SWAP1 POP JUMP JUMPDEST PUSH1 0x0 PUSH8 0xFFFFFFFFFFFFFFFF DUP3 GT ISZERO PUSH3 0x23A2 JUMPI PUSH3 0x23A1 PUSH3 0x2300 JUMP JUMPDEST JUMPDEST PUSH3 0x23AD DUP3 PUSH3 0x22EF JUMP JUMPDEST SWAP1 POP PUSH1 0x20 DUP2 ADD SWAP1 POP SWAP2 SWAP1 POP JUMP JUMPDEST DUP3 DUP2 DUP4 CALLDATACOPY PUSH1 0x0 DUP4 DUP4 ADD MSTORE POP POP POP JUMP JUMPDEST PUSH1 0x0 PUSH3 0x23E0 PUSH3 0x23DA DUP5 PUSH3 0x2384 JUMP JUMPDEST PUSH3 0x2365 JUMP JUMPDEST SWAP1 POP DUP3 DUP2 MSTORE PUSH1 0x20 DUP2 ADD DUP5 DUP5 DUP5 ADD GT ISZERO PUSH3 0x23FF JUMPI PUSH3 0x23FE PUSH3 0x22EA JUMP JUMPDEST JUMPDEST PUSH3 0x240C DUP5 DUP3 DUP6 PUSH3 0x23BA JUMP JUMPDEST POP SWAP4 SWAP3 POP POP POP JUMP JUMPDEST PUSH1 0x0 DUP3 PUSH1 0x1F DUP4 ADD SLT PUSH3 0x242C JUMPI PUSH3 0x242B PUSH3 0x22E5 JUMP JUMPDEST JUMPDEST DUP2 CALLDATALOAD PUSH3 0x243E DUP5 DUP3 PUSH1 0x20 DUP7 ADD PUSH3 0x23C9 JUMP JUMPDEST SWAP2 POP POP SWAP3 SWAP2 POP POP JUMP JUMPDEST PUSH1 0x0 PUSH20 0xFFFFFFFFFFFFFFFFFFFFFFFFFFFFFFFFFFFFFFFF DUP3 AND SWAP1 POP SWAP2 SWAP1 POP JUMP JUMPDEST PUSH1 0x0 PUSH3 0x2474 DUP3 PUSH3 0x2447 JUMP JUMPDEST SWAP1 POP SWAP2 SWAP1 POP JUMP JUMPDEST PUSH3 0x2486 DUP2 PUSH3 0x2467 JUMP JUMPDEST DUP2 EQ PUSH3 0x2492 JUMPI PUSH1 0x0 DUP1 REVERT JUMPDEST POP JUMP JUMPDEST PUSH1 0x0 DUP2 CALLDATALOAD SWAP1 POP PUSH3 0x24A6 DUP2 PUSH3 0x247B JUMP JUMPDEST SWAP3 SWAP2 POP POP JUMP JUMPDEST PUSH1 0x0 DUP1 PUSH1 0x40 DUP4 DUP6 SUB SLT ISZERO PUSH3 0x24C6 JUMPI PUSH3 0x24C5 PUSH3 0x22DB JUMP JUMPDEST JUMPDEST PUSH1 0x0 DUP4 ADD CALLDATALOAD PUSH8 0xFFFFFFFFFFFFFFFF DUP2 GT ISZERO PUSH3 0x24E7 JUMPI PUSH3 0x24E6 PUSH3 0x22E0 JUMP JUMPDEST JUMPDEST PUSH3 0x24F5 DUP6 DUP3 DUP7 ADD PUSH3 0x2414 JUMP JUMPDEST SWAP3 POP POP PUSH1 0x20 PUSH3 0x2508 DUP6 DUP3 DUP7 ADD PUSH3 0x2495 JUMP JUMPDEST SWAP2 POP POP SWAP3 POP SWAP3 SWAP1 POP JUMP JUMPDEST PUSH1 0x0 DUP2 SWAP1 POP SWAP2 SWAP1 POP JUMP JUMPDEST PUSH3 0x2527 DUP2 PUSH3 0x2512 JUMP JUMPDEST DUP3 MSTORE POP POP JUMP JUMPDEST PUSH1 0x0 PUSH1 0x20 DUP3 ADD SWAP1 POP PUSH3 0x2544 PUSH1 0x0 DUP4 ADD DUP5 PUSH3 0x251C JUMP JUMPDEST SWAP3 SWAP2 POP POP JUMP JUMPDEST PUSH1 0x0 PUSH1 0x20 DUP3 DUP5 SUB SLT ISZERO PUSH3 0x2563 JUMPI PUSH3 0x2562 PUSH3 0x22DB JUMP JUMPDEST JUMPDEST PUSH1 0x0 DUP3 ADD CALLDATALOAD PUSH8 0xFFFFFFFFFFFFFFFF DUP2 GT ISZERO PUSH3 0x2584 JUMPI PUSH3 0x2583 PUSH3 0x22E0 JUMP JUMPDEST JUMPDEST PUSH3 0x2592 DUP5 DUP3 DUP6 ADD PUSH3 0x2414 JUMP JUMPDEST SWAP2 POP POP SWAP3 SWAP2 POP POP JUMP JUMPDEST PUSH3 0x25A6 DUP2 PUSH3 0x2467 JUMP JUMPDEST DUP3 MSTORE POP POP JUMP JUMPDEST PUSH1 0x0 PUSH1 0x20 DUP3 ADD SWAP1 POP PUSH3 0x25C3 PUSH1 0x0 DUP4 ADD DUP5 PUSH3 0x259B JUMP JUMPDEST SWAP3 SWAP2 POP POP JUMP JUMPDEST PUSH3 0x25D4 DUP2 PUSH3 0x2512 JUMP JUMPDEST DUP2 EQ PUSH3 0x25E0 JUMPI PUSH1 0x0 DUP1 REVERT JUMPDEST POP JUMP JUMPDEST PUSH1 0x0 DUP2 CALLDATALOAD SWAP1 POP PUSH3 0x25F4 DUP2 PUSH3 0x25C9 JUMP JUMPDEST SWAP3 SWAP2 POP POP JUMP JUMPDEST PUSH1 0x0 PUSH1 0xFF DUP3 AND SWAP1 POP SWAP2 SWAP1 POP JUMP JUMPDEST PUSH3 0x2612 DUP2 PUSH3 0x25FA JUMP JUMPDEST DUP2 EQ PUSH3 0x261E JUMPI PUSH1 0x0 DUP1 REVERT JUMPDEST POP JUMP JUMPDEST PUSH1 0x0 DUP2 CALLDATALOAD SWAP1 POP PUSH3 0x2632 DUP2 PUSH3 0x2607 JUMP JUMPDEST SWAP3 SWAP2 POP POP JUMP JUMPDEST PUSH1 0x0 DUP2 SWAP1 POP SWAP2 SWAP1 POP JUMP JUMPDEST PUSH3 0x264D DUP2 PUSH3 0x2638 JUMP JUMPDEST DUP2 EQ PUSH3 0x2659 JUMPI PUSH1 0x0 DUP1 REVERT JUMPDEST POP JUMP JUMPDEST PUSH1 0x0 DUP2 CALLDATALOAD SWAP1 POP PUSH3 0x266D DUP2 PUSH3 0x2642 JUMP JUMPDEST SWAP3 SWAP2 POP POP JUMP JUMPDEST PUSH1 0x0 DUP1 PUSH1 0x0 DUP1 PUSH1 0x0 DUP1 PUSH1 0x0 PUSH1 0xE0 DUP9 DUP11 SUB SLT ISZERO PUSH3 0x2695 JUMPI PUSH3 0x2694 PUSH3 0x22DB JUMP JUMPDEST JUMPDEST PUSH1 0x0 PUSH3 0x26A5 DUP11 DUP3 DUP12 ADD PUSH3 0x2495 JUMP JUMPDEST SWAP8 POP POP PUSH1 0x20 PUSH3 0x26B8 DUP11 DUP3 DUP12 ADD PUSH3 0x2495 JUMP JUMPDEST SWAP7 POP POP PUSH1 0x40 PUSH3 0x26CB DUP11 DUP3 DUP12 ADD PUSH3 0x25E3 JUMP JUMPDEST SWAP6 POP POP PUSH1 0x60 PUSH3 0x26DE DUP11 DUP3 DUP12 ADD PUSH3 0x25E3 JUMP JUMPDEST SWAP5 POP POP PUSH1 0x80 PUSH3 0x26F1 DUP11 DUP3 DUP12 ADD PUSH3 0x2621 JUMP JUMPDEST SWAP4 POP POP PUSH1 0xA0 PUSH3 0x2704 DUP11 DUP3 DUP12 ADD PUSH3 0x265C JUMP JUMPDEST SWAP3 POP POP PUSH1 0xC0 PUSH3 0x2717 DUP11 DUP3 DUP12 ADD PUSH3 0x265C JUMP JUMPDEST SWAP2 POP POP SWAP3 SWAP6 SWAP9 SWAP2 SWAP5 SWAP8 POP SWAP3 SWAP6 POP JUMP JUMPDEST PUSH1 0x0 DUP2 ISZERO ISZERO SWAP1 POP SWAP2 SWAP1 POP JUMP JUMPDEST PUSH3 0x273D DUP2 PUSH3 0x2726 JUMP JUMPDEST DUP3 MSTORE POP POP JUMP JUMPDEST PUSH1 0x0 PUSH1 0x20 DUP3 ADD SWAP1 POP PUSH3 0x275A PUSH1 0x0 DUP4 ADD DUP5 PUSH3 0x2732 JUMP JUMPDEST SWAP3 SWAP2 POP POP JUMP JUMPDEST PUSH1 0x0 DUP1 PUSH1 0x40 DUP4 DUP6 SUB SLT ISZERO PUSH3 0x277A JUMPI PUSH3 0x2779 PUSH3 0x22DB JUMP JUMPDEST JUMPDEST PUSH1 0x0 DUP4 ADD CALLDATALOAD PUSH8 0xFFFFFFFFFFFFFFFF DUP2 GT ISZERO PUSH3 0x279B JUMPI PUSH3 0x279A PUSH3 0x22E0 JUMP JUMPDEST JUMPDEST PUSH3 0x27A9 DUP6 DUP3 DUP7 ADD PUSH3 0x2414 JUMP JUMPDEST SWAP3 POP POP PUSH1 0x20 DUP4 ADD CALLDATALOAD PUSH8 0xFFFFFFFFFFFFFFFF DUP2 GT ISZERO PUSH3 0x27CD JUMPI PUSH3 0x27CC PUSH3 0x22E0 JUMP JUMPDEST JUMPDEST PUSH3 0x27DB DUP6 DUP3 DUP7 ADD PUSH3 0x2414 JUMP JUMPDEST SWAP2 POP POP SWAP3 POP SWAP3 SWAP1 POP JUMP JUMPDEST PUSH1 0x0 DUP1 PUSH1 0x0 PUSH1 0x60 DUP5 DUP7 SUB SLT ISZERO PUSH3 0x2801 JUMPI PUSH3 0x2800 PUSH3 0x22DB JUMP JUMPDEST JUMPDEST PUSH1 0x0 DUP5 ADD CALLDATALOAD PUSH8 0xFFFFFFFFFFFFFFFF DUP2 GT ISZERO PUSH3 0x2822 JUMPI PUSH3 0x2821 PUSH3 0x22E0 JUMP JUMPDEST JUMPDEST PUSH3 0x2830 DUP7 DUP3 DUP8 ADD PUSH3 0x2414 JUMP JUMPDEST SWAP4 POP POP PUSH1 0x20 PUSH3 0x2843 DUP7 DUP3 DUP8 ADD PUSH3 0x2495 JUMP JUMPDEST SWAP3 POP POP PUSH1 0x40 PUSH3 0x2856 DUP7 DUP3 DUP8 ADD PUSH3 0x25E3 JUMP JUMPDEST SWAP2 POP POP SWAP3 POP SWAP3 POP SWAP3 JUMP JUMPDEST PUSH1 0x0 PUSH1 0x20 DUP3 DUP5 SUB SLT ISZERO PUSH3 0x2879 JUMPI PUSH3 0x2878 PUSH3 0x22DB JUMP JUMPDEST JUMPDEST PUSH1 0x0 PUSH3 0x2889 DUP5 DUP3 DUP6 ADD PUSH3 0x2495 JUMP JUMPDEST SWAP2 POP POP SWAP3 SWAP2 POP POP JUMP JUMPDEST PUSH1 0x0 DUP1 PUSH1 0x0 PUSH1 0x60 DUP5 DUP7 SUB SLT ISZERO PUSH3 0x28AE JUMPI PUSH3 0x28AD PUSH3 0x22DB JUMP JUMPDEST JUMPDEST PUSH1 0x0 PUSH3 0x28BE DUP7 DUP3 DUP8 ADD PUSH3 0x2495 JUMP JUMPDEST SWAP4 POP POP PUSH1 0x20 PUSH3 0x28D1 DUP7 DUP3 DUP8 ADD PUSH3 0x2495 JUMP JUMPDEST SWAP3 POP POP PUSH1 0x40 PUSH3 0x28E4 DUP7 DUP3 DUP8 ADD PUSH3 0x25E3 JUMP JUMPDEST SWAP2 POP POP SWAP3 POP SWAP3 POP SWAP3 JUMP JUMPDEST PUSH1 0x0 DUP2 MLOAD SWAP1 POP SWAP2 SWAP1 POP JUMP JUMPDEST PUSH1 0x0 DUP3 DUP3 MSTORE PUSH1 0x20 DUP3 ADD SWAP1 POP SWAP3 SWAP2 POP POP JUMP JUMPDEST PUSH1 0x0 JUMPDEST DUP4 DUP2 LT ISZERO PUSH3 0x292A JUMPI DUP1 DUP3 ADD MLOAD DUP2 DUP5 ADD MSTORE PUSH1 0x20 DUP2 ADD SWAP1 POP PUSH3 0x290D JUMP JUMPDEST PUSH1 0x0 DUP5 DUP5 ADD MSTORE POP POP POP POP JUMP JUMPDEST PUSH1 0x0 PUSH3 0x2943 DUP3 PUSH3 0x28EE JUMP JUMPDEST PUSH3 0x294F DUP2 DUP6 PUSH3 0x28F9 JUMP JUMPDEST SWAP4 POP PUSH3 0x2961 DUP2 DUP6 PUSH1 0x20 DUP7 ADD PUSH3 0x290A JUMP JUMPDEST PUSH3 0x296C DUP2 PUSH3 0x22EF JUMP JUMPDEST DUP5 ADD SWAP2 POP POP SWAP3 SWAP2 POP POP JUMP JUMPDEST PUSH1 0x0 PUSH1 0x20 DUP3 ADD SWAP1 POP DUP2 DUP2 SUB PUSH1 0x0 DUP4 ADD MSTORE PUSH3 0x2993 DUP2 DUP5 PUSH3 0x2936 JUMP JUMPDEST SWAP1 POP SWAP3 SWAP2 POP POP JUMP JUMPDEST PUSH1 0x0 DUP2 MLOAD SWAP1 POP PUSH3 0x29AC DUP2 PUSH3 0x25C9 JUMP JUMPDEST SWAP3 SWAP2 POP POP JUMP JUMPDEST PUSH1 0x0 PUSH1 0x20 DUP3 DUP5 SUB SLT ISZERO PUSH3 0x29CB JUMPI PUSH3 0x29CA PUSH3 0x22DB JUMP JUMPDEST JUMPDEST PUSH1 0x0 PUSH3 0x29DB DUP5 DUP3 DUP6 ADD PUSH3 0x299B JUMP JUMPDEST SWAP2 POP POP SWAP3 SWAP2 POP POP JUMP JUMPDEST PUSH1 0x0 DUP2 SWAP1 POP SWAP3 SWAP2 POP POP JUMP JUMPDEST PUSH1 0x0 PUSH3 0x29FC DUP3 PUSH3 0x28EE JUMP JUMPDEST PUSH3 0x2A08 DUP2 DUP6 PUSH3 0x29E4 JUMP JUMPDEST SWAP4 POP PUSH3 0x2A1A DUP2 DUP6 PUSH1 0x20 DUP7 ADD PUSH3 0x290A JUMP JUMPDEST DUP1 DUP5 ADD SWAP2 POP POP SWAP3 SWAP2 POP POP JUMP JUMPDEST PUSH1 0x0 PUSH3 0x2A34 DUP3 DUP5 PUSH3 0x29EF JUMP JUMPDEST SWAP2 POP DUP2 SWAP1 POP SWAP3 SWAP2 POP POP JUMP JUMPDEST PUSH3 0x2A4A DUP2 PUSH3 0x25FA JUMP JUMPDEST DUP3 MSTORE POP POP JUMP JUMPDEST PUSH3 0x2A5B DUP2 PUSH3 0x2638 JUMP JUMPDEST DUP3 MSTORE POP POP JUMP JUMPDEST PUSH1 0x0 PUSH1 0xE0 DUP3 ADD SWAP1 POP PUSH3 0x2A78 PUSH1 0x0 DUP4 ADD DUP11 PUSH3 0x259B JUMP JUMPDEST PUSH3 0x2A87 PUSH1 0x20 DUP4 ADD DUP10 PUSH3 0x259B JUMP JUMPDEST PUSH3 0x2A96 PUSH1 0x40 DUP4 ADD DUP9 PUSH3 0x251C JUMP JUMPDEST PUSH3 0x2AA5 PUSH1 0x60 DUP4 ADD DUP8 PUSH3 0x251C JUMP JUMPDEST PUSH3 0x2AB4 PUSH1 0x80 DUP4 ADD DUP7 PUSH3 0x2A3F JUMP JUMPDEST PUSH3 0x2AC3 PUSH1 0xA0 DUP4 ADD DUP6 PUSH3 0x2A50 JUMP JUMPDEST PUSH3 0x2AD2 PUSH1 0xC0 DUP4 ADD DUP5 PUSH3 0x2A50 JUMP JUMPDEST SWAP9 SWAP8 POP POP POP POP POP POP POP POP JUMP JUMPDEST PUSH1 0x0 PUSH1 0x40 DUP3 ADD SWAP1 POP PUSH3 0x2AF5 PUSH1 0x0 DUP4 ADD DUP6 PUSH3 0x259B JUMP JUMPDEST PUSH3 0x2B04 PUSH1 0x20 DUP4 ADD DUP5 PUSH3 0x251C JUMP JUMPDEST SWAP4 SWAP3 POP POP POP JUMP JUMPDEST PUSH1 0x0 PUSH1 0x40 DUP3 ADD SWAP1 POP DUP2 DUP2 SUB PUSH1 0x0 DUP4 ADD MSTORE PUSH3 0x2B27 DUP2 DUP6 PUSH3 0x2936 JUMP JUMPDEST SWAP1 POP DUP2 DUP2 SUB PUSH1 0x20 DUP4 ADD MSTORE PUSH3 0x2B3D DUP2 DUP5 PUSH3 0x2936 JUMP JUMPDEST SWAP1 POP SWAP4 SWAP3 POP POP POP JUMP JUMPDEST PUSH32 0x4F776E61626C653A206E6577206F776E657220697320746865207A65726F2061 PUSH1 0x0 DUP3 ADD MSTORE PUSH32 0x6464726573730000000000000000000000000000000000000000000000000000 PUSH1 0x20 DUP3 ADD MSTORE POP JUMP JUMPDEST PUSH1 0x0 PUSH3 0x2BA4 PUSH1 0x26 DUP4 PUSH3 0x28F9 JUMP JUMPDEST SWAP2 POP PUSH3 0x2BB1 DUP3 PUSH3 0x2B46 JUMP JUMPDEST PUSH1 0x40 DUP3 ADD SWAP1 POP SWAP2 SWAP1 POP JUMP JUMPDEST PUSH1 0x0 PUSH1 0x20 DUP3 ADD SWAP1 POP DUP2 DUP2 SUB PUSH1 0x0 DUP4 ADD MSTORE PUSH3 0x2BD7 DUP2 PUSH3 0x2B95 JUMP JUMPDEST SWAP1 POP SWAP2 SWAP1 POP JUMP JUMPDEST PUSH32 0x4F776E61626C653A2063616C6C6572206973206E6F7420746865206F776E6572 PUSH1 0x0 DUP3 ADD MSTORE POP JUMP JUMPDEST PUSH1 0x0 PUSH3 0x2C16 PUSH1 0x20 DUP4 PUSH3 0x28F9 JUMP JUMPDEST SWAP2 POP PUSH3 0x2C23 DUP3 PUSH3 0x2BDE JUMP JUMPDEST PUSH1 0x20 DUP3 ADD SWAP1 POP SWAP2 SWAP1 POP JUMP JUMPDEST PUSH1 0x0 PUSH1 0x20 DUP3 ADD SWAP1 POP DUP2 DUP2 SUB PUSH1 0x0 DUP4 ADD MSTORE PUSH3 0x2C49 DUP2 PUSH3 0x2C07 JUMP JUMPDEST SWAP1 POP SWAP2 SWAP1 POP JUMP INVALID PUSH2 0x160 PUSH1 0x40 MSTORE CALLVALUE DUP1 ISZERO PUSH3 0x12 JUMPI PUSH1 0x0 DUP1 REVERT JUMPDEST POP PUSH1 0x40 MLOAD PUSH3 0x3A98 CODESIZE SUB DUP1 PUSH3 0x3A98 DUP4 CODECOPY DUP2 DUP2 ADD PUSH1 0x40 MSTORE DUP2 ADD SWAP1 PUSH3 0x38 SWAP2 SWAP1 PUSH3 0x52C JUMP JUMPDEST DUP2 DUP1 PUSH1 0x40 MLOAD DUP1 PUSH1 0x40 ADD PUSH1 0x40 MSTORE DUP1 PUSH1 0x1 DUP2 MSTORE PUSH1 0x20 ADD PUSH32 0x3100000000000000000000000000000000000000000000000000000000000000 DUP2 MSTORE POP DUP5 DUP5 DUP2 PUSH1 0x3 SWAP1 DUP2 PUSH3 0x83 SWAP2 SWAP1 PUSH3 0x7FC JUMP JUMPDEST POP DUP1 PUSH1 0x4 SWAP1 DUP2 PUSH3 0x95 SWAP2 SWAP1 PUSH3 0x7FC JUMP JUMPDEST POP POP POP PUSH3 0xB8 PUSH3 0xAC PUSH3 0x197 PUSH1 0x20 SHL PUSH1 0x20 SHR JUMP JUMPDEST PUSH3 0x19F PUSH1 0x20 SHL PUSH1 0x20 SHR JUMP JUMPDEST PUSH3 0xD3 PUSH1 0x6 DUP4 PUSH3 0x265 PUSH1 0x20 SHL PUSH3 0xB75 OR SWAP1 SWAP2 SWAP1 PUSH1 0x20 SHR JUMP JUMPDEST PUSH2 0x120 DUP2 DUP2 MSTORE POP POP PUSH3 0xF6 PUSH1 0x7 DUP3 PUSH3 0x265 PUSH1 0x20 SHL PUSH3 0xB75 OR SWAP1 SWAP2 SWAP1 PUSH1 0x20 SHR JUMP JUMPDEST PUSH2 0x140 DUP2 DUP2 MSTORE POP POP DUP2 DUP1 MLOAD SWAP1 PUSH1 0x20 ADD KECCAK256 PUSH1 0xE0 DUP2 DUP2 MSTORE POP POP DUP1 DUP1 MLOAD SWAP1 PUSH1 0x20 ADD KECCAK256 PUSH2 0x100 DUP2 DUP2 MSTORE POP POP CHAINID PUSH1 0xA0 DUP2 DUP2 MSTORE POP POP PUSH3 0x135 PUSH3 0x2C2 PUSH1 0x20 SHL PUSH1 0x20 SHR JUMP JUMPDEST PUSH1 0x80 DUP2 DUP2 MSTORE POP POP ADDRESS PUSH20 0xFFFFFFFFFFFFFFFFFFFFFFFFFFFFFFFFFFFFFFFF AND PUSH1 0xC0 DUP2 PUSH20 0xFFFFFFFFFFFFFFFFFFFFFFFFFFFFFFFFFFFFFFFF AND DUP2 MSTORE POP POP POP POP POP PUSH3 0x18F PUSH8 0x4E58CD6A8C3F97D8 PUSH1 0xC0 SHL PUSH3 0x31F PUSH1 0x20 SHL PUSH1 0x20 SHR JUMP JUMPDEST POP POP PUSH3 0xAC9 JUMP JUMPDEST PUSH1 0x0 CALLER SWAP1 POP SWAP1 JUMP JUMPDEST PUSH1 0x0 PUSH1 0x5 PUSH1 0x0 SWAP1 SLOAD SWAP1 PUSH2 0x100 EXP SWAP1 DIV PUSH20 0xFFFFFFFFFFFFFFFFFFFFFFFFFFFFFFFFFFFFFFFF AND SWAP1 POP DUP2 PUSH1 0x5 PUSH1 0x0 PUSH2 0x100 EXP DUP2 SLOAD DUP2 PUSH20 0xFFFFFFFFFFFFFFFFFFFFFFFFFFFFFFFFFFFFFFFF MUL NOT AND SWAP1 DUP4 PUSH20 0xFFFFFFFFFFFFFFFFFFFFFFFFFFFFFFFFFFFFFFFF AND MUL OR SWAP1 SSTORE POP DUP2 PUSH20 0xFFFFFFFFFFFFFFFFFFFFFFFFFFFFFFFFFFFFFFFF AND DUP2 PUSH20 0xFFFFFFFFFFFFFFFFFFFFFFFFFFFFFFFFFFFFFFFF AND PUSH32 0x8BE0079C531659141344CD1FD0A4F28419497F9722A3DAAFE3B4186F6B6457E0 PUSH1 0x40 MLOAD PUSH1 0x40 MLOAD DUP1 SWAP2 SUB SWAP1 LOG3 POP POP JUMP JUMPDEST PUSH1 0x0 PUSH1 0x20 DUP4 MLOAD LT ISZERO PUSH3 0x28B JUMPI PUSH3 0x283 DUP4 PUSH3 0x322 PUSH1 0x20 SHL PUSH1 0x20 SHR JUMP JUMPDEST SWAP1 POP PUSH3 0x2BC JUMP JUMPDEST DUP3 PUSH3 0x2A2 DUP4 PUSH3 0x38F PUSH1 0x20 SHL PUSH3 0xBB9 OR PUSH1 0x20 SHR JUMP JUMPDEST PUSH1 0x0 ADD SWAP1 DUP2 PUSH3 0x2B3 SWAP2 SWAP1 PUSH3 0x7FC JUMP JUMPDEST POP PUSH1 0xFF PUSH1 0x0 SHL SWAP1 POP JUMPDEST SWAP3 SWAP2 POP POP JUMP JUMPDEST PUSH1 0x0 PUSH32 0x8B73C3C69BB8FE3D512ECC4CF759CC79239F7B179B0FFACAA9A75D522B39400F PUSH1 0xE0 MLOAD PUSH2 0x100 MLOAD CHAINID ADDRESS PUSH1 0x40 MLOAD PUSH1 0x20 ADD PUSH3 0x304 SWAP6 SWAP5 SWAP4 SWAP3 SWAP2 SWAP1 PUSH3 0x954 JUMP JUMPDEST PUSH1 0x40 MLOAD PUSH1 0x20 DUP2 DUP4 SUB SUB DUP2 MSTORE SWAP1 PUSH1 0x40 MSTORE DUP1 MLOAD SWAP1 PUSH1 0x20 ADD KECCAK256 SWAP1 POP SWAP1 JUMP JUMPDEST POP JUMP JUMPDEST PUSH1 0x0 DUP1 DUP3 SWAP1 POP PUSH1 0x1F DUP2 MLOAD GT ISZERO PUSH3 0x372 JUMPI DUP3 PUSH1 0x40 MLOAD PUSH32 0x305A27A900000000000000000000000000000000000000000000000000000000 DUP2 MSTORE PUSH1 0x4 ADD PUSH3 0x369 SWAP2 SWAP1 PUSH3 0xA03 JUMP JUMPDEST PUSH1 0x40 MLOAD DUP1 SWAP2 SUB SWAP1 REVERT JUMPDEST DUP1 MLOAD DUP2 PUSH3 0x380 SWAP1 PUSH3 0xA59 JUMP JUMPDEST PUSH1 0x0 SHR OR PUSH1 0x0 SHL SWAP2 POP POP SWAP2 SWAP1 POP JUMP JUMPDEST PUSH1 0x0 DUP2 SWAP1 POP SWAP2 SWAP1 POP JUMP JUMPDEST PUSH1 0x0 PUSH1 0x40 MLOAD SWAP1 POP SWAP1 JUMP JUMPDEST PUSH1 0x0 DUP1 REVERT JUMPDEST PUSH1 0x0 DUP1 REVERT JUMPDEST PUSH1 0x0 DUP1 REVERT JUMPDEST PUSH1 0x0 DUP1 REVERT JUMPDEST PUSH1 0x0 PUSH1 0x1F NOT PUSH1 0x1F DUP4 ADD AND SWAP1 POP SWAP2 SWAP1 POP JUMP JUMPDEST PUSH32 0x4E487B7100000000000000000000000000000000000000000000000000000000 PUSH1 0x0 MSTORE PUSH1 0x41 PUSH1 0x4 MSTORE PUSH1 0x24 PUSH1 0x0 REVERT JUMPDEST PUSH3 0x402 DUP3 PUSH3 0x3B7 JUMP JUMPDEST DUP2 ADD DUP2 DUP2 LT PUSH8 0xFFFFFFFFFFFFFFFF DUP3 GT OR ISZERO PUSH3 0x424 JUMPI PUSH3 0x423 PUSH3 0x3C8 JUMP JUMPDEST JUMPDEST DUP1 PUSH1 0x40 MSTORE POP POP POP JUMP JUMPDEST PUSH1 0x0 PUSH3 0x439 PUSH3 0x399 JUMP JUMPDEST SWAP1 POP PUSH3 0x447 DUP3 DUP3 PUSH3 0x3F7 JUMP JUMPDEST SWAP2 SWAP1 POP JUMP JUMPDEST PUSH1 0x0 PUSH8 0xFFFFFFFFFFFFFFFF DUP3 GT ISZERO PUSH3 0x46A JUMPI PUSH3 0x469 PUSH3 0x3C8 JUMP JUMPDEST JUMPDEST PUSH3 0x475 DUP3 PUSH3 0x3B7 JUMP JUMPDEST SWAP1 POP PUSH1 0x20 DUP2 ADD SWAP1 POP SWAP2 SWAP1 POP JUMP JUMPDEST PUSH1 0x0 JUMPDEST DUP4 DUP2 LT ISZERO PUSH3 0x4A2 JUMPI DUP1 DUP3 ADD MLOAD DUP2 DUP5 ADD MSTORE PUSH1 0x20 DUP2 ADD SWAP1 POP PUSH3 0x485 JUMP JUMPDEST PUSH1 0x0 DUP5 DUP5 ADD MSTORE POP POP POP POP JUMP JUMPDEST PUSH1 0x0 PUSH3 0x4C5 PUSH3 0x4BF DUP5 PUSH3 0x44C JUMP JUMPDEST PUSH3 0x42D JUMP JUMPDEST SWAP1 POP DUP3 DUP2 MSTORE PUSH1 0x20 DUP2 ADD DUP5 DUP5 DUP5 ADD GT ISZERO PUSH3 0x4E4 JUMPI PUSH3 0x4E3 PUSH3 0x3B2 JUMP JUMPDEST JUMPDEST PUSH3 0x4F1 DUP5 DUP3 DUP6 PUSH3 0x482 JUMP JUMPDEST POP SWAP4 SWAP3 POP POP POP JUMP JUMPDEST PUSH1 0x0 DUP3 PUSH1 0x1F DUP4 ADD SLT PUSH3 0x511 JUMPI PUSH3 0x510 PUSH3 0x3AD JUMP JUMPDEST JUMPDEST DUP2 MLOAD PUSH3 0x523 DUP5 DUP3 PUSH1 0x20 DUP7 ADD PUSH3 0x4AE JUMP JUMPDEST SWAP2 POP POP SWAP3 SWAP2 POP POP JUMP JUMPDEST PUSH1 0x0 DUP1 PUSH1 0x40 DUP4 DUP6 SUB SLT ISZERO PUSH3 0x546 JUMPI PUSH3 0x545 PUSH3 0x3A3 JUMP JUMPDEST JUMPDEST PUSH1 0x0 DUP4 ADD MLOAD PUSH8 0xFFFFFFFFFFFFFFFF DUP2 GT ISZERO PUSH3 0x567 JUMPI PUSH3 0x566 PUSH3 0x3A8 JUMP JUMPDEST JUMPDEST PUSH3 0x575 DUP6 DUP3 DUP7 ADD PUSH3 0x4F9 JUMP JUMPDEST SWAP3 POP POP PUSH1 0x20 DUP4 ADD MLOAD PUSH8 0xFFFFFFFFFFFFFFFF DUP2 GT ISZERO PUSH3 0x599 JUMPI PUSH3 0x598 PUSH3 0x3A8 JUMP JUMPDEST JUMPDEST PUSH3 0x5A7 DUP6 DUP3 DUP7 ADD PUSH3 0x4F9 JUMP JUMPDEST SWAP2 POP POP SWAP3 POP SWAP3 SWAP1 POP JUMP JUMPDEST PUSH1 0x0 DUP2 MLOAD SWAP1 POP SWAP2 SWAP1 POP JUMP JUMPDEST PUSH32 0x4E487B7100000000000000000000000000000000000000000000000000000000 PUSH1 0x0 MSTORE PUSH1 0x22 PUSH1 0x4 MSTORE PUSH1 0x24 PUSH1 0x0 REVERT JUMPDEST PUSH1 0x0 PUSH1 0x2 DUP3 DIV SWAP1 POP PUSH1 0x1 DUP3 AND DUP1 PUSH3 0x604 JUMPI PUSH1 0x7F DUP3 AND SWAP2 POP JUMPDEST PUSH1 0x20 DUP3 LT DUP2 SUB PUSH3 0x61A JUMPI PUSH3 0x619 PUSH3 0x5BC JUMP JUMPDEST JUMPDEST POP SWAP2 SWAP1 POP JUMP JUMPDEST PUSH1 0x0 DUP2 SWAP1 POP DUP2 PUSH1 0x0 MSTORE PUSH1 0x20 PUSH1 0x0 KECCAK256 SWAP1 POP SWAP2 SWAP1 POP JUMP JUMPDEST PUSH1 0x0 PUSH1 0x20 PUSH1 0x1F DUP4 ADD DIV SWAP1 POP SWAP2 SWAP1 POP JUMP JUMPDEST PUSH1 0x0 DUP3 DUP3 SHL SWAP1 POP SWAP3 SWAP2 POP POP JUMP JUMPDEST PUSH1 0x0 PUSH1 0x8 DUP4 MUL PUSH3 0x684 PUSH32 0xFFFFFFFFFFFFFFFFFFFFFFFFFFFFFFFFFFFFFFFFFFFFFFFFFFFFFFFFFFFFFFFF DUP3 PUSH3 0x645 JUMP JUMPDEST PUSH3 0x690 DUP7 DUP4 PUSH3 0x645 JUMP JUMPDEST SWAP6 POP DUP1 NOT DUP5 AND SWAP4 POP DUP1 DUP7 AND DUP5 OR SWAP3 POP POP POP SWAP4 SWAP3 POP POP POP JUMP JUMPDEST PUSH1 0x0 DUP2 SWAP1 POP SWAP2 SWAP1 POP JUMP JUMPDEST PUSH1 0x0 DUP2 SWAP1 POP SWAP2 SWAP1 POP JUMP JUMPDEST PUSH1 0x0 PUSH3 0x6DD PUSH3 0x6D7 PUSH3 0x6D1 DUP5 PUSH3 0x6A8 JUMP JUMPDEST PUSH3 0x6B2 JUMP JUMPDEST PUSH3 0x6A8 JUMP JUMPDEST SWAP1 POP SWAP2 SWAP1 POP JUMP JUMPDEST PUSH1 0x0 DUP2 SWAP1 POP SWAP2 SWAP1 POP JUMP JUMPDEST PUSH3 0x6F9 DUP4 PUSH3 0x6BC JUMP JUMPDEST PUSH3 0x711 PUSH3 0x708 DUP3 PUSH3 0x6E4 JUMP JUMPDEST DUP5 DUP5 SLOAD PUSH3 0x652 JUMP JUMPDEST DUP3 SSTORE POP POP POP POP JUMP JUMPDEST PUSH1 0x0 SWAP1 JUMP JUMPDEST PUSH3 0x728 PUSH3 0x719 JUMP JUMPDEST PUSH3 0x735 DUP2 DUP5 DUP5 PUSH3 0x6EE JUMP JUMPDEST POP POP POP JUMP JUMPDEST JUMPDEST DUP2 DUP2 LT ISZERO PUSH3 0x75D JUMPI PUSH3 0x751 PUSH1 0x0 DUP3 PUSH3 0x71E JUMP JUMPDEST PUSH1 0x1 DUP2 ADD SWAP1 POP PUSH3 0x73B JUMP JUMPDEST POP POP JUMP JUMPDEST PUSH1 0x1F DUP3 GT ISZERO PUSH3 0x7AC JUMPI PUSH3 0x776 DUP2 PUSH3 0x620 JUMP JUMPDEST PUSH3 0x781 DUP5 PUSH3 0x635 JUMP JUMPDEST DUP2 ADD PUSH1 0x20 DUP6 LT ISZERO PUSH3 0x791 JUMPI DUP2 SWAP1 POP JUMPDEST PUSH3 0x7A9 PUSH3 0x7A0 DUP6 PUSH3 0x635 JUMP JUMPDEST DUP4 ADD DUP3 PUSH3 0x73A JUMP JUMPDEST POP POP JUMPDEST POP POP POP JUMP JUMPDEST PUSH1 0x0 DUP3 DUP3 SHR SWAP1 POP SWAP3 SWAP2 POP POP JUMP JUMPDEST PUSH1 0x0 PUSH3 0x7D1 PUSH1 0x0 NOT DUP5 PUSH1 0x8 MUL PUSH3 0x7B1 JUMP JUMPDEST NOT DUP1 DUP4 AND SWAP2 POP POP SWAP3 SWAP2 POP POP JUMP JUMPDEST PUSH1 0x0 PUSH3 0x7EC DUP4 DUP4 PUSH3 0x7BE JUMP JUMPDEST SWAP2 POP DUP3 PUSH1 0x2 MUL DUP3 OR SWAP1 POP SWAP3 SWAP2 POP POP JUMP JUMPDEST PUSH3 0x807 DUP3 PUSH3 0x5B1 JUMP JUMPDEST PUSH8 0xFFFFFFFFFFFFFFFF DUP2 GT ISZERO PUSH3 0x823 JUMPI PUSH3 0x822 PUSH3 0x3C8 JUMP JUMPDEST JUMPDEST PUSH3 0x82F DUP3 SLOAD PUSH3 0x5EB JUMP JUMPDEST PUSH3 0x83C DUP3 DUP3 DUP6 PUSH3 0x761 JUMP JUMPDEST PUSH1 0x0 PUSH1 0x20 SWAP1 POP PUSH1 0x1F DUP4 GT PUSH1 0x1 DUP2 EQ PUSH3 0x874 JUMPI PUSH1 0x0 DUP5 ISZERO PUSH3 0x85F JUMPI DUP3 DUP8 ADD MLOAD SWAP1 POP JUMPDEST PUSH3 0x86B DUP6 DUP3 PUSH3 0x7DE JUMP JUMPDEST DUP7 SSTORE POP PUSH3 0x8DB JUMP JUMPDEST PUSH1 0x1F NOT DUP5 AND PUSH3 0x884 DUP7 PUSH3 0x620 JUMP JUMPDEST PUSH1 0x0 JUMPDEST DUP3 DUP2 LT ISZERO PUSH3 0x8AE JUMPI DUP5 DUP10 ADD MLOAD DUP3 SSTORE PUSH1 0x1 DUP3 ADD SWAP2 POP PUSH1 0x20 DUP6 ADD SWAP5 POP PUSH1 0x20 DUP2 ADD SWAP1 POP PUSH3 0x887 JUMP JUMPDEST DUP7 DUP4 LT ISZERO PUSH3 0x8CE JUMPI DUP5 DUP10 ADD MLOAD PUSH3 0x8CA PUSH1 0x1F DUP10 AND DUP3 PUSH3 0x7BE JUMP JUMPDEST DUP4 SSTORE POP JUMPDEST PUSH1 0x1 PUSH1 0x2 DUP9 MUL ADD DUP9 SSTORE POP POP POP JUMPDEST POP POP POP POP POP POP JUMP JUMPDEST PUSH1 0x0 DUP2 SWAP1 POP SWAP2 SWAP1 POP JUMP JUMPDEST PUSH3 0x8F8 DUP2 PUSH3 0x8E3 JUMP JUMPDEST DUP3 MSTORE POP POP JUMP JUMPDEST PUSH3 0x909 DUP2 PUSH3 0x6A8 JUMP JUMPDEST DUP3 MSTORE POP POP JUMP JUMPDEST PUSH1 0x0 PUSH20 0xFFFFFFFFFFFFFFFFFFFFFFFFFFFFFFFFFFFFFFFF DUP3 AND SWAP1 POP SWAP2 SWAP1 POP JUMP JUMPDEST PUSH1 0x0 PUSH3 0x93C DUP3 PUSH3 0x90F JUMP JUMPDEST SWAP1 POP SWAP2 SWAP1 POP JUMP JUMPDEST PUSH3 0x94E DUP2 PUSH3 0x92F JUMP JUMPDEST DUP3 MSTORE POP POP JUMP JUMPDEST PUSH1 0x0 PUSH1 0xA0 DUP3 ADD SWAP1 POP PUSH3 0x96B PUSH1 0x0 DUP4 ADD DUP9 PUSH3 0x8ED JUMP JUMPDEST PUSH3 0x97A PUSH1 0x20 DUP4 ADD DUP8 PUSH3 0x8ED JUMP JUMPDEST PUSH3 0x989 PUSH1 0x40 DUP4 ADD DUP7 PUSH3 0x8ED JUMP JUMPDEST PUSH3 0x998 PUSH1 0x60 DUP4 ADD DUP6 PUSH3 0x8FE JUMP JUMPDEST PUSH3 0x9A7 PUSH1 0x80 DUP4 ADD DUP5 PUSH3 0x943 JUMP JUMPDEST SWAP7 SWAP6 POP POP POP POP POP POP JUMP JUMPDEST PUSH1 0x0 DUP3 DUP3 MSTORE PUSH1 0x20 DUP3 ADD SWAP1 POP SWAP3 SWAP2 POP POP JUMP JUMPDEST PUSH1 0x0 PUSH3 0x9CF DUP3 PUSH3 0x5B1 JUMP JUMPDEST PUSH3 0x9DB DUP2 DUP6 PUSH3 0x9B1 JUMP JUMPDEST SWAP4 POP PUSH3 0x9ED DUP2 DUP6 PUSH1 0x20 DUP7 ADD PUSH3 0x482 JUMP JUMPDEST PUSH3 0x9F8 DUP2 PUSH3 0x3B7 JUMP JUMPDEST DUP5 ADD SWAP2 POP POP SWAP3 SWAP2 POP POP JUMP JUMPDEST PUSH1 0x0 PUSH1 0x20 DUP3 ADD SWAP1 POP DUP2 DUP2 SUB PUSH1 0x0 DUP4 ADD MSTORE PUSH3 0xA1F DUP2 DUP5 PUSH3 0x9C2 JUMP JUMPDEST SWAP1 POP SWAP3 SWAP2 POP POP JUMP JUMPDEST PUSH1 0x0 DUP2 MLOAD SWAP1 POP SWAP2 SWAP1 POP JUMP JUMPDEST PUSH1 0x0 DUP2 SWAP1 POP PUSH1 0x20 DUP3 ADD SWAP1 POP SWAP2 SWAP1 POP JUMP JUMPDEST PUSH1 0x0 PUSH3 0xA50 DUP3 MLOAD PUSH3 0x8E3 JUMP JUMPDEST DUP1 SWAP2 POP POP SWAP2 SWAP1 POP JUMP JUMPDEST PUSH1 0x0 PUSH3 0xA66 DUP3 PUSH3 0xA27 JUMP JUMPDEST DUP3 PUSH3 0xA72 DUP5 PUSH3 0xA32 JUMP JUMPDEST SWAP1 POP PUSH3 0xA7F DUP2 PUSH3 0xA42 JUMP JUMPDEST SWAP3 POP PUSH1 0x20 DUP3 LT ISZERO PUSH3 0xAC2 JUMPI PUSH3 0xABD PUSH32 0xFFFFFFFFFFFFFFFFFFFFFFFFFFFFFFFFFFFFFFFFFFFFFFFFFFFFFFFFFFFFFFFF DUP4 PUSH1 0x20 SUB PUSH1 0x8 MUL PUSH3 0x645 JUMP JUMPDEST DUP4 AND SWAP3 POP JUMPDEST POP POP SWAP2 SWAP1 POP JUMP JUMPDEST PUSH1 0x80 MLOAD PUSH1 0xA0 MLOAD PUSH1 0xC0 MLOAD PUSH1 0xE0 MLOAD PUSH2 0x100 MLOAD PUSH2 0x120 MLOAD PUSH2 0x140 MLOAD PUSH2 0x2F74 PUSH3 0xB24 PUSH1 0x0 CODECOPY PUSH1 0x0 PUSH2 0x718 ADD MSTORE PUSH1 0x0 PUSH2 0x6E4 ADD MSTORE PUSH1 0x0 PUSH2 0x17D0 ADD MSTORE PUSH1 0x0 PUSH2 0x17AF ADD MSTORE PUSH1 0x0 PUSH2 0x109A ADD MSTORE PUSH1 0x0 PUSH2 0x10F0 ADD MSTORE PUSH1 0x0 PUSH2 0x1119 ADD MSTORE PUSH2 0x2F74 PUSH1 0x0 RETURN INVALID PUSH1 0x80 PUSH1 0x40 MSTORE CALLVALUE DUP1 ISZERO PUSH2 0x10 JUMPI PUSH1 0x0 DUP1 REVERT JUMPDEST POP PUSH1 0x4 CALLDATASIZE LT PUSH2 0x147 JUMPI PUSH1 0x0 CALLDATALOAD PUSH1 0xE0 SHR DUP1 PUSH4 0x715018A6 GT PUSH2 0xC8 JUMPI DUP1 PUSH4 0x95D89B41 GT PUSH2 0x8C JUMPI DUP1 PUSH4 0xD505ACCF GT PUSH2 0x66 JUMPI DUP1 PUSH4 0xD505ACCF EQ PUSH2 0x3D2 JUMPI DUP1 PUSH4 0xDD62ED3E EQ PUSH2 0x3EE JUMPI DUP1 PUSH4 0xF2FDE38B EQ PUSH2 0x41E JUMPI PUSH2 0x147 JUMP JUMPDEST DUP1 PUSH4 0x95D89B41 EQ PUSH2 0x354 JUMPI DUP1 PUSH4 0xA457C2D7 EQ PUSH2 0x372 JUMPI DUP1 PUSH4 0xA9059CBB EQ PUSH2 0x3A2 JUMPI PUSH2 0x147 JUMP JUMPDEST DUP1 PUSH4 0x715018A6 EQ PUSH2 0x2BC JUMPI DUP1 PUSH4 0x79CC6790 EQ PUSH2 0x2C6 JUMPI DUP1 PUSH4 0x7ECEBE00 EQ PUSH2 0x2E2 JUMPI DUP1 PUSH4 0x84B0196E EQ PUSH2 0x312 JUMPI DUP1 PUSH4 0x8DA5CB5B EQ PUSH2 0x336 JUMPI PUSH2 0x147 JUMP JUMPDEST DUP1 PUSH4 0x3644E515 GT PUSH2 0x10F JUMPI DUP1 PUSH4 0x3644E515 EQ PUSH2 0x206 JUMPI DUP1 PUSH4 0x39509351 EQ PUSH2 0x224 JUMPI DUP1 PUSH4 0x40C10F19 EQ PUSH2 0x254 JUMPI DUP1 PUSH4 0x42966C68 EQ PUSH2 0x270 JUMPI DUP1 PUSH4 0x70A08231 EQ PUSH2 0x28C JUMPI PUSH2 0x147 JUMP JUMPDEST DUP1 PUSH4 0x6FDDE03 EQ PUSH2 0x14C JUMPI DUP1 PUSH4 0x95EA7B3 EQ PUSH2 0x16A JUMPI DUP1 PUSH4 0x18160DDD EQ PUSH2 0x19A JUMPI DUP1 PUSH4 0x23B872DD EQ PUSH2 0x1B8 JUMPI DUP1 PUSH4 0x313CE567 EQ PUSH2 0x1E8 JUMPI JUMPDEST PUSH1 0x0 DUP1 REVERT JUMPDEST PUSH2 0x154 PUSH2 0x43A JUMP JUMPDEST PUSH1 0x40 MLOAD PUSH2 0x161 SWAP2 SWAP1 PUSH2 0x1C13 JUMP JUMPDEST PUSH1 0x40 MLOAD DUP1 SWAP2 SUB SWAP1 RETURN JUMPDEST PUSH2 0x184 PUSH1 0x4 DUP1 CALLDATASIZE SUB DUP2 ADD SWAP1 PUSH2 0x17F SWAP2 SWAP1 PUSH2 0x1CCE JUMP JUMPDEST PUSH2 0x4CC JUMP JUMPDEST PUSH1 0x40 MLOAD PUSH2 0x191 SWAP2 SWAP1 PUSH2 0x1D29 JUMP JUMPDEST PUSH1 0x40 MLOAD DUP1 SWAP2 SUB SWAP1 RETURN JUMPDEST PUSH2 0x1A2 PUSH2 0x4EF JUMP JUMPDEST PUSH1 0x40 MLOAD PUSH2 0x1AF SWAP2 SWAP1 PUSH2 0x1D53 JUMP JUMPDEST PUSH1 0x40 MLOAD DUP1 SWAP2 SUB SWAP1 RETURN JUMPDEST PUSH2 0x1D2 PUSH1 0x4 DUP1 CALLDATASIZE SUB DUP2 ADD SWAP1 PUSH2 0x1CD SWAP2 SWAP1 PUSH2 0x1D6E JUMP JUMPDEST PUSH2 0x4F9 JUMP JUMPDEST PUSH1 0x40 MLOAD PUSH2 0x1DF SWAP2 SWAP1 PUSH2 0x1D29 JUMP JUMPDEST PUSH1 0x40 MLOAD DUP1 SWAP2 SUB SWAP1 RETURN JUMPDEST PUSH2 0x1F0 PUSH2 0x528 JUMP JUMPDEST PUSH1 0x40 MLOAD PUSH2 0x1FD SWAP2 SWAP1 PUSH2 0x1DDD JUMP JUMPDEST PUSH1 0x40 MLOAD DUP1 SWAP2 SUB SWAP1 RETURN JUMPDEST PUSH2 0x20E PUSH2 0x531 JUMP JUMPDEST PUSH1 0x40 MLOAD PUSH2 0x21B SWAP2 SWAP1 PUSH2 0x1E11 JUMP JUMPDEST PUSH1 0x40 MLOAD DUP1 SWAP2 SUB SWAP1 RETURN JUMPDEST PUSH2 0x23E PUSH1 0x4 DUP1 CALLDATASIZE SUB DUP2 ADD SWAP1 PUSH2 0x239 SWAP2 SWAP1 PUSH2 0x1CCE JUMP JUMPDEST PUSH2 0x540 JUMP JUMPDEST PUSH1 0x40 MLOAD PUSH2 0x24B SWAP2 SWAP1 PUSH2 0x1D29 JUMP JUMPDEST PUSH1 0x40 MLOAD DUP1 SWAP2 SUB SWAP1 RETURN JUMPDEST PUSH2 0x26E PUSH1 0x4 DUP1 CALLDATASIZE SUB DUP2 ADD SWAP1 PUSH2 0x269 SWAP2 SWAP1 PUSH2 0x1CCE JUMP JUMPDEST PUSH2 0x577 JUMP JUMPDEST STOP JUMPDEST PUSH2 0x28A PUSH1 0x4 DUP1 CALLDATASIZE SUB DUP2 ADD SWAP1 PUSH2 0x285 SWAP2 SWAP1 PUSH2 0x1E2C JUMP JUMPDEST PUSH2 0x5F1 JUMP JUMPDEST STOP JUMPDEST PUSH2 0x2A6 PUSH1 0x4 DUP1 CALLDATASIZE SUB DUP2 ADD SWAP1 PUSH2 0x2A1 SWAP2 SWAP1 PUSH2 0x1E59 JUMP JUMPDEST PUSH2 0x605 JUMP JUMPDEST PUSH1 0x40 MLOAD PUSH2 0x2B3 SWAP2 SWAP1 PUSH2 0x1D53 JUMP JUMPDEST PUSH1 0x40 MLOAD DUP1 SWAP2 SUB SWAP1 RETURN JUMPDEST PUSH2 0x2C4 PUSH2 0x64D JUMP JUMPDEST STOP JUMPDEST PUSH2 0x2E0 PUSH1 0x4 DUP1 CALLDATASIZE SUB DUP2 ADD SWAP1 PUSH2 0x2DB SWAP2 SWAP1 PUSH2 0x1CCE JUMP JUMPDEST PUSH2 0x661 JUMP JUMPDEST STOP JUMPDEST PUSH2 0x2FC PUSH1 0x4 DUP1 CALLDATASIZE SUB DUP2 ADD SWAP1 PUSH2 0x2F7 SWAP2 SWAP1 PUSH2 0x1E59 JUMP JUMPDEST PUSH2 0x681 JUMP JUMPDEST PUSH1 0x40 MLOAD PUSH2 0x309 SWAP2 SWAP1 PUSH2 0x1D53 JUMP JUMPDEST PUSH1 0x40 MLOAD DUP1 SWAP2 SUB SWAP1 RETURN JUMPDEST PUSH2 0x31A PUSH2 0x6D1 JUMP JUMPDEST PUSH1 0x40 MLOAD PUSH2 0x32D SWAP8 SWAP7 SWAP6 SWAP5 SWAP4 SWAP3 SWAP2 SWAP1 PUSH2 0x1F8E JUMP JUMPDEST PUSH1 0x40 MLOAD DUP1 SWAP2 SUB SWAP1 RETURN JUMPDEST PUSH2 0x33E PUSH2 0x7D3 JUMP JUMPDEST PUSH1 0x40 MLOAD PUSH2 0x34B SWAP2 SWAP1 PUSH2 0x2012 JUMP JUMPDEST PUSH1 0x40 MLOAD DUP1 SWAP2 SUB SWAP1 RETURN JUMPDEST PUSH2 0x35C PUSH2 0x7FD JUMP JUMPDEST PUSH1 0x40 MLOAD PUSH2 0x369 SWAP2 SWAP1 PUSH2 0x1C13 JUMP JUMPDEST PUSH1 0x40 MLOAD DUP1 SWAP2 SUB SWAP1 RETURN JUMPDEST PUSH2 0x38C PUSH1 0x4 DUP1 CALLDATASIZE SUB DUP2 ADD SWAP1 PUSH2 0x387 SWAP2 SWAP1 PUSH2 0x1CCE JUMP JUMPDEST PUSH2 0x88F JUMP JUMPDEST PUSH1 0x40 MLOAD PUSH2 0x399 SWAP2 SWAP1 PUSH2 0x1D29 JUMP JUMPDEST PUSH1 0x40 MLOAD DUP1 SWAP2 SUB SWAP1 RETURN JUMPDEST PUSH2 0x3BC PUSH1 0x4 DUP1 CALLDATASIZE SUB DUP2 ADD SWAP1 PUSH2 0x3B7 SWAP2 SWAP1 PUSH2 0x1CCE JUMP JUMPDEST PUSH2 0x906 JUMP JUMPDEST PUSH1 0x40 MLOAD PUSH2 0x3C9 SWAP2 SWAP1 PUSH2 0x1D29 JUMP JUMPDEST PUSH1 0x40 MLOAD DUP1 SWAP2 SUB SWAP1 RETURN JUMPDEST PUSH2 0x3EC PUSH1 0x4 DUP1 CALLDATASIZE SUB DUP2 ADD SWAP1 PUSH2 0x3E7 SWAP2 SWAP1 PUSH2 0x2085 JUMP JUMPDEST PUSH2 0x929 JUMP JUMPDEST STOP JUMPDEST PUSH2 0x408 PUSH1 0x4 DUP1 CALLDATASIZE SUB DUP2 ADD SWAP1 PUSH2 0x403 SWAP2 SWAP1 PUSH2 0x2127 JUMP JUMPDEST PUSH2 0xA6B JUMP JUMPDEST PUSH1 0x40 MLOAD PUSH2 0x415 SWAP2 SWAP1 PUSH2 0x1D53 JUMP JUMPDEST PUSH1 0x40 MLOAD DUP1 SWAP2 SUB SWAP1 RETURN JUMPDEST PUSH2 0x438 PUSH1 0x4 DUP1 CALLDATASIZE SUB DUP2 ADD SWAP1 PUSH2 0x433 SWAP2 SWAP1 PUSH2 0x1E59 JUMP JUMPDEST PUSH2 0xAF2 JUMP JUMPDEST STOP JUMPDEST PUSH1 0x60 PUSH1 0x3 DUP1 SLOAD PUSH2 0x449 SWAP1 PUSH2 0x2196 JUMP JUMPDEST DUP1 PUSH1 0x1F ADD PUSH1 0x20 DUP1 SWAP2 DIV MUL PUSH1 0x20 ADD PUSH1 0x40 MLOAD SWAP1 DUP2 ADD PUSH1 0x40 MSTORE DUP1 SWAP3 SWAP2 SWAP1 DUP2 DUP2 MSTORE PUSH1 0x20 ADD DUP3 DUP1 SLOAD PUSH2 0x475 SWAP1 PUSH2 0x2196 JUMP JUMPDEST DUP1 ISZERO PUSH2 0x4C2 JUMPI DUP1 PUSH1 0x1F LT PUSH2 0x497 JUMPI PUSH2 0x100 DUP1 DUP4 SLOAD DIV MUL DUP4 MSTORE SWAP2 PUSH1 0x20 ADD SWAP2 PUSH2 0x4C2 JUMP JUMPDEST DUP3 ADD SWAP2 SWAP1 PUSH1 0x0 MSTORE PUSH1 0x20 PUSH1 0x0 KECCAK256 SWAP1 JUMPDEST DUP2 SLOAD DUP2 MSTORE SWAP1 PUSH1 0x1 ADD SWAP1 PUSH1 0x20 ADD DUP1 DUP4 GT PUSH2 0x4A5 JUMPI DUP3 SWAP1 SUB PUSH1 0x1F AND DUP3 ADD SWAP2 JUMPDEST POP POP POP POP POP SWAP1 POP SWAP1 JUMP JUMPDEST PUSH1 0x0 DUP1 PUSH2 0x4D7 PUSH2 0xBC3 JUMP JUMPDEST SWAP1 POP PUSH2 0x4E4 DUP2 DUP6 DUP6 PUSH2 0xBCB JUMP JUMPDEST PUSH1 0x1 SWAP2 POP POP SWAP3 SWAP2 POP POP JUMP JUMPDEST PUSH1 0x0 PUSH1 0x2 SLOAD SWAP1 POP SWAP1 JUMP JUMPDEST PUSH1 0x0 DUP1 PUSH2 0x504 PUSH2 0xBC3 JUMP JUMPDEST SWAP1 POP PUSH2 0x511 DUP6 DUP3 DUP6 PUSH2 0xD94 JUMP JUMPDEST PUSH2 0x51C DUP6 DUP6 DUP6 PUSH2 0xE20 JUMP JUMPDEST PUSH1 0x1 SWAP2 POP POP SWAP4 SWAP3 POP POP POP JUMP JUMPDEST PUSH1 0x0 PUSH1 0x12 SWAP1 POP SWAP1 JUMP JUMPDEST PUSH1 0x0 PUSH2 0x53B PUSH2 0x1096 JUMP JUMPDEST SWAP1 POP SWAP1 JUMP JUMPDEST PUSH1 0x0 DUP1 PUSH2 0x54B PUSH2 0xBC3 JUMP JUMPDEST SWAP1 POP PUSH2 0x56C DUP2 DUP6 DUP6 PUSH2 0x55D DUP6 DUP10 PUSH2 0xA6B JUMP JUMPDEST PUSH2 0x567 SWAP2 SWAP1 PUSH2 0x21F6 JUMP JUMPDEST PUSH2 0xBCB JUMP JUMPDEST PUSH1 0x1 SWAP2 POP POP SWAP3 SWAP2 POP POP JUMP JUMPDEST PUSH2 0x58B PUSH8 0x46F6B21CDDD11B7F PUSH1 0xC0 SHL PUSH2 0x114D JUMP JUMPDEST PUSH2 0x593 PUSH2 0x1150 JUMP JUMPDEST PUSH2 0x5A7 PUSH8 0xB978C3E92B055E81 PUSH1 0xC0 SHL PUSH2 0x114D JUMP JUMPDEST PUSH2 0x5BB PUSH8 0xD6EA567F55FEB561 PUSH1 0xC0 SHL PUSH2 0x114D JUMP JUMPDEST PUSH2 0x5CF PUSH8 0x70301C9F234B4FDA PUSH1 0xC0 SHL PUSH2 0x114D JUMP JUMPDEST PUSH2 0x5E3 PUSH8 0x945534EFA047B49B PUSH1 0xC0 SHL PUSH2 0x114D JUMP JUMPDEST PUSH2 0x5ED DUP3 DUP3 PUSH2 0x11CE JUMP JUMPDEST POP POP JUMP JUMPDEST PUSH2 0x602 PUSH2 0x5FC PUSH2 0xBC3 JUMP JUMPDEST DUP3 PUSH2 0x1324 JUMP JUMPDEST POP JUMP JUMPDEST PUSH1 0x0 DUP1 PUSH1 0x0 DUP4 PUSH20 0xFFFFFFFFFFFFFFFFFFFFFFFFFFFFFFFFFFFFFFFF AND PUSH20 0xFFFFFFFFFFFFFFFFFFFFFFFFFFFFFFFFFFFFFFFF AND DUP2 MSTORE PUSH1 0x20 ADD SWAP1 DUP2 MSTORE PUSH1 0x20 ADD PUSH1 0x0 KECCAK256 SLOAD SWAP1 POP SWAP2 SWAP1 POP JUMP JUMPDEST PUSH2 0x655 PUSH2 0x1150 JUMP JUMPDEST PUSH2 0x65F PUSH1 0x0 PUSH2 0x14F1 JUMP JUMPDEST JUMP JUMPDEST PUSH2 0x673 DUP3 PUSH2 0x66D PUSH2 0xBC3 JUMP JUMPDEST DUP4 PUSH2 0xD94 JUMP JUMPDEST PUSH2 0x67D DUP3 DUP3 PUSH2 0x1324 JUMP JUMPDEST POP POP JUMP JUMPDEST PUSH1 0x0 PUSH2 0x6CA PUSH1 0x8 PUSH1 0x0 DUP5 PUSH20 0xFFFFFFFFFFFFFFFFFFFFFFFFFFFFFFFFFFFFFFFF AND PUSH20 0xFFFFFFFFFFFFFFFFFFFFFFFFFFFFFFFFFFFFFFFF AND DUP2 MSTORE PUSH1 0x20 ADD SWAP1 DUP2 MSTORE PUSH1 0x20 ADD PUSH1 0x0 KECCAK256 PUSH2 0x15B7 JUMP JUMPDEST SWAP1 POP SWAP2 SWAP1 POP JUMP JUMPDEST PUSH1 0x0 PUSH1 0x60 DUP1 PUSH1 0x0 DUP1 PUSH1 0x0 PUSH1 0x60 PUSH2 0x711 PUSH1 0x6 PUSH32 0x0 PUSH2 0x15C5 SWAP1 SWAP2 SWAP1 PUSH4 0xFFFFFFFF AND JUMP JUMPDEST PUSH2 0x745 PUSH1 0x7 PUSH32 0x0 PUSH2 0x15C5 SWAP1 SWAP2 SWAP1 PUSH4 0xFFFFFFFF AND JUMP JUMPDEST CHAINID ADDRESS PUSH1 0x0 DUP1 SHL PUSH1 0x0 PUSH8 0xFFFFFFFFFFFFFFFF DUP2 GT ISZERO PUSH2 0x766 JUMPI PUSH2 0x765 PUSH2 0x222A JUMP JUMPDEST JUMPDEST PUSH1 0x40 MLOAD SWAP1 DUP1 DUP3 MSTORE DUP1 PUSH1 0x20 MUL PUSH1 0x20 ADD DUP3 ADD PUSH1 0x40 MSTORE DUP1 ISZERO PUSH2 0x794 JUMPI DUP2 PUSH1 0x20 ADD PUSH1 0x20 DUP3 MUL DUP1 CALLDATASIZE DUP4 CALLDATACOPY DUP1 DUP3 ADD SWAP2 POP POP SWAP1 POP JUMPDEST POP PUSH32 0xF00000000000000000000000000000000000000000000000000000000000000 SWAP6 SWAP5 SWAP4 SWAP3 SWAP2 SWAP1 SWAP7 POP SWAP7 POP SWAP7 POP SWAP7 POP SWAP7 POP SWAP7 POP SWAP7 POP SWAP1 SWAP2 SWAP3 SWAP4 SWAP5 SWAP6 SWAP7 JUMP JUMPDEST PUSH1 0x0 PUSH1 0x5 PUSH1 0x0 SWAP1 SLOAD SWAP1 PUSH2 0x100 EXP SWAP1 DIV PUSH20 0xFFFFFFFFFFFFFFFFFFFFFFFFFFFFFFFFFFFFFFFF AND SWAP1 POP SWAP1 JUMP JUMPDEST PUSH1 0x60 PUSH1 0x4 DUP1 SLOAD PUSH2 0x80C SWAP1 PUSH2 0x2196 JUMP JUMPDEST DUP1 PUSH1 0x1F ADD PUSH1 0x20 DUP1 SWAP2 DIV MUL PUSH1 0x20 ADD PUSH1 0x40 MLOAD SWAP1 DUP2 ADD PUSH1 0x40 MSTORE DUP1 SWAP3 SWAP2 SWAP1 DUP2 DUP2 MSTORE PUSH1 0x20 ADD DUP3 DUP1 SLOAD PUSH2 0x838 SWAP1 PUSH2 0x2196 JUMP JUMPDEST DUP1 ISZERO PUSH2 0x885 JUMPI DUP1 PUSH1 0x1F LT PUSH2 0x85A JUMPI PUSH2 0x100 DUP1 DUP4 SLOAD DIV MUL DUP4 MSTORE SWAP2 PUSH1 0x20 ADD SWAP2 PUSH2 0x885 JUMP JUMPDEST DUP3 ADD SWAP2 SWAP1 PUSH1 0x0 MSTORE PUSH1 0x20 PUSH1 0x0 KECCAK256 SWAP1 JUMPDEST DUP2 SLOAD DUP2 MSTORE SWAP1 PUSH1 0x1 ADD SWAP1 PUSH1 0x20 ADD DUP1 DUP4 GT PUSH2 0x868 JUMPI DUP3 SWAP1 SUB PUSH1 0x1F AND DUP3 ADD SWAP2 JUMPDEST POP POP POP POP POP SWAP1 POP SWAP1 JUMP JUMPDEST PUSH1 0x0 DUP1 PUSH2 0x89A PUSH2 0xBC3 JUMP JUMPDEST SWAP1 POP PUSH1 0x0 PUSH2 0x8A8 DUP3 DUP7 PUSH2 0xA6B JUMP JUMPDEST SWAP1 POP DUP4 DUP2 LT ISZERO PUSH2 0x8ED JUMPI PUSH1 0x40 MLOAD PUSH32 0x8C379A000000000000000000000000000000000000000000000000000000000 DUP2 MSTORE PUSH1 0x4 ADD PUSH2 0x8E4 SWAP1 PUSH2 0x22CB JUMP JUMPDEST PUSH1 0x40 MLOAD DUP1 SWAP2 SUB SWAP1 REVERT JUMPDEST PUSH2 0x8FA DUP3 DUP7 DUP7 DUP5 SUB PUSH2 0xBCB JUMP JUMPDEST PUSH1 0x1 SWAP3 POP POP POP SWAP3 SWAP2 POP POP JUMP JUMPDEST PUSH1 0x0 DUP1 PUSH2 0x911 PUSH2 0xBC3 JUMP JUMPDEST SWAP1 POP PUSH2 0x91E DUP2 DUP6 DUP6 PUSH2 0xE20 JUMP JUMPDEST PUSH1 0x1 SWAP2 POP POP SWAP3 SWAP2 POP POP JUMP JUMPDEST DUP4 TIMESTAMP GT ISZERO PUSH2 0x96C JUMPI PUSH1 0x40 MLOAD PUSH32 0x8C379A000000000000000000000000000000000000000000000000000000000 DUP2 MSTORE PUSH1 0x4 ADD PUSH2 0x963 SWAP1 PUSH2 0x2337 JUMP JUMPDEST PUSH1 0x40 MLOAD DUP1 SWAP2 SUB SWAP1 REVERT JUMPDEST PUSH1 0x0 PUSH32 0x6E71EDAE12B1B97F4D1F60370FEF10105FA2FAAE0126114A169C64845D6126C9 DUP9 DUP9 DUP9 PUSH2 0x99B DUP13 PUSH2 0x1675 JUMP JUMPDEST DUP10 PUSH1 0x40 MLOAD PUSH1 0x20 ADD PUSH2 0x9B1 SWAP7 SWAP6 SWAP5 SWAP4 SWAP3 SWAP2 SWAP1 PUSH2 0x2357 JUMP JUMPDEST PUSH1 0x40 MLOAD PUSH1 0x20 DUP2 DUP4 SUB SUB DUP2 MSTORE SWAP1 PUSH1 0x40 MSTORE DUP1 MLOAD SWAP1 PUSH1 0x20 ADD KECCAK256 SWAP1 POP PUSH1 0x0 PUSH2 0x9D4 DUP3 PUSH2 0x16D3 JUMP JUMPDEST SWAP1 POP PUSH1 0x0 PUSH2 0x9E4 DUP3 DUP8 DUP8 DUP8 PUSH2 0x16ED JUMP JUMPDEST SWAP1 POP DUP10 PUSH20 0xFFFFFFFFFFFFFFFFFFFFFFFFFFFFFFFFFFFFFFFF AND DUP2 PUSH20 0xFFFFFFFFFFFFFFFFFFFFFFFFFFFFFFFFFFFFFFFF AND EQ PUSH2 0xA54 JUMPI PUSH1 0x40 MLOAD PUSH32 0x8C379A000000000000000000000000000000000000000000000000000000000 DUP2 MSTORE PUSH1 0x4 ADD PUSH2 0xA4B SWAP1 PUSH2 0x2404 JUMP JUMPDEST PUSH1 0x40 MLOAD DUP1 SWAP2 SUB SWAP1 REVERT JUMPDEST PUSH2 0xA5F DUP11 DUP11 DUP11 PUSH2 0xBCB JUMP JUMPDEST POP POP POP POP POP POP POP POP POP POP JUMP JUMPDEST PUSH1 0x0 PUSH1 0x1 PUSH1 0x0 DUP5 PUSH20 0xFFFFFFFFFFFFFFFFFFFFFFFFFFFFFFFFFFFFFFFF AND PUSH20 0xFFFFFFFFFFFFFFFFFFFFFFFFFFFFFFFFFFFFFFFF AND DUP2 MSTORE PUSH1 0x20 ADD SWAP1 DUP2 MSTORE PUSH1 0x20 ADD PUSH1 0x0 KECCAK256 PUSH1 0x0 DUP4 PUSH20 0xFFFFFFFFFFFFFFFFFFFFFFFFFFFFFFFFFFFFFFFF AND PUSH20 0xFFFFFFFFFFFFFFFFFFFFFFFFFFFFFFFFFFFFFFFF AND DUP2 MSTORE PUSH1 0x20 ADD SWAP1 DUP2 MSTORE PUSH1 0x20 ADD PUSH1 0x0 KECCAK256 SLOAD SWAP1 POP SWAP3 SWAP2 POP POP JUMP JUMPDEST PUSH2 0xAFA PUSH2 0x1150 JUMP JUMPDEST PUSH1 0x0 PUSH20 0xFFFFFFFFFFFFFFFFFFFFFFFFFFFFFFFFFFFFFFFF AND DUP2 PUSH20 0xFFFFFFFFFFFFFFFFFFFFFFFFFFFFFFFFFFFFFFFF AND SUB PUSH2 0xB69 JUMPI PUSH1 0x40 MLOAD PUSH32 0x8C379A000000000000000000000000000000000000000000000000000000000 DUP2 MSTORE PUSH1 0x4 ADD PUSH2 0xB60 SWAP1 PUSH2 0x2496 JUMP JUMPDEST PUSH1 0x40 MLOAD DUP1 SWAP2 SUB SWAP1 REVERT JUMPDEST PUSH2 0xB72 DUP2 PUSH2 0x14F1 JUMP JUMPDEST POP JUMP JUMPDEST PUSH1 0x0 PUSH1 0x20 DUP4 MLOAD LT ISZERO PUSH2 0xB91 JUMPI PUSH2 0xB8A DUP4 PUSH2 0x1718 JUMP JUMPDEST SWAP1 POP PUSH2 0xBB3 JUMP JUMPDEST DUP3 PUSH2 0xB9B DUP4 PUSH2 0xBB9 JUMP JUMPDEST PUSH1 0x0 ADD SWAP1 DUP2 PUSH2 0xBAA SWAP2 SWAP1 PUSH2 0x2662 JUMP JUMPDEST POP PUSH1 0xFF PUSH1 0x0 SHL SWAP1 POP JUMPDEST SWAP3 SWAP2 POP POP JUMP JUMPDEST PUSH1 0x0 DUP2 SWAP1 POP SWAP2 SWAP1 POP JUMP JUMPDEST PUSH1 0x0 CALLER SWAP1 POP SWAP1 JUMP JUMPDEST PUSH1 0x0 PUSH20 0xFFFFFFFFFFFFFFFFFFFFFFFFFFFFFFFFFFFFFFFF AND DUP4 PUSH20 0xFFFFFFFFFFFFFFFFFFFFFFFFFFFFFFFFFFFFFFFF AND SUB PUSH2 0xC3A JUMPI PUSH1 0x40 MLOAD PUSH32 0x8C379A000000000000000000000000000000000000000000000000000000000 DUP2 MSTORE PUSH1 0x4 ADD PUSH2 0xC31 SWAP1 PUSH2 0x27A6 JUMP JUMPDEST PUSH1 0x40 MLOAD DUP1 SWAP2 SUB SWAP1 REVERT JUMPDEST PUSH1 0x0 PUSH20 0xFFFFFFFFFFFFFFFFFFFFFFFFFFFFFFFFFFFFFFFF AND DUP3 PUSH20 0xFFFFFFFFFFFFFFFFFFFFFFFFFFFFFFFFFFFFFFFF AND SUB PUSH2 0xCA9 JUMPI PUSH1 0x40 MLOAD PUSH32 0x8C379A000000000000000000000000000000000000000000000000000000000 DUP2 MSTORE PUSH1 0x4 ADD PUSH2 0xCA0 SWAP1 PUSH2 0x2838 JUMP JUMPDEST PUSH1 0x40 MLOAD DUP1 SWAP2 SUB SWAP1 REVERT JUMPDEST DUP1 PUSH1 0x1 PUSH1 0x0 DUP6 PUSH20 0xFFFFFFFFFFFFFFFFFFFFFFFFFFFFFFFFFFFFFFFF AND PUSH20 0xFFFFFFFFFFFFFFFFFFFFFFFFFFFFFFFFFFFFFFFF AND DUP2 MSTORE PUSH1 0x20 ADD SWAP1 DUP2 MSTORE PUSH1 0x20 ADD PUSH1 0x0 KECCAK256 PUSH1 0x0 DUP5 PUSH20 0xFFFFFFFFFFFFFFFFFFFFFFFFFFFFFFFFFFFFFFFF AND PUSH20 0xFFFFFFFFFFFFFFFFFFFFFFFFFFFFFFFFFFFFFFFF AND DUP2 MSTORE PUSH1 0x20 ADD SWAP1 DUP2 MSTORE PUSH1 0x20 ADD PUSH1 0x0 KECCAK256 DUP2 SWAP1 SSTORE POP DUP2 PUSH20 0xFFFFFFFFFFFFFFFFFFFFFFFFFFFFFFFFFFFFFFFF AND DUP4 PUSH20 0xFFFFFFFFFFFFFFFFFFFFFFFFFFFFFFFFFFFFFFFF AND PUSH32 0x8C5BE1E5EBEC7D5BD14F71427D1E84F3DD0314C0F7B2291E5B200AC8C7C3B925 DUP4 PUSH1 0x40 MLOAD PUSH2 0xD87 SWAP2 SWAP1 PUSH2 0x1D53 JUMP JUMPDEST PUSH1 0x40 MLOAD DUP1 SWAP2 SUB SWAP1 LOG3 POP POP POP JUMP JUMPDEST PUSH1 0x0 PUSH2 0xDA0 DUP5 DUP5 PUSH2 0xA6B JUMP JUMPDEST SWAP1 POP PUSH32 0xFFFFFFFFFFFFFFFFFFFFFFFFFFFFFFFFFFFFFFFFFFFFFFFFFFFFFFFFFFFFFFFF DUP2 EQ PUSH2 0xE1A JUMPI DUP2 DUP2 LT ISZERO PUSH2 0xE0C JUMPI PUSH1 0x40 MLOAD PUSH32 0x8C379A000000000000000000000000000000000000000000000000000000000 DUP2 MSTORE PUSH1 0x4 ADD PUSH2 0xE03 SWAP1 PUSH2 0x28A4 JUMP JUMPDEST PUSH1 0x40 MLOAD DUP1 SWAP2 SUB SWAP1 REVERT JUMPDEST PUSH2 0xE19 DUP5 DUP5 DUP5 DUP5 SUB PUSH2 0xBCB JUMP JUMPDEST JUMPDEST POP POP POP POP JUMP JUMPDEST PUSH1 0x0 PUSH20 0xFFFFFFFFFFFFFFFFFFFFFFFFFFFFFFFFFFFFFFFF AND DUP4 PUSH20 0xFFFFFFFFFFFFFFFFFFFFFFFFFFFFFFFFFFFFFFFF AND SUB PUSH2 0xE8F JUMPI PUSH1 0x40 MLOAD PUSH32 0x8C379A000000000000000000000000000000000000000000000000000000000 DUP2 MSTORE PUSH1 0x4 ADD PUSH2 0xE86 SWAP1 PUSH2 0x2936 JUMP JUMPDEST PUSH1 0x40 MLOAD DUP1 SWAP2 SUB SWAP1 REVERT JUMPDEST PUSH1 0x0 PUSH20 0xFFFFFFFFFFFFFFFFFFFFFFFFFFFFFFFFFFFFFFFF AND DUP3 PUSH20 0xFFFFFFFFFFFFFFFFFFFFFFFFFFFFFFFFFFFFFFFF AND SUB PUSH2 0xEFE JUMPI PUSH1 0x40 MLOAD PUSH32 0x8C379A000000000000000000000000000000000000000000000000000000000 DUP2 MSTORE PUSH1 0x4 ADD PUSH2 0xEF5 SWAP1 PUSH2 0x29C8 JUMP JUMPDEST PUSH1 0x40 MLOAD DUP1 SWAP2 SUB SWAP1 REVERT JUMPDEST PUSH2 0xF09 DUP4 DUP4 DUP4 PUSH2 0x1780 JUMP JUMPDEST PUSH1 0x0 DUP1 PUSH1 0x0 DUP6 PUSH20 0xFFFFFFFFFFFFFFFFFFFFFFFFFFFFFFFFFFFFFFFF AND PUSH20 0xFFFFFFFFFFFFFFFFFFFFFFFFFFFFFFFFFFFFFFFF AND DUP2 MSTORE PUSH1 0x20 ADD SWAP1 DUP2 MSTORE PUSH1 0x20 ADD PUSH1 0x0 KECCAK256 SLOAD SWAP1 POP DUP2 DUP2 LT ISZERO PUSH2 0xF8F JUMPI PUSH1 0x40 MLOAD PUSH32 0x8C379A000000000000000000000000000000000000000000000000000000000 DUP2 MSTORE PUSH1 0x4 ADD PUSH2 0xF86 SWAP1 PUSH2 0x2A5A JUMP JUMPDEST PUSH1 0x40 MLOAD DUP1 SWAP2 SUB SWAP1 REVERT JUMPDEST DUP2 DUP2 SUB PUSH1 0x0 DUP1 DUP7 PUSH20 0xFFFFFFFFFFFFFFFFFFFFFFFFFFFFFFFFFFFFFFFF AND PUSH20 0xFFFFFFFFFFFFFFFFFFFFFFFFFFFFFFFFFFFFFFFF AND DUP2 MSTORE PUSH1 0x20 ADD SWAP1 DUP2 MSTORE PUSH1 0x20 ADD PUSH1 0x0 KECCAK256 DUP2 SWAP1 SSTORE POP DUP2 PUSH1 0x0 DUP1 DUP6 PUSH20 0xFFFFFFFFFFFFFFFFFFFFFFFFFFFFFFFFFFFFFFFF AND PUSH20 0xFFFFFFFFFFFFFFFFFFFFFFFFFFFFFFFFFFFFFFFF AND DUP2 MSTORE PUSH1 0x20 ADD SWAP1 DUP2 MSTORE PUSH1 0x20 ADD PUSH1 0x0 KECCAK256 PUSH1 0x0 DUP3 DUP3 SLOAD ADD SWAP3 POP POP DUP2 SWAP1 SSTORE POP DUP3 PUSH20 0xFFFFFFFFFFFFFFFFFFFFFFFFFFFFFFFFFFFFFFFF AND DUP5 PUSH20 0xFFFFFFFFFFFFFFFFFFFFFFFFFFFFFFFFFFFFFFFF AND PUSH32 0xDDF252AD1BE2C89B69C2B068FC378DAA952BA7F163C4A11628F55A4DF523B3EF DUP5 PUSH1 0x40 MLOAD PUSH2 0x107D SWAP2 SWAP1 PUSH2 0x1D53 JUMP JUMPDEST PUSH1 0x40 MLOAD DUP1 SWAP2 SUB SWAP1 LOG3 PUSH2 0x1090 DUP5 DUP5 DUP5 PUSH2 0x1785 JUMP JUMPDEST POP POP POP POP JUMP JUMPDEST PUSH1 0x0 PUSH32 0x0 PUSH20 0xFFFFFFFFFFFFFFFFFFFFFFFFFFFFFFFFFFFFFFFF AND ADDRESS PUSH20 0xFFFFFFFFFFFFFFFFFFFFFFFFFFFFFFFFFFFFFFFF AND EQ DUP1 ISZERO PUSH2 0x1112 JUMPI POP PUSH32 0x0 CHAINID EQ JUMPDEST ISZERO PUSH2 0x113F JUMPI PUSH32 0x0 SWAP1 POP PUSH2 0x114A JUMP JUMPDEST PUSH2 0x1147 PUSH2 0x178A JUMP JUMPDEST SWAP1 POP JUMPDEST SWAP1 JUMP JUMPDEST POP JUMP JUMPDEST PUSH2 0x1158 PUSH2 0xBC3 JUMP JUMPDEST PUSH20 0xFFFFFFFFFFFFFFFFFFFFFFFFFFFFFFFFFFFFFFFF AND PUSH2 0x1176 PUSH2 0x7D3 JUMP JUMPDEST PUSH20 0xFFFFFFFFFFFFFFFFFFFFFFFFFFFFFFFFFFFFFFFF AND EQ PUSH2 0x11CC JUMPI PUSH1 0x40 MLOAD PUSH32 0x8C379A000000000000000000000000000000000000000000000000000000000 DUP2 MSTORE PUSH1 0x4 ADD PUSH2 0x11C3 SWAP1 PUSH2 0x2AC6 JUMP JUMPDEST PUSH1 0x40 MLOAD DUP1 SWAP2 SUB SWAP1 REVERT JUMPDEST JUMP JUMPDEST PUSH1 0x0 PUSH20 0xFFFFFFFFFFFFFFFFFFFFFFFFFFFFFFFFFFFFFFFF AND DUP3 PUSH20 0xFFFFFFFFFFFFFFFFFFFFFFFFFFFFFFFFFFFFFFFF AND SUB PUSH2 0x123D JUMPI PUSH1 0x40 MLOAD PUSH32 0x8C379A000000000000000000000000000000000000000000000000000000000 DUP2 MSTORE PUSH1 0x4 ADD PUSH2 0x1234 SWAP1 PUSH2 0x2B32 JUMP JUMPDEST PUSH1 0x40 MLOAD DUP1 SWAP2 SUB SWAP1 REVERT JUMPDEST PUSH2 0x1249 PUSH1 0x0 DUP4 DUP4 PUSH2 0x1780 JUMP JUMPDEST DUP1 PUSH1 0x2 PUSH1 0x0 DUP3 DUP3 SLOAD PUSH2 0x125B SWAP2 SWAP1 PUSH2 0x21F6 JUMP JUMPDEST SWAP3 POP POP DUP2 SWAP1 SSTORE POP DUP1 PUSH1 0x0 DUP1 DUP5 PUSH20 0xFFFFFFFFFFFFFFFFFFFFFFFFFFFFFFFFFFFFFFFF AND PUSH20 0xFFFFFFFFFFFFFFFFFFFFFFFFFFFFFFFFFFFFFFFF AND DUP2 MSTORE PUSH1 0x20 ADD SWAP1 DUP2 MSTORE PUSH1 0x20 ADD PUSH1 0x0 KECCAK256 PUSH1 0x0 DUP3 DUP3 SLOAD ADD SWAP3 POP POP DUP2 SWAP1 SSTORE POP DUP2 PUSH20 0xFFFFFFFFFFFFFFFFFFFFFFFFFFFFFFFFFFFFFFFF AND PUSH1 0x0 PUSH20 0xFFFFFFFFFFFFFFFFFFFFFFFFFFFFFFFFFFFFFFFF AND PUSH32 0xDDF252AD1BE2C89B69C2B068FC378DAA952BA7F163C4A11628F55A4DF523B3EF DUP4 PUSH1 0x40 MLOAD PUSH2 0x130C SWAP2 SWAP1 PUSH2 0x1D53 JUMP JUMPDEST PUSH1 0x40 MLOAD DUP1 SWAP2 SUB SWAP1 LOG3 PUSH2 0x1320 PUSH1 0x0 DUP4 DUP4 PUSH2 0x1785 JUMP JUMPDEST POP POP JUMP JUMPDEST PUSH1 0x0 PUSH20 0xFFFFFFFFFFFFFFFFFFFFFFFFFFFFFFFFFFFFFFFF AND DUP3 PUSH20 0xFFFFFFFFFFFFFFFFFFFFFFFFFFFFFFFFFFFFFFFF AND SUB PUSH2 0x1393 JUMPI PUSH1 0x40 MLOAD PUSH32 0x8C379A000000000000000000000000000000000000000000000000000000000 DUP2 MSTORE PUSH1 0x4 ADD PUSH2 0x138A SWAP1 PUSH2 0x2BC4 JUMP JUMPDEST PUSH1 0x40 MLOAD DUP1 SWAP2 SUB SWAP1 REVERT JUMPDEST PUSH2 0x139F DUP3 PUSH1 0x0 DUP4 PUSH2 0x1780 JUMP JUMPDEST PUSH1 0x0 DUP1 PUSH1 0x0 DUP5 PUSH20 0xFFFFFFFFFFFFFFFFFFFFFFFFFFFFFFFFFFFFFFFF AND PUSH20 0xFFFFFFFFFFFFFFFFFFFFFFFFFFFFFFFFFFFFFFFF AND DUP2 MSTORE PUSH1 0x20 ADD SWAP1 DUP2 MSTORE PUSH1 0x20 ADD PUSH1 0x0 KECCAK256 SLOAD SWAP1 POP DUP2 DUP2 LT ISZERO PUSH2 0x1425 JUMPI PUSH1 0x40 MLOAD PUSH32 0x8C379A000000000000000000000000000000000000000000000000000000000 DUP2 MSTORE PUSH1 0x4 ADD PUSH2 0x141C SWAP1 PUSH2 0x2C56 JUMP JUMPDEST PUSH1 0x40 MLOAD DUP1 SWAP2 SUB SWAP1 REVERT JUMPDEST DUP2 DUP2 SUB PUSH1 0x0 DUP1 DUP6 PUSH20 0xFFFFFFFFFFFFFFFFFFFFFFFFFFFFFFFFFFFFFFFF AND PUSH20 0xFFFFFFFFFFFFFFFFFFFFFFFFFFFFFFFFFFFFFFFF AND DUP2 MSTORE PUSH1 0x20 ADD SWAP1 DUP2 MSTORE PUSH1 0x20 ADD PUSH1 0x0 KECCAK256 DUP2 SWAP1 SSTORE POP DUP2 PUSH1 0x2 PUSH1 0x0 DUP3 DUP3 SLOAD SUB SWAP3 POP POP DUP2 SWAP1 SSTORE POP PUSH1 0x0 PUSH20 0xFFFFFFFFFFFFFFFFFFFFFFFFFFFFFFFFFFFFFFFF AND DUP4 PUSH20 0xFFFFFFFFFFFFFFFFFFFFFFFFFFFFFFFFFFFFFFFF AND PUSH32 0xDDF252AD1BE2C89B69C2B068FC378DAA952BA7F163C4A11628F55A4DF523B3EF DUP5 PUSH1 0x40 MLOAD PUSH2 0x14D8 SWAP2 SWAP1 PUSH2 0x1D53 JUMP JUMPDEST PUSH1 0x40 MLOAD DUP1 SWAP2 SUB SWAP1 LOG3 PUSH2 0x14EC DUP4 PUSH1 0x0 DUP5 PUSH2 0x1785 JUMP JUMPDEST POP POP POP JUMP JUMPDEST PUSH1 0x0 PUSH1 0x5 PUSH1 0x0 SWAP1 SLOAD SWAP1 PUSH2 0x100 EXP SWAP1 DIV PUSH20 0xFFFFFFFFFFFFFFFFFFFFFFFFFFFFFFFFFFFFFFFF AND SWAP1 POP DUP2 PUSH1 0x5 PUSH1 0x0 PUSH2 0x100 EXP DUP2 SLOAD DUP2 PUSH20 0xFFFFFFFFFFFFFFFFFFFFFFFFFFFFFFFFFFFFFFFF MUL NOT AND SWAP1 DUP4 PUSH20 0xFFFFFFFFFFFFFFFFFFFFFFFFFFFFFFFFFFFFFFFF AND MUL OR SWAP1 SSTORE POP DUP2 PUSH20 0xFFFFFFFFFFFFFFFFFFFFFFFFFFFFFFFFFFFFFFFF AND DUP2 PUSH20 0xFFFFFFFFFFFFFFFFFFFFFFFFFFFFFFFFFFFFFFFF AND PUSH32 0x8BE0079C531659141344CD1FD0A4F28419497F9722A3DAAFE3B4186F6B6457E0 PUSH1 0x40 MLOAD PUSH1 0x40 MLOAD DUP1 SWAP2 SUB SWAP1 LOG3 POP POP JUMP JUMPDEST PUSH1 0x0 DUP2 PUSH1 0x0 ADD SLOAD SWAP1 POP SWAP2 SWAP1 POP JUMP JUMPDEST PUSH1 0x60 PUSH1 0xFF PUSH1 0x0 SHL DUP4 EQ PUSH2 0x15E2 JUMPI PUSH2 0x15DB DUP4 PUSH2 0x1820 JUMP JUMPDEST SWAP1 POP PUSH2 0x166F JUMP JUMPDEST DUP2 DUP1 SLOAD PUSH2 0x15EE SWAP1 PUSH2 0x2196 JUMP JUMPDEST DUP1 PUSH1 0x1F ADD PUSH1 0x20 DUP1 SWAP2 DIV MUL PUSH1 0x20 ADD PUSH1 0x40 MLOAD SWAP1 DUP2 ADD PUSH1 0x40 MSTORE DUP1 SWAP3 SWAP2 SWAP1 DUP2 DUP2 MSTORE PUSH1 0x20 ADD DUP3 DUP1 SLOAD PUSH2 0x161A SWAP1 PUSH2 0x2196 JUMP JUMPDEST DUP1 ISZERO PUSH2 0x1667 JUMPI DUP1 PUSH1 0x1F LT PUSH2 0x163C JUMPI PUSH2 0x100 DUP1 DUP4 SLOAD DIV MUL DUP4 MSTORE SWAP2 PUSH1 0x20 ADD SWAP2 PUSH2 0x1667 JUMP JUMPDEST DUP3 ADD SWAP2 SWAP1 PUSH1 0x0 MSTORE PUSH1 0x20 PUSH1 0x0 KECCAK256 SWAP1 JUMPDEST DUP2 SLOAD DUP2 MSTORE SWAP1 PUSH1 0x1 ADD SWAP1 PUSH1 0x20 ADD DUP1 DUP4 GT PUSH2 0x164A JUMPI DUP3 SWAP1 SUB PUSH1 0x1F AND DUP3 ADD SWAP2 JUMPDEST POP POP POP POP POP SWAP1 POP JUMPDEST SWAP3 SWAP2 POP POP JUMP JUMPDEST PUSH1 0x0 DUP1 PUSH1 0x8 PUSH1 0x0 DUP5 PUSH20 0xFFFFFFFFFFFFFFFFFFFFFFFFFFFFFFFFFFFFFFFF AND PUSH20 0xFFFFFFFFFFFFFFFFFFFFFFFFFFFFFFFFFFFFFFFF AND DUP2 MSTORE PUSH1 0x20 ADD SWAP1 DUP2 MSTORE PUSH1 0x20 ADD PUSH1 0x0 KECCAK256 SWAP1 POP PUSH2 0x16C2 DUP2 PUSH2 0x15B7 JUMP JUMPDEST SWAP2 POP PUSH2 0x16CD DUP2 PUSH2 0x1894 JUMP JUMPDEST POP SWAP2 SWAP1 POP JUMP JUMPDEST PUSH1 0x0 PUSH2 0x16E6 PUSH2 0x16E0 PUSH2 0x1096 JUMP JUMPDEST DUP4 PUSH2 0x18AA JUMP JUMPDEST SWAP1 POP SWAP2 SWAP1 POP JUMP JUMPDEST PUSH1 0x0 DUP1 PUSH1 0x0 PUSH2 0x16FE DUP8 DUP8 DUP8 DUP8 PUSH2 0x18EB JUMP JUMPDEST SWAP2 POP SWAP2 POP PUSH2 0x170B DUP2 PUSH2 0x19CD JUMP JUMPDEST DUP2 SWAP3 POP POP POP SWAP5 SWAP4 POP POP POP POP JUMP JUMPDEST PUSH1 0x0 DUP1 DUP3 SWAP1 POP PUSH1 0x1F DUP2 MLOAD GT ISZERO PUSH2 0x1765 JUMPI DUP3 PUSH1 0x40 MLOAD PUSH32 0x305A27A900000000000000000000000000000000000000000000000000000000 DUP2 MSTORE PUSH1 0x4 ADD PUSH2 0x175C SWAP2 SWAP1 PUSH2 0x1C13 JUMP JUMPDEST PUSH1 0x40 MLOAD DUP1 SWAP2 SUB SWAP1 REVERT JUMPDEST DUP1 MLOAD DUP2 PUSH2 0x1771 SWAP1 PUSH2 0x2CA6 JUMP JUMPDEST PUSH1 0x0 SHR OR PUSH1 0x0 SHL SWAP2 POP POP SWAP2 SWAP1 POP JUMP JUMPDEST POP POP POP JUMP JUMPDEST POP POP POP JUMP JUMPDEST PUSH1 0x0 PUSH32 0x8B73C3C69BB8FE3D512ECC4CF759CC79239F7B179B0FFACAA9A75D522B39400F PUSH32 0x0 PUSH32 0x0 CHAINID ADDRESS PUSH1 0x40 MLOAD PUSH1 0x20 ADD PUSH2 0x1805 SWAP6 SWAP5 SWAP4 SWAP3 SWAP2 SWAP1 PUSH2 0x2D0D JUMP JUMPDEST PUSH1 0x40 MLOAD PUSH1 0x20 DUP2 DUP4 SUB SUB DUP2 MSTORE SWAP1 PUSH1 0x40 MSTORE DUP1 MLOAD SWAP1 PUSH1 0x20 ADD KECCAK256 SWAP1 POP SWAP1 JUMP JUMPDEST PUSH1 0x60 PUSH1 0x0 PUSH2 0x182D DUP4 PUSH2 0x1B33 JUMP JUMPDEST SWAP1 POP PUSH1 0x0 PUSH1 0x20 PUSH8 0xFFFFFFFFFFFFFFFF DUP2 GT ISZERO PUSH2 0x184C JUMPI PUSH2 0x184B PUSH2 0x222A JUMP JUMPDEST JUMPDEST PUSH1 0x40 MLOAD SWAP1 DUP1 DUP3 MSTORE DUP1 PUSH1 0x1F ADD PUSH1 0x1F NOT AND PUSH1 0x20 ADD DUP3 ADD PUSH1 0x40 MSTORE DUP1 ISZERO PUSH2 0x187E JUMPI DUP2 PUSH1 0x20 ADD PUSH1 0x1 DUP3 MUL DUP1 CALLDATASIZE DUP4 CALLDATACOPY DUP1 DUP3 ADD SWAP2 POP POP SWAP1 POP JUMPDEST POP SWAP1 POP DUP2 DUP2 MSTORE DUP4 PUSH1 0x20 DUP3 ADD MSTORE DUP1 SWAP3 POP POP POP SWAP2 SWAP1 POP JUMP JUMPDEST PUSH1 0x1 DUP2 PUSH1 0x0 ADD PUSH1 0x0 DUP3 DUP3 SLOAD ADD SWAP3 POP POP DUP2 SWAP1 SSTORE POP POP JUMP JUMPDEST PUSH1 0x0 PUSH1 0x40 MLOAD PUSH32 0x1901000000000000000000000000000000000000000000000000000000000000 DUP2 MSTORE DUP4 PUSH1 0x2 DUP3 ADD MSTORE DUP3 PUSH1 0x22 DUP3 ADD MSTORE PUSH1 0x42 DUP2 KECCAK256 SWAP2 POP POP SWAP3 SWAP2 POP POP JUMP JUMPDEST PUSH1 0x0 DUP1 PUSH32 0x7FFFFFFFFFFFFFFFFFFFFFFFFFFFFFFF5D576E7357A4501DDFE92F46681B20A0 DUP4 PUSH1 0x0 SHR GT ISZERO PUSH2 0x1926 JUMPI PUSH1 0x0 PUSH1 0x3 SWAP2 POP SWAP2 POP PUSH2 0x19C4 JUMP JUMPDEST PUSH1 0x0 PUSH1 0x1 DUP8 DUP8 DUP8 DUP8 PUSH1 0x40 MLOAD PUSH1 0x0 DUP2 MSTORE PUSH1 0x20 ADD PUSH1 0x40 MSTORE PUSH1 0x40 MLOAD PUSH2 0x194B SWAP5 SWAP4 SWAP3 SWAP2 SWAP1 PUSH2 0x2D60 JUMP JUMPDEST PUSH1 0x20 PUSH1 0x40 MLOAD PUSH1 0x20 DUP2 SUB SWAP1 DUP1 DUP5 SUB SWAP1 DUP6 GAS STATICCALL ISZERO DUP1 ISZERO PUSH2 0x196D JUMPI RETURNDATASIZE PUSH1 0x0 DUP1 RETURNDATACOPY RETURNDATASIZE PUSH1 0x0 REVERT JUMPDEST POP POP POP PUSH1 0x20 PUSH1 0x40 MLOAD SUB MLOAD SWAP1 POP PUSH1 0x0 PUSH20 0xFFFFFFFFFFFFFFFFFFFFFFFFFFFFFFFFFFFFFFFF AND DUP2 PUSH20 0xFFFFFFFFFFFFFFFFFFFFFFFFFFFFFFFFFFFFFFFF AND SUB PUSH2 0x19BB JUMPI PUSH1 0x0 PUSH1 0x1 SWAP3 POP SWAP3 POP POP PUSH2 0x19C4 JUMP JUMPDEST DUP1 PUSH1 0x0 SWAP3 POP SWAP3 POP POP JUMPDEST SWAP5 POP SWAP5 SWAP3 POP POP POP JUMP JUMPDEST PUSH1 0x0 PUSH1 0x4 DUP2 GT ISZERO PUSH2 0x19E1 JUMPI PUSH2 0x19E0 PUSH2 0x2DA5 JUMP JUMPDEST JUMPDEST DUP2 PUSH1 0x4 DUP2 GT ISZERO PUSH2 0x19F4 JUMPI PUSH2 0x19F3 PUSH2 0x2DA5 JUMP JUMPDEST JUMPDEST SUB ISZERO PUSH2 0x1B30 JUMPI PUSH1 0x1 PUSH1 0x4 DUP2 GT ISZERO PUSH2 0x1A0E JUMPI PUSH2 0x1A0D PUSH2 0x2DA5 JUMP JUMPDEST JUMPDEST DUP2 PUSH1 0x4 DUP2 GT ISZERO PUSH2 0x1A21 JUMPI PUSH2 0x1A20 PUSH2 0x2DA5 JUMP JUMPDEST JUMPDEST SUB PUSH2 0x1A61 JUMPI PUSH1 0x40 MLOAD PUSH32 0x8C379A000000000000000000000000000000000000000000000000000000000 DUP2 MSTORE PUSH1 0x4 ADD PUSH2 0x1A58 SWAP1 PUSH2 0x2E20 JUMP JUMPDEST PUSH1 0x40 MLOAD DUP1 SWAP2 SUB SWAP1 REVERT JUMPDEST PUSH1 0x2 PUSH1 0x4 DUP2 GT ISZERO PUSH2 0x1A75 JUMPI PUSH2 0x1A74 PUSH2 0x2DA5 JUMP JUMPDEST JUMPDEST DUP2 PUSH1 0x4 DUP2 GT ISZERO PUSH2 0x1A88 JUMPI PUSH2 0x1A87 PUSH2 0x2DA5 JUMP JUMPDEST JUMPDEST SUB PUSH2 0x1AC8 JUMPI PUSH1 0x40 MLOAD PUSH32 0x8C379A000000000000000000000000000000000000000000000000000000000 DUP2 MSTORE PUSH1 0x4 ADD PUSH2 0x1ABF SWAP1 PUSH2 0x2E8C JUMP JUMPDEST PUSH1 0x40 MLOAD DUP1 SWAP2 SUB SWAP1 REVERT JUMPDEST PUSH1 0x3 PUSH1 0x4 DUP2 GT ISZERO PUSH2 0x1ADC JUMPI PUSH2 0x1ADB PUSH2 0x2DA5 JUMP JUMPDEST JUMPDEST DUP2 PUSH1 0x4 DUP2 GT ISZERO PUSH2 0x1AEF JUMPI PUSH2 0x1AEE PUSH2 0x2DA5 JUMP JUMPDEST JUMPDEST SUB PUSH2 0x1B2F JUMPI PUSH1 0x40 MLOAD PUSH32 0x8C379A000000000000000000000000000000000000000000000000000000000 DUP2 MSTORE PUSH1 0x4 ADD PUSH2 0x1B26 SWAP1 PUSH2 0x2F1E JUMP JUMPDEST PUSH1 0x40 MLOAD DUP1 SWAP2 SUB SWAP1 REVERT JUMPDEST JUMPDEST POP JUMP JUMPDEST PUSH1 0x0 DUP1 PUSH1 0xFF DUP4 PUSH1 0x0 SHR AND SWAP1 POP PUSH1 0x1F DUP2 GT ISZERO PUSH2 0x1B7A JUMPI PUSH1 0x40 MLOAD PUSH32 0xB3512B0C00000000000000000000000000000000000000000000000000000000 DUP2 MSTORE PUSH1 0x4 ADD PUSH1 0x40 MLOAD DUP1 SWAP2 SUB SWAP1 REVERT JUMPDEST DUP1 SWAP2 POP POP SWAP2 SWAP1 POP JUMP JUMPDEST PUSH1 0x0 DUP2 MLOAD SWAP1 POP SWAP2 SWAP1 POP JUMP JUMPDEST PUSH1 0x0 DUP3 DUP3 MSTORE PUSH1 0x20 DUP3 ADD SWAP1 POP SWAP3 SWAP2 POP POP JUMP JUMPDEST PUSH1 0x0 JUMPDEST DUP4 DUP2 LT ISZERO PUSH2 0x1BBD JUMPI DUP1 DUP3 ADD MLOAD DUP2 DUP5 ADD MSTORE PUSH1 0x20 DUP2 ADD SWAP1 POP PUSH2 0x1BA2 JUMP JUMPDEST PUSH1 0x0 DUP5 DUP5 ADD MSTORE POP POP POP POP JUMP JUMPDEST PUSH1 0x0 PUSH1 0x1F NOT PUSH1 0x1F DUP4 ADD AND SWAP1 POP SWAP2 SWAP1 POP JUMP JUMPDEST PUSH1 0x0 PUSH2 0x1BE5 DUP3 PUSH2 0x1B83 JUMP JUMPDEST PUSH2 0x1BEF DUP2 DUP6 PUSH2 0x1B8E JUMP JUMPDEST SWAP4 POP PUSH2 0x1BFF DUP2 DUP6 PUSH1 0x20 DUP7 ADD PUSH2 0x1B9F JUMP JUMPDEST PUSH2 0x1C08 DUP2 PUSH2 0x1BC9 JUMP JUMPDEST DUP5 ADD SWAP2 POP POP SWAP3 SWAP2 POP POP JUMP JUMPDEST PUSH1 0x0 PUSH1 0x20 DUP3 ADD SWAP1 POP DUP2 DUP2 SUB PUSH1 0x0 DUP4 ADD MSTORE PUSH2 0x1C2D DUP2 DUP5 PUSH2 0x1BDA JUMP JUMPDEST SWAP1 POP SWAP3 SWAP2 POP POP JUMP JUMPDEST PUSH1 0x0 DUP1 REVERT JUMPDEST PUSH1 0x0 PUSH20 0xFFFFFFFFFFFFFFFFFFFFFFFFFFFFFFFFFFFFFFFF DUP3 AND SWAP1 POP SWAP2 SWAP1 POP JUMP JUMPDEST PUSH1 0x0 PUSH2 0x1C65 DUP3 PUSH2 0x1C3A JUMP JUMPDEST SWAP1 POP SWAP2 SWAP1 POP JUMP JUMPDEST PUSH2 0x1C75 DUP2 PUSH2 0x1C5A JUMP JUMPDEST DUP2 EQ PUSH2 0x1C80 JUMPI PUSH1 0x0 DUP1 REVERT JUMPDEST POP JUMP JUMPDEST PUSH1 0x0 DUP2 CALLDATALOAD SWAP1 POP PUSH2 0x1C92 DUP2 PUSH2 0x1C6C JUMP JUMPDEST SWAP3 SWAP2 POP POP JUMP JUMPDEST PUSH1 0x0 DUP2 SWAP1 POP SWAP2 SWAP1 POP JUMP JUMPDEST PUSH2 0x1CAB DUP2 PUSH2 0x1C98 JUMP JUMPDEST DUP2 EQ PUSH2 0x1CB6 JUMPI PUSH1 0x0 DUP1 REVERT JUMPDEST POP JUMP JUMPDEST PUSH1 0x0 DUP2 CALLDATALOAD SWAP1 POP PUSH2 0x1CC8 DUP2 PUSH2 0x1CA2 JUMP JUMPDEST SWAP3 SWAP2 POP POP JUMP JUMPDEST PUSH1 0x0 DUP1 PUSH1 0x40 DUP4 DUP6 SUB SLT ISZERO PUSH2 0x1CE5 JUMPI PUSH2 0x1CE4 PUSH2 0x1C35 JUMP JUMPDEST JUMPDEST PUSH1 0x0 PUSH2 0x1CF3 DUP6 DUP3 DUP7 ADD PUSH2 0x1C83 JUMP JUMPDEST SWAP3 POP POP PUSH1 0x20 PUSH2 0x1D04 DUP6 DUP3 DUP7 ADD PUSH2 0x1CB9 JUMP JUMPDEST SWAP2 POP POP SWAP3 POP SWAP3 SWAP1 POP JUMP JUMPDEST PUSH1 0x0 DUP2 ISZERO ISZERO SWAP1 POP SWAP2 SWAP1 POP JUMP JUMPDEST PUSH2 0x1D23 DUP2 PUSH2 0x1D0E JUMP JUMPDEST DUP3 MSTORE POP POP JUMP JUMPDEST PUSH1 0x0 PUSH1 0x20 DUP3 ADD SWAP1 POP PUSH2 0x1D3E PUSH1 0x0 DUP4 ADD DUP5 PUSH2 0x1D1A JUMP JUMPDEST SWAP3 SWAP2 POP POP JUMP JUMPDEST PUSH2 0x1D4D DUP2 PUSH2 0x1C98 JUMP JUMPDEST DUP3 MSTORE POP POP JUMP JUMPDEST PUSH1 0x0 PUSH1 0x20 DUP3 ADD SWAP1 POP PUSH2 0x1D68 PUSH1 0x0 DUP4 ADD DUP5 PUSH2 0x1D44 JUMP JUMPDEST SWAP3 SWAP2 POP POP JUMP JUMPDEST PUSH1 0x0 DUP1 PUSH1 0x0 PUSH1 0x60 DUP5 DUP7 SUB SLT ISZERO PUSH2 0x1D87 JUMPI PUSH2 0x1D86 PUSH2 0x1C35 JUMP JUMPDEST JUMPDEST PUSH1 0x0 PUSH2 0x1D95 DUP7 DUP3 DUP8 ADD PUSH2 0x1C83 JUMP JUMPDEST SWAP4 POP POP PUSH1 0x20 PUSH2 0x1DA6 DUP7 DUP3 DUP8 ADD PUSH2 0x1C83 JUMP JUMPDEST SWAP3 POP POP PUSH1 0x40 PUSH2 0x1DB7 DUP7 DUP3 DUP8 ADD PUSH2 0x1CB9 JUMP JUMPDEST SWAP2 POP POP SWAP3 POP SWAP3 POP SWAP3 JUMP JUMPDEST PUSH1 0x0 PUSH1 0xFF DUP3 AND SWAP1 POP SWAP2 SWAP1 POP JUMP JUMPDEST PUSH2 0x1DD7 DUP2 PUSH2 0x1DC1 JUMP JUMPDEST DUP3 MSTORE POP POP JUMP JUMPDEST PUSH1 0x0 PUSH1 0x20 DUP3 ADD SWAP1 POP PUSH2 0x1DF2 PUSH1 0x0 DUP4 ADD DUP5 PUSH2 0x1DCE JUMP JUMPDEST SWAP3 SWAP2 POP POP JUMP JUMPDEST PUSH1 0x0 DUP2 SWAP1 POP SWAP2 SWAP1 POP JUMP JUMPDEST PUSH2 0x1E0B DUP2 PUSH2 0x1DF8 JUMP JUMPDEST DUP3 MSTORE POP POP JUMP JUMPDEST PUSH1 0x0 PUSH1 0x20 DUP3 ADD SWAP1 POP PUSH2 0x1E26 PUSH1 0x0 DUP4 ADD DUP5 PUSH2 0x1E02 JUMP JUMPDEST SWAP3 SWAP2 POP POP JUMP JUMPDEST PUSH1 0x0 PUSH1 0x20 DUP3 DUP5 SUB SLT ISZERO PUSH2 0x1E42 JUMPI PUSH2 0x1E41 PUSH2 0x1C35 JUMP JUMPDEST JUMPDEST PUSH1 0x0 PUSH2 0x1E50 DUP5 DUP3 DUP6 ADD PUSH2 0x1CB9 JUMP JUMPDEST SWAP2 POP POP SWAP3 SWAP2 POP POP JUMP JUMPDEST PUSH1 0x0 PUSH1 0x20 DUP3 DUP5 SUB SLT ISZERO PUSH2 0x1E6F JUMPI PUSH2 0x1E6E PUSH2 0x1C35 JUMP JUMPDEST JUMPDEST PUSH1 0x0 PUSH2 0x1E7D DUP5 DUP3 DUP6 ADD PUSH2 0x1C83 JUMP JUMPDEST SWAP2 POP POP SWAP3 SWAP2 POP POP JUMP JUMPDEST PUSH1 0x0 PUSH32 0xFF00000000000000000000000000000000000000000000000000000000000000 DUP3 AND SWAP1 POP SWAP2 SWAP1 POP JUMP JUMPDEST PUSH2 0x1EBB DUP2 PUSH2 0x1E86 JUMP JUMPDEST DUP3 MSTORE POP POP JUMP JUMPDEST PUSH2 0x1ECA DUP2 PUSH2 0x1C5A JUMP JUMPDEST DUP3 MSTORE POP POP JUMP JUMPDEST PUSH1 0x0 DUP2 MLOAD SWAP1 POP SWAP2 SWAP1 POP JUMP JUMPDEST PUSH1 0x0 DUP3 DUP3 MSTORE PUSH1 0x20 DUP3 ADD SWAP1 POP SWAP3 SWAP2 POP POP JUMP JUMPDEST PUSH1 0x0 DUP2 SWAP1 POP PUSH1 0x20 DUP3 ADD SWAP1 POP SWAP2 SWAP1 POP JUMP JUMPDEST PUSH2 0x1F05 DUP2 PUSH2 0x1C98 JUMP JUMPDEST DUP3 MSTORE POP POP JUMP JUMPDEST PUSH1 0x0 PUSH2 0x1F17 DUP4 DUP4 PUSH2 0x1EFC JUMP JUMPDEST PUSH1 0x20 DUP4 ADD SWAP1 POP SWAP3 SWAP2 POP POP JUMP JUMPDEST PUSH1 0x0 PUSH1 0x20 DUP3 ADD SWAP1 POP SWAP2 SWAP1 POP JUMP JUMPDEST PUSH1 0x0 PUSH2 0x1F3B DUP3 PUSH2 0x1ED0 JUMP JUMPDEST PUSH2 0x1F45 DUP2 DUP6 PUSH2 0x1EDB JUMP JUMPDEST SWAP4 POP PUSH2 0x1F50 DUP4 PUSH2 0x1EEC JUMP JUMPDEST DUP1 PUSH1 0x0 JUMPDEST DUP4 DUP2 LT ISZERO PUSH2 0x1F81 JUMPI DUP2 MLOAD PUSH2 0x1F68 DUP9 DUP3 PUSH2 0x1F0B JUMP JUMPDEST SWAP8 POP PUSH2 0x1F73 DUP4 PUSH2 0x1F23 JUMP JUMPDEST SWAP3 POP POP PUSH1 0x1 DUP2 ADD SWAP1 POP PUSH2 0x1F54 JUMP JUMPDEST POP DUP6 SWAP4 POP POP POP POP SWAP3 SWAP2 POP POP JUMP JUMPDEST PUSH1 0x0 PUSH1 0xE0 DUP3 ADD SWAP1 POP PUSH2 0x1FA3 PUSH1 0x0 DUP4 ADD DUP11 PUSH2 0x1EB2 JUMP JUMPDEST DUP2 DUP2 SUB PUSH1 0x20 DUP4 ADD MSTORE PUSH2 0x1FB5 DUP2 DUP10 PUSH2 0x1BDA JUMP JUMPDEST SWAP1 POP DUP2 DUP2 SUB PUSH1 0x40 DUP4 ADD MSTORE PUSH2 0x1FC9 DUP2 DUP9 PUSH2 0x1BDA JUMP JUMPDEST SWAP1 POP PUSH2 0x1FD8 PUSH1 0x60 DUP4 ADD DUP8 PUSH2 0x1D44 JUMP JUMPDEST PUSH2 0x1FE5 PUSH1 0x80 DUP4 ADD DUP7 PUSH2 0x1EC1 JUMP JUMPDEST PUSH2 0x1FF2 PUSH1 0xA0 DUP4 ADD DUP6 PUSH2 0x1E02 JUMP JUMPDEST DUP2 DUP2 SUB PUSH1 0xC0 DUP4 ADD MSTORE PUSH2 0x2004 DUP2 DUP5 PUSH2 0x1F30 JUMP JUMPDEST SWAP1 POP SWAP9 SWAP8 POP POP POP POP POP POP POP POP JUMP JUMPDEST PUSH1 0x0 PUSH1 0x20 DUP3 ADD SWAP1 POP PUSH2 0x2027 PUSH1 0x0 DUP4 ADD DUP5 PUSH2 0x1EC1 JUMP JUMPDEST SWAP3 SWAP2 POP POP JUMP JUMPDEST PUSH2 0x2036 DUP2 PUSH2 0x1DC1 JUMP JUMPDEST DUP2 EQ PUSH2 0x2041 JUMPI PUSH1 0x0 DUP1 REVERT JUMPDEST POP JUMP JUMPDEST PUSH1 0x0 DUP2 CALLDATALOAD SWAP1 POP PUSH2 0x2053 DUP2 PUSH2 0x202D JUMP JUMPDEST SWAP3 SWAP2 POP POP JUMP JUMPDEST PUSH2 0x2062 DUP2 PUSH2 0x1DF8 JUMP JUMPDEST DUP2 EQ PUSH2 0x206D JUMPI PUSH1 0x0 DUP1 REVERT JUMPDEST POP JUMP JUMPDEST PUSH1 0x0 DUP2 CALLDATALOAD SWAP1 POP PUSH2 0x207F DUP2 PUSH2 0x2059 JUMP JUMPDEST SWAP3 SWAP2 POP POP JUMP JUMPDEST PUSH1 0x0 DUP1 PUSH1 0x0 DUP1 PUSH1 0x0 DUP1 PUSH1 0x0 PUSH1 0xE0 DUP9 DUP11 SUB SLT ISZERO PUSH2 0x20A4 JUMPI PUSH2 0x20A3 PUSH2 0x1C35 JUMP JUMPDEST JUMPDEST PUSH1 0x0 PUSH2 0x20B2 DUP11 DUP3 DUP12 ADD PUSH2 0x1C83 JUMP JUMPDEST SWAP8 POP POP PUSH1 0x20 PUSH2 0x20C3 DUP11 DUP3 DUP12 ADD PUSH2 0x1C83 JUMP JUMPDEST SWAP7 POP POP PUSH1 0x40 PUSH2 0x20D4 DUP11 DUP3 DUP12 ADD PUSH2 0x1CB9 JUMP JUMPDEST SWAP6 POP POP PUSH1 0x60 PUSH2 0x20E5 DUP11 DUP3 DUP12 ADD PUSH2 0x1CB9 JUMP JUMPDEST SWAP5 POP POP PUSH1 0x80 PUSH2 0x20F6 DUP11 DUP3 DUP12 ADD PUSH2 0x2044 JUMP JUMPDEST SWAP4 POP POP PUSH1 0xA0 PUSH2 0x2107 DUP11 DUP3 DUP12 ADD PUSH2 0x2070 JUMP JUMPDEST SWAP3 POP POP PUSH1 0xC0 PUSH2 0x2118 DUP11 DUP3 DUP12 ADD PUSH2 0x2070 JUMP JUMPDEST SWAP2 POP POP SWAP3 SWAP6 SWAP9 SWAP2 SWAP5 SWAP8 POP SWAP3 SWAP6 POP JUMP JUMPDEST PUSH1 0x0 DUP1 PUSH1 0x40 DUP4 DUP6 SUB SLT ISZERO PUSH2 0x213E JUMPI PUSH2 0x213D PUSH2 0x1C35 JUMP JUMPDEST JUMPDEST PUSH1 0x0 PUSH2 0x214C DUP6 DUP3 DUP7 ADD PUSH2 0x1C83 JUMP JUMPDEST SWAP3 POP POP PUSH1 0x20 PUSH2 0x215D DUP6 DUP3 DUP7 ADD PUSH2 0x1C83 JUMP JUMPDEST SWAP2 POP POP SWAP3 POP SWAP3 SWAP1 POP JUMP JUMPDEST PUSH32 0x4E487B7100000000000000000000000000000000000000000000000000000000 PUSH1 0x0 MSTORE PUSH1 0x22 PUSH1 0x4 MSTORE PUSH1 0x24 PUSH1 0x0 REVERT JUMPDEST PUSH1 0x0 PUSH1 0x2 DUP3 DIV SWAP1 POP PUSH1 0x1 DUP3 AND DUP1 PUSH2 0x21AE JUMPI PUSH1 0x7F DUP3 AND SWAP2 POP JUMPDEST PUSH1 0x20 DUP3 LT DUP2 SUB PUSH2 0x21C1 JUMPI PUSH2 0x21C0 PUSH2 0x2167 JUMP JUMPDEST JUMPDEST POP SWAP2 SWAP1 POP JUMP JUMPDEST PUSH32 0x4E487B7100000000000000000000000000000000000000000000000000000000 PUSH1 0x0 MSTORE PUSH1 0x11 PUSH1 0x4 MSTORE PUSH1 0x24 PUSH1 0x0 REVERT JUMPDEST PUSH1 0x0 PUSH2 0x2201 DUP3 PUSH2 0x1C98 JUMP JUMPDEST SWAP2 POP PUSH2 0x220C DUP4 PUSH2 0x1C98 JUMP JUMPDEST SWAP3 POP DUP3 DUP3 ADD SWAP1 POP DUP1 DUP3 GT ISZERO PUSH2 0x2224 JUMPI PUSH2 0x2223 PUSH2 0x21C7 JUMP JUMPDEST JUMPDEST SWAP3 SWAP2 POP POP JUMP JUMPDEST PUSH32 0x4E487B7100000000000000000000000000000000000000000000000000000000 PUSH1 0x0 MSTORE PUSH1 0x41 PUSH1 0x4 MSTORE PUSH1 0x24 PUSH1 0x0 REVERT JUMPDEST PUSH32 0x45524332303A2064656372656173656420616C6C6F77616E63652062656C6F77 PUSH1 0x0 DUP3 ADD MSTORE PUSH32 0x207A65726F000000000000000000000000000000000000000000000000000000 PUSH1 0x20 DUP3 ADD MSTORE POP JUMP JUMPDEST PUSH1 0x0 PUSH2 0x22B5 PUSH1 0x25 DUP4 PUSH2 0x1B8E JUMP JUMPDEST SWAP2 POP PUSH2 0x22C0 DUP3 PUSH2 0x2259 JUMP JUMPDEST PUSH1 0x40 DUP3 ADD SWAP1 POP SWAP2 SWAP1 POP JUMP JUMPDEST PUSH1 0x0 PUSH1 0x20 DUP3 ADD SWAP1 POP DUP2 DUP2 SUB PUSH1 0x0 DUP4 ADD MSTORE PUSH2 0x22E4 DUP2 PUSH2 0x22A8 JUMP JUMPDEST SWAP1 POP SWAP2 SWAP1 POP JUMP JUMPDEST PUSH32 0x45524332305065726D69743A206578706972656420646561646C696E65000000 PUSH1 0x0 DUP3 ADD MSTORE POP JUMP JUMPDEST PUSH1 0x0 PUSH2 0x2321 PUSH1 0x1D DUP4 PUSH2 0x1B8E JUMP JUMPDEST SWAP2 POP PUSH2 0x232C DUP3 PUSH2 0x22EB JUMP JUMPDEST PUSH1 0x20 DUP3 ADD SWAP1 POP SWAP2 SWAP1 POP JUMP JUMPDEST PUSH1 0x0 PUSH1 0x20 DUP3 ADD SWAP1 POP DUP2 DUP2 SUB PUSH1 0x0 DUP4 ADD MSTORE PUSH2 0x2350 DUP2 PUSH2 0x2314 JUMP JUMPDEST SWAP1 POP SWAP2 SWAP1 POP JUMP JUMPDEST PUSH1 0x0 PUSH1 0xC0 DUP3 ADD SWAP1 POP PUSH2 0x236C PUSH1 0x0 DUP4 ADD DUP10 PUSH2 0x1E02 JUMP JUMPDEST PUSH2 0x2379 PUSH1 0x20 DUP4 ADD DUP9 PUSH2 0x1EC1 JUMP JUMPDEST PUSH2 0x2386 PUSH1 0x40 DUP4 ADD DUP8 PUSH2 0x1EC1 JUMP JUMPDEST PUSH2 0x2393 PUSH1 0x60 DUP4 ADD DUP7 PUSH2 0x1D44 JUMP JUMPDEST PUSH2 0x23A0 PUSH1 0x80 DUP4 ADD DUP6 PUSH2 0x1D44 JUMP JUMPDEST PUSH2 0x23AD PUSH1 0xA0 DUP4 ADD DUP5 PUSH2 0x1D44 JUMP JUMPDEST SWAP8 SWAP7 POP POP POP POP POP POP POP JUMP JUMPDEST PUSH32 0x45524332305065726D69743A20696E76616C6964207369676E61747572650000 PUSH1 0x0 DUP3 ADD MSTORE POP JUMP JUMPDEST PUSH1 0x0 PUSH2 0x23EE PUSH1 0x1E DUP4 PUSH2 0x1B8E JUMP JUMPDEST SWAP2 POP PUSH2 0x23F9 DUP3 PUSH2 0x23B8 JUMP JUMPDEST PUSH1 0x20 DUP3 ADD SWAP1 POP SWAP2 SWAP1 POP JUMP JUMPDEST PUSH1 0x0 PUSH1 0x20 DUP3 ADD SWAP1 POP DUP2 DUP2 SUB PUSH1 0x0 DUP4 ADD MSTORE PUSH2 0x241D DUP2 PUSH2 0x23E1 JUMP JUMPDEST SWAP1 POP SWAP2 SWAP1 POP JUMP JUMPDEST PUSH32 0x4F776E61626C653A206E6577206F776E657220697320746865207A65726F2061 PUSH1 0x0 DUP3 ADD MSTORE PUSH32 0x6464726573730000000000000000000000000000000000000000000000000000 PUSH1 0x20 DUP3 ADD MSTORE POP JUMP JUMPDEST PUSH1 0x0 PUSH2 0x2480 PUSH1 0x26 DUP4 PUSH2 0x1B8E JUMP JUMPDEST SWAP2 POP PUSH2 0x248B DUP3 PUSH2 0x2424 JUMP JUMPDEST PUSH1 0x40 DUP3 ADD SWAP1 POP SWAP2 SWAP1 POP JUMP JUMPDEST PUSH1 0x0 PUSH1 0x20 DUP3 ADD SWAP1 POP DUP2 DUP2 SUB PUSH1 0x0 DUP4 ADD MSTORE PUSH2 0x24AF DUP2 PUSH2 0x2473 JUMP JUMPDEST SWAP1 POP SWAP2 SWAP1 POP JUMP JUMPDEST PUSH1 0x0 DUP2 SWAP1 POP DUP2 PUSH1 0x0 MSTORE PUSH1 0x20 PUSH1 0x0 KECCAK256 SWAP1 POP SWAP2 SWAP1 POP JUMP JUMPDEST PUSH1 0x0 PUSH1 0x20 PUSH1 0x1F DUP4 ADD DIV SWAP1 POP SWAP2 SWAP1 POP JUMP JUMPDEST PUSH1 0x0 DUP3 DUP3 SHL SWAP1 POP SWAP3 SWAP2 POP POP JUMP JUMPDEST PUSH1 0x0 PUSH1 0x8 DUP4 MUL PUSH2 0x2518 PUSH32 0xFFFFFFFFFFFFFFFFFFFFFFFFFFFFFFFFFFFFFFFFFFFFFFFFFFFFFFFFFFFFFFFF DUP3 PUSH2 0x24DB JUMP JUMPDEST PUSH2 0x2522 DUP7 DUP4 PUSH2 0x24DB JUMP JUMPDEST SWAP6 POP DUP1 NOT DUP5 AND SWAP4 POP DUP1 DUP7 AND DUP5 OR SWAP3 POP POP POP SWAP4 SWAP3 POP POP POP JUMP JUMPDEST PUSH1 0x0 DUP2 SWAP1 POP SWAP2 SWAP1 POP JUMP JUMPDEST PUSH1 0x0 PUSH2 0x255F PUSH2 0x255A PUSH2 0x2555 DUP5 PUSH2 0x1C98 JUMP JUMPDEST PUSH2 0x253A JUMP JUMPDEST PUSH2 0x1C98 JUMP JUMPDEST SWAP1 POP SWAP2 SWAP1 POP JUMP JUMPDEST PUSH1 0x0 DUP2 SWAP1 POP SWAP2 SWAP1 POP JUMP JUMPDEST PUSH2 0x2579 DUP4 PUSH2 0x2544 JUMP JUMPDEST PUSH2 0x258D PUSH2 0x2585 DUP3 PUSH2 0x2566 JUMP JUMPDEST DUP5 DUP5 SLOAD PUSH2 0x24E8 JUMP JUMPDEST DUP3 SSTORE POP POP POP POP JUMP JUMPDEST PUSH1 0x0 SWAP1 JUMP JUMPDEST PUSH2 0x25A2 PUSH2 0x2595 JUMP JUMPDEST PUSH2 0x25AD DUP2 DUP5 DUP5 PUSH2 0x2570 JUMP JUMPDEST POP POP POP JUMP JUMPDEST JUMPDEST DUP2 DUP2 LT ISZERO PUSH2 0x25D1 JUMPI PUSH2 0x25C6 PUSH1 0x0 DUP3 PUSH2 0x259A JUMP JUMPDEST PUSH1 0x1 DUP2 ADD SWAP1 POP PUSH2 0x25B3 JUMP JUMPDEST POP POP JUMP JUMPDEST PUSH1 0x1F DUP3 GT ISZERO PUSH2 0x2616 JUMPI PUSH2 0x25E7 DUP2 PUSH2 0x24B6 JUMP JUMPDEST PUSH2 0x25F0 DUP5 PUSH2 0x24CB JUMP JUMPDEST DUP2 ADD PUSH1 0x20 DUP6 LT ISZERO PUSH2 0x25FF JUMPI DUP2 SWAP1 POP JUMPDEST PUSH2 0x2613 PUSH2 0x260B DUP6 PUSH2 0x24CB JUMP JUMPDEST DUP4 ADD DUP3 PUSH2 0x25B2 JUMP JUMPDEST POP POP JUMPDEST POP POP POP JUMP JUMPDEST PUSH1 0x0 DUP3 DUP3 SHR SWAP1 POP SWAP3 SWAP2 POP POP JUMP JUMPDEST PUSH1 0x0 PUSH2 0x2639 PUSH1 0x0 NOT DUP5 PUSH1 0x8 MUL PUSH2 0x261B JUMP JUMPDEST NOT DUP1 DUP4 AND SWAP2 POP POP SWAP3 SWAP2 POP POP JUMP JUMPDEST PUSH1 0x0 PUSH2 0x2652 DUP4 DUP4 PUSH2 0x2628 JUMP JUMPDEST SWAP2 POP DUP3 PUSH1 0x2 MUL DUP3 OR SWAP1 POP SWAP3 SWAP2 POP POP JUMP JUMPDEST PUSH2 0x266B DUP3 PUSH2 0x1B83 JUMP JUMPDEST PUSH8 0xFFFFFFFFFFFFFFFF DUP2 GT ISZERO PUSH2 0x2684 JUMPI PUSH2 0x2683 PUSH2 0x222A JUMP JUMPDEST JUMPDEST PUSH2 0x268E DUP3 SLOAD PUSH2 0x2196 JUMP JUMPDEST PUSH2 0x2699 DUP3 DUP3 DUP6 PUSH2 0x25D5 JUMP JUMPDEST PUSH1 0x0 PUSH1 0x20 SWAP1 POP PUSH1 0x1F DUP4 GT PUSH1 0x1 DUP2 EQ PUSH2 0x26CC JUMPI PUSH1 0x0 DUP5 ISZERO PUSH2 0x26BA JUMPI DUP3 DUP8 ADD MLOAD SWAP1 POP JUMPDEST PUSH2 0x26C4 DUP6 DUP3 PUSH2 0x2646 JUMP JUMPDEST DUP7 SSTORE POP PUSH2 0x272C JUMP JUMPDEST PUSH1 0x1F NOT DUP5 AND PUSH2 0x26DA DUP7 PUSH2 0x24B6 JUMP JUMPDEST PUSH1 0x0 JUMPDEST DUP3 DUP2 LT ISZERO PUSH2 0x2702 JUMPI DUP5 DUP10 ADD MLOAD DUP3 SSTORE PUSH1 0x1 DUP3 ADD SWAP2 POP PUSH1 0x20 DUP6 ADD SWAP5 POP PUSH1 0x20 DUP2 ADD SWAP1 POP PUSH2 0x26DD JUMP JUMPDEST DUP7 DUP4 LT ISZERO PUSH2 0x271F JUMPI DUP5 DUP10 ADD MLOAD PUSH2 0x271B PUSH1 0x1F DUP10 AND DUP3 PUSH2 0x2628 JUMP JUMPDEST DUP4 SSTORE POP JUMPDEST PUSH1 0x1 PUSH1 0x2 DUP9 MUL ADD DUP9 SSTORE POP POP POP JUMPDEST POP POP POP POP POP POP JUMP JUMPDEST PUSH32 0x45524332303A20617070726F76652066726F6D20746865207A65726F20616464 PUSH1 0x0 DUP3 ADD MSTORE PUSH32 0x7265737300000000000000000000000000000000000000000000000000000000 PUSH1 0x20 DUP3 ADD MSTORE POP JUMP JUMPDEST PUSH1 0x0 PUSH2 0x2790 PUSH1 0x24 DUP4 PUSH2 0x1B8E JUMP JUMPDEST SWAP2 POP PUSH2 0x279B DUP3 PUSH2 0x2734 JUMP JUMPDEST PUSH1 0x40 DUP3 ADD SWAP1 POP SWAP2 SWAP1 POP JUMP JUMPDEST PUSH1 0x0 PUSH1 0x20 DUP3 ADD SWAP1 POP DUP2 DUP2 SUB PUSH1 0x0 DUP4 ADD MSTORE PUSH2 0x27BF DUP2 PUSH2 0x2783 JUMP JUMPDEST SWAP1 POP SWAP2 SWAP1 POP JUMP JUMPDEST PUSH32 0x45524332303A20617070726F766520746F20746865207A65726F206164647265 PUSH1 0x0 DUP3 ADD MSTORE PUSH32 0x7373000000000000000000000000000000000000000000000000000000000000 PUSH1 0x20 DUP3 ADD MSTORE POP JUMP JUMPDEST PUSH1 0x0 PUSH2 0x2822 PUSH1 0x22 DUP4 PUSH2 0x1B8E JUMP JUMPDEST SWAP2 POP PUSH2 0x282D DUP3 PUSH2 0x27C6 JUMP JUMPDEST PUSH1 0x40 DUP3 ADD SWAP1 POP SWAP2 SWAP1 POP JUMP JUMPDEST PUSH1 0x0 PUSH1 0x20 DUP3 ADD SWAP1 POP DUP2 DUP2 SUB PUSH1 0x0 DUP4 ADD MSTORE PUSH2 0x2851 DUP2 PUSH2 0x2815 JUMP JUMPDEST SWAP1 POP SWAP2 SWAP1 POP JUMP JUMPDEST PUSH32 0x45524332303A20696E73756666696369656E7420616C6C6F77616E6365000000 PUSH1 0x0 DUP3 ADD MSTORE POP JUMP JUMPDEST PUSH1 0x0 PUSH2 0x288E PUSH1 0x1D DUP4 PUSH2 0x1B8E JUMP JUMPDEST SWAP2 POP PUSH2 0x2899 DUP3 PUSH2 0x2858 JUMP JUMPDEST PUSH1 0x20 DUP3 ADD SWAP1 POP SWAP2 SWAP1 POP JUMP JUMPDEST PUSH1 0x0 PUSH1 0x20 DUP3 ADD SWAP1 POP DUP2 DUP2 SUB PUSH1 0x0 DUP4 ADD MSTORE PUSH2 0x28BD DUP2 PUSH2 0x2881 JUMP JUMPDEST SWAP1 POP SWAP2 SWAP1 POP JUMP JUMPDEST PUSH32 0x45524332303A207472616E736665722066726F6D20746865207A65726F206164 PUSH1 0x0 DUP3 ADD MSTORE PUSH32 0x6472657373000000000000000000000000000000000000000000000000000000 PUSH1 0x20 DUP3 ADD MSTORE POP JUMP JUMPDEST PUSH1 0x0 PUSH2 0x2920 PUSH1 0x25 DUP4 PUSH2 0x1B8E JUMP JUMPDEST SWAP2 POP PUSH2 0x292B DUP3 PUSH2 0x28C4 JUMP JUMPDEST PUSH1 0x40 DUP3 ADD SWAP1 POP SWAP2 SWAP1 POP JUMP JUMPDEST PUSH1 0x0 PUSH1 0x20 DUP3 ADD SWAP1 POP DUP2 DUP2 SUB PUSH1 0x0 DUP4 ADD MSTORE PUSH2 0x294F DUP2 PUSH2 0x2913 JUMP JUMPDEST SWAP1 POP SWAP2 SWAP1 POP JUMP JUMPDEST PUSH32 0x45524332303A207472616E7366657220746F20746865207A65726F2061646472 PUSH1 0x0 DUP3 ADD MSTORE PUSH32 0x6573730000000000000000000000000000000000000000000000000000000000 PUSH1 0x20 DUP3 ADD MSTORE POP JUMP JUMPDEST PUSH1 0x0 PUSH2 0x29B2 PUSH1 0x23 DUP4 PUSH2 0x1B8E JUMP JUMPDEST SWAP2 POP PUSH2 0x29BD DUP3 PUSH2 0x2956 JUMP JUMPDEST PUSH1 0x40 DUP3 ADD SWAP1 POP SWAP2 SWAP1 POP JUMP JUMPDEST PUSH1 0x0 PUSH1 0x20 DUP3 ADD SWAP1 POP DUP2 DUP2 SUB PUSH1 0x0 DUP4 ADD MSTORE PUSH2 0x29E1 DUP2 PUSH2 0x29A5 JUMP JUMPDEST SWAP1 POP SWAP2 SWAP1 POP JUMP JUMPDEST PUSH32 0x45524332303A207472616E7366657220616D6F756E7420657863656564732062 PUSH1 0x0 DUP3 ADD MSTORE PUSH32 0x616C616E63650000000000000000000000000000000000000000000000000000 PUSH1 0x20 DUP3 ADD MSTORE POP JUMP JUMPDEST PUSH1 0x0 PUSH2 0x2A44 PUSH1 0x26 DUP4 PUSH2 0x1B8E JUMP JUMPDEST SWAP2 POP PUSH2 0x2A4F DUP3 PUSH2 0x29E8 JUMP JUMPDEST PUSH1 0x40 DUP3 ADD SWAP1 POP SWAP2 SWAP1 POP JUMP JUMPDEST PUSH1 0x0 PUSH1 0x20 DUP3 ADD SWAP1 POP DUP2 DUP2 SUB PUSH1 0x0 DUP4 ADD MSTORE PUSH2 0x2A73 DUP2 PUSH2 0x2A37 JUMP JUMPDEST SWAP1 POP SWAP2 SWAP1 POP JUMP JUMPDEST PUSH32 0x4F776E61626C653A2063616C6C6572206973206E6F7420746865206F776E6572 PUSH1 0x0 DUP3 ADD MSTORE POP JUMP JUMPDEST PUSH1 0x0 PUSH2 0x2AB0 PUSH1 0x20 DUP4 PUSH2 0x1B8E JUMP JUMPDEST SWAP2 POP PUSH2 0x2ABB DUP3 PUSH2 0x2A7A JUMP JUMPDEST PUSH1 0x20 DUP3 ADD SWAP1 POP SWAP2 SWAP1 POP JUMP JUMPDEST PUSH1 0x0 PUSH1 0x20 DUP3 ADD SWAP1 POP DUP2 DUP2 SUB PUSH1 0x0 DUP4 ADD MSTORE PUSH2 0x2ADF DUP2 PUSH2 0x2AA3 JUMP JUMPDEST SWAP1 POP SWAP2 SWAP1 POP JUMP JUMPDEST PUSH32 0x45524332303A206D696E7420746F20746865207A65726F206164647265737300 PUSH1 0x0 DUP3 ADD MSTORE POP JUMP JUMPDEST PUSH1 0x0 PUSH2 0x2B1C PUSH1 0x1F DUP4 PUSH2 0x1B8E JUMP JUMPDEST SWAP2 POP PUSH2 0x2B27 DUP3 PUSH2 0x2AE6 JUMP JUMPDEST PUSH1 0x20 DUP3 ADD SWAP1 POP SWAP2 SWAP1 POP JUMP JUMPDEST PUSH1 0x0 PUSH1 0x20 DUP3 ADD SWAP1 POP DUP2 DUP2 SUB PUSH1 0x0 DUP4 ADD MSTORE PUSH2 0x2B4B DUP2 PUSH2 0x2B0F JUMP JUMPDEST SWAP1 POP SWAP2 SWAP1 POP JUMP JUMPDEST PUSH32 0x45524332303A206275726E2066726F6D20746865207A65726F20616464726573 PUSH1 0x0 DUP3 ADD MSTORE PUSH32 0x7300000000000000000000000000000000000000000000000000000000000000 PUSH1 0x20 DUP3 ADD MSTORE POP JUMP JUMPDEST PUSH1 0x0 PUSH2 0x2BAE PUSH1 0x21 DUP4 PUSH2 0x1B8E JUMP JUMPDEST SWAP2 POP PUSH2 0x2BB9 DUP3 PUSH2 0x2B52 JUMP JUMPDEST PUSH1 0x40 DUP3 ADD SWAP1 POP SWAP2 SWAP1 POP JUMP JUMPDEST PUSH1 0x0 PUSH1 0x20 DUP3 ADD SWAP1 POP DUP2 DUP2 SUB PUSH1 0x0 DUP4 ADD MSTORE PUSH2 0x2BDD DUP2 PUSH2 0x2BA1 JUMP JUMPDEST SWAP1 POP SWAP2 SWAP1 POP JUMP JUMPDEST PUSH32 0x45524332303A206275726E20616D6F756E7420657863656564732062616C616E PUSH1 0x0 DUP3 ADD MSTORE PUSH32 0x6365000000000000000000000000000000000000000000000000000000000000 PUSH1 0x20 DUP3 ADD MSTORE POP JUMP JUMPDEST PUSH1 0x0 PUSH2 0x2C40 PUSH1 0x22 DUP4 PUSH2 0x1B8E JUMP JUMPDEST SWAP2 POP PUSH2 0x2C4B DUP3 PUSH2 0x2BE4 JUMP JUMPDEST PUSH1 0x40 DUP3 ADD SWAP1 POP SWAP2 SWAP1 POP JUMP JUMPDEST PUSH1 0x0 PUSH1 0x20 DUP3 ADD SWAP1 POP DUP2 DUP2 SUB PUSH1 0x0 DUP4 ADD MSTORE PUSH2 0x2C6F DUP2 PUSH2 0x2C33 JUMP JUMPDEST SWAP1 POP SWAP2 SWAP1 POP JUMP JUMPDEST PUSH1 0x0 DUP2 MLOAD SWAP1 POP SWAP2 SWAP1 POP JUMP JUMPDEST PUSH1 0x0 DUP2 SWAP1 POP PUSH1 0x20 DUP3 ADD SWAP1 POP SWAP2 SWAP1 POP JUMP JUMPDEST PUSH1 0x0 PUSH2 0x2C9D DUP3 MLOAD PUSH2 0x1DF8 JUMP JUMPDEST DUP1 SWAP2 POP POP SWAP2 SWAP1 POP JUMP JUMPDEST PUSH1 0x0 PUSH2 0x2CB1 DUP3 PUSH2 0x2C76 JUMP JUMPDEST DUP3 PUSH2 0x2CBB DUP5 PUSH2 0x2C81 JUMP JUMPDEST SWAP1 POP PUSH2 0x2CC6 DUP2 PUSH2 0x2C91 JUMP JUMPDEST SWAP3 POP PUSH1 0x20 DUP3 LT ISZERO PUSH2 0x2D06 JUMPI PUSH2 0x2D01 PUSH32 0xFFFFFFFFFFFFFFFFFFFFFFFFFFFFFFFFFFFFFFFFFFFFFFFFFFFFFFFFFFFFFFFF DUP4 PUSH1 0x20 SUB PUSH1 0x8 MUL PUSH2 0x24DB JUMP JUMPDEST DUP4 AND SWAP3 POP JUMPDEST POP POP SWAP2 SWAP1 POP JUMP JUMPDEST PUSH1 0x0 PUSH1 0xA0 DUP3 ADD SWAP1 POP PUSH2 0x2D22 PUSH1 0x0 DUP4 ADD DUP9 PUSH2 0x1E02 JUMP JUMPDEST PUSH2 0x2D2F PUSH1 0x20 DUP4 ADD DUP8 PUSH2 0x1E02 JUMP JUMPDEST PUSH2 0x2D3C PUSH1 0x40 DUP4 ADD DUP7 PUSH2 0x1E02 JUMP JUMPDEST PUSH2 0x2D49 PUSH1 0x60 DUP4 ADD DUP6 PUSH2 0x1D44 JUMP JUMPDEST PUSH2 0x2D56 PUSH1 0x80 DUP4 ADD DUP5 PUSH2 0x1EC1 JUMP JUMPDEST SWAP7 SWAP6 POP POP POP POP POP POP JUMP JUMPDEST PUSH1 0x0 PUSH1 0x80 DUP3 ADD SWAP1 POP PUSH2 0x2D75 PUSH1 0x0 DUP4 ADD DUP8 PUSH2 0x1E02 JUMP JUMPDEST PUSH2 0x2D82 PUSH1 0x20 DUP4 ADD DUP7 PUSH2 0x1DCE JUMP JUMPDEST PUSH2 0x2D8F PUSH1 0x40 DUP4 ADD DUP6 PUSH2 0x1E02 JUMP JUMPDEST PUSH2 0x2D9C PUSH1 0x60 DUP4 ADD DUP5 PUSH2 0x1E02 JUMP JUMPDEST SWAP6 SWAP5 POP POP POP POP POP JUMP JUMPDEST PUSH32 0x4E487B7100000000000000000000000000000000000000000000000000000000 PUSH1 0x0 MSTORE PUSH1 0x21 PUSH1 0x4 MSTORE PUSH1 0x24 PUSH1 0x0 REVERT JUMPDEST PUSH32 0x45434453413A20696E76616C6964207369676E61747572650000000000000000 PUSH1 0x0 DUP3 ADD MSTORE POP JUMP JUMPDEST PUSH1 0x0 PUSH2 0x2E0A PUSH1 0x18 DUP4 PUSH2 0x1B8E JUMP JUMPDEST SWAP2 POP PUSH2 0x2E15 DUP3 PUSH2 0x2DD4 JUMP JUMPDEST PUSH1 0x20 DUP3 ADD SWAP1 POP SWAP2 SWAP1 POP JUMP JUMPDEST PUSH1 0x0 PUSH1 0x20 DUP3 ADD SWAP1 POP DUP2 DUP2 SUB PUSH1 0x0 DUP4 ADD MSTORE PUSH2 0x2E39 DUP2 PUSH2 0x2DFD JUMP JUMPDEST SWAP1 POP SWAP2 SWAP1 POP JUMP JUMPDEST PUSH32 0x45434453413A20696E76616C6964207369676E6174757265206C656E67746800 PUSH1 0x0 DUP3 ADD MSTORE POP JUMP JUMPDEST PUSH1 0x0 PUSH2 0x2E76 PUSH1 0x1F DUP4 PUSH2 0x1B8E JUMP JUMPDEST SWAP2 POP PUSH2 0x2E81 DUP3 PUSH2 0x2E40 JUMP JUMPDEST PUSH1 0x20 DUP3 ADD SWAP1 POP SWAP2 SWAP1 POP JUMP JUMPDEST PUSH1 0x0 PUSH1 0x20 DUP3 ADD SWAP1 POP DUP2 DUP2 SUB PUSH1 0x0 DUP4 ADD MSTORE PUSH2 0x2EA5 DUP2 PUSH2 0x2E69 JUMP JUMPDEST SWAP1 POP SWAP2 SWAP1 POP JUMP JUMPDEST PUSH32 0x45434453413A20696E76616C6964207369676E6174757265202773272076616C PUSH1 0x0 DUP3 ADD MSTORE PUSH32 0x7565000000000000000000000000000000000000000000000000000000000000 PUSH1 0x20 DUP3 ADD MSTORE POP JUMP JUMPDEST PUSH1 0x0 PUSH2 0x2F08 PUSH1 0x22 DUP4 PUSH2 0x1B8E JUMP JUMPDEST SWAP2 POP PUSH2 0x2F13 DUP3 PUSH2 0x2EAC JUMP JUMPDEST PUSH1 0x40 DUP3 ADD SWAP1 POP SWAP2 SWAP1 POP JUMP JUMPDEST PUSH1 0x0 PUSH1 0x20 DUP3 ADD SWAP1 POP DUP2 DUP2 SUB PUSH1 0x0 DUP4 ADD MSTORE PUSH2 0x2F37 DUP2 PUSH2 0x2EFB JUMP JUMPDEST SWAP1 POP SWAP2 SWAP1 POP JUMP INVALID LOG2 PUSH5 0x6970667358 0x22 SLT KECCAK256 SWAP12 JUMPDEST STATICCALL PUSH29 0x51F7568C8E08D26A6CAE2B24FF959D5496CE96C226FC38C210F3170D64 PUSH20 0x6F6C63430008110033A264697066735822122022 0xEF 0xF9 0xDD MSTORE8 SGT NUMBER SDIV 0xC3 TIMESTAMP GAS 0xFC JUMP 0xE4 PUSH22 0x1504050535F8637D402545300E5ACF2BF64736F6C63 NUMBER STOP ADDMOD GT STOP CALLER "},"methodIdentifiers":{"DEFAULT_ADMIN_ROLE()":"a217fddf","RELAYER()":"2483e715","burnWrappedToken(string,uint256,address)":"9d5777f9","burnWrappedTokenWithPermit(string,uint256,address,uint256,uint8,bytes32,bytes32)":"d5afd6f6","factory()":"c45a0155","fee()":"ddca3f43","getRoleAdmin(bytes32)":"248a9ca3","grantRole(bytes32,address)":"2f2ff15d","hasRole(bytes32,address)":"91d14854","initiateTransfer(address,address,uint256,uint256)":"99472c33","initiateTransferWithPermit(address,address,uint256,uint256,uint256,uint8,bytes32,bytes32)":"b8539996","mintToken(string,string,address,address,uint256)":"e4f7e720","renounceRole(bytes32,address)":"36568abe","revokeRole(bytes32,address)":"d547741f","setFee(uint256)":"69fe0e2d","supportsInterface(bytes4)":"01ffc9a7","unWrapToken(address,address,uint256)":"c0499d9a","wrappedToNative(address)":"a5e83bcb"}}}}}