{
  "_format": "hh-sol-artifact-1",
  "contractName": "WERC20Factory",
  "sourceName": "contracts/WERC20Factory.sol",
  "abi": [
    {
      "inputs": [],
      "name": "WERC20Factory__AmountCannotBeZoro",
      "type": "error"
    },
    {
      "inputs": [],
      "name": "WERC20Factory__CannotPassZeroAddress",
      "type": "error"
    },
    {
      "inputs": [],
      "name": "WERC20Factory__EmptyName",
      "type": "error"
    },
    {
      "inputs": [],
      "name": "WERC20Factory__EmptySymbol",
      "type": "error"
    },
    {
      "inputs": [
        {
          "internalType": "string",
          "name": "tokenSymbol",
          "type": "string"
        }
      ],
      "name": "WERC20Factory__TokenAlreadyExists",
      "type": "error"
    },
    {
      "inputs": [
        {
          "internalType": "string",
          "name": "tokenSymbol",
          "type": "string"
        }
      ],
      "name": "WERC20Factory__TokenDoesNotExist",
      "type": "error"
    },
    {
      "anonymous": false,
      "inputs": [
        {
          "indexed": true,
          "internalType": "address",
          "name": "werc20",
          "type": "address"
        },
        {
          "indexed": true,
          "internalType": "string",
          "name": "name",
          "type": "string"
        },
        {
          "indexed": true,
          "internalType": "string",
          "name": "symbol",
          "type": "string"
        }
      ],
      "name": "NewWERC20",
      "type": "event"
    },
    {
      "anonymous": false,
      "inputs": [
        {
          "indexed": true,
          "internalType": "address",
          "name": "previousOwner",
          "type": "address"
        },
        {
          "indexed": true,
          "internalType": "address",
          "name": "newOwner",
          "type": "address"
        }
      ],
      "name": "OwnershipTransferred",
      "type": "event"
    },
    {
      "inputs": [
        {
          "internalType": "string",
          "name": "_symbol",
          "type": "string"
        },
        {
          "internalType": "address",
          "name": "_account",
          "type": "address"
        }
      ],
      "name": "balanceOf",
      "outputs": [
        {
          "internalType": "uint256",
          "name": "",
          "type": "uint256"
        }
      ],
      "stateMutability": "view",
      "type": "function"
    },
    {
      "inputs": [
        {
          "internalType": "address",
          "name": "_tokenAddress",
          "type": "address"
        },
        {
          "internalType": "address",
          "name": "_from",
          "type": "address"
        },
        {
          "internalType": "uint256",
          "name": "_amount",
          "type": "uint256"
        }
      ],
      "name": "burn",
      "outputs": [
        {
          "internalType": "bool",
          "name": "",
          "type": "bool"
        }
      ],
      "stateMutability": "nonpayable",
      "type": "function"
    },
    {
      "inputs": [
        {
          "internalType": "address",
          "name": "_tokenAddress",
          "type": "address"
        },
        {
          "internalType": "address",
          "name": "_from",
          "type": "address"
        },
        {
          "internalType": "uint256",
          "name": "_amount",
          "type": "uint256"
        },
        {
          "internalType": "uint256",
          "name": "_deadline",
          "type": "uint256"
        },
        {
          "internalType": "uint8",
          "name": "_v",
          "type": "uint8"
        },
        {
          "internalType": "bytes32",
          "name": "_r",
          "type": "bytes32"
        },
        {
          "internalType": "bytes32",
          "name": "_s",
          "type": "bytes32"
        }
      ],
      "name": "burnWithPermit",
      "outputs": [
        {
          "internalType": "bool",
          "name": "",
          "type": "bool"
        }
      ],
      "stateMutability": "nonpayable",
      "type": "function"
    },
    {
      "inputs": [
        {
          "internalType": "string",
          "name": "_name",
          "type": "string"
        },
        {
          "internalType": "string",
          "name": "_symbol",
          "type": "string"
        }
      ],
      "name": "createWERC20",
      "outputs": [
        {
          "internalType": "address",
          "name": "",
          "type": "address"
        }
      ],
      "stateMutability": "nonpayable",
      "type": "function"
    },
    {
      "inputs": [
        {
          "internalType": "string",
          "name": "_symbol",
          "type": "string"
        }
      ],
      "name": "getWERC20",
      "outputs": [
        {
          "internalType": "address",
          "name": "",
          "type": "address"
        }
      ],
      "stateMutability": "view",
      "type": "function"
    },
    {
      "inputs": [
        {
          "internalType": "string",
          "name": "_symbol",
          "type": "string"
        },
        {
          "internalType": "address",
          "name": "_to",
          "type": "address"
        },
        {
          "internalType": "uint256",
          "name": "_amount",
          "type": "uint256"
        }
      ],
      "name": "mint",
      "outputs": [
        {
          "internalType": "bool",
          "name": "",
          "type": "bool"
        }
      ],
      "stateMutability": "nonpayable",
      "type": "function"
    },
    {
      "inputs": [
        {
          "internalType": "string",
          "name": "_symbol",
          "type": "string"
        }
      ],
      "name": "myBalanceOf",
      "outputs": [
        {
          "internalType": "uint256",
          "name": "",
          "type": "uint256"
        }
      ],
      "stateMutability": "view",
      "type": "function"
    },
    {
      "inputs": [],
      "name": "owner",
      "outputs": [
        {
          "internalType": "address",
          "name": "",
          "type": "address"
        }
      ],
      "stateMutability": "view",
      "type": "function"
    },
    {
      "inputs": [],
      "name": "renounceOwnership",
      "outputs": [],
      "stateMutability": "nonpayable",
      "type": "function"
    },
    {
      "inputs": [
        {
          "internalType": "address",
          "name": "newOwner",
          "type": "address"
        }
      ],
      "name": "transferOwnership",
      "outputs": [],
      "stateMutability": "nonpayable",
      "type": "function"
    },
    {
      "inputs": [
        {
          "internalType": "string",
          "name": "",
          "type": "string"
        }
      ],
      "name": "werc20s",
      "outputs": [
        {
          "internalType": "address",
          "name": "",
          "type": "address"
        }
      ],
      "stateMutability": "view",
      "type": "function"
    }
  ],
  "bytecode": "0x60806040523480156200001157600080fd5b5062000032620000266200003860201b60201c565b6200004060201b60201c565b62000104565b600033905090565b60008060009054906101000a900473ffffffffffffffffffffffffffffffffffffffff169050816000806101000a81548173ffffffffffffffffffffffffffffffffffffffff021916908373ffffffffffffffffffffffffffffffffffffffff1602179055508173ffffffffffffffffffffffffffffffffffffffff168173ffffffffffffffffffffffffffffffffffffffff167f8be0079c531659141344cd1fd0a4f28419497f9722a3daafe3b4186f6b6457e060405160405180910390a35050565b61671e80620001146000396000f3fe60806040523480156200001157600080fd5b5060043610620000ca5760003560e01c8063715018a6116200008d578063d3e2a0ca1162000063578063d3e2a0ca1462000241578063f2fde38b1462000277578063f6b911bc146200029757620000ca565b8063715018a614620001dd5780637e8816b914620001e95780638da5cb5b146200021f57620000ca565b80630403185214620000cf57806318c04bbb14620001055780632dce1f6b146200013b578063518f58c51462000171578063640df64414620001a7575b600080fd5b620000ed6004803603810190620000e79190620024ac565b620002cd565b604051620000fc91906200252d565b60405180910390f35b6200012360048036038101906200011d91906200254a565b62000704565b604051620001329190620025ac565b60405180910390f35b62000159600480360381019062000153919062002673565b620008af565b60405162000168919062002743565b60405180910390f35b6200018f600480360381019062000189919062002760565b62000ddd565b6040516200019e9190620025ac565b60405180910390f35b620001c56004803603810190620001bf91906200254a565b62001340565b604051620001d491906200252d565b60405180910390f35b620001e762001647565b005b620002076004803603810190620002019190620027e5565b6200165f565b60405162000216919062002743565b60405180910390f35b6200022962001bf0565b604051620002389190620025ac565b60405180910390f35b6200025f60048036038101906200025991906200254a565b62001c19565b6040516200026e9190620025ac565b60405180910390f35b6200029560048036038101906200028f919062002860565b62001c62565b005b620002b56004803603810190620002af919062002892565b62001cec565b604051620002c4919062002743565b60405180910390f35b6000620002e567c8090e55db7ce2e360c01b6200216f565b82620002fc67484cc96a2245a49060c01b6200216f565b6200031267347f5d8f66680f4160c01b6200216f565b620003286785a1070c3d56cf2460c01b6200216f565b6040518060200160405280600081525080519060200120818051906020012003620003ab5762000363676b8c4da67bc868d460c01b6200216f565b6200037967e548e7f8e40b1b5a60c01b6200216f565b6040517f9243059c00000000000000000000000000000000000000000000000000000000815260040160405180910390fd5b620003c1674195d9d5beeaab2160c01b6200216f565b620003d767931c12efafc1b4c160c01b6200216f565b620003ed679baaca79c8b3543660c01b6200216f565b6200040367742541b3ea50197b60c01b6200216f565b826200041a675dfb0ba1eb2680ed60c01b6200216f565b62000430672b3c86e0f6e42abc60c01b6200216f565b6200044667cc7e0c257ffe784460c01b6200216f565b600073ffffffffffffffffffffffffffffffffffffffff168173ffffffffffffffffffffffffffffffffffffffff1603620004d9576200049167701688fd2114f61b60c01b6200216f565b620004a767a14c870434005ae860c01b6200216f565b6040517f67cfa16e00000000000000000000000000000000000000000000000000000000815260040160405180910390fd5b620004ef67a1cf429b8dfa64a960c01b6200216f565b62000505674f55603b7080411560c01b6200216f565b6200051b67f6814dcb01c6171160c01b6200216f565b6200053167f1339daee574187960c01b6200216f565b6200054767f783a172fdcfce2060c01b6200216f565b6200055d6723c3465db0a21a0860c01b6200216f565b60006200056a8662000704565b905062000582678854e172e1cc18bd60c01b6200216f565b6200059867661eab8506529cce60c01b6200216f565b600073ffffffffffffffffffffffffffffffffffffffff168173ffffffffffffffffffffffffffffffffffffffff16036200063857620005e36728c2bfe01063d2c960c01b6200216f565b620005f967233489dafddb465660c01b6200216f565b856040517f0a14efa40000000000000000000000000000000000000000000000000000000081526004016200062f919062002977565b60405180910390fd5b6200064e67d15ad2440a2aad1160c01b6200216f565b6200066467f1677c611f0c558960c01b6200216f565b6200067a677bbf2b1ca5219c3b60c01b6200216f565b8073ffffffffffffffffffffffffffffffffffffffff166370a08231866040518263ffffffff1660e01b8152600401620006b59190620025ac565b602060405180830381865afa158015620006d3573d6000803e3d6000fd5b505050506040513d601f19601f82011682018060405250810190620006f99190620029b2565b935050505092915050565b60006200071c67c18af01e7e36e1e160c01b6200216f565b816200073367484cc96a2245a49060c01b6200216f565b6200074967347f5d8f66680f4160c01b6200216f565b6200075f6785a1070c3d56cf2460c01b6200216f565b6040518060200160405280600081525080519060200120818051906020012003620007e2576200079a676b8c4da67bc868d460c01b6200216f565b620007b067e548e7f8e40b1b5a60c01b6200216f565b6040517f9243059c00000000000000000000000000000000000000000000000000000000815260040160405180910390fd5b620007f8674195d9d5beeaab2160c01b6200216f565b6200080e67931c12efafc1b4c160c01b6200216f565b6200082467a3982148d9d3cde560c01b6200216f565b6200083a67d83f1ef77430086960c01b6200216f565b6200085067b18fc8e32fdcabf160c01b6200216f565b620008666768d65048187249fc60c01b6200216f565b60018360405162000878919062002a26565b908152602001604051809103902060009054906101000a900473ffffffffffffffffffffffffffffffffffffffff16915050919050565b6000620008c767c3f0026ce8925d8d60c01b6200216f565b620008d162002172565b620008e7678baf2f321729208760c01b6200216f565b620008fd67da18c7d6bf1a060660c01b6200216f565b8762000914675dfb0ba1eb2680ed60c01b6200216f565b6200092a672b3c86e0f6e42abc60c01b6200216f565b6200094067cc7e0c257ffe784460c01b6200216f565b600073ffffffffffffffffffffffffffffffffffffffff168173ffffffffffffffffffffffffffffffffffffffff1603620009d3576200098b67701688fd2114f61b60c01b6200216f565b620009a167a14c870434005ae860c01b6200216f565b6040517f67cfa16e00000000000000000000000000000000000000000000000000000000815260040160405180910390fd5b620009e967a1cf429b8dfa64a960c01b6200216f565b620009ff674f55603b7080411560c01b6200216f565b62000a156777f1cb5408a54f4060c01b6200216f565b62000a2b6734ca85ab26000acf60c01b6200216f565b8762000a42675dfb0ba1eb2680ed60c01b6200216f565b62000a58672b3c86e0f6e42abc60c01b6200216f565b62000a6e67cc7e0c257ffe784460c01b6200216f565b600073ffffffffffffffffffffffffffffffffffffffff168173ffffffffffffffffffffffffffffffffffffffff160362000b015762000ab967701688fd2114f61b60c01b6200216f565b62000acf67a14c870434005ae860c01b6200216f565b6040517f67cfa16e00000000000000000000000000000000000000000000000000000000815260040160405180910390fd5b62000b1767a1cf429b8dfa64a960c01b6200216f565b62000b2d674f55603b7080411560c01b6200216f565b62000b4367e119ae7540327c4860c01b6200216f565b62000b5967467476778b0bb37160c01b6200216f565b8762000b7067e658cbb9cae323ac60c01b6200216f565b62000b8667fd26a16af225198960c01b6200216f565b62000b9c67b74a0f0e2740cc6e60c01b6200216f565b6000810362000c035762000bbb678290d0aadc2b78a260c01b6200216f565b62000bd16704fecc1cd219780960c01b6200216f565b6040517f2689c50c00000000000000000000000000000000000000000000000000000000815260040160405180910390fd5b62000c19678fda0c490ca343b960c01b6200216f565b62000c2f67ca8d4499040ff82e60c01b6200216f565b62000c4567f819f5251725ba0860c01b6200216f565b62000c5b673f08186e85c3b57060c01b6200216f565b62000c7167d160049e0205333360c01b6200216f565b62000c8767116b2fdf213f29a060c01b6200216f565b8a73ffffffffffffffffffffffffffffffffffffffff1663d505accf8b308c8c8c8c8c6040518863ffffffff1660e01b815260040162000cce979695949392919062002a61565b600060405180830381600087803b15801562000ce957600080fd5b505af115801562000cfe573d6000803e3d6000fd5b5050505062000d18678c31cb3aaf3fba6c60c01b6200216f565b62000d2e67d9a88da1ae544aff60c01b6200216f565b8a73ffffffffffffffffffffffffffffffffffffffff166379cc67908b8b6040518363ffffffff1660e01b815260040162000d6b92919062002ade565b600060405180830381600087803b15801562000d8657600080fd5b505af115801562000d9b573d6000803e3d6000fd5b5050505062000db5673a4718e06d5b782c60c01b6200216f565b62000dcb6731878349d2fe43da60c01b6200216f565b60019350505050979650505050505050565b600062000df567eb3de81cab49e27560c01b6200216f565b62000dff62002172565b62000e15675adead4e77eb459e60c01b6200216f565b62000e2b672c5ca56d1574057e60c01b6200216f565b8162000e4267484cc96a2245a49060c01b6200216f565b62000e5867347f5d8f66680f4160c01b6200216f565b62000e6e6785a1070c3d56cf2460c01b6200216f565b604051806020016040528060008152508051906020012081805190602001200362000ef15762000ea9676b8c4da67bc868d460c01b6200216f565b62000ebf67e548e7f8e40b1b5a60c01b6200216f565b6040517f9243059c00000000000000000000000000000000000000000000000000000000815260040160405180910390fd5b62000f07674195d9d5beeaab2160c01b6200216f565b62000f1d67931c12efafc1b4c160c01b6200216f565b62000f336798c72f5c488b054660c01b6200216f565b62000f49670e7a0b6f4b50afa760c01b6200216f565b8362000f60673a198578e3df94cf60c01b6200216f565b62000f76671febb6b6d9e32d1360c01b6200216f565b62000f8c678d30774638f1980660c01b6200216f565b60405180602001604052806000815250805190602001208180519060200120036200100f5762000fc76764227fe395cf1c1660c01b6200216f565b62000fdd67a0afbc35f52b65c160c01b6200216f565b6040517f5f3f156600000000000000000000000000000000000000000000000000000000815260040160405180910390fd5b6200102567ab38e880dcfe5ac960c01b6200216f565b6200103b677affc1ae9458ce6260c01b6200216f565b62001051674df2611e4836609560c01b6200216f565b62001067670c0dde4a6a9c88d460c01b6200216f565b6200107d67530434f7c0e8f75b60c01b6200216f565b62001093677582f1b16546ed9060c01b6200216f565b600073ffffffffffffffffffffffffffffffffffffffff16600185604051620010bd919062002a26565b908152602001604051809103902060009054906101000a900473ffffffffffffffffffffffffffffffffffffffff1673ffffffffffffffffffffffffffffffffffffffff161462001173576200111e67fa633b49cb38e21560c01b6200216f565b62001134676f0e9c2302a1dcc760c01b6200216f565b836040517f85bc08700000000000000000000000000000000000000000000000000000000081526004016200116a919062002977565b60405180910390fd5b62001189674baf84dd4c79b87e60c01b6200216f565b6200119f67970c49f2d80e209f60c01b6200216f565b620011b56701192fbb440b37e960c01b6200216f565b60008585604051620011c790620022c3565b620011d492919062002b0b565b604051809103906000f080158015620011f1573d6000803e3d6000fd5b5090506200120a67916dc7284d03dabe60c01b6200216f565b806001866040516200121d919062002a26565b908152602001604051809103902060006101000a81548173ffffffffffffffffffffffffffffffffffffffff021916908373ffffffffffffffffffffffffffffffffffffffff1602179055506200127f674a886d7dbd43817c60c01b6200216f565b62001295679f5ba7f2ccf5818960c01b6200216f565b84604051620012a5919062002a26565b604051809103902086604051620012bd919062002a26565b60405180910390208273ffffffffffffffffffffffffffffffffffffffff167ffb30167b90e3d8f2deaf0ebbb65d1849868ebf79c6d25c020b39fa156f61a9a960405160405180910390a46200131e6722f74ce7b19bb8cf60c01b6200216f565b62001334678fe94b8ecae7cc6760c01b6200216f565b80935050505092915050565b600062001358670352f88b55c9f65a60c01b6200216f565b816200136f67484cc96a2245a49060c01b6200216f565b6200138567347f5d8f66680f4160c01b6200216f565b6200139b6785a1070c3d56cf2460c01b6200216f565b60405180602001604052806000815250805190602001208180519060200120036200141e57620013d6676b8c4da67bc868d460c01b6200216f565b620013ec67e548e7f8e40b1b5a60c01b6200216f565b6040517f9243059c00000000000000000000000000000000000000000000000000000000815260040160405180910390fd5b62001434674195d9d5beeaab2160c01b6200216f565b6200144a67931c12efafc1b4c160c01b6200216f565b62001460675d46ac18dcd7e17960c01b6200216f565b62001476671a6dc85f54f0e12960c01b6200216f565b6200148c6701c321176affe9fa60c01b6200216f565b620014a26786f874d49d98901c60c01b6200216f565b6000620014af8462000704565b9050620014c767c7ad190777797be560c01b6200216f565b620014dd67abe3cdd0cf65900d60c01b6200216f565b600073ffffffffffffffffffffffffffffffffffffffff168173ffffffffffffffffffffffffffffffffffffffff16036200157d576200152867812b7636c77adc1b60c01b6200216f565b6200153e674a34ec3f56bbddd760c01b6200216f565b836040517f0a14efa400000000000000000000000000000000000000000000000000000000815260040162001574919062002977565b60405180910390fd5b62001593678d604e4151c7535160c01b6200216f565b620015a9671a7579a2985083c860c01b6200216f565b620015bf670273c838697a4d4760c01b6200216f565b8073ffffffffffffffffffffffffffffffffffffffff166370a08231336040518263ffffffff1660e01b8152600401620015fa9190620025ac565b602060405180830381865afa15801562001618573d6000803e3d6000fd5b505050506040513d601f19601f820116820180604052508101906200163e9190620029b2565b92505050919050565b6200165162002172565b6200165d6000620021f7565b565b60006200167767a09e9dfcf7abd72960c01b6200216f565b6200168162002172565b6200169767e7a1bdaa9329696a60c01b6200216f565b620016ad678ebfe5a4ca02500a60c01b6200216f565b82620016c4675dfb0ba1eb2680ed60c01b6200216f565b620016da672b3c86e0f6e42abc60c01b6200216f565b620016f067cc7e0c257ffe784460c01b6200216f565b600073ffffffffffffffffffffffffffffffffffffffff168173ffffffffffffffffffffffffffffffffffffffff160362001783576200173b67701688fd2114f61b60c01b6200216f565b6200175167a14c870434005ae860c01b6200216f565b6040517f67cfa16e00000000000000000000000000000000000000000000000000000000815260040160405180910390fd5b6200179967a1cf429b8dfa64a960c01b6200216f565b620017af674f55603b7080411560c01b6200216f565b620017c56741e808ff69b37e2560c01b6200216f565b620017db67089f4ed53dfa9bd760c01b6200216f565b84620017f267484cc96a2245a49060c01b6200216f565b6200180867347f5d8f66680f4160c01b6200216f565b6200181e6785a1070c3d56cf2460c01b6200216f565b6040518060200160405280600081525080519060200120818051906020012003620018a15762001859676b8c4da67bc868d460c01b6200216f565b6200186f67e548e7f8e40b1b5a60c01b6200216f565b6040517f9243059c00000000000000000000000000000000000000000000000000000000815260040160405180910390fd5b620018b7674195d9d5beeaab2160c01b6200216f565b620018cd67931c12efafc1b4c160c01b6200216f565b620018e36796c593491c342d7160c01b6200216f565b620018f9674013caebff24044560c01b6200216f565b836200191067e658cbb9cae323ac60c01b6200216f565b6200192667fd26a16af225198960c01b6200216f565b6200193c67b74a0f0e2740cc6e60c01b6200216f565b60008103620019a3576200195b678290d0aadc2b78a260c01b6200216f565b620019716704fecc1cd219780960c01b6200216f565b6040517f2689c50c00000000000000000000000000000000000000000000000000000000815260040160405180910390fd5b620019b9678fda0c490ca343b960c01b6200216f565b620019cf67ca8d4499040ff82e60c01b6200216f565b620019e5679c60b0dd7c7731e060c01b6200216f565b620019fb67d6037629f171cde760c01b6200216f565b62001a11673464ae127e444bee60c01b6200216f565b62001a27673c941039b0893d0e60c01b6200216f565b600062001a348862000704565b905062001a4c67626d361b70fdab7360c01b6200216f565b62001a62675925b04c1a0a79ad60c01b6200216f565b600073ffffffffffffffffffffffffffffffffffffffff168173ffffffffffffffffffffffffffffffffffffffff160362001b025762001aad67267c6e9f953c794760c01b6200216f565b62001ac367697e218933c2468160c01b6200216f565b876040517f0a14efa400000000000000000000000000000000000000000000000000000000815260040162001af9919062002977565b60405180910390fd5b62001b186789e9c9b22145775360c01b6200216f565b62001b2e673e1d7a32ed58687860c01b6200216f565b62001b44676fd48892af51b6b560c01b6200216f565b8073ffffffffffffffffffffffffffffffffffffffff166340c10f1988886040518363ffffffff1660e01b815260040162001b8192919062002ade565b600060405180830381600087803b15801562001b9c57600080fd5b505af115801562001bb1573d6000803e3d6000fd5b5050505062001bcb6714ce0b0b40971a3660c01b6200216f565b62001be1674580b91ad750f9db60c01b6200216f565b60019450505050509392505050565b60008060009054906101000a900473ffffffffffffffffffffffffffffffffffffffff16905090565b6001818051602081018201805184825260208301602085012081835280955050505050506000915054906101000a900473ffffffffffffffffffffffffffffffffffffffff1681565b62001c6c62002172565b600073ffffffffffffffffffffffffffffffffffffffff168173ffffffffffffffffffffffffffffffffffffffff160362001cde576040517f08c379a000000000000000000000000000000000000000000000000000000000815260040162001cd59062002bbc565b60405180910390fd5b62001ce981620021f7565b50565b600062001d0467678d593a300c840560c01b6200216f565b62001d0e62002172565b62001d24676d1d66b97622def760c01b6200216f565b62001d3a67f5f569f309ecad7360c01b6200216f565b8362001d51675dfb0ba1eb2680ed60c01b6200216f565b62001d67672b3c86e0f6e42abc60c01b6200216f565b62001d7d67cc7e0c257ffe784460c01b6200216f565b600073ffffffffffffffffffffffffffffffffffffffff168173ffffffffffffffffffffffffffffffffffffffff160362001e105762001dc867701688fd2114f61b60c01b6200216f565b62001dde67a14c870434005ae860c01b6200216f565b6040517f67cfa16e00000000000000000000000000000000000000000000000000000000815260040160405180910390fd5b62001e2667a1cf429b8dfa64a960c01b6200216f565b62001e3c674f55603b7080411560c01b6200216f565b62001e5267ff0acc14050370f760c01b6200216f565b62001e6867f5bb430a699c7e1260c01b6200216f565b8362001e7f675dfb0ba1eb2680ed60c01b6200216f565b62001e95672b3c86e0f6e42abc60c01b6200216f565b62001eab67cc7e0c257ffe784460c01b6200216f565b600073ffffffffffffffffffffffffffffffffffffffff168173ffffffffffffffffffffffffffffffffffffffff160362001f3e5762001ef667701688fd2114f61b60c01b6200216f565b62001f0c67a14c870434005ae860c01b6200216f565b6040517f67cfa16e00000000000000000000000000000000000000000000000000000000815260040160405180910390fd5b62001f5467a1cf429b8dfa64a960c01b6200216f565b62001f6a674f55603b7080411560c01b6200216f565b62001f80674f87d3bf4771d72560c01b6200216f565b62001f9667d162abf1fa51f8bb60c01b6200216f565b8362001fad67e658cbb9cae323ac60c01b6200216f565b62001fc367fd26a16af225198960c01b6200216f565b62001fd967b74a0f0e2740cc6e60c01b6200216f565b60008103620020405762001ff8678290d0aadc2b78a260c01b6200216f565b6200200e6704fecc1cd219780960c01b6200216f565b6040517f2689c50c00000000000000000000000000000000000000000000000000000000815260040160405180910390fd5b62002056678fda0c490ca343b960c01b6200216f565b6200206c67ca8d4499040ff82e60c01b6200216f565b6200208267fed26a2b648becd860c01b6200216f565b6200209867b69625f070b6825060c01b6200216f565b620020ae67fa4587a9b242e38660c01b6200216f565b620020c46769d478e82f2b75b260c01b6200216f565b8673ffffffffffffffffffffffffffffffffffffffff166379cc679087876040518363ffffffff1660e01b81526004016200210192919062002ade565b600060405180830381600087803b1580156200211c57600080fd5b505af115801562002131573d6000803e3d6000fd5b505050506200214b6702f09c2b93dcdf1b60c01b6200216f565b62002161678eb967825f7afe1860c01b6200216f565b600193505050509392505050565b50565b6200217c620022bb565b73ffffffffffffffffffffffffffffffffffffffff166200219c62001bf0565b73ffffffffffffffffffffffffffffffffffffffff1614620021f5576040517f08c379a0000000000000000000000000000000000000000000000000000000008152600401620021ec9062002c2e565b60405180910390fd5b565b60008060009054906101000a900473ffffffffffffffffffffffffffffffffffffffff169050816000806101000a81548173ffffffffffffffffffffffffffffffffffffffff021916908373ffffffffffffffffffffffffffffffffffffffff1602179055508173ffffffffffffffffffffffffffffffffffffffff168173ffffffffffffffffffffffffffffffffffffffff167f8be0079c531659141344cd1fd0a4f28419497f9722a3daafe3b4186f6b6457e060405160405180910390a35050565b600033905090565b613a988062002c5183390190565b6000604051905090565b600080fd5b600080fd5b600080fd5b600080fd5b6000601f19601f8301169050919050565b7f4e487b7100000000000000000000000000000000000000000000000000000000600052604160045260246000fd5b6200233a82620022ef565b810181811067ffffffffffffffff821117156200235c576200235b62002300565b5b80604052505050565b600062002371620022d1565b90506200237f82826200232f565b919050565b600067ffffffffffffffff821115620023a257620023a162002300565b5b620023ad82620022ef565b9050602081019050919050565b82818337600083830152505050565b6000620023e0620023da8462002384565b62002365565b905082815260208101848484011115620023ff57620023fe620022ea565b5b6200240c848285620023ba565b509392505050565b600082601f8301126200242c576200242b620022e5565b5b81356200243e848260208601620023c9565b91505092915050565b600073ffffffffffffffffffffffffffffffffffffffff82169050919050565b6000620024748262002447565b9050919050565b620024868162002467565b81146200249257600080fd5b50565b600081359050620024a6816200247b565b92915050565b60008060408385031215620024c657620024c5620022db565b5b600083013567ffffffffffffffff811115620024e757620024e6620022e0565b5b620024f58582860162002414565b9250506020620025088582860162002495565b9150509250929050565b6000819050919050565b620025278162002512565b82525050565b60006020820190506200254460008301846200251c565b92915050565b600060208284031215620025635762002562620022db565b5b600082013567ffffffffffffffff811115620025845762002583620022e0565b5b620025928482850162002414565b91505092915050565b620025a68162002467565b82525050565b6000602082019050620025c360008301846200259b565b92915050565b620025d48162002512565b8114620025e057600080fd5b50565b600081359050620025f481620025c9565b92915050565b600060ff82169050919050565b6200261281620025fa565b81146200261e57600080fd5b50565b600081359050620026328162002607565b92915050565b6000819050919050565b6200264d8162002638565b81146200265957600080fd5b50565b6000813590506200266d8162002642565b92915050565b600080600080600080600060e0888a031215620026955762002694620022db565b5b6000620026a58a828b0162002495565b9750506020620026b88a828b0162002495565b9650506040620026cb8a828b01620025e3565b9550506060620026de8a828b01620025e3565b9450506080620026f18a828b0162002621565b93505060a0620027048a828b016200265c565b92505060c0620027178a828b016200265c565b91505092959891949750929550565b60008115159050919050565b6200273d8162002726565b82525050565b60006020820190506200275a600083018462002732565b92915050565b600080604083850312156200277a5762002779620022db565b5b600083013567ffffffffffffffff8111156200279b576200279a620022e0565b5b620027a98582860162002414565b925050602083013567ffffffffffffffff811115620027cd57620027cc620022e0565b5b620027db8582860162002414565b9150509250929050565b600080600060608486031215620028015762002800620022db565b5b600084013567ffffffffffffffff811115620028225762002821620022e0565b5b620028308682870162002414565b9350506020620028438682870162002495565b92505060406200285686828701620025e3565b9150509250925092565b600060208284031215620028795762002878620022db565b5b6000620028898482850162002495565b91505092915050565b600080600060608486031215620028ae57620028ad620022db565b5b6000620028be8682870162002495565b9350506020620028d18682870162002495565b9250506040620028e486828701620025e3565b9150509250925092565b600081519050919050565b600082825260208201905092915050565b60005b838110156200292a5780820151818401526020810190506200290d565b60008484015250505050565b60006200294382620028ee565b6200294f8185620028f9565b9350620029618185602086016200290a565b6200296c81620022ef565b840191505092915050565b6000602082019050818103600083015262002993818462002936565b905092915050565b600081519050620029ac81620025c9565b92915050565b600060208284031215620029cb57620029ca620022db565b5b6000620029db848285016200299b565b91505092915050565b600081905092915050565b6000620029fc82620028ee565b62002a088185620029e4565b935062002a1a8185602086016200290a565b80840191505092915050565b600062002a348284620029ef565b915081905092915050565b62002a4a81620025fa565b82525050565b62002a5b8162002638565b82525050565b600060e08201905062002a78600083018a6200259b565b62002a8760208301896200259b565b62002a9660408301886200251c565b62002aa560608301876200251c565b62002ab4608083018662002a3f565b62002ac360a083018562002a50565b62002ad260c083018462002a50565b98975050505050505050565b600060408201905062002af560008301856200259b565b62002b0460208301846200251c565b9392505050565b6000604082019050818103600083015262002b27818562002936565b9050818103602083015262002b3d818462002936565b90509392505050565b7f4f776e61626c653a206e6577206f776e657220697320746865207a65726f206160008201527f6464726573730000000000000000000000000000000000000000000000000000602082015250565b600062002ba4602683620028f9565b915062002bb18262002b46565b604082019050919050565b6000602082019050818103600083015262002bd78162002b95565b9050919050565b7f4f776e61626c653a2063616c6c6572206973206e6f7420746865206f776e6572600082015250565b600062002c16602083620028f9565b915062002c238262002bde565b602082019050919050565b6000602082019050818103600083015262002c498162002c07565b905091905056fe6101606040523480156200001257600080fd5b5060405162003a9838038062003a9883398181016040528101906200003891906200052c565b81806040518060400160405280600181526020017f310000000000000000000000000000000000000000000000000000000000000081525084848160039081620000839190620007fc565b508060049081620000959190620007fc565b505050620000b8620000ac6200019760201b60201c565b6200019f60201b60201c565b620000d36006836200026560201b62000b751790919060201c565b6101208181525050620000f66007826200026560201b62000b751790919060201c565b6101408181525050818051906020012060e08181525050808051906020012061010081815250504660a0818152505062000135620002c260201b60201c565b608081815250503073ffffffffffffffffffffffffffffffffffffffff1660c08173ffffffffffffffffffffffffffffffffffffffff16815250505050506200018f674e58cd6a8c3f97d860c01b6200031f60201b60201c565b505062000ac9565b600033905090565b6000600560009054906101000a900473ffffffffffffffffffffffffffffffffffffffff16905081600560006101000a81548173ffffffffffffffffffffffffffffffffffffffff021916908373ffffffffffffffffffffffffffffffffffffffff1602179055508173ffffffffffffffffffffffffffffffffffffffff168173ffffffffffffffffffffffffffffffffffffffff167f8be0079c531659141344cd1fd0a4f28419497f9722a3daafe3b4186f6b6457e060405160405180910390a35050565b60006020835110156200028b5762000283836200032260201b60201c565b9050620002bc565b82620002a2836200038f60201b62000bb91760201c565b6000019081620002b39190620007fc565b5060ff60001b90505b92915050565b60007f8b73c3c69bb8fe3d512ecc4cf759cc79239f7b179b0ffacaa9a75d522b39400f60e0516101005146306040516020016200030495949392919062000954565b60405160208183030381529060405280519060200120905090565b50565b600080829050601f815111156200037257826040517f305a27a900000000000000000000000000000000000000000000000000000000815260040162000369919062000a03565b60405180910390fd5b805181620003809062000a59565b60001c1760001b915050919050565b6000819050919050565b6000604051905090565b600080fd5b600080fd5b600080fd5b600080fd5b6000601f19601f8301169050919050565b7f4e487b7100000000000000000000000000000000000000000000000000000000600052604160045260246000fd5b6200040282620003b7565b810181811067ffffffffffffffff82111715620004245762000423620003c8565b5b80604052505050565b60006200043962000399565b9050620004478282620003f7565b919050565b600067ffffffffffffffff8211156200046a5762000469620003c8565b5b6200047582620003b7565b9050602081019050919050565b60005b83811015620004a257808201518184015260208101905062000485565b60008484015250505050565b6000620004c5620004bf846200044c565b6200042d565b905082815260208101848484011115620004e457620004e3620003b2565b5b620004f184828562000482565b509392505050565b600082601f830112620005115762000510620003ad565b5b815162000523848260208601620004ae565b91505092915050565b60008060408385031215620005465762000545620003a3565b5b600083015167ffffffffffffffff811115620005675762000566620003a8565b5b6200057585828601620004f9565b925050602083015167ffffffffffffffff811115620005995762000598620003a8565b5b620005a785828601620004f9565b9150509250929050565b600081519050919050565b7f4e487b7100000000000000000000000000000000000000000000000000000000600052602260045260246000fd5b600060028204905060018216806200060457607f821691505b6020821081036200061a5762000619620005bc565b5b50919050565b60008190508160005260206000209050919050565b60006020601f8301049050919050565b600082821b905092915050565b600060088302620006847fffffffffffffffffffffffffffffffffffffffffffffffffffffffffffffffff8262000645565b62000690868362000645565b95508019841693508086168417925050509392505050565b6000819050919050565b6000819050919050565b6000620006dd620006d7620006d184620006a8565b620006b2565b620006a8565b9050919050565b6000819050919050565b620006f983620006bc565b620007116200070882620006e4565b84845462000652565b825550505050565b600090565b6200072862000719565b62000735818484620006ee565b505050565b5b818110156200075d57620007516000826200071e565b6001810190506200073b565b5050565b601f821115620007ac57620007768162000620565b620007818462000635565b8101602085101562000791578190505b620007a9620007a08562000635565b8301826200073a565b50505b505050565b600082821c905092915050565b6000620007d160001984600802620007b1565b1980831691505092915050565b6000620007ec8383620007be565b9150826002028217905092915050565b6200080782620005b1565b67ffffffffffffffff811115620008235762000822620003c8565b5b6200082f8254620005eb565b6200083c82828562000761565b600060209050601f8311600181146200087457600084156200085f578287015190505b6200086b8582620007de565b865550620008db565b601f198416620008848662000620565b60005b82811015620008ae5784890151825560018201915060208501945060208101905062000887565b86831015620008ce5784890151620008ca601f891682620007be565b8355505b6001600288020188555050505b505050505050565b6000819050919050565b620008f881620008e3565b82525050565b6200090981620006a8565b82525050565b600073ffffffffffffffffffffffffffffffffffffffff82169050919050565b60006200093c826200090f565b9050919050565b6200094e816200092f565b82525050565b600060a0820190506200096b6000830188620008ed565b6200097a6020830187620008ed565b620009896040830186620008ed565b620009986060830185620008fe565b620009a7608083018462000943565b9695505050505050565b600082825260208201905092915050565b6000620009cf82620005b1565b620009db8185620009b1565b9350620009ed81856020860162000482565b620009f881620003b7565b840191505092915050565b6000602082019050818103600083015262000a1f8184620009c2565b905092915050565b600081519050919050565b6000819050602082019050919050565b600062000a508251620008e3565b80915050919050565b600062000a668262000a27565b8262000a728462000a32565b905062000a7f8162000a42565b9250602082101562000ac25762000abd7fffffffffffffffffffffffffffffffffffffffffffffffffffffffffffffffff8360200360080262000645565b831692505b5050919050565b60805160a05160c05160e051610100516101205161014051612f7462000b246000396000610718015260006106e4015260006117d0015260006117af0152600061109a015260006110f0015260006111190152612f746000f3fe608060405234801561001057600080fd5b50600436106101475760003560e01c8063715018a6116100c857806395d89b411161008c578063d505accf11610066578063d505accf146103d2578063dd62ed3e146103ee578063f2fde38b1461041e57610147565b806395d89b4114610354578063a457c2d714610372578063a9059cbb146103a257610147565b8063715018a6146102bc57806379cc6790146102c65780637ecebe00146102e257806384b0196e146103125780638da5cb5b1461033657610147565b80633644e5151161010f5780633644e51514610206578063395093511461022457806340c10f191461025457806342966c681461027057806370a082311461028c57610147565b806306fdde031461014c578063095ea7b31461016a57806318160ddd1461019a57806323b872dd146101b8578063313ce567146101e8575b600080fd5b61015461043a565b6040516101619190611c13565b60405180910390f35b610184600480360381019061017f9190611cce565b6104cc565b6040516101919190611d29565b60405180910390f35b6101a26104ef565b6040516101af9190611d53565b60405180910390f35b6101d260048036038101906101cd9190611d6e565b6104f9565b6040516101df9190611d29565b60405180910390f35b6101f0610528565b6040516101fd9190611ddd565b60405180910390f35b61020e610531565b60405161021b9190611e11565b60405180910390f35b61023e60048036038101906102399190611cce565b610540565b60405161024b9190611d29565b60405180910390f35b61026e60048036038101906102699190611cce565b610577565b005b61028a60048036038101906102859190611e2c565b6105f1565b005b6102a660048036038101906102a19190611e59565b610605565b6040516102b39190611d53565b60405180910390f35b6102c461064d565b005b6102e060048036038101906102db9190611cce565b610661565b005b6102fc60048036038101906102f79190611e59565b610681565b6040516103099190611d53565b60405180910390f35b61031a6106d1565b60405161032d9796959493929190611f8e565b60405180910390f35b61033e6107d3565b60405161034b9190612012565b60405180910390f35b61035c6107fd565b6040516103699190611c13565b60405180910390f35b61038c60048036038101906103879190611cce565b61088f565b6040516103999190611d29565b60405180910390f35b6103bc60048036038101906103b79190611cce565b610906565b6040516103c99190611d29565b60405180910390f35b6103ec60048036038101906103e79190612085565b610929565b005b61040860048036038101906104039190612127565b610a6b565b6040516104159190611d53565b60405180910390f35b61043860048036038101906104339190611e59565b610af2565b005b60606003805461044990612196565b80601f016020809104026020016040519081016040528092919081815260200182805461047590612196565b80156104c25780601f10610497576101008083540402835291602001916104c2565b820191906000526020600020905b8154815290600101906020018083116104a557829003601f168201915b5050505050905090565b6000806104d7610bc3565b90506104e4818585610bcb565b600191505092915050565b6000600254905090565b600080610504610bc3565b9050610511858285610d94565b61051c858585610e20565b60019150509392505050565b60006012905090565b600061053b611096565b905090565b60008061054b610bc3565b905061056c81858561055d8589610a6b565b61056791906121f6565b610bcb565b600191505092915050565b61058b6746f6b21cddd11b7f60c01b61114d565b610593611150565b6105a767b978c3e92b055e8160c01b61114d565b6105bb67d6ea567f55feb56160c01b61114d565b6105cf6770301c9f234b4fda60c01b61114d565b6105e367945534efa047b49b60c01b61114d565b6105ed82826111ce565b5050565b6106026105fc610bc3565b82611324565b50565b60008060008373ffffffffffffffffffffffffffffffffffffffff1673ffffffffffffffffffffffffffffffffffffffff168152602001908152602001600020549050919050565b610655611150565b61065f60006114f1565b565b6106738261066d610bc3565b83610d94565b61067d8282611324565b5050565b60006106ca600860008473ffffffffffffffffffffffffffffffffffffffff1673ffffffffffffffffffffffffffffffffffffffff1681526020019081526020016000206115b7565b9050919050565b60006060806000806000606061071160067f00000000000000000000000000000000000000000000000000000000000000006115c590919063ffffffff16565b61074560077f00000000000000000000000000000000000000000000000000000000000000006115c590919063ffffffff16565b46306000801b600067ffffffffffffffff8111156107665761076561222a565b5b6040519080825280602002602001820160405280156107945781602001602082028036833780820191505090505b507f0f00000000000000000000000000000000000000000000000000000000000000959493929190965096509650965096509650965090919293949596565b6000600560009054906101000a900473ffffffffffffffffffffffffffffffffffffffff16905090565b60606004805461080c90612196565b80601f016020809104026020016040519081016040528092919081815260200182805461083890612196565b80156108855780601f1061085a57610100808354040283529160200191610885565b820191906000526020600020905b81548152906001019060200180831161086857829003601f168201915b5050505050905090565b60008061089a610bc3565b905060006108a88286610a6b565b9050838110156108ed576040517f08c379a00000000000000000000000000000000000000000000000000000000081526004016108e4906122cb565b60405180910390fd5b6108fa8286868403610bcb565b60019250505092915050565b600080610911610bc3565b905061091e818585610e20565b600191505092915050565b8342111561096c576040517f08c379a000000000000000000000000000000000000000000000000000000000815260040161096390612337565b60405180910390fd5b60007f6e71edae12b1b97f4d1f60370fef10105fa2faae0126114a169c64845d6126c988888861099b8c611675565b896040516020016109b196959493929190612357565b60405160208183030381529060405280519060200120905060006109d4826116d3565b905060006109e4828787876116ed565b90508973ffffffffffffffffffffffffffffffffffffffff168173ffffffffffffffffffffffffffffffffffffffff1614610a54576040517f08c379a0000000000000000000000000000000000000000000000000000000008152600401610a4b90612404565b60405180910390fd5b610a5f8a8a8a610bcb565b50505050505050505050565b6000600160008473ffffffffffffffffffffffffffffffffffffffff1673ffffffffffffffffffffffffffffffffffffffff16815260200190815260200160002060008373ffffffffffffffffffffffffffffffffffffffff1673ffffffffffffffffffffffffffffffffffffffff16815260200190815260200160002054905092915050565b610afa611150565b600073ffffffffffffffffffffffffffffffffffffffff168173ffffffffffffffffffffffffffffffffffffffff1603610b69576040517f08c379a0000000000000000000000000000000000000000000000000000000008152600401610b6090612496565b60405180910390fd5b610b72816114f1565b50565b6000602083511015610b9157610b8a83611718565b9050610bb3565b82610b9b83610bb9565b6000019081610baa9190612662565b5060ff60001b90505b92915050565b6000819050919050565b600033905090565b600073ffffffffffffffffffffffffffffffffffffffff168373ffffffffffffffffffffffffffffffffffffffff1603610c3a576040517f08c379a0000000000000000000000000000000000000000000000000000000008152600401610c31906127a6565b60405180910390fd5b600073ffffffffffffffffffffffffffffffffffffffff168273ffffffffffffffffffffffffffffffffffffffff1603610ca9576040517f08c379a0000000000000000000000000000000000000000000000000000000008152600401610ca090612838565b60405180910390fd5b80600160008573ffffffffffffffffffffffffffffffffffffffff1673ffffffffffffffffffffffffffffffffffffffff16815260200190815260200160002060008473ffffffffffffffffffffffffffffffffffffffff1673ffffffffffffffffffffffffffffffffffffffff168152602001908152602001600020819055508173ffffffffffffffffffffffffffffffffffffffff168373ffffffffffffffffffffffffffffffffffffffff167f8c5be1e5ebec7d5bd14f71427d1e84f3dd0314c0f7b2291e5b200ac8c7c3b92583604051610d879190611d53565b60405180910390a3505050565b6000610da08484610a6b565b90507fffffffffffffffffffffffffffffffffffffffffffffffffffffffffffffffff8114610e1a5781811015610e0c576040517f08c379a0000000000000000000000000000000000000000000000000000000008152600401610e03906128a4565b60405180910390fd5b610e198484848403610bcb565b5b50505050565b600073ffffffffffffffffffffffffffffffffffffffff168373ffffffffffffffffffffffffffffffffffffffff1603610e8f576040517f08c379a0000000000000000000000000000000000000000000000000000000008152600401610e8690612936565b60405180910390fd5b600073ffffffffffffffffffffffffffffffffffffffff168273ffffffffffffffffffffffffffffffffffffffff1603610efe576040517f08c379a0000000000000000000000000000000000000000000000000000000008152600401610ef5906129c8565b60405180910390fd5b610f09838383611780565b60008060008573ffffffffffffffffffffffffffffffffffffffff1673ffffffffffffffffffffffffffffffffffffffff16815260200190815260200160002054905081811015610f8f576040517f08c379a0000000000000000000000000000000000000000000000000000000008152600401610f8690612a5a565b60405180910390fd5b8181036000808673ffffffffffffffffffffffffffffffffffffffff1673ffffffffffffffffffffffffffffffffffffffff16815260200190815260200160002081905550816000808573ffffffffffffffffffffffffffffffffffffffff1673ffffffffffffffffffffffffffffffffffffffff168152602001908152602001600020600082825401925050819055508273ffffffffffffffffffffffffffffffffffffffff168473ffffffffffffffffffffffffffffffffffffffff167fddf252ad1be2c89b69c2b068fc378daa952ba7f163c4a11628f55a4df523b3ef8460405161107d9190611d53565b60405180910390a3611090848484611785565b50505050565b60007f000000000000000000000000000000000000000000000000000000000000000073ffffffffffffffffffffffffffffffffffffffff163073ffffffffffffffffffffffffffffffffffffffff1614801561111257507f000000000000000000000000000000000000000000000000000000000000000046145b1561113f577f0000000000000000000000000000000000000000000000000000000000000000905061114a565b61114761178a565b90505b90565b50565b611158610bc3565b73ffffffffffffffffffffffffffffffffffffffff166111766107d3565b73ffffffffffffffffffffffffffffffffffffffff16146111cc576040517f08c379a00000000000000000000000000000000000000000000000000000000081526004016111c390612ac6565b60405180910390fd5b565b600073ffffffffffffffffffffffffffffffffffffffff168273ffffffffffffffffffffffffffffffffffffffff160361123d576040517f08c379a000000000000000000000000000000000000000000000000000000000815260040161123490612b32565b60405180910390fd5b61124960008383611780565b806002600082825461125b91906121f6565b92505081905550806000808473ffffffffffffffffffffffffffffffffffffffff1673ffffffffffffffffffffffffffffffffffffffff168152602001908152602001600020600082825401925050819055508173ffffffffffffffffffffffffffffffffffffffff16600073ffffffffffffffffffffffffffffffffffffffff167fddf252ad1be2c89b69c2b068fc378daa952ba7f163c4a11628f55a4df523b3ef8360405161130c9190611d53565b60405180910390a361132060008383611785565b5050565b600073ffffffffffffffffffffffffffffffffffffffff168273ffffffffffffffffffffffffffffffffffffffff1603611393576040517f08c379a000000000000000000000000000000000000000000000000000000000815260040161138a90612bc4565b60405180910390fd5b61139f82600083611780565b60008060008473ffffffffffffffffffffffffffffffffffffffff1673ffffffffffffffffffffffffffffffffffffffff16815260200190815260200160002054905081811015611425576040517f08c379a000000000000000000000000000000000000000000000000000000000815260040161141c90612c56565b60405180910390fd5b8181036000808573ffffffffffffffffffffffffffffffffffffffff1673ffffffffffffffffffffffffffffffffffffffff1681526020019081526020016000208190555081600260008282540392505081905550600073ffffffffffffffffffffffffffffffffffffffff168373ffffffffffffffffffffffffffffffffffffffff167fddf252ad1be2c89b69c2b068fc378daa952ba7f163c4a11628f55a4df523b3ef846040516114d89190611d53565b60405180910390a36114ec83600084611785565b505050565b6000600560009054906101000a900473ffffffffffffffffffffffffffffffffffffffff16905081600560006101000a81548173ffffffffffffffffffffffffffffffffffffffff021916908373ffffffffffffffffffffffffffffffffffffffff1602179055508173ffffffffffffffffffffffffffffffffffffffff168173ffffffffffffffffffffffffffffffffffffffff167f8be0079c531659141344cd1fd0a4f28419497f9722a3daafe3b4186f6b6457e060405160405180910390a35050565b600081600001549050919050565b606060ff60001b83146115e2576115db83611820565b905061166f565b8180546115ee90612196565b80601f016020809104026020016040519081016040528092919081815260200182805461161a90612196565b80156116675780601f1061163c57610100808354040283529160200191611667565b820191906000526020600020905b81548152906001019060200180831161164a57829003601f168201915b505050505090505b92915050565b600080600860008473ffffffffffffffffffffffffffffffffffffffff1673ffffffffffffffffffffffffffffffffffffffff16815260200190815260200160002090506116c2816115b7565b91506116cd81611894565b50919050565b60006116e66116e0611096565b836118aa565b9050919050565b60008060006116fe878787876118eb565b9150915061170b816119cd565b8192505050949350505050565b600080829050601f8151111561176557826040517f305a27a900000000000000000000000000000000000000000000000000000000815260040161175c9190611c13565b60405180910390fd5b80518161177190612ca6565b60001c1760001b915050919050565b505050565b505050565b60007f8b73c3c69bb8fe3d512ecc4cf759cc79239f7b179b0ffacaa9a75d522b39400f7f00000000000000000000000000000000000000000000000000000000000000007f00000000000000000000000000000000000000000000000000000000000000004630604051602001611805959493929190612d0d565b60405160208183030381529060405280519060200120905090565b6060600061182d83611b33565b90506000602067ffffffffffffffff81111561184c5761184b61222a565b5b6040519080825280601f01601f19166020018201604052801561187e5781602001600182028036833780820191505090505b5090508181528360208201528092505050919050565b6001816000016000828254019250508190555050565b60006040517f190100000000000000000000000000000000000000000000000000000000000081528360028201528260228201526042812091505092915050565b6000807f7fffffffffffffffffffffffffffffff5d576e7357a4501ddfe92f46681b20a08360001c11156119265760006003915091506119c4565b60006001878787876040516000815260200160405260405161194b9493929190612d60565b6020604051602081039080840390855afa15801561196d573d6000803e3d6000fd5b505050602060405103519050600073ffffffffffffffffffffffffffffffffffffffff168173ffffffffffffffffffffffffffffffffffffffff16036119bb576000600192509250506119c4565b80600092509250505b94509492505050565b600060048111156119e1576119e0612da5565b5b8160048111156119f4576119f3612da5565b5b0315611b305760016004811115611a0e57611a0d612da5565b5b816004811115611a2157611a20612da5565b5b03611a61576040517f08c379a0000000000000000000000000000000000000000000000000000000008152600401611a5890612e20565b60405180910390fd5b60026004811115611a7557611a74612da5565b5b816004811115611a8857611a87612da5565b5b03611ac8576040517f08c379a0000000000000000000000000000000000000000000000000000000008152600401611abf90612e8c565b60405180910390fd5b60036004811115611adc57611adb612da5565b5b816004811115611aef57611aee612da5565b5b03611b2f576040517f08c379a0000000000000000000000000000000000000000000000000000000008152600401611b2690612f1e565b60405180910390fd5b5b50565b60008060ff8360001c169050601f811115611b7a576040517fb3512b0c00000000000000000000000000000000000000000000000000000000815260040160405180910390fd5b80915050919050565b600081519050919050565b600082825260208201905092915050565b60005b83811015611bbd578082015181840152602081019050611ba2565b60008484015250505050565b6000601f19601f8301169050919050565b6000611be582611b83565b611bef8185611b8e565b9350611bff818560208601611b9f565b611c0881611bc9565b840191505092915050565b60006020820190508181036000830152611c2d8184611bda565b905092915050565b600080fd5b600073ffffffffffffffffffffffffffffffffffffffff82169050919050565b6000611c6582611c3a565b9050919050565b611c7581611c5a565b8114611c8057600080fd5b50565b600081359050611c9281611c6c565b92915050565b6000819050919050565b611cab81611c98565b8114611cb657600080fd5b50565b600081359050611cc881611ca2565b92915050565b60008060408385031215611ce557611ce4611c35565b5b6000611cf385828601611c83565b9250506020611d0485828601611cb9565b9150509250929050565b60008115159050919050565b611d2381611d0e565b82525050565b6000602082019050611d3e6000830184611d1a565b92915050565b611d4d81611c98565b82525050565b6000602082019050611d686000830184611d44565b92915050565b600080600060608486031215611d8757611d86611c35565b5b6000611d9586828701611c83565b9350506020611da686828701611c83565b9250506040611db786828701611cb9565b9150509250925092565b600060ff82169050919050565b611dd781611dc1565b82525050565b6000602082019050611df26000830184611dce565b92915050565b6000819050919050565b611e0b81611df8565b82525050565b6000602082019050611e266000830184611e02565b92915050565b600060208284031215611e4257611e41611c35565b5b6000611e5084828501611cb9565b91505092915050565b600060208284031215611e6f57611e6e611c35565b5b6000611e7d84828501611c83565b91505092915050565b60007fff0000000000000000000000000000000000000000000000000000000000000082169050919050565b611ebb81611e86565b82525050565b611eca81611c5a565b82525050565b600081519050919050565b600082825260208201905092915050565b6000819050602082019050919050565b611f0581611c98565b82525050565b6000611f178383611efc565b60208301905092915050565b6000602082019050919050565b6000611f3b82611ed0565b611f458185611edb565b9350611f5083611eec565b8060005b83811015611f81578151611f688882611f0b565b9750611f7383611f23565b925050600181019050611f54565b5085935050505092915050565b600060e082019050611fa3600083018a611eb2565b8181036020830152611fb58189611bda565b90508181036040830152611fc98188611bda565b9050611fd86060830187611d44565b611fe56080830186611ec1565b611ff260a0830185611e02565b81810360c08301526120048184611f30565b905098975050505050505050565b60006020820190506120276000830184611ec1565b92915050565b61203681611dc1565b811461204157600080fd5b50565b6000813590506120538161202d565b92915050565b61206281611df8565b811461206d57600080fd5b50565b60008135905061207f81612059565b92915050565b600080600080600080600060e0888a0312156120a4576120a3611c35565b5b60006120b28a828b01611c83565b97505060206120c38a828b01611c83565b96505060406120d48a828b01611cb9565b95505060606120e58a828b01611cb9565b94505060806120f68a828b01612044565b93505060a06121078a828b01612070565b92505060c06121188a828b01612070565b91505092959891949750929550565b6000806040838503121561213e5761213d611c35565b5b600061214c85828601611c83565b925050602061215d85828601611c83565b9150509250929050565b7f4e487b7100000000000000000000000000000000000000000000000000000000600052602260045260246000fd5b600060028204905060018216806121ae57607f821691505b6020821081036121c1576121c0612167565b5b50919050565b7f4e487b7100000000000000000000000000000000000000000000000000000000600052601160045260246000fd5b600061220182611c98565b915061220c83611c98565b9250828201905080821115612224576122236121c7565b5b92915050565b7f4e487b7100000000000000000000000000000000000000000000000000000000600052604160045260246000fd5b7f45524332303a2064656372656173656420616c6c6f77616e63652062656c6f7760008201527f207a65726f000000000000000000000000000000000000000000000000000000602082015250565b60006122b5602583611b8e565b91506122c082612259565b604082019050919050565b600060208201905081810360008301526122e4816122a8565b9050919050565b7f45524332305065726d69743a206578706972656420646561646c696e65000000600082015250565b6000612321601d83611b8e565b915061232c826122eb565b602082019050919050565b6000602082019050818103600083015261235081612314565b9050919050565b600060c08201905061236c6000830189611e02565b6123796020830188611ec1565b6123866040830187611ec1565b6123936060830186611d44565b6123a06080830185611d44565b6123ad60a0830184611d44565b979650505050505050565b7f45524332305065726d69743a20696e76616c6964207369676e61747572650000600082015250565b60006123ee601e83611b8e565b91506123f9826123b8565b602082019050919050565b6000602082019050818103600083015261241d816123e1565b9050919050565b7f4f776e61626c653a206e6577206f776e657220697320746865207a65726f206160008201527f6464726573730000000000000000000000000000000000000000000000000000602082015250565b6000612480602683611b8e565b915061248b82612424565b604082019050919050565b600060208201905081810360008301526124af81612473565b9050919050565b60008190508160005260206000209050919050565b60006020601f8301049050919050565b600082821b905092915050565b6000600883026125187fffffffffffffffffffffffffffffffffffffffffffffffffffffffffffffffff826124db565b61252286836124db565b95508019841693508086168417925050509392505050565b6000819050919050565b600061255f61255a61255584611c98565b61253a565b611c98565b9050919050565b6000819050919050565b61257983612544565b61258d61258582612566565b8484546124e8565b825550505050565b600090565b6125a2612595565b6125ad818484612570565b505050565b5b818110156125d1576125c660008261259a565b6001810190506125b3565b5050565b601f821115612616576125e7816124b6565b6125f0846124cb565b810160208510156125ff578190505b61261361260b856124cb565b8301826125b2565b50505b505050565b600082821c905092915050565b60006126396000198460080261261b565b1980831691505092915050565b60006126528383612628565b9150826002028217905092915050565b61266b82611b83565b67ffffffffffffffff8111156126845761268361222a565b5b61268e8254612196565b6126998282856125d5565b600060209050601f8311600181146126cc57600084156126ba578287015190505b6126c48582612646565b86555061272c565b601f1984166126da866124b6565b60005b82811015612702578489015182556001820191506020850194506020810190506126dd565b8683101561271f578489015161271b601f891682612628565b8355505b6001600288020188555050505b505050505050565b7f45524332303a20617070726f76652066726f6d20746865207a65726f2061646460008201527f7265737300000000000000000000000000000000000000000000000000000000602082015250565b6000612790602483611b8e565b915061279b82612734565b604082019050919050565b600060208201905081810360008301526127bf81612783565b9050919050565b7f45524332303a20617070726f766520746f20746865207a65726f20616464726560008201527f7373000000000000000000000000000000000000000000000000000000000000602082015250565b6000612822602283611b8e565b915061282d826127c6565b604082019050919050565b6000602082019050818103600083015261285181612815565b9050919050565b7f45524332303a20696e73756666696369656e7420616c6c6f77616e6365000000600082015250565b600061288e601d83611b8e565b915061289982612858565b602082019050919050565b600060208201905081810360008301526128bd81612881565b9050919050565b7f45524332303a207472616e736665722066726f6d20746865207a65726f20616460008201527f6472657373000000000000000000000000000000000000000000000000000000602082015250565b6000612920602583611b8e565b915061292b826128c4565b604082019050919050565b6000602082019050818103600083015261294f81612913565b9050919050565b7f45524332303a207472616e7366657220746f20746865207a65726f206164647260008201527f6573730000000000000000000000000000000000000000000000000000000000602082015250565b60006129b2602383611b8e565b91506129bd82612956565b604082019050919050565b600060208201905081810360008301526129e1816129a5565b9050919050565b7f45524332303a207472616e7366657220616d6f756e742065786365656473206260008201527f616c616e63650000000000000000000000000000000000000000000000000000602082015250565b6000612a44602683611b8e565b9150612a4f826129e8565b604082019050919050565b60006020820190508181036000830152612a7381612a37565b9050919050565b7f4f776e61626c653a2063616c6c6572206973206e6f7420746865206f776e6572600082015250565b6000612ab0602083611b8e565b9150612abb82612a7a565b602082019050919050565b60006020820190508181036000830152612adf81612aa3565b9050919050565b7f45524332303a206d696e7420746f20746865207a65726f206164647265737300600082015250565b6000612b1c601f83611b8e565b9150612b2782612ae6565b602082019050919050565b60006020820190508181036000830152612b4b81612b0f565b9050919050565b7f45524332303a206275726e2066726f6d20746865207a65726f2061646472657360008201527f7300000000000000000000000000000000000000000000000000000000000000602082015250565b6000612bae602183611b8e565b9150612bb982612b52565b604082019050919050565b60006020820190508181036000830152612bdd81612ba1565b9050919050565b7f45524332303a206275726e20616d6f756e7420657863656564732062616c616e60008201527f6365000000000000000000000000000000000000000000000000000000000000602082015250565b6000612c40602283611b8e565b9150612c4b82612be4565b604082019050919050565b60006020820190508181036000830152612c6f81612c33565b9050919050565b600081519050919050565b6000819050602082019050919050565b6000612c9d8251611df8565b80915050919050565b6000612cb182612c76565b82612cbb84612c81565b9050612cc681612c91565b92506020821015612d0657612d017fffffffffffffffffffffffffffffffffffffffffffffffffffffffffffffffff836020036008026124db565b831692505b5050919050565b600060a082019050612d226000830188611e02565b612d2f6020830187611e02565b612d3c6040830186611e02565b612d496060830185611d44565b612d566080830184611ec1565b9695505050505050565b6000608082019050612d756000830187611e02565b612d826020830186611dce565b612d8f6040830185611e02565b612d9c6060830184611e02565b95945050505050565b7f4e487b7100000000000000000000000000000000000000000000000000000000600052602160045260246000fd5b7f45434453413a20696e76616c6964207369676e61747572650000000000000000600082015250565b6000612e0a601883611b8e565b9150612e1582612dd4565b602082019050919050565b60006020820190508181036000830152612e3981612dfd565b9050919050565b7f45434453413a20696e76616c6964207369676e6174757265206c656e67746800600082015250565b6000612e76601f83611b8e565b9150612e8182612e40565b602082019050919050565b60006020820190508181036000830152612ea581612e69565b9050919050565b7f45434453413a20696e76616c6964207369676e6174757265202773272076616c60008201527f7565000000000000000000000000000000000000000000000000000000000000602082015250565b6000612f08602283611b8e565b9150612f1382612eac565b604082019050919050565b60006020820190508181036000830152612f3781612efb565b905091905056fea26469706673582212209b5bfa7c51f7568c8e08d26a6cae2b24ff959d5496ce96c226fc38c210f3170d64736f6c63430008110033a264697066735822122022eff9dd53134305c3425afc56e47501504050535f8637d402545300e5acf2bf64736f6c63430008110033",
  "linkReferences": {},
  "deployedLinkReferences": {}
}